{
  "address": "0x1227A9E73233EF9453EFe35b3eeE02B6d0f294D9",
  "abi": [
    {
      "inputs": [
        {
          "internalType": "string",
          "name": "_marketPlaceName",
          "type": "string"
        },
        {
          "internalType": "address",
          "name": "_paymentContract",
          "type": "address"
        },
        {
          "internalType": "address",
          "name": "_stakeContract",
          "type": "address"
        },
        {
          "internalType": "address",
          "name": "_reputationContract",
          "type": "address"
        },
        {
          "internalType": "address",
          "name": "adminWallet",
          "type": "address"
        }
      ],
      "stateMutability": "nonpayable",
      "type": "constructor"
    },
    {
      "anonymous": false,
      "inputs": [
        {
          "indexed": false,
          "internalType": "bytes32",
          "name": "listId",
          "type": "bytes32"
        },
        {
          "indexed": false,
          "internalType": "address",
          "name": "approver",
          "type": "address"
        },
        {
          "indexed": false,
          "internalType": "uint256",
          "name": "timestamp",
          "type": "uint256"
        }
      ],
      "name": "ApproveDeal",
      "type": "event"
    },
    {
      "anonymous": false,
      "inputs": [
        {
          "indexed": false,
          "internalType": "bytes32",
          "name": "bidId",
          "type": "bytes32"
        },
        {
          "indexed": false,
          "internalType": "bytes32",
          "name": "listingId",
          "type": "bytes32"
        },
        {
          "indexed": false,
          "internalType": "address",
          "name": "tokenAddress",
          "type": "address"
        },
        {
          "indexed": false,
          "internalType": "address",
          "name": "bidder",
          "type": "address"
        },
        {
          "indexed": false,
          "internalType": "uint256",
          "name": "tokenId",
          "type": "uint256"
        },
        {
          "indexed": false,
          "internalType": "uint256",
          "name": "bidPrice",
          "type": "uint256"
        },
        {
          "indexed": false,
          "internalType": "uint256",
          "name": "timestamp",
          "type": "uint256"
        }
      ],
      "name": "BidOnAuction",
      "type": "event"
    },
    {
      "anonymous": false,
      "inputs": [
        {
          "indexed": false,
          "internalType": "bytes32",
          "name": "listId",
          "type": "bytes32"
        },
        {
          "indexed": false,
          "internalType": "address",
          "name": "nFTContract",
          "type": "address"
        },
        {
          "indexed": false,
          "internalType": "address",
          "name": "buyer",
          "type": "address"
        },
        {
          "indexed": false,
          "internalType": "uint256",
          "name": "tokenId",
          "type": "uint256"
        },
        {
          "indexed": false,
          "internalType": "uint256",
          "name": "sellingPrice",
          "type": "uint256"
        },
        {
          "indexed": false,
          "internalType": "address",
          "name": "seller",
          "type": "address"
        },
        {
          "indexed": false,
          "internalType": "bool",
          "name": "isAucton",
          "type": "bool"
        },
        {
          "indexed": false,
          "internalType": "address",
          "name": "issuer",
          "type": "address"
        },
        {
          "indexed": false,
          "internalType": "uint256",
          "name": "royaltyAmount",
          "type": "uint256"
        },
        {
          "indexed": false,
          "internalType": "uint256",
          "name": "fees",
          "type": "uint256"
        },
        {
          "indexed": false,
          "internalType": "uint256",
          "name": "netPrice",
          "type": "uint256"
        },
        {
          "indexed": false,
          "internalType": "uint256",
          "name": "timestamp",
          "type": "uint256"
        }
      ],
      "name": "BuyNow",
      "type": "event"
    },
    {
      "anonymous": false,
      "inputs": [
        {
          "indexed": false,
          "internalType": "uint256",
          "name": "duration",
          "type": "uint256"
        }
      ],
      "name": "ChangeDelistAfter",
      "type": "event"
    },
    {
      "anonymous": false,
      "inputs": [
        {
          "indexed": false,
          "internalType": "uint256",
          "name": "newFees",
          "type": "uint256"
        },
        {
          "indexed": false,
          "internalType": "uint256",
          "name": "newBase",
          "type": "uint256"
        }
      ],
      "name": "ChangeFees",
      "type": "event"
    },
    {
      "anonymous": false,
      "inputs": [
        {
          "indexed": false,
          "internalType": "uint256",
          "name": "duration",
          "type": "uint256"
        }
      ],
      "name": "ChangeFulfillDuration",
      "type": "event"
    },
    {
      "anonymous": false,
      "inputs": [
        {
          "indexed": false,
          "internalType": "uint256",
          "name": "newFees",
          "type": "uint256"
        },
        {
          "indexed": false,
          "internalType": "uint256",
          "name": "newBase",
          "type": "uint256"
        }
      ],
      "name": "ChangeListInsuranceAmount",
      "type": "event"
    },
    {
      "anonymous": false,
      "inputs": [
        {
          "indexed": false,
          "internalType": "string",
          "name": "Name",
          "type": "string"
        }
      ],
      "name": "ChangeMarketPlaceName",
      "type": "event"
    },
    {
      "anonymous": false,
      "inputs": [
        {
          "indexed": false,
          "internalType": "address",
          "name": "reputationContract",
          "type": "address"
        }
      ],
      "name": "ChangeReputationContract",
      "type": "event"
    },
    {
      "anonymous": false,
      "inputs": [
        {
          "indexed": false,
          "internalType": "address",
          "name": "utiltiyToken",
          "type": "address"
        }
      ],
      "name": "ChangeUtilityToken",
      "type": "event"
    },
    {
      "anonymous": false,
      "inputs": [
        {
          "indexed": false,
          "internalType": "bytes32",
          "name": "listId",
          "type": "bytes32"
        },
        {
          "indexed": false,
          "internalType": "address",
          "name": "nFTContract",
          "type": "address"
        },
        {
          "indexed": false,
          "internalType": "address",
          "name": "seller",
          "type": "address"
        },
        {
          "indexed": false,
          "internalType": "uint256",
          "name": "tokenId",
          "type": "uint256"
        },
        {
          "indexed": false,
          "internalType": "uint256",
          "name": "listingPrice",
          "type": "uint256"
        },
        {
          "indexed": false,
          "internalType": "bool",
          "name": "isSellForEnabled",
          "type": "bool"
        },
        {
          "indexed": false,
          "internalType": "uint256",
          "name": "sellFor",
          "type": "uint256"
        },
        {
          "indexed": false,
          "internalType": "uint256",
          "name": "releaseTime",
          "type": "uint256"
        },
        {
          "indexed": false,
          "internalType": "uint256",
          "name": "insurancAmount",
          "type": "uint256"
        },
        {
          "indexed": false,
          "internalType": "uint256",
          "name": "timestamp",
          "type": "uint256"
        }
      ],
      "name": "CreateAuction",
      "type": "event"
    },
    {
      "anonymous": false,
      "inputs": [
        {
          "indexed": false,
          "internalType": "bytes32",
          "name": "listId",
          "type": "bytes32"
        },
        {
          "indexed": false,
          "internalType": "address",
          "name": "nFTContract",
          "type": "address"
        },
        {
          "indexed": false,
          "internalType": "address",
          "name": "owner",
          "type": "address"
        },
        {
          "indexed": false,
          "internalType": "uint256",
          "name": "tokenId",
          "type": "uint256"
        },
        {
          "indexed": false,
          "internalType": "uint256",
          "name": "fineFees",
          "type": "uint256"
        },
        {
          "indexed": false,
          "internalType": "uint256",
          "name": "releaseTime",
          "type": "uint256"
        },
        {
          "indexed": false,
          "internalType": "uint256",
          "name": "timestamp",
          "type": "uint256"
        }
      ],
      "name": "DeListOffMarketplace",
      "type": "event"
    },
    {
      "anonymous": false,
      "inputs": [
        {
          "indexed": false,
          "internalType": "bytes32",
          "name": "bidId",
          "type": "bytes32"
        },
        {
          "indexed": false,
          "internalType": "bytes32",
          "name": "listingId",
          "type": "bytes32"
        },
        {
          "indexed": false,
          "internalType": "address",
          "name": "tokenAddress",
          "type": "address"
        },
        {
          "indexed": false,
          "internalType": "address",
          "name": "bidder",
          "type": "address"
        },
        {
          "indexed": false,
          "internalType": "uint256",
          "name": "tokenId",
          "type": "uint256"
        },
        {
          "indexed": false,
          "internalType": "address",
          "name": "seller",
          "type": "address"
        },
        {
          "indexed": false,
          "internalType": "uint256",
          "name": "insurancAmount",
          "type": "uint256"
        },
        {
          "indexed": false,
          "internalType": "uint256",
          "name": "remaining",
          "type": "uint256"
        },
        {
          "indexed": false,
          "internalType": "uint256",
          "name": "finefees",
          "type": "uint256"
        },
        {
          "indexed": false,
          "internalType": "uint256",
          "name": "timestamp",
          "type": "uint256"
        }
      ],
      "name": "DisputeAuction",
      "type": "event"
    },
    {
      "anonymous": false,
      "inputs": [
        {
          "indexed": false,
          "internalType": "bytes32",
          "name": "bidId",
          "type": "bytes32"
        },
        {
          "indexed": false,
          "internalType": "bytes32",
          "name": "listingId",
          "type": "bytes32"
        },
        {
          "indexed": false,
          "internalType": "address",
          "name": "tokenAddress",
          "type": "address"
        },
        {
          "indexed": false,
          "internalType": "address",
          "name": "bidder",
          "type": "address"
        },
        {
          "indexed": false,
          "internalType": "uint256",
          "name": "tokenId",
          "type": "uint256"
        },
        {
          "indexed": false,
          "internalType": "uint256",
          "name": "bidPrice",
          "type": "uint256"
        },
        {
          "indexed": false,
          "internalType": "address",
          "name": "issuer",
          "type": "address"
        },
        {
          "indexed": false,
          "internalType": "uint256",
          "name": "royaltyAmount",
          "type": "uint256"
        },
        {
          "indexed": false,
          "internalType": "uint256",
          "name": "fees",
          "type": "uint256"
        },
        {
          "indexed": false,
          "internalType": "uint256",
          "name": "netPrice",
          "type": "uint256"
        },
        {
          "indexed": false,
          "internalType": "uint256",
          "name": "timestamp",
          "type": "uint256"
        }
      ],
      "name": "FulfillBid",
      "type": "event"
    },
    {
      "anonymous": false,
      "inputs": [
        {
          "indexed": false,
          "internalType": "bytes32",
          "name": "listId",
          "type": "bytes32"
        },
        {
          "indexed": false,
          "internalType": "address",
          "name": "nFTContract",
          "type": "address"
        },
        {
          "indexed": false,
          "internalType": "address",
          "name": "buyer",
          "type": "address"
        },
        {
          "indexed": false,
          "internalType": "uint256",
          "name": "tokenId",
          "type": "uint256"
        },
        {
          "indexed": false,
          "internalType": "uint256",
          "name": "listingPrice",
          "type": "uint256"
        },
        {
          "indexed": false,
          "internalType": "uint256",
          "name": "releaseTime",
          "type": "uint256"
        },
        {
          "indexed": false,
          "internalType": "uint256",
          "name": "insurancAmount",
          "type": "uint256"
        },
        {
          "indexed": false,
          "internalType": "uint256",
          "name": "timestamp",
          "type": "uint256"
        }
      ],
      "name": "ListOnMarketplace",
      "type": "event"
    },
    {
      "anonymous": false,
      "inputs": [
        {
          "indexed": false,
          "internalType": "bytes32",
          "name": "listId",
          "type": "bytes32"
        },
        {
          "indexed": false,
          "internalType": "address",
          "name": "nFTContract",
          "type": "address"
        },
        {
          "indexed": false,
          "internalType": "address",
          "name": "owner",
          "type": "address"
        },
        {
          "indexed": false,
          "internalType": "uint256",
          "name": "tokenId",
          "type": "uint256"
        },
        {
          "indexed": false,
          "internalType": "uint256",
          "name": "fineFees",
          "type": "uint256"
        },
        {
          "indexed": false,
          "internalType": "uint256",
          "name": "releaseTime",
          "type": "uint256"
        },
        {
          "indexed": false,
          "internalType": "uint256",
          "name": "timestamp",
          "type": "uint256"
        }
      ],
      "name": "MigrateEmergency",
      "type": "event"
    },
    {
      "anonymous": false,
      "inputs": [
        {
          "indexed": false,
          "internalType": "address",
          "name": "admin",
          "type": "address"
        },
        {
          "indexed": false,
          "internalType": "address",
          "name": "wallet",
          "type": "address"
        },
        {
          "indexed": false,
          "internalType": "uint256",
          "name": "_delistAfter",
          "type": "uint256"
        },
        {
          "indexed": false,
          "internalType": "uint256",
          "name": "_fee",
          "type": "uint256"
        },
        {
          "indexed": false,
          "internalType": "uint256",
          "name": "_listqualifyPercentage",
          "type": "uint256"
        },
        {
          "indexed": false,
          "internalType": "uint256",
          "name": "_listqualifyPercentageBase",
          "type": "uint256"
        },
        {
          "indexed": false,
          "internalType": "uint256",
          "name": "_feeBase",
          "type": "uint256"
        }
      ],
      "name": "NewOffer",
      "type": "event"
    },
    {
      "anonymous": false,
      "inputs": [
        {
          "indexed": false,
          "internalType": "address",
          "name": "account",
          "type": "address"
        }
      ],
      "name": "Paused",
      "type": "event"
    },
    {
      "anonymous": false,
      "inputs": [
        {
          "indexed": true,
          "internalType": "bytes32",
          "name": "role",
          "type": "bytes32"
        },
        {
          "indexed": true,
          "internalType": "bytes32",
          "name": "previousAdminRole",
          "type": "bytes32"
        },
        {
          "indexed": true,
          "internalType": "bytes32",
          "name": "newAdminRole",
          "type": "bytes32"
        }
      ],
      "name": "RoleAdminChanged",
      "type": "event"
    },
    {
      "anonymous": false,
      "inputs": [
        {
          "indexed": true,
          "internalType": "bytes32",
          "name": "role",
          "type": "bytes32"
        },
        {
          "indexed": true,
          "internalType": "address",
          "name": "account",
          "type": "address"
        },
        {
          "indexed": true,
          "internalType": "address",
          "name": "sender",
          "type": "address"
        }
      ],
      "name": "RoleGranted",
      "type": "event"
    },
    {
      "anonymous": false,
      "inputs": [
        {
          "indexed": true,
          "internalType": "bytes32",
          "name": "role",
          "type": "bytes32"
        },
        {
          "indexed": true,
          "internalType": "address",
          "name": "account",
          "type": "address"
        },
        {
          "indexed": true,
          "internalType": "address",
          "name": "sender",
          "type": "address"
        }
      ],
      "name": "RoleRevoked",
      "type": "event"
    },
    {
      "anonymous": false,
      "inputs": [
        {
          "indexed": false,
          "internalType": "address",
          "name": "account",
          "type": "address"
        }
      ],
      "name": "Unpaused",
      "type": "event"
    },
    {
      "anonymous": false,
      "inputs": [
        {
          "indexed": false,
          "internalType": "address",
          "name": "newWallet",
          "type": "address"
        }
      ],
      "name": "UpdateAdminWallet",
      "type": "event"
    },
    {
      "anonymous": false,
      "inputs": [
        {
          "indexed": false,
          "internalType": "address",
          "name": "user",
          "type": "address"
        },
        {
          "indexed": false,
          "internalType": "uint256",
          "name": "lastReserves",
          "type": "uint256"
        },
        {
          "indexed": false,
          "internalType": "uint256",
          "name": "newReserves",
          "type": "uint256"
        },
        {
          "indexed": false,
          "internalType": "uint256",
          "name": "timestamp",
          "type": "uint256"
        }
      ],
      "name": "UserReservesFree",
      "type": "event"
    },
    {
      "inputs": [],
      "name": "DEFAULT_ADMIN_ROLE",
      "outputs": [
        {
          "internalType": "bytes32",
          "name": "",
          "type": "bytes32"
        }
      ],
      "stateMutability": "view",
      "type": "function"
    },
    {
      "inputs": [],
      "name": "OWNER_ROLE",
      "outputs": [
        {
          "internalType": "bytes32",
          "name": "",
          "type": "bytes32"
        }
      ],
      "stateMutability": "view",
      "type": "function"
    },
    {
      "inputs": [],
      "name": "PRICE_FEEDER_ROLE",
      "outputs": [
        {
          "internalType": "bytes32",
          "name": "",
          "type": "bytes32"
        }
      ],
      "stateMutability": "view",
      "type": "function"
    },
    {
      "inputs": [
        {
          "internalType": "address",
          "name": "wallet",
          "type": "address"
        },
        {
          "internalType": "uint256",
          "name": "_delistAfter",
          "type": "uint256"
        },
        {
          "internalType": "uint256",
          "name": "_fee",
          "type": "uint256"
        },
        {
          "internalType": "uint256",
          "name": "_listqualifyPercentage",
          "type": "uint256"
        },
        {
          "internalType": "uint256",
          "name": "_listqualifyPercentageBase",
          "type": "uint256"
        },
        {
          "internalType": "uint256",
          "name": "feeBase",
          "type": "uint256"
        }
      ],
      "name": "addOffer",
      "outputs": [],
      "stateMutability": "nonpayable",
      "type": "function"
    },
    {
      "inputs": [
        {
          "internalType": "bytes32",
          "name": "listingId",
          "type": "bytes32"
        }
      ],
      "name": "approveDeal",
      "outputs": [],
      "stateMutability": "nonpayable",
      "type": "function"
    },
    {
      "inputs": [
        {
          "internalType": "bytes32",
          "name": "listingId",
          "type": "bytes32"
        },
        {
          "internalType": "uint256",
          "name": "bidPrice",
          "type": "uint256"
        }
      ],
      "name": "bid",
      "outputs": [
        {
          "internalType": "bytes32",
          "name": "bidId",
          "type": "bytes32"
        }
      ],
      "stateMutability": "nonpayable",
      "type": "function"
    },
    {
      "inputs": [
        {
          "internalType": "bytes32",
          "name": "listingId",
          "type": "bytes32"
        }
      ],
      "name": "buyNow",
      "outputs": [
        {
          "internalType": "address",
          "name": "_NFTContract",
          "type": "address"
        },
        {
          "internalType": "uint256",
          "name": "tokenId",
          "type": "uint256"
        }
      ],
      "stateMutability": "nonpayable",
      "type": "function"
    },
    {
      "inputs": [
        {
          "internalType": "bytes32",
          "name": "listingId",
          "type": "bytes32"
        },
        {
          "internalType": "uint256",
          "name": "price",
          "type": "uint256"
        },
        {
          "internalType": "uint256",
          "name": "deadline",
          "type": "uint256"
        },
        {
          "internalType": "uint8",
          "name": "v",
          "type": "uint8"
        },
        {
          "internalType": "bytes32",
          "name": "r",
          "type": "bytes32"
        },
        {
          "internalType": "bytes32",
          "name": "s",
          "type": "bytes32"
        }
      ],
      "name": "buyNowWithPermit",
      "outputs": [],
      "stateMutability": "nonpayable",
      "type": "function"
    },
    {
      "inputs": [
        {
          "internalType": "uint256",
          "name": "duration",
          "type": "uint256"
        }
      ],
      "name": "changeDelistAfter",
      "outputs": [],
      "stateMutability": "nonpayable",
      "type": "function"
    },
    {
      "inputs": [
        {
          "internalType": "uint256",
          "name": "newFees",
          "type": "uint256"
        },
        {
          "internalType": "uint256",
          "name": "newBase",
          "type": "uint256"
        }
      ],
      "name": "changeFees",
      "outputs": [
        {
          "internalType": "uint256",
          "name": "percentage",
          "type": "uint256"
        }
      ],
      "stateMutability": "nonpayable",
      "type": "function"
    },
    {
      "inputs": [
        {
          "internalType": "uint256",
          "name": "duration",
          "type": "uint256"
        }
      ],
      "name": "changeFulfillDuration",
      "outputs": [],
      "stateMutability": "nonpayable",
      "type": "function"
    },
    {
      "inputs": [
        {
          "internalType": "uint256",
          "name": "newFees",
          "type": "uint256"
        },
        {
          "internalType": "uint256",
          "name": "newBase",
          "type": "uint256"
        }
      ],
      "name": "changeListInsuranceAmount",
      "outputs": [
        {
          "internalType": "uint256",
          "name": "percentage",
          "type": "uint256"
        }
      ],
      "stateMutability": "nonpayable",
      "type": "function"
    },
    {
      "inputs": [
        {
          "internalType": "string",
          "name": "_name",
          "type": "string"
        }
      ],
      "name": "changeMarketPlaceName",
      "outputs": [],
      "stateMutability": "nonpayable",
      "type": "function"
    },
    {
      "inputs": [
        {
          "internalType": "address",
          "name": "_reputationContract",
          "type": "address"
        }
      ],
      "name": "changeReputationContract",
      "outputs": [],
      "stateMutability": "nonpayable",
      "type": "function"
    },
    {
      "inputs": [
        {
          "internalType": "address",
          "name": "_token",
          "type": "address"
        }
      ],
      "name": "changeUtilityToken",
      "outputs": [],
      "stateMutability": "nonpayable",
      "type": "function"
    },
    {
      "inputs": [
        {
          "internalType": "address",
          "name": "nFTContract",
          "type": "address"
        },
        {
          "internalType": "uint256",
          "name": "tokenId",
          "type": "uint256"
        },
        {
          "internalType": "uint256",
          "name": "minimumBid",
          "type": "uint256"
        },
        {
          "internalType": "uint256",
          "name": "insurancAmount",
          "type": "uint256"
        },
        {
          "internalType": "bool",
          "name": "isSellForEnabled",
          "type": "bool"
        },
        {
          "internalType": "uint256",
          "name": "sellFor",
          "type": "uint256"
        },
        {
          "internalType": "uint256",
          "name": "duration",
          "type": "uint256"
        }
      ],
      "name": "createAuction",
      "outputs": [
        {
          "internalType": "bytes32",
          "name": "listId",
          "type": "bytes32"
        }
      ],
      "stateMutability": "nonpayable",
      "type": "function"
    },
    {
      "inputs": [
        {
          "internalType": "address",
          "name": "nFTContract",
          "type": "address"
        },
        {
          "internalType": "uint256",
          "name": "tokenId",
          "type": "uint256"
        },
        {
          "internalType": "uint256",
          "name": "listingPrice",
          "type": "uint256"
        },
        {
          "internalType": "uint256",
          "name": "insurancAmount",
          "type": "uint256"
        },
        {
          "internalType": "bool",
          "name": "isSellForEnabled",
          "type": "bool"
        },
        {
          "internalType": "uint256",
          "name": "sellFor",
          "type": "uint256"
        },
        {
          "internalType": "uint256",
          "name": "duration",
          "type": "uint256"
        },
        {
          "internalType": "uint256",
          "name": "deadline",
          "type": "uint256"
        },
        {
          "internalType": "uint8",
          "name": "v",
          "type": "uint8"
        },
        {
          "internalType": "bytes32",
          "name": "r",
          "type": "bytes32"
        },
        {
          "internalType": "bytes32",
          "name": "s",
          "type": "bytes32"
        }
      ],
      "name": "createAuctionWithPermit",
      "outputs": [
        {
          "internalType": "bytes32",
          "name": "listId",
          "type": "bytes32"
        }
      ],
      "stateMutability": "nonpayable",
      "type": "function"
    },
    {
      "inputs": [
        {
          "internalType": "bytes32",
          "name": "listingId",
          "type": "bytes32"
        }
      ],
      "name": "deList",
      "outputs": [
        {
          "internalType": "address",
          "name": "_NFTContract",
          "type": "address"
        },
        {
          "internalType": "uint256",
          "name": "tokenId",
          "type": "uint256"
        }
      ],
      "stateMutability": "nonpayable",
      "type": "function"
    },
    {
      "inputs": [],
      "name": "delistAfter",
      "outputs": [
        {
          "internalType": "uint256",
          "name": "",
          "type": "uint256"
        }
      ],
      "stateMutability": "view",
      "type": "function"
    },
    {
      "inputs": [
        {
          "internalType": "bytes32",
          "name": "listingId",
          "type": "bytes32"
        }
      ],
      "name": "disputeAuction",
      "outputs": [
        {
          "internalType": "address",
          "name": "_NFTContract",
          "type": "address"
        },
        {
          "internalType": "uint256",
          "name": "tokenId",
          "type": "uint256"
        }
      ],
      "stateMutability": "nonpayable",
      "type": "function"
    },
    {
      "inputs": [],
      "name": "freeReserves",
      "outputs": [
        {
          "internalType": "uint256",
          "name": "curentReserves",
          "type": "uint256"
        }
      ],
      "stateMutability": "nonpayable",
      "type": "function"
    },
    {
      "inputs": [
        {
          "internalType": "bytes32",
          "name": "listingId",
          "type": "bytes32"
        }
      ],
      "name": "fulfillBid",
      "outputs": [
        {
          "internalType": "address",
          "name": "_NFTContract",
          "type": "address"
        },
        {
          "internalType": "uint256",
          "name": "tokenId",
          "type": "uint256"
        }
      ],
      "stateMutability": "nonpayable",
      "type": "function"
    },
    {
      "inputs": [
        {
          "internalType": "bytes32",
          "name": "listingId",
          "type": "bytes32"
        },
        {
          "internalType": "uint256",
          "name": "deadline",
          "type": "uint256"
        },
        {
          "internalType": "uint8",
          "name": "v",
          "type": "uint8"
        },
        {
          "internalType": "bytes32",
          "name": "r",
          "type": "bytes32"
        },
        {
          "internalType": "bytes32",
          "name": "s",
          "type": "bytes32"
        }
      ],
      "name": "fulfillBidWithPermit",
      "outputs": [
        {
          "internalType": "address",
          "name": "_NFTContract",
          "type": "address"
        },
        {
          "internalType": "uint256",
          "name": "tokenId",
          "type": "uint256"
        }
      ],
      "stateMutability": "nonpayable",
      "type": "function"
    },
    {
      "inputs": [],
      "name": "fulfillDuration",
      "outputs": [
        {
          "internalType": "uint256",
          "name": "",
          "type": "uint256"
        }
      ],
      "stateMutability": "view",
      "type": "function"
    },
    {
      "inputs": [
        {
          "internalType": "bytes32",
          "name": "listingId",
          "type": "bytes32"
        },
        {
          "internalType": "address",
          "name": "bidder",
          "type": "address"
        }
      ],
      "name": "getAuctionBidDetails",
      "outputs": [
        {
          "internalType": "bytes32",
          "name": "bidId",
          "type": "bytes32"
        },
        {
          "internalType": "address",
          "name": "nFTContract",
          "type": "address"
        },
        {
          "internalType": "uint256",
          "name": "tokenId",
          "type": "uint256"
        },
        {
          "internalType": "uint256",
          "name": "bidPrice",
          "type": "uint256"
        },
        {
          "internalType": "bool",
          "name": "isPurchased",
          "type": "bool"
        }
      ],
      "stateMutability": "view",
      "type": "function"
    },
    {
      "inputs": [
        {
          "internalType": "bytes32",
          "name": "listingId",
          "type": "bytes32"
        }
      ],
      "name": "getListingDetails",
      "outputs": [
        {
          "internalType": "address",
          "name": "tokenAddress",
          "type": "address"
        },
        {
          "internalType": "uint256",
          "name": "tokenId",
          "type": "uint256"
        },
        {
          "internalType": "uint256",
          "name": "listingPrice",
          "type": "uint256"
        },
        {
          "internalType": "uint256",
          "name": "endPrice",
          "type": "uint256"
        },
        {
          "internalType": "address",
          "name": "seller",
          "type": "address"
        },
        {
          "internalType": "address",
          "name": "buyer",
          "type": "address"
        },
        {
          "internalType": "bool",
          "name": "iseBdEnabeled",
          "type": "bool"
        },
        {
          "internalType": "bool",
          "name": "isSellForEnabled",
          "type": "bool"
        },
        {
          "internalType": "uint256",
          "name": "releaseTime",
          "type": "uint256"
        },
        {
          "internalType": "uint256",
          "name": "disputeTime",
          "type": "uint256"
        },
        {
          "internalType": "uint256",
          "name": "insurancAmount",
          "type": "uint256"
        },
        {
          "internalType": "uint256",
          "name": "sellFor",
          "type": "uint256"
        },
        {
          "internalType": "uint256",
          "name": "status",
          "type": "uint256"
        }
      ],
      "stateMutability": "view",
      "type": "function"
    },
    {
      "inputs": [
        {
          "internalType": "address",
          "name": "wallet",
          "type": "address"
        }
      ],
      "name": "getOffer",
      "outputs": [
        {
          "internalType": "uint256",
          "name": "_delistAfter",
          "type": "uint256"
        },
        {
          "internalType": "uint256",
          "name": "_fee",
          "type": "uint256"
        },
        {
          "internalType": "uint256",
          "name": "_listqualifyPercentage",
          "type": "uint256"
        },
        {
          "internalType": "uint256",
          "name": "_listqualifyPercentageBase",
          "type": "uint256"
        },
        {
          "internalType": "uint256",
          "name": "_feeBase",
          "type": "uint256"
        }
      ],
      "stateMutability": "view",
      "type": "function"
    },
    {
      "inputs": [
        {
          "internalType": "bytes32",
          "name": "role",
          "type": "bytes32"
        }
      ],
      "name": "getRoleAdmin",
      "outputs": [
        {
          "internalType": "bytes32",
          "name": "",
          "type": "bytes32"
        }
      ],
      "stateMutability": "view",
      "type": "function"
    },
    {
      "inputs": [
        {
          "internalType": "bytes32",
          "name": "role",
          "type": "bytes32"
        },
        {
          "internalType": "uint256",
          "name": "index",
          "type": "uint256"
        }
      ],
      "name": "getRoleMember",
      "outputs": [
        {
          "internalType": "address",
          "name": "",
          "type": "address"
        }
      ],
      "stateMutability": "view",
      "type": "function"
    },
    {
      "inputs": [
        {
          "internalType": "bytes32",
          "name": "role",
          "type": "bytes32"
        }
      ],
      "name": "getRoleMemberCount",
      "outputs": [
        {
          "internalType": "uint256",
          "name": "",
          "type": "uint256"
        }
      ],
      "stateMutability": "view",
      "type": "function"
    },
    {
      "inputs": [],
      "name": "getServiceFee",
      "outputs": [
        {
          "internalType": "uint256",
          "name": "",
          "type": "uint256"
        }
      ],
      "stateMutability": "view",
      "type": "function"
    },
    {
      "inputs": [
        {
          "internalType": "address",
          "name": "staker",
          "type": "address"
        }
      ],
      "name": "getStakeAllowance",
      "outputs": [
        {
          "internalType": "uint256",
          "name": "",
          "type": "uint256"
        }
      ],
      "stateMutability": "view",
      "type": "function"
    },
    {
      "inputs": [
        {
          "internalType": "address",
          "name": "user",
          "type": "address"
        }
      ],
      "name": "getUserReserved",
      "outputs": [
        {
          "internalType": "uint256",
          "name": "",
          "type": "uint256"
        }
      ],
      "stateMutability": "view",
      "type": "function"
    },
    {
      "inputs": [
        {
          "internalType": "bytes32",
          "name": "role",
          "type": "bytes32"
        },
        {
          "internalType": "address",
          "name": "account",
          "type": "address"
        }
      ],
      "name": "grantRole",
      "outputs": [],
      "stateMutability": "nonpayable",
      "type": "function"
    },
    {
      "inputs": [
        {
          "internalType": "bytes32",
          "name": "role",
          "type": "bytes32"
        },
        {
          "internalType": "address",
          "name": "account",
          "type": "address"
        }
      ],
      "name": "hasRole",
      "outputs": [
        {
          "internalType": "bool",
          "name": "",
          "type": "bool"
        }
      ],
      "stateMutability": "view",
      "type": "function"
    },
    {
      "inputs": [
        {
          "internalType": "bytes32",
          "name": "listingId",
          "type": "bytes32"
        }
      ],
      "name": "isApprovedDeal",
      "outputs": [
        {
          "internalType": "bool",
          "name": "status",
          "type": "bool"
        }
      ],
      "stateMutability": "view",
      "type": "function"
    },
    {
      "inputs": [
        {
          "internalType": "address",
          "name": "nFTContract",
          "type": "address"
        },
        {
          "internalType": "uint256",
          "name": "tokenId",
          "type": "uint256"
        },
        {
          "internalType": "uint256",
          "name": "listingPrice",
          "type": "uint256"
        }
      ],
      "name": "listOnMarketplace",
      "outputs": [
        {
          "internalType": "bytes32",
          "name": "listId",
          "type": "bytes32"
        }
      ],
      "stateMutability": "nonpayable",
      "type": "function"
    },
    {
      "inputs": [
        {
          "internalType": "address",
          "name": "nFTContract",
          "type": "address"
        },
        {
          "internalType": "uint256",
          "name": "tokenId",
          "type": "uint256"
        },
        {
          "internalType": "uint256",
          "name": "listingPrice",
          "type": "uint256"
        },
        {
          "internalType": "uint256",
          "name": "deadline",
          "type": "uint256"
        },
        {
          "internalType": "uint8",
          "name": "v",
          "type": "uint8"
        },
        {
          "internalType": "bytes32",
          "name": "r",
          "type": "bytes32"
        },
        {
          "internalType": "bytes32",
          "name": "s",
          "type": "bytes32"
        }
      ],
      "name": "listOnMarketplaceWithPermit",
      "outputs": [
        {
          "internalType": "bytes32",
          "name": "listId",
          "type": "bytes32"
        }
      ],
      "stateMutability": "nonpayable",
      "type": "function"
    },
    {
      "inputs": [],
      "name": "listqualifyPercentage",
      "outputs": [
        {
          "internalType": "uint256",
          "name": "",
          "type": "uint256"
        }
      ],
      "stateMutability": "view",
      "type": "function"
    },
    {
      "inputs": [],
      "name": "listqualifyPercentageBase",
      "outputs": [
        {
          "internalType": "uint256",
          "name": "",
          "type": "uint256"
        }
      ],
      "stateMutability": "view",
      "type": "function"
    },
    {
      "inputs": [],
      "name": "marketPlaceName",
      "outputs": [
        {
          "internalType": "string",
          "name": "",
          "type": "string"
        }
      ],
      "stateMutability": "view",
      "type": "function"
    },
    {
      "inputs": [
        {
          "internalType": "bytes32",
          "name": "listingId",
          "type": "bytes32"
        }
      ],
      "name": "migrateEmergency",
      "outputs": [
        {
          "internalType": "address",
          "name": "_NFTContract",
          "type": "address"
        },
        {
          "internalType": "uint256",
          "name": "tokenId",
          "type": "uint256"
        }
      ],
      "stateMutability": "nonpayable",
      "type": "function"
    },
    {
      "inputs": [
        {
          "internalType": "address",
          "name": "",
          "type": "address"
        },
        {
          "internalType": "address",
          "name": "",
          "type": "address"
        },
        {
          "internalType": "uint256",
          "name": "",
          "type": "uint256"
        },
        {
          "internalType": "bytes",
          "name": "",
          "type": "bytes"
        }
      ],
      "name": "onERC721Received",
      "outputs": [
        {
          "internalType": "bytes4",
          "name": "",
          "type": "bytes4"
        }
      ],
      "stateMutability": "nonpayable",
      "type": "function"
    },
    {
      "inputs": [],
      "name": "pause",
      "outputs": [],
      "stateMutability": "nonpayable",
      "type": "function"
    },
    {
      "inputs": [],
      "name": "paused",
      "outputs": [
        {
          "internalType": "bool",
          "name": "",
          "type": "bool"
        }
      ],
      "stateMutability": "view",
      "type": "function"
    },
    {
      "inputs": [
        {
          "internalType": "bytes32",
          "name": "role",
          "type": "bytes32"
        },
        {
          "internalType": "address",
          "name": "account",
          "type": "address"
        }
      ],
      "name": "renounceRole",
      "outputs": [],
      "stateMutability": "nonpayable",
      "type": "function"
    },
    {
      "inputs": [
        {
          "internalType": "bytes32",
          "name": "role",
          "type": "bytes32"
        },
        {
          "internalType": "address",
          "name": "account",
          "type": "address"
        }
      ],
      "name": "revokeRole",
      "outputs": [],
      "stateMutability": "nonpayable",
      "type": "function"
    },
    {
      "inputs": [
        {
          "internalType": "uint256",
          "name": "_stfiPrice",
          "type": "uint256"
        }
      ],
      "name": "setPrice",
      "outputs": [],
      "stateMutability": "nonpayable",
      "type": "function"
    },
    {
      "inputs": [
        {
          "internalType": "uint256",
          "name": "_usdCap",
          "type": "uint256"
        }
      ],
      "name": "setUsdCap",
      "outputs": [],
      "stateMutability": "nonpayable",
      "type": "function"
    },
    {
      "inputs": [],
      "name": "stakeContract",
      "outputs": [
        {
          "internalType": "address",
          "name": "",
          "type": "address"
        }
      ],
      "stateMutability": "view",
      "type": "function"
    },
    {
      "inputs": [],
      "name": "stfiCap",
      "outputs": [
        {
          "internalType": "uint256",
          "name": "",
          "type": "uint256"
        }
      ],
      "stateMutability": "view",
      "type": "function"
    },
    {
      "inputs": [],
      "name": "stfiUsdt",
      "outputs": [
        {
          "internalType": "uint256",
          "name": "",
          "type": "uint256"
        }
      ],
      "stateMutability": "view",
      "type": "function"
    },
    {
      "inputs": [
        {
          "internalType": "bytes4",
          "name": "interfaceId",
          "type": "bytes4"
        }
      ],
      "name": "supportsInterface",
      "outputs": [
        {
          "internalType": "bool",
          "name": "",
          "type": "bool"
        }
      ],
      "stateMutability": "view",
      "type": "function"
    },
    {
      "inputs": [],
      "name": "unpause",
      "outputs": [],
      "stateMutability": "nonpayable",
      "type": "function"
    },
    {
      "inputs": [
        {
          "internalType": "address",
          "name": "newWallet",
          "type": "address"
        }
      ],
      "name": "updateAdminWallet",
      "outputs": [],
      "stateMutability": "nonpayable",
      "type": "function"
    },
    {
      "inputs": [],
      "name": "usdCap",
      "outputs": [
        {
          "internalType": "uint256",
          "name": "",
          "type": "uint256"
        }
      ],
      "stateMutability": "view",
      "type": "function"
    },
    {
      "inputs": [
        {
          "internalType": "bytes32",
          "name": "listingId",
          "type": "bytes32"
        }
      ],
      "name": "winnerBid",
      "outputs": [
        {
          "internalType": "bytes32",
          "name": "bidId",
          "type": "bytes32"
        },
        {
          "internalType": "address",
          "name": "bidder",
          "type": "address"
        },
        {
          "internalType": "address",
          "name": "nFTContract",
          "type": "address"
        },
        {
          "internalType": "uint256",
          "name": "tokenId",
          "type": "uint256"
        },
        {
          "internalType": "uint256",
          "name": "bidPrice",
          "type": "uint256"
        },
        {
          "internalType": "bool",
          "name": "isPurchased",
          "type": "bool"
        }
      ],
      "stateMutability": "view",
      "type": "function"
    }
  ],
  "transactionHash": "0x5c01813203b76efd9ceb2de66b433080aebb724927cecfad6f22ecaad31bf972",
  "args": [
    "StartFi Market",
    "0xbAf46Da0aB0c1a144Aa72D677bD5849beD936F11",
    "0x556Dd2b16D9bFB4db6284b2dDB739eBb3482c497",
    "0xffEA8f772D129eF0A0AFd98b4c31814fe8579C09",
    "0x93458421DE0DC7D149A59FF0DaA41AB8C01aCF40"
  ],
  "solcInputHash": "aee37ec5b576732f7c85fdf26fc1c9b9",
  "bytecode": "0x60806040526019600655600a600755600a8055600a600b5562ed4e006011556203f4806012553480156200003257600080fd5b50604051620060453803806200604583398101604081905262000055916200039a565b6002805460ff191690558451819086908690859083908390839082908290859062000088906003906020840190620002d7565b5050600580546001600160a01b039384166001600160a01b0319918216179091556004805492909316911617905550620000c89150600090508562000172565b620000f47fb19546dff01e856fb3f010c267a7b1c60363cf8a4664e21cc89c26224620214e8562000172565b620001207f7d867aa9d791a9a4be418f90a2f248aa2c5f1348317792a6f6412f94df9819f78562000172565b5050601780546001600160a01b039384166001600160a01b0319918216179091556001601855600980549690931695169490941790555050612710600c55505061c350600d55506005600e5562000516565b620001898282620001b560201b620037af1760201c565b6000828152600160209081526040909120620001b0918390620037bd620001c5821b17901c565b505050565b620001c18282620001e5565b5050565b6000620001dc836001600160a01b03841662000285565b90505b92915050565b6000828152602081815260408083206001600160a01b038516845290915290205460ff16620001c1576000828152602081815260408083206001600160a01b03851684529091529020805460ff19166001179055620002413390565b6001600160a01b0316816001600160a01b0316837f2f8788117e7eff1d82e926ec794901d17c78024a50270940304540a733656f0d60405160405180910390a45050565b6000818152600183016020526040812054620002ce57508154600181810184556000848152602080822090930184905584548482528286019093526040902091909155620001df565b506000620001df565b828054620002e590620004c3565b90600052602060002090601f01602090048101928262000309576000855562000354565b82601f106200032457805160ff191683800117855562000354565b8280016001018555821562000354579182015b828111156200035457825182559160200191906001019062000337565b506200036292915062000366565b5090565b5b8082111562000362576000815560010162000367565b80516001600160a01b03811681146200039557600080fd5b919050565b600080600080600060a08688031215620003b357600080fd5b85516001600160401b0380821115620003cb57600080fd5b818801915088601f830112620003e057600080fd5b815181811115620003f557620003f562000500565b604051601f8201601f19908116603f0116810190838211818310171562000420576200042062000500565b81604052828152602093508b848487010111156200043d57600080fd5b600091505b8282101562000461578482018401518183018501529083019062000442565b82821115620004735760008484830101525b9850620004859150508882016200037d565b9550505062000497604087016200037d565b9250620004a7606087016200037d565b9150620004b7608087016200037d565b90509295509295909350565b600181811c90821680620004d857607f821691505b60208210811415620004fa57634e487b7160e01b600052602260045260246000fd5b50919050565b634e487b7160e01b600052604160045260246000fd5b615b1f80620005266000396000f3fe608060405234801561001057600080fd5b50600436106103835760003560e01c8063649ee683116101de578063a01a93b31161010f578063d7ad4931116100ad578063eb75c4101161007c578063eb75c41014610940578063ec77bb8c146109ae578063f28c0716146109c1578063ffd856ad146109d457600080fd5b8063d7ad49311461087b578063e123ff581461088e578063e1a1d7ed146108a1578063e58378bb1461092b57600080fd5b8063c82f2601116100e9578063c82f26011461082f578063ca15c87314610842578063cd772f5c14610855578063d547741f1461086857600080fd5b8063a01a93b314610801578063a217fddf14610814578063b3331bee1461081c57600080fd5b80638456cb591161017c578063913d7ee211610156578063913d7ee2146107b557806391b7f5ed146107c857806391d14854146107db5780639f4d54a3146107ee57600080fd5b80638456cb59146107855780638ef291e91461078d5780639010d07c146107a257600080fd5b80637a59acd2116101b85780637a59acd2146106ab5780637b356561146106be5780637ebed0951461074b57806383ed80631461075e57600080fd5b8063649ee6831461067757806369abe662146106805780636bb59816146106a357600080fd5b8063339b65bf116102b857806356e9d1f3116102565780635c975abb116102305780635c975abb1461063d5780635eec087014610648578063611d45a21461065b5780636298c93a1461066e57600080fd5b806356e9d1f3146105ef5780635add4b11146106215780635bbd49f41461062a57600080fd5b80633f4ba83a116102925780633f4ba83a14610529578063421415cc146105315780634b3ee2bb1461054457806356461e8e146105e657600080fd5b8063339b65bf146104fa57806336568abe1461050d5780633a33ae801461052057600080fd5b80631f78fd0b1161032557806329194964116102ff57806329194964146104b857806329c5cdf3146104cb5780632a6bf14c146104de5780632f2ff15d146104e757600080fd5b80631f78fd0b1461045957806321ecff5b14610482578063248a9ca31461049557600080fd5b8063150b7a0211610361578063150b7a02146103cf5780631a186227146104065780631d984523146104315780631dee84881461044457600080fd5b806301ffc9a7146103885780630a42e75a146103b057806311a1933c146103c7575b600080fd5b61039b6103963660046152f7565b6109e7565b60405190151581526020015b60405180910390f35b6103b960115481565b6040519081526020016103a7565b6006546103b9565b6103ed6103dd366004614f43565b630a85bd0160e11b949350505050565b6040516001600160e01b031990911681526020016103a7565b600954610419906001600160a01b031681565b6040516001600160a01b0390911681526020016103a7565b6103b961043f36600461523d565b610a12565b61045761045236600461525f565b610ac0565b005b6103b9610467366004614f09565b6001600160a01b031660009081526008602052604090205490565b6103b961049036600461523d565b610b2d565b6103b96104a33660046151f4565b60009081526020819052604090206001015490565b6104576104c63660046151f4565b610bc8565b6103b96104d9366004614ff1565b610c08565b6103b960125481565b6104576104f536600461520d565b610ef5565b6104576105083660046151f4565b610f1c565b61045761051b36600461520d565b610fb2565b6103b9600d5481565b610457610fd4565b6103b961053f36600461508e565b611034565b6105ab6105523660046151f4565b60009081526015602090815260408083208054600191820154601485528386206001600160a01b03918216808852955292909420908101546002820154600383015460049093015495969495919093169360ff90911690565b604080519687526001600160a01b039586166020880152939094169285019290925260608401526080830152151560a082015260c0016103a7565b6103b9600b5481565b6106026105fd3660046151f4565b6110a4565b604080516001600160a01b0390931683526020830191909152016103a7565b6103b9600e5481565b6103b9610638366004615026565b61143b565b60025460ff1661039b565b610457610656366004614f09565b61173d565b6106026106693660046151f4565b61183f565b6103b9600c5481565b6103b9600a5481565b61039b61068e3660046151f4565b6000908152600f602052604090205460ff1690565b6103b9611acc565b6103b96106b9366004614f09565b611e24565b6106d16106cc3660046151f4565b611ecb565b604080516001600160a01b039e8f168152602081019d909d528c019a909a5260608b0198909852958a1660808a01529890931660a088015290151560c0870152151560e08601526101008501526101208401949094526101408301939093526101608201929092526101808101919091526101a0016103a7565b610457610759366004614f09565b611f6c565b6103b97f7d867aa9d791a9a4be418f90a2f248aa2c5f1348317792a6f6412f94df9819f781565b610457612016565b610795612075565b6040516103a791906154d2565b6104196107b036600461523d565b612107565b6104576107c3366004615321565b61211f565b6104576107d63660046151f4565b6121ad565b61039b6107e936600461520d565b61220b565b6104576107fc366004615126565b612234565b61060261080f3660046151f4565b612305565b6103b9600081565b6103b961082a366004615172565b6126bc565b61045761083d3660046151f4565b612724565b6103b96108503660046151f4565b6127f4565b6103b961086336600461523d565b61280b565b61045761087636600461520d565b612cd5565b6106026108893660046151f4565b612cdf565b61060261089c3660046151f4565b6130da565b6108f96108af36600461520d565b60009182526014602090815260408084206001600160a01b039384168552909152909120805460018201546002830154600384015460049094015492959190941693929160ff1690565b604080519586526001600160a01b0390941660208601529284019190915260608301521515608082015260a0016103a7565b6103b9600080516020615aca83398151915281565b61098661094e366004614f09565b6001600160a01b0316600090815260106020526040902080546001820154600283015460038401546004909401549294919390929091565b604080519586526020860194909452928401919091526060830152608082015260a0016103a7565b6106026109bc3660046152b0565b6134ae565b6104576109cf3660046151f4565b61353d565b6104576109e2366004614f09565b613705565b60006001600160e01b03198216635a05180f60e01b1480610a0c5750610a0c826137d2565b92915050565b6000610a2c600080516020615aca8339815191523361220b565b610a515760405162461bcd60e51b8152600401610a48906155df565b60405180910390fd5b60025460ff16610a735760405162461bcd60e51b8152600401610a4890615505565b610a7d8383613807565b60408051858152602081018590529192507f4aed3beccf37ae9977a9fce4ed1771b1a6ee2f1c290134080bf2264d58f6e2ca91015b60405180910390a192915050565b610ace33868686868661388d565b610b1a5760405162461bcd60e51b815260206004820152601a60248201527f537461727446693a20496e76616c6964207369676e61747572650000000000006044820152606401610a48565b610b2386612cdf565b5050505050505050565b6000610b47600080516020615aca8339815191523361220b565b610b635760405162461bcd60e51b8152600401610a48906155df565b60025460ff16610b855760405162461bcd60e51b8152600401610a4890615505565b610b8f8383613909565b60408051858152602081018590529192507f0dba25723c12d14a525942a1f517d05faa831a99752d9e8273a56eb021106b7e9101610ab2565b610be0600080516020615aca8339815191523361220b565b610bfc5760405162461bcd60e51b8152600401610a489061573e565b610c058161398f565b50565b6000610c1660025460ff1690565b15610c335760405162461bcd60e51b8152600401610a4890615666565b8160008111610c805760405162461bcd60e51b815260206004820152601960248201527816995c9bc815985b1d59481a5cc81b9bdd08185b1b1bddd959603a1b6044820152606401610a48565b33600090815260106020526040812060010154819015610ce55733600090815260106020526040902054610cb59042906139fe565b3360009081526010602052604090206002810154600390910154919350610cde91879190613a0a565b9050610d05565b610cf1426011546139fe565b9150610d0285600a54600b54613a0a565b90505b86863384604051602001610d1c9493929190615383565b604051602081830303815290604052805190602001209350600e54811015610d435750600e545b80610d4d33611e24565b1015610d915760405162461bcd60e51b81526020600482015260136024820152724e6f7420656e6f75676820726573657276657360681b6044820152606401610a48565b610d9b8787613a33565b610db75760405162461bcd60e51b8152600401610a48906156ed565b610dc333826001613ac4565b50336000818152601660209081526040822080546001810182558184529183209091018790559190528054610dfb9082908190614d8b565b50610e0b8589338a8a8789613b3c565b610e505760405162461bcd60e51b8152602060048201526016602482015275436f756c646e2774206c69737420746865206974656d60501b6044820152606401610a48565b604080518681526001600160a01b038a1660208201523381830152606081018990526080810188905260a0810185905260c081018490524260e082015290517f4273eae081fe1625584d9ab2b9e558adb9b60b846999d5b07de6e4664464767c918190036101000190a1610ece338989306000806000806000613ced565b610eea5760405162461bcd60e51b8152600401610a48906157ef565b505050509392505050565b610eff8282613efb565b6000828152600160205260409020610f1790826137bd565b505050565b610f34600080516020615aca8339815191523361220b565b610f505760405162461bcd60e51b8152600401610a48906155df565b60025460ff16610f725760405162461bcd60e51b8152600401610a4890615505565b610f7b81601155565b6040518181527f69b45e465aa12475324a7df679ad9a34fa75bf5ad7daae0ad177b7071f02e82c906020015b60405180910390a150565b610fbc8282613f21565b6000828152600160205260409020610f179082613f9b565b610fec600080516020615aca8339815191523361220b565b6110085760405162461bcd60e51b8152600401610a48906155df565b60025460ff1661102a5760405162461bcd60e51b8152600401610a4890615505565b611032613fb0565b565b60006110458c338d8888888861401c565b6110855760405162461bcd60e51b8152602060048201526011602482015270696e76616c6964207369676e617475726560781b6044820152606401610a48565b6110948c8c8c8c8c8c8c61143b565b9c9b505050505050505050505050565b6000806110b360025460ff1690565b156110d05760405162461bcd60e51b8152600401610a4890615666565b50506000818152601360205260409020600a81015460058201546004830154835460068501546001909501546001600160a01b0391821695909460ff16938216929091169061111c3390565b6001600160a01b0316826001600160a01b0316146111765760405162461bcd60e51b815260206004820152601760248201527621b0b63632b91034b9903737ba103a34329037bbb732b960491b6044820152606401610a48565b6001600160a01b038316156111c45760405162461bcd60e51b815260206004820152601460248201527320b63932b0b23c903137bab3b43a103a37b5b2b760611b6044820152606401610a48565b60006111d3826203f4806139fe565b905060018560038111156111e9576111e9615a4e565b14806112065750600285600381111561120457611204615a4e565b145b6112525760405162461bcd60e51b815260206004820181905260248201527f416c726561647920626f75676874206f722063616e63656c656420746f6b656e6044820152606401610a48565b4281111580156112735750600285600381111561127157611271615a4e565b145b8061128f5750600185600381111561128d5761128d615a4e565b145b6112ca5760405162461bcd60e51b815260206004820152600c60248201526b10d85b89dd0819195b1a5cdd60a21b6044820152606401610a48565b60028560038111156112de576112de615a4e565b1461139f5742821115611363576017546000898152601360205260409020600801546113179185916001600160a01b03909116906140c5565b6113635760405162461bcd60e51b815260206004820152601860248201527f636f756c646e277420646564756374207468652066696e6500000000000000006044820152606401610a48565b60006113813360008b81526013602052604081206008015490613ac4565b101561139f5760405162461bcd60e51b8152600401610a489061562f565b6113ac886000600361414c565b600088815260136020526040908190206008015490517fb66abb68cd47f566bc0a9af35834fa4635bf062862fc0f661e6f656b369edd68916113f9918b918b9188918c9189904290615496565b60405180910390a1611415308888866000806000806000613ced565b6114315760405162461bcd60e51b8152600401610a48906157ef565b5050505050915091565b600061144960025460ff1690565b156114665760405162461bcd60e51b8152600401610a4890615666565b85600081116114b35760405162461bcd60e51b815260206004820152601960248201527816995c9bc815985b1d59481a5cc81b9bdd08185b1b1bddd959603a1b6044820152606401610a48565b61a8c0831161151a5760405162461bcd60e51b815260206004820152602d60248201527f41756374696f6e2073686f756c64206265206c69766520666f72206d6f72652060448201526c7468616e20313220686f75727360981b6064820152608401610a48565b600e5486101561156c5760405162461bcd60e51b815260206004820152601e60248201527f496e76616c69642041756374696f6e207175616c69667920416d6f756e7400006044820152606401610a48565b600061157842856139fe565b9050898933836040516020016115919493929190615383565b604051602081830303815290604052805190602001209250851561160457878510156115ff5760405162461bcd60e51b815260206004820152601960248201527f5a65726f207072696365206973206e6f7420616c6c6f776564000000000000006044820152606401610a48565b611609565b600094505b6116138a8a613a33565b61162f5760405162461bcd60e51b8152600401610a48906156ed565b611640838b338c8c8b8b888f6141bf565b6116855760405162461bcd60e51b8152602060048201526016602482015275436f756c646e2774206c69737420746865206974656d60501b6044820152606401610a48565b604080518481526001600160a01b038c1660208201523381830152606081018b9052608081018a905287151560a082015260c0810187905260e0810183905261010081018990524261012082015290517fd7f1b8f328c218ec2774158bb7329aaa002cda2cb72482f7927b5c1991697f1b918190036101400190a1611714338b8b306000806000806000613ced565b6117305760405162461bcd60e51b8152600401610a48906157ef565b5050979650505050505050565b61174860003361220b565b61178a5760405162461bcd60e51b81526020600482015260136024820152722ab720baba3437b934bd32b21031b0b63632b960691b6044820152606401610a48565b6001600160a01b0381166117e05760405162461bcd60e51b815260206004820152601b60248201527f5a65726f2061646472657373206973206e6f7420616c6c6f77656400000000006044820152606401610a48565b601780546001600160a01b0319166001600160a01b03831617905561180660008261436b565b6040516001600160a01b03821681527f07725cf1e627ba6b8a0d3bde9462e150e033b44fa6f17a31024d141122c1396f90602001610fa7565b60008061184e60025460ff1690565b61186a5760405162461bcd60e51b8152600401610a4890615505565b50506000818152601360205260409020600a81015460058201546004830154835460068501546001909501546001600160a01b0391821695909460ff1693821692909116906118b63390565b6001600160a01b0316826001600160a01b0316146119105760405162461bcd60e51b815260206004820152601760248201527621b0b63632b91034b9903737ba103a34329037bbb732b960491b6044820152606401610a48565b6001600160a01b0383161561195e5760405162461bcd60e51b815260206004820152601460248201527320b63932b0b23c903137bab3b43a103a37b5b2b760611b6044820152606401610a48565b600184600381111561197257611972615a4e565b148061198f5750600284600381111561198d5761198d615a4e565b145b6119db5760405162461bcd60e51b815260206004820181905260248201527f416c726561647920626f75676874206f722063616e63656c656420746f6b656e6044820152606401610a48565b60018460038111156119ef576119ef615a4e565b1415611a31576000611a133360008a81526013602052604081206008015490613ac4565b1015611a315760405162461bcd60e51b8152600401610a489061562f565b611a3e876000600361414c565b600087815260136020526040908190206008015490517f60974777054aa4309a55a645d5dab87017a79bbad06dac2fda24be4d8e3b499691611a8b918a918a9187918b9188904290615496565b60405180910390a1611aa7308787856000806000806000613ced565b611ac35760405162461bcd60e51b8152600401610a48906157ef565b50505050915091565b33600090815260086020908152604080832054601683528184208054835181860281018601909452808452919385939290830182828015611b2c57602002820191906000526020600020905b815481526020019060010190808311611b18575b5050505050905060166000611b3e3390565b6001600160a01b03166001600160a01b031681526020019081526020016000206000611b6a9190614ddb565b336000908152601660205260408120905b8251811015611da757600260136000858481518110611b9c57611b9c615a7a565b6020908102919091018101518252810191909152604001600020600a015460ff166003811115611bce57611bce615a4e565b1415611ccd574260136000858481518110611beb57611beb615a7a565b6020026020010151815260200190815260200160002060070154108015611c575750336001600160a01b031660156000858481518110611c2d57611c2d615a7a565b6020908102919091018101518252810191909152604001600020600101546001600160a01b031614155b15611c6157611d95565b81838281518110611c7457611c74615a7a565b6020908102919091018101518254600181018455600093845291832090910155835160139190859084908110611cac57611cac615a7a565b60200260200101518152602001908152602001600020600801549450611d95565b600160136000858481518110611ce557611ce5615a7a565b6020908102919091018101518252810191909152604001600020600a015460ff166003811115611d1757611d17615a4e565b1415611d955781838281518110611d3057611d30615a7a565b602090810291909101810151825460018101845560009384529183209091015583516013908290869085908110611d6957611d69615a7a565b602002602001015181526020019081526020016000206008015490508086611d919190615824565b9550505b80611d9f816159f3565b915050611b7b565b503360009081526016602052604090208154611dc591908390614d8b565b50336000908152600860205260409020849055604080513381526020810185905280820186905242606082015290517f0d0e56539d6f587bb6a3924f7dee452834a223586e9bb60d3827f4006cb0655d9181900360800190a150505090565b6001600160a01b03818116600081815260086020526040808220546009549151630fa6707960e21b815260048101949094529193919283929190911690633e99c1e49060240160206040518083038186803b158015611e8257600080fd5b505afa158015611e96573d6000803e3d6000fd5b505050506040513d601f19601f82011682018060405250810190611eba919061536a565b611ec4919061595a565b9392505050565b6000818152601360205260408120805460018201546002830154600380850154600486015460058701546006880154600789015460088a015460098b0154600a909b01546001600160a01b039a8b169c999b989a9699958716989685169760ff600160a01b8704811698600160a81b90970481169795969495939493921690811115611f5957611f59615a4e565b905091939597999b9d90929496989a9c50565b611f84600080516020615aca8339815191523361220b565b611fa05760405162461bcd60e51b8152600401610a48906155df565b60025460ff16611fc25760405162461bcd60e51b8152600401610a4890615505565b600480546001600160a01b0319166001600160a01b0383161790556040516001600160a01b03821681527fbe3260255e87723bd3e58ffcce4c909c98caadd416e23b7e098070f92fd75bbd90602001610fa7565b61202e600080516020615aca8339815191523361220b565b61204a5760405162461bcd60e51b8152600401610a48906155df565b60025460ff161561206d5760405162461bcd60e51b8152600401610a4890615666565b611032614375565b606060038054612084906159b8565b80601f01602080910402602001604051908101604052809291908181526020018280546120b0906159b8565b80156120fd5780601f106120d2576101008083540402835291602001916120fd565b820191906000526020600020905b8154815290600101906020018083116120e057829003601f168201915b5050505050905090565b6000828152600160205260408120611ec490836143cd565b612137600080516020615aca8339815191523361220b565b6121535760405162461bcd60e51b8152600401610a48906155df565b60025460ff166121755760405162461bcd60e51b8152600401610a4890615505565b61217e816143d9565b7fe28169ccda724be8baad801e6de41dad86e49186953944c40f68eb91e100ea8681604051610fa791906154d2565b6121d77f7d867aa9d791a9a4be418f90a2f248aa2c5f1348317792a6f6412f94df9819f73361220b565b6121f35760405162461bcd60e51b8152600401610a489061573e565b600e819055600c54612205908261593b565b600d5550565b6000918252602082815260408084206001600160a01b0393909316845291905290205460ff1690565b61224c600080516020615aca8339815191523361220b565b6122685760405162461bcd60e51b8152600401610a48906155df565b60025460ff161561228b5760405162461bcd60e51b8152600401610a4890615666565b6122998686868686866143ec565b604080513381526001600160a01b0388166020820152808201879052606081018690526080810185905260a0810184905260c0810183905290517f778ea30b38b50f116721cbb9c05136430492ad2324dd0c6cb39d6d4461dbb9509181900360e00190a1505050505050565b60008061231460025460ff1690565b156123315760405162461bcd60e51b8152600401610a4890615666565b600083815260136020526040902060060154839042118015612378575060026000828152601360205260409020600a015460ff16600381111561237657612376615a4e565b145b6123d95760405162461bcd60e51b815260206004820152602c60248201527f41756374696f6e206973206e6f7420656e646564206f72206e6f206c6f6e676560448201526b391037b71030bab1ba34b7b760a11b6064820152608401610a48565b6000848152601560209081526040808320600190810154601390935292206004810154815491909301546001600160a01b039182169650945090811691163382146124665760405162461bcd60e51b815260206004820152601860248201527f43616c6c6572206973206e6f74207468652077696e6e657200000000000000006044820152606401610a48565b60008681526014602090815260408083206001600160a01b0386168452909152902060030154600d548111156124c4576000878152600f602052604090205460ff166124c45760405162461bcd60e51b8152600401610a4890615785565b806124ce846144ce565b10156124ec5760405162461bcd60e51b8152600401610a4890615575565b6001600160a01b03821660009081526010602052604081206001015481908190819015612554576001600160a01b03861660009081526010602052604090206001810154600490910154612545918c918c918991614552565b92965090945092509050612570565b6125658a8a87600654600754614552565b929650909450925090505b60008b81526014602090815260408083203384529091528120600401805460ff191660011790556125a4908c90899061414c565b6125b6338b8b89888888886001613ced565b6125d25760405162461bcd60e51b8152600401610a4890615533565b60008b8152601360205260408120600801546125f090899083613ac4565b101561260e5760405162461bcd60e51b8152600401610a489061562f565b6126198688876145c4565b5060008b8152601560209081526040918290205482519081529081018d90526001600160a01b038c8116828401528981166060830152608082018c905260a08201889052861660c082015260e08101859052610100810184905261012081018390524261014082015290517f770608f9b23b449846d60bf6a9fd216b33db427cd5726cf1071d134311431442918190036101600190a15050505050505050915091565b60006126cd8833898888888861401c565b61270d5760405162461bcd60e51b8152602060048201526011602482015270696e76616c6964207369676e617475726560781b6044820152606401610a48565b612718888888610c08565b98975050505050505050565b61273c600080516020615aca8339815191523361220b565b6127585760405162461bcd60e51b8152600401610a48906155df565b60025460ff1661277a5760405162461bcd60e51b8152600401610a4890615505565b6201518081116127bf5760405162461bcd60e51b815260206004820152601060248201526f24b73b30b634b210323ab930ba34b7b760811b6044820152606401610a48565b60128190556040518181527ff49a73cf36f0d199722739f91a682c327b1e2d3fde466a159e78e0ea0dbbacf890602001610fa7565b6000818152600160205260408120610a0c906145fa565b600061281960025460ff1690565b156128365760405162461bcd60e51b8152600401610a4890615666565b60008381526013602052604090206006015483904210801561287d575060026000828152601360205260409020600a015460ff16600381111561287b5761287b615a4e565b145b6128bc5760405162461bcd60e51b815260206004820152601060248201526f105d58dd1a5bdb881a5cc8195b99195960821b6044820152606401610a48565b6000848152601360208181526040808420805460018083015484518087018d90526bffffffffffffffffffffffff19606085811b82168389015233901b166054820152606880820183905286518083039091018152608890910186528051908701208c89526015875294909720015494909352600801549095506001600160a01b0391821693929190911690816129d2576000888152601360205260409020600201548710156129cd5760405162461bcd60e51b815260206004820152603660248201527f626964207072696365206d757374206265206d6f7265207468616e206f7220656044820152757175616c20746865206d696e696d756d20707269636560501b6064820152608401610a48565b612a57565b60008881526014602090815260408083206001600160a01b03861684529091529020600301548711612a575760405162461bcd60e51b815260206004820152602860248201527f626964207072696365206d757374206265206d6f7265207468616e20746865206044820152671b185cdd08189a5960c21b6064820152608401610a48565b600088815260146020908152604080832033845290915290206003015480612b5c5781612a8333611e24565b1015612ac75760405162461bcd60e51b81526020600482015260136024820152724e6f7420656e6f75676820726573657276657360681b6044820152606401610a48565b336000818152601660209081526040822080546001810182558184529183209091018c90559190528054612afe9082908190614d8b565b506000612b0d33856001613ac4565b11612b5a5760405162461bcd60e51b815260206004820152601b60248201527f52657365727665205a65726f206973206e6f7420616c6c6f77656400000000006044820152606401610a48565b505b612c2c878a8733888d6040805180820182528781526001600160a01b03948516602080830182815260008a81526015835285812094518555905160019485018054918a166001600160a01b0319928316179055855160a0810187529b8c529888168b83019081528b860197885260608c0196875260808c018281529a825260148352858220938252929091529290922097518855905187820180549190951695169490941790925551600285015551600384015590516004909201805492151560ff199093169290921790915590565b612c675760405162461bcd60e51b815260206004820152600c60248201526b10dbdd5b191b89dd08109a5960a21b6044820152606401610a48565b60408051888152602081018b90526001600160a01b038716818301523360608201526080810186905260a081018a90524260c082015290517f2d4cfcefc09a529d21dfffe1fc49a95663a8e6ee7aa367506e419a6d437882859181900360e00190a150505050505092915050565b610fbc8282614604565b600080612cee60025460ff1690565b15612d0b5760405162461bcd60e51b8152600401610a4890615666565b60008381526013602052604081206005810154600a9091015460ff600160a81b90920482169291600191166003811115612d4757612d47615a4e565b1415612d655750600084815260136020526040902060020154612e0d565b60026000868152601360205260409020600a015460ff166003811115612d8d57612d8d615a4e565b1415612e0d576001821515148015612db5575060008581526013602052604090206006015442105b612df95760405162461bcd60e51b8152602060048201526015602482015274546f6b656e206973206e6f7420666f722073616c6560581b6044820152606401610a48565b506000848152601360205260409020600901545b6000858152601360205260409020600481015481546001909201546001600160a01b03928316965094501681612eab5760405162461bcd60e51b815260206004820152603960248201527f537461727466694d61726b6574706c63653a20496e76616c696420707269636560448201527f206f7220546f6b656e206973206e6f7420666f722073616c65000000000000006064820152608401610a48565b600d54821115612ee3576000868152600f602052604090205460ff16612ee35760405162461bcd60e51b8152600401610a4890615785565b81612eed336144ce565b1015612f0b5760405162461bcd60e51b8152600401610a4890615575565b6000868152601360209081526040808320600801546001600160a01b038516845260109092528220600101548291829182919015612f84576001600160a01b03861660009081526010602052604090206001810154600490910154612f75918c918c918b91614552565b92975090955093509150612fa0565b612f958a8a89600654600754614552565b929750909550935091505b600160008c8152601360205260409020600a015460ff166003811115612fc857612fc8615a4e565b1415612ffa576000612fdc87836000613ac4565b1015612ffa5760405162461bcd60e51b8152600401610a489061562f565b6130068b33600061414c565b6130118633896145c4565b50604080518c81526001600160a01b03808d1660208301523382840152606082018c9052608082018a905288811660a08301528a151560c0830152871660e08201526101008101869052610120810185905261014081018490524261016082015290517ff18fd7f8585dc258636a453d4a87ee3dd6edda50c1f438348bddf640ca6fbbec918190036101800190a16130b1338b8b89898989896001613ced565b6130cd5760405162461bcd60e51b8152600401610a4890615533565b5050505050505050915091565b6000806130e960025460ff1690565b156131065760405162461bcd60e51b8152600401610a4890615666565b6000838152601560209081526040808320600101546013909252909120600401546001600160a01b0391821691163381146131835760405162461bcd60e51b815260206004820152601760248201527f4f6e6c792053656c6c65722063616e20646973707574650000000000000000006044820152606401610a48565b60008581526013602052604090208054600182015460088301546007909301546001600160a01b0392831697509095509084166132025760405162461bcd60e51b815260206004820181905260248201527f4d61726b6574706c6163653a2041756374696f6e20686173206e6f20626964736044820152606401610a48565b428111156132635760405162461bcd60e51b815260206004820152602860248201527f4d61726b6574706c6163653a2043616e206e6f742064697370757465206265666044820152676f72652074696d6560c01b6064820152608401610a48565b60026000888152601360205260409020600a015460ff16600381111561328b5761328b615a4e565b146132e45760405162461bcd60e51b815260206004820152602360248201527f4d61726b6574706c6163653a204974656d206973206e6f74206f6e204175637460448201526234b7b760e91b6064820152608401610a48565b600d5460008881526014602090815260408083206001600160a01b03891684529091529020600301541115613341576000878152600f602052604090205460ff166133415760405162461bcd60e51b8152600401610a4890615785565b60008061334d8461462a565b601754919350915061336a9087906001600160a01b0316846140c5565b6133865760405162461bcd60e51b8152600401610a4890615690565b6133918686836140c5565b6133ad5760405162461bcd60e51b8152600401610a4890615690565b60006133bb87866000613ac4565b10156133d95760405162461bcd60e51b8152600401610a489061562f565b6133e6896000600361414c565b6000898152601560209081526040918290205482519081529081018b90526001600160a01b038a8116828401528881166060830152608082018a9052871660a082015260c0810186905260e0810183905261010081018490524261012082015290517fb46a91724b95c8764d64242653194717e2ab549e1b76e207124d3bddc39aed6d918190036101400190a1613487308989886000806000806000613ced565b6134a35760405162461bcd60e51b8152600401610a48906157ef565b505050505050915091565b600085815260146020908152604080832033808552925282206003015482916134da918888888861388d565b6135265760405162461bcd60e51b815260206004820152601a60248201527f537461727446693a20496e76616c6964207369676e61747572650000000000006044820152606401610a48565b61352f87612305565b915091509550959350505050565b613555600080516020615aca8339815191523361220b565b6135715760405162461bcd60e51b8152600401610a48906155df565b60025460ff16156135945760405162461bcd60e51b8152600401610a4890615666565b60026000828152601360205260409020600a015460ff1660038111156135bc576135bc615a4e565b14806135ed575060016000828152601360205260409020600a015460ff1660038111156135eb576135eb615a4e565b145b6136395760405162461bcd60e51b815260206004820181905260248201527f537461727446694d61726b6574706c6163653a20496e76616c6964204954656d6044820152606401610a48565b60026000828152601360205260409020600a015460ff16600381111561366157613661615a4e565b141561369f5760008181526013602052604090206006015442111561369f5761368c426012546139fe565b6000828152601360205260409020600701555b6000818152600f60205260409020805460ff191660011790557f9bfd958891fe06dddc3c7b564113a5fefaa5958db6ec809ab3d39ef6d5e5cc69816136e13390565b604080519283526001600160a01b0390911660208301524290820152606001610fa7565b61371d600080516020615aca8339815191523361220b565b6137395760405162461bcd60e51b8152600401610a48906155df565b60025460ff1661375b5760405162461bcd60e51b8152600401610a4890615505565b600580546001600160a01b0319166001600160a01b0383161790556040516001600160a01b03821681527f34ebd4cf402719b97a4e51402bd4a109c70b0b732ce4ead80c769d9d2a427ac090602001610fa7565b6137b98282614652565b5050565b6000611ec4836001600160a01b0384166146d6565b60006001600160e01b03198216637965db0b60e01b1480610a0c57506301ffc9a760e01b6001600160e01b0319831614610a0c565b60006138138383614725565b9050673782dace9d90000081111580156138355750670de0b6b3a76400008110155b6138815760405162461bcd60e51b815260206004820152601f60248201527f50657263656e746167652073686f756c642062652066726f6d20312d342025006044820152606401610a48565b600a92909255600b5590565b60055460405163d505accf60e01b81526000916001600160a01b03169063d505accf906138ca908a9030908b908b908b908b908b90600401615455565b600060405180830381600087803b1580156138e457600080fd5b505af11580156138f8573d6000803e3d6000fd5b5060019a9950505050505050505050565b60006139158383614725565b9050673782dace9d90000081111580156139375750670de0b6b3a76400008110155b6139835760405162461bcd60e51b815260206004820152601f60248201527f50657263656e746167652073686f756c642062652066726f6d20312d342025006044820152606401610a48565b60069290925560075590565b600081116139f95760405162461bcd60e51b815260206004820152603160248201527f537461727446694d61726b6574706c6163654361703a20636170206d757374206044820152706265206d6f7265207468616e207a65726f60781b6064820152608401610a48565b600c55565b6000611ec48284615824565b6000613a2b613a24613a1d84606461593b565b8590614731565b8590614754565b949350505050565b60405163020604bf60e21b8152600481018290526000906001600160a01b0384169063081812fc9060240160206040518083038186803b158015613a7657600080fd5b505afa925050508015613aa6575060408051601f3d908101601f19168201909252613aa391810190614f26565b60015b613ab257506000610a0c565b6001600160a01b031630149050610a0c565b600081613af4576001600160a01b038416600090815260086020526040902054613aef90849061595a565b613b18565b6001600160a01b038416600090815260086020526040902054613b18908490615824565b6001600160a01b038516600090815260086020526040902081905590509392505050565b6000604051806101a00160405280886001600160a01b0316815260200186815260200185815260200160008152602001876001600160a01b0316815260200160006001600160a01b03168152602001600015158152602001600015158152602001838152602001600081526020018481526020016000815260200160016003811115613bca57613bca615a4e565b9052600089815260136020908152604091829020835181546001600160a01b039182166001600160a01b03199182161783559285015160018084019190915593850151600283015560608501516003808401919091556080860151600484018054918416919095161790935560a085015160058301805460c088015160e08901511515600160a81b0260ff60a81b19911515600160a01b026001600160a81b0319909316949095169390931717919091169190911790556101008401516006820155610120840151600782015561014084015160088201556101608401516009820155610180840151600a8201805492949193909260ff191691908490811115613cd657613cd6615a4e565b02179055506001925050505b979650505050505050565b600060026018541415613d425760405162461bcd60e51b815260206004820152601f60248201527f5265656e7472616e637947756172643a207265656e7472616e742063616c6c006044820152606401610a48565b60026018558115613edd57601754613d65908b906001600160a01b03168661476c565b613db15760405162461bcd60e51b815260206004820152601f60248201527f436f756c646e2774207472616e7366657220746f6b656e2061732066656573006044820152606401610a48565b866001600160a01b0316866001600160a01b03161415613ddc57613dd58584615824565b9250613e4c565b6001600160a01b03861615613e4c57613df68a878761476c565b613e4c5760405162461bcd60e51b815260206004820152602160248201527f436f756c646e2774207472616e7366657220746f6b656e20746f2069737375656044820152603960f91b6064820152608401610a48565b613e578a888561476c565b613ead5760405162461bcd60e51b815260206004820152602160248201527f436f756c646e2774207472616e7366657220746f6b656e20746f2073656c6c656044820152603960f91b6064820152608401610a48565b613eb98989308d6147a1565b613ed55760405162461bcd60e51b8152600401610a48906157ef565b506001613ee9565b613eb989898c8a6147a1565b60016018559998505050505050505050565b600082815260208190526040902060010154613f178133614811565b610f178383614652565b6001600160a01b0381163314613f915760405162461bcd60e51b815260206004820152602f60248201527f416363657373436f6e74726f6c3a2063616e206f6e6c792072656e6f756e636560448201526e103937b632b9903337b91039b2b63360891b6064820152608401610a48565b6137b98282614875565b6000611ec4836001600160a01b0384166148da565b60025460ff16613fd25760405162461bcd60e51b8152600401610a4890615505565b6002805460ff191690557f5db9ee0a495bf2e6ff9c91a7834c1ba4fdd244a5e8aa4e537bd38aeae4b073aa335b6040516001600160a01b03909116815260200160405180910390a1565b6000614027886149c7565b156140bd5760405163d505accf60e01b81526001600160a01b0389169063d505accf90614064908a9030908b908b908b908b908b90600401615455565b602060405180830381600087803b15801561407e57600080fd5b505af1158015614092573d6000803e3d6000fd5b505050506040513d601f19601f820116820180604052508101906140b691906151d7565b9050613ce2565b506000613ce2565b60095460405163929c517960e01b81526000916001600160a01b03169063929c5179906140fa90879087908790600401615431565b602060405180830381600087803b15801561411457600080fd5b505af1158015614128573d6000803e3d6000fd5b505050506040513d601f19601f82011682018060405250810190613a2b91906151d7565b6000838152601360205260409020600a01805482919060ff1916600183600381111561417a5761417a615a4e565b02179055506001600160a01b03821615610f1757600083815260136020526040902060050180546001600160a01b0384166001600160a01b0319909116179055505050565b6000604051806101a001604052808a6001600160a01b0316815260200188815260200187815260200160008152602001896001600160a01b0316815260200160006001600160a01b031681526020016001151581526020018615158152602001848152602001601254856142339190615824565b815260208101849052604081018690526060016002905260008b815260136020908152604091829020835181546001600160a01b039182166001600160a01b03199182161783559285015160018084019190915593850151600283015560608501516003808401919091556080860151600484018054918416919095161790935560a085015160058301805460c088015160e08901511515600160a81b0260ff60a81b19911515600160a01b026001600160a81b0319909316949095169390931717919091169190911790556101008401516006820155610120840151600782015561014084015160088201556101608401516009820155610180840151600a8201805492949193909260ff19169190849081111561435457614354615a4e565b021790555060019c9b505050505050505050505050565b610eff82826137af565b60025460ff16156143985760405162461bcd60e51b8152600401610a4890615666565b6002805460ff191660011790557f62e78cea01bee320cd4e420270b5ea74000d11b0c9f74754ebdbfc544b05a258613fff3390565b6000611ec48383614a51565b80516137b9906003906020840190614df9565b6001600160a01b0386166000908152601060205260409020600101541561446c5760405162461bcd60e51b815260206004820152602e60248201527f537461727446694d61726b6574506c6163655370656369616c4f666665723a2060448201526d105b1c9958591e48195e1a5cda5d60921b6064820152608401610a48565b6040805160a081018252958652602080870195865286820194855260608701938452608087019283526001600160a01b039097166000908152601090975290952093518455915160018401555160028301555160038201559051600490910155565b600554604051636eb1769f60e11b81526001600160a01b038381166004830152306024830152600092169063dd62ed3e9060440160206040518083038186803b15801561451a57600080fd5b505afa15801561452e573d6000803e3d6000fd5b505050506040513d601f19601f82011682018060405250810190610a0c919061536a565b600080600080614563878787613a0a565b915061456f828861595a565b905061457a896149c7565b156145b85761458a898989614ad7565b909450925082158015906145a657506001600160a01b03841615155b156145b8576145b5838261595a565b90505b95509550955095915050565b600480546040516305dbd19960e31b81526000926001600160a01b0390921691632ede8cc8916140fa9187918991889101615431565b6000610a0c825490565b6000828152602081905260409020600101546146208133614811565b610f178383614875565b60008061463f83671bc16d674ec80000614b66565b915061464b828461595a565b9050915091565b61465c828261220b565b6137b9576000828152602081815260408083206001600160a01b03851684529091529020805460ff191660011790556146923390565b6001600160a01b0316816001600160a01b0316837f2f8788117e7eff1d82e926ec794901d17c78024a50270940304540a733656f0d60405160405180910390a45050565b600081815260018301602052604081205461471d57508154600181810184556000848152602080822090930184905584548482528286019093526040902091909155610a0c565b506000610a0c565b6000611ec48383614b66565b6000816147406012600a615893565b61474a908561593b565b611ec4919061583c565b6000611ec483836147676012600a615893565b614b7e565b6005546040516323b872dd60e01b81526000916001600160a01b0316906323b872dd906140fa90879087908790600401615431565b604051632142170760e11b81526000906001600160a01b038616906342842e0e906147d490869086908990600401615431565b600060405180830381600087803b1580156147ee57600080fd5b505af1158015614802573d6000803e3d6000fd5b50600198975050505050505050565b61481b828261220b565b6137b957614833816001600160a01b03166014614bd6565b61483e836020614bd6565b60405160200161484f9291906153bc565b60408051601f198184030181529082905262461bcd60e51b8252610a48916004016154d2565b61487f828261220b565b156137b9576000828152602081815260408083206001600160a01b0385168085529252808320805460ff1916905551339285917ff6391f5c32d9c69d2a47ea670b442974b53935d1edc7fd64eb21e047a839171b9190a45050565b600081815260018301602052604081205480156149bd5760006148fe60018361595a565b85549091506000906149129060019061595a565b9050600086600001828154811061492b5761492b615a7a565b906000526020600020015490508087600001848154811061494e5761494e615a7a565b60009182526020808320909101929092558281526001890190915260409020849055865487908061498157614981615a64565b60019003818190600052602060002001600090559055866001016000878152602001908152602001600020600090556001945050505050610a0c565b6000915050610a0c565b6040516301ffc9a760e01b815263152a902d60e11b60048201526000906001600160a01b038316906301ffc9a79060240160206040518083038186803b158015614a1057600080fd5b505afa925050508015614a40575060408051601f3d908101601f19168201909252614a3d918101906151d7565b60015b610a0c57506000919050565b919050565b81546000908210614aaf5760405162461bcd60e51b815260206004820152602260248201527f456e756d657261626c655365743a20696e646578206f7574206f6620626f756e604482015261647360f01b6064820152608401610a48565b826000018281548110614ac457614ac4615a7a565b9060005260206000200154905092915050565b60405163152a902d60e11b8152600481018390526024810182905260009081906001600160a01b03861690632a55205a90604401604080518083038186803b158015614b2257600080fd5b505afa158015614b36573d6000803e3d6000fd5b505050506040513d601f19601f82011682018060405250810190614b5a9190614fc3565b90969095509350505050565b6000611ec48383614b796012600a615893565b614d72565b600080614b8c600a8461583c565b614b96858761593b565b614ba0919061583c565b90506005614baf600a83615a0e565b10614bc257614bbf600a82615824565b90505b614bcd600a8261583c565b95945050505050565b60606000614be583600261593b565b614bf0906002615824565b67ffffffffffffffff811115614c0857614c08615a90565b6040519080825280601f01601f191660200182016040528015614c32576020820181803683370190505b509050600360fc1b81600081518110614c4d57614c4d615a7a565b60200101906001600160f81b031916908160001a905350600f60fb1b81600181518110614c7c57614c7c615a7a565b60200101906001600160f81b031916908160001a9053506000614ca084600261593b565b614cab906001615824565b90505b6001811115614d23576f181899199a1a9b1b9c1cb0b131b232b360811b85600f1660108110614cdf57614cdf615a7a565b1a60f81b828281518110614cf557614cf5615a7a565b60200101906001600160f81b031916908160001a90535060049490941c93614d1c816159a1565b9050614cae565b508315611ec45760405162461bcd60e51b815260206004820181905260248201527f537472696e67733a20686578206c656e67746820696e73756666696369656e746044820152606401610a48565b60008083614d8184600a61593b565b614b96908761593b565b828054828255906000526020600020908101928215614dcb5760005260206000209182015b82811115614dcb578254825591600101919060010190614db0565b50614dd7929150614e6d565b5090565b5080546000825590600052602060002090810190610c059190614e6d565b828054614e05906159b8565b90600052602060002090601f016020900481019282614e275760008555614dcb565b82601f10614e4057805160ff1916838001178555614dcb565b82800160010185558215614dcb579182015b82811115614dcb578251825591602001919060010190614e52565b5b80821115614dd75760008155600101614e6e565b600067ffffffffffffffff80841115614e9d57614e9d615a90565b604051601f8501601f19908116603f01168101908282118183101715614ec557614ec5615a90565b81604052809350858152868686011115614ede57600080fd5b858560208301376000602087830101525050509392505050565b803560ff81168114614a4c57600080fd5b600060208284031215614f1b57600080fd5b8135611ec481615aa6565b600060208284031215614f3857600080fd5b8151611ec481615aa6565b60008060008060808587031215614f5957600080fd5b8435614f6481615aa6565b93506020850135614f7481615aa6565b925060408501359150606085013567ffffffffffffffff811115614f9757600080fd5b8501601f81018713614fa857600080fd5b614fb787823560208401614e82565b91505092959194509250565b60008060408385031215614fd657600080fd5b8251614fe181615aa6565b6020939093015192949293505050565b60008060006060848603121561500657600080fd5b833561501181615aa6565b95602085013595506040909401359392505050565b600080600080600080600060e0888a03121561504157600080fd5b873561504c81615aa6565b9650602088013595506040880135945060608801359350608088013561507181615abb565b9699959850939692959460a0840135945060c09093013592915050565b60008060008060008060008060008060006101608c8e0312156150b057600080fd5b8b356150bb81615aa6565b9a5060208c0135995060408c0135985060608c0135975060808c01356150e081615abb565b965060a08c0135955060c08c0135945060e08c013593506151046101008d01614ef8565b92506101208c013591506101408c013590509295989b509295989b9093969950565b60008060008060008060c0878903121561513f57600080fd5b863561514a81615aa6565b9860208801359850604088013597606081013597506080810135965060a00135945092505050565b600080600080600080600060e0888a03121561518d57600080fd5b873561519881615aa6565b96506020880135955060408801359450606088013593506151bb60808901614ef8565b925060a0880135915060c0880135905092959891949750929550565b6000602082840312156151e957600080fd5b8151611ec481615abb565b60006020828403121561520657600080fd5b5035919050565b6000806040838503121561522057600080fd5b82359150602083013561523281615aa6565b809150509250929050565b6000806040838503121561525057600080fd5b50508035926020909101359150565b60008060008060008060c0878903121561527857600080fd5b86359550602087013594506040870135935061529660608801614ef8565b92506080870135915060a087013590509295509295509295565b600080600080600060a086880312156152c857600080fd5b85359450602086013593506152df60408701614ef8565b94979396509394606081013594506080013592915050565b60006020828403121561530957600080fd5b81356001600160e01b031981168114611ec457600080fd5b60006020828403121561533357600080fd5b813567ffffffffffffffff81111561534a57600080fd5b8201601f8101841361535b57600080fd5b613a2b84823560208401614e82565b60006020828403121561537c57600080fd5b5051919050565b6bffffffffffffffffffffffff19606095861b8116825260148201949094529190931b9091166034820152604881019190915260680190565b7f416363657373436f6e74726f6c3a206163636f756e74200000000000000000008152600083516153f4816017850160208801615971565b7001034b99036b4b9b9b4b733903937b6329607d1b6017918401918201528351615425816028840160208801615971565b01602801949350505050565b6001600160a01b039384168152919092166020820152604081019190915260600190565b6001600160a01b0397881681529590961660208601526040850193909352606084019190915260ff16608083015260a082015260c081019190915260e00190565b9687526001600160a01b0395861660208801529390941660408601526060850191909152608084015260a083019190915260c082015260e00190565b60208152600082518060208401526154f1816040850160208701615971565b601f01601f19169190910160400192915050565b60208082526014908201527314185d5cd8589b194e881b9bdd081c185d5cd95960621b604082015260600190565b60208082526022908201527f537461727446693a20636f756c64206e6f7420657863757465207472616e736660408201526132b960f11b606082015260800190565b60208082526044908201527f4d61726b6574706c616365206973206e6f7420616c6c6f77656420746f20776960408201527f7468647261772074686520726571756972656420616d6f756e74206f6620746f6060820152636b656e7360e01b608082015260a00190565b60208082526030908201527f537461727446694d61726b6574506c61636541646d696e3a2063616c6c65722060408201526f34b9903737ba103a34329037bbb732b960811b606082015260800190565b6020808252601f908201527f6e656761746976652072657365727665206973206e6f7420616c6c6f77656400604082015260600190565b60208082526010908201526f14185d5cd8589b194e881c185d5cd95960821b604082015260600190565b6020808252603a908201527f4d61726b6574706c6163653a20636f756c646e2774206465647563742074686560408201527f2066696e6520666f72207468652061646d696e2077616c6c6574000000000000606082015260800190565b60208082526031908201527f4d61726b6574706c616365206973206e6f7420616c6c6f77656420746f20747260408201527030b739b332b9103cb7bab9103a37b5b2b760791b606082015260800190565b60208082526027908201527f537461727446694d61726b6574506c6163653a20556e417574686f72697a65646040820152661031b0b63632b960c91b606082015260800190565b60208082526044908201527f537461727466694d61726b6574706c6163653a2050726963652065786365656460408201527f656420746865206361702e20596f75206e65656420746f2067657420617070726060820152631bdd995960e21b608082015260a00190565b6020808252818101527f4e465420746f6b656e20636f756c646e2774206265207472616e736665726564604082015260600190565b6000821982111561583757615837615a22565b500190565b60008261584b5761584b615a38565b500490565b600181815b8085111561588b57816000190482111561587157615871615a22565b8085161561587e57918102915b93841c9390800290615855565b509250929050565b6000611ec483836000826158a957506001610a0c565b816158b657506000610a0c565b81600181146158cc57600281146158d6576158f2565b6001915050610a0c565b60ff8411156158e7576158e7615a22565b50506001821b610a0c565b5060208310610133831016604e8410600b8410161715615915575081810a610a0c565b61591f8383615850565b806000190482111561593357615933615a22565b029392505050565b600081600019048311821515161561595557615955615a22565b500290565b60008282101561596c5761596c615a22565b500390565b60005b8381101561598c578181015183820152602001615974565b8381111561599b576000848401525b50505050565b6000816159b0576159b0615a22565b506000190190565b600181811c908216806159cc57607f821691505b602082108114156159ed57634e487b7160e01b600052602260045260246000fd5b50919050565b6000600019821415615a0757615a07615a22565b5060010190565b600082615a1d57615a1d615a38565b500690565b634e487b7160e01b600052601160045260246000fd5b634e487b7160e01b600052601260045260246000fd5b634e487b7160e01b600052602160045260246000fd5b634e487b7160e01b600052603160045260246000fd5b634e487b7160e01b600052603260045260246000fd5b634e487b7160e01b600052604160045260246000fd5b6001600160a01b0381168114610c0557600080fd5b8015158114610c0557600080fdfeb19546dff01e856fb3f010c267a7b1c60363cf8a4664e21cc89c26224620214ea26469706673582212204eb3572000d78baaa4943e64cc3d442da3514ab603f9a0b87f4e5ee0f5c177da64736f6c63430008070033",
  "devdoc": {
    "author": "Eman Herawy, StartFi Team",
    "kind": "dev",
    "methods": {
      "addOffer(address,uint256,uint256,uint256,uint256,uint256)": {
        "details": "only called by `owner` to change the name and `whenPaused`",
        "params": {
          "_delistAfter": "marketplace reputation contract",
          "_fee": "marketplace reputation contract",
          "_listqualifyPercentage": "marketplace reputation contract",
          "feeBase": "marketplace reputation contract",
          "wallet": "marketplace reputation contract"
        }
      },
      "approveDeal(bytes32)": {
        "details": "only called by `owner` to approve listing that exceeded cap after doing the KYC",
        "params": {
          "listingId": "listing Id emit ApproveDeal"
        }
      },
      "bid(bytes32,uint256)": {
        "details": "called by dapps to bid on an auction",
        "params": {
          "bidPrice": "price",
          "listingId": "listing id"
        },
        "returns": {
          "bidId": "bid id emit : BidOnAuction"
        }
      },
      "buyNow(bytes32)": {
        "details": "called by buyer through dapps when s/he wants to buy a gevin NFT  token from the marketplace",
        "params": {
          "listingId": "listing id"
        },
        "returns": {
          "_NFTContract": "nft contract address",
          "tokenId": "token id emit : BuyNow"
        }
      },
      "buyNowWithPermit(bytes32,uint256,uint256,uint8,bytes32,bytes32)": {
        "details": "called by buyer through dapps when s/he wants to buy a gevin NFT  token from the marketplace",
        "params": {
          "deadline": ":  must be timestamp in future .",
          "listingId": "listing id",
          "price": "gevin price",
          "r": ": normal output of an ECDSA signature",
          "s": ": normal output of an ECDSA signature `v`, `r` and `s` must be valid `secp256k1` signature from `owner`  or 'approved for all' account over EIP712-formatted function arguments.",
          "v": "needed to recover the public key"
        }
      },
      "changeDelistAfter(uint256)": {
        "details": "only called by `owner` to change the name and `whenPaused`",
        "params": {
          "duration": "duration"
        }
      },
      "changeFees(uint256,uint256)": {
        "details": "only called by `owner` to change the name and `whenPaused`",
        "params": {
          "newBase": "the new basefees value to be stored",
          "newFees": "the new fees value to be stored"
        },
        "returns": {
          "percentage": "the value of the state variable `_feeFraction`"
        }
      },
      "changeFulfillDuration(uint256)": {
        "details": "only called by `owner` to change the fulfill Duration for auctions and `whenPaused`",
        "params": {
          "duration": "duration for bid winner to fulfill an auction"
        }
      },
      "changeListInsuranceAmount(uint256,uint256)": {
        "details": "only called by `owner` to change the name and `whenPaused`",
        "params": {
          "newBase": "the new basefees value to be stored",
          "newFees": "the new fees value to be stored"
        },
        "returns": {
          "percentage": "the value of the state variable `_feeFraction`"
        }
      },
      "changeMarketPlaceName(string)": {
        "details": "only called by `owner` to change the name and `whenPaused`",
        "params": {
          "_name": "marketplace new name"
        }
      },
      "changeReputationContract(address)": {
        "details": "only called by `owner` to change the name and `whenPaused`",
        "params": {
          "_reputationContract": "marketplace reputation contract"
        }
      },
      "changeUtilityToken(address)": {
        "details": "only called by `owner` to change the name and `whenPaused`",
        "params": {
          "_token": "token address"
        }
      },
      "createAuction(address,uint256,uint256,uint256,bool,uint256,uint256)": {
        "details": "called by dapps to create  new auction",
        "params": {
          "duration": "when auction ends",
          "insurancAmount": "amount of token locked as qualify for any bidder wants bid",
          "isSellForEnabled": "true if auction enable direct selling",
          "minimumBid": "minimum Bid price",
          "nFTContract": "nft contract address",
          "sellFor": "price  to sell with if isSellForEnabled=true",
          "tokenId": "token id"
        },
        "returns": {
          "listId": "listing id**  Users who want to list their NFT as auction for bidding with/without allowing direct sale. - user MUST approve contract to transfer the NFT      - Time to live auction duration must be more than 12 hours. - if `sellForEnabled` is true, `sellFor` value must be more than zero - auction creator MUST specify the insurance amounts for any bidder to bid with considering that it MUST NOT be less that 1 USDT value in STFI. **  emit : CreateAuction"
        }
      },
      "createAuctionWithPermit(address,uint256,uint256,uint256,bool,uint256,uint256,uint256,uint8,bytes32,bytes32)": {
        "details": "called by dapps to create  new auction",
        "params": {
          "deadline": ":  must be timestamp in future .",
          "duration": "when auction ends",
          "insurancAmount": "amount of token locked as qualify for any bidder wants bid",
          "isSellForEnabled": "true if auction enable direct selling",
          "listingPrice": "min price",
          "nFTContract": "nft contract address",
          "r": ": normal output of an ECDSA signature",
          "s": ": normal output of an ECDSA signature `v`, `r` and `s` must be valid `secp256k1` signature from `owner`  or 'approved for all' account over EIP712-formatted function arguments.",
          "sellFor": "price  to sell with if isSellForEnabled=true",
          "tokenId": "token id",
          "v": "needed to recover the public key"
        },
        "returns": {
          "listId": "listing id**  Users who want to list their NFT as auction for bidding with/without allowing direct sale call this function without sending prior transaction to `approve` the marketplace to transfer NFT. This function call`permit` [`eip-2612`] then call [`createAuction`] internally.**"
        }
      },
      "deList(bytes32)": {
        "details": "called by seller through dapps when s/he wants to remove this token from the marketplace",
        "params": {
          "listingId": "listing id"
        },
        "returns": {
          "_NFTContract": "nft contract address",
          "tokenId": "token id emit DeListOffMarketplace"
        }
      },
      "disputeAuction(bytes32)": {
        "details": "called by seller through dapps when his/her auction is  not fulfilled after 3 days",
        "params": {
          "listingId": "listing id"
        },
        "returns": {
          "_NFTContract": "nft contract address",
          "tokenId": "token id emit : DisputeAuction"
        }
      },
      "freeReserves()": {
        "details": "called by user through dapps when his/her wants to free his reserved tokens which are no longer in active auction .",
        "returns": {
          "curentReserves": "user reserves after freeing the unused reservd emit : UserReservesFree"
        }
      },
      "fulfillBid(bytes32)": {
        "details": "called by bidder through dapps when bidder win an auction and wants to pay to get the NFT",
        "params": {
          "listingId": "listing id"
        },
        "returns": {
          "_NFTContract": "nft contract address",
          "tokenId": "token id"
        }
      },
      "fulfillBidWithPermit(bytes32,uint256,uint8,bytes32,bytes32)": {
        "details": "called by bidder through dapps when bidder win an auction and wants to pay to get the NFT",
        "params": {
          "deadline": ":  must be timestamp in future .",
          "listingId": "listing id",
          "r": ": normal output of an ECDSA signature",
          "s": ": normal output of an ECDSA signature `v`, `r` and `s` must be valid `secp256k1` signature from `owner`  or 'approved for all' account over EIP712-formatted function arguments.",
          "v": "needed to recover the public key"
        },
        "returns": {
          "_NFTContract": "nft contract address",
          "tokenId": "token id"
        }
      },
      "getAuctionBidDetails(bytes32,address)": {
        "details": "called by dapp or any contract to get info about a given bidder in a listing",
        "params": {
          "bidder": "bidder address",
          "listingId": "listing id"
        },
        "returns": {
          "bidId": "bid id",
          "bidPrice": "bid price",
          "nFTContract": " nft contract address",
          "tokenId": "nft token id"
        }
      },
      "getListingDetails(bytes32)": {
        "details": "called by dapp or any contract to get info about a gevin listing    ",
        "params": {
          "listingId": "listing id      "
        },
        "returns": {
          "buyer": " nft buyer address",
          "disputeTime": " when auction creator can dispute and take the insurance from the bad actor 'bidWinner' ",
          "endPrice": "purchase price",
          "insurancAmount": " amount of token locked as qualify for any bidder wants bid ",
          "isSellForEnabled": "true if auction enable direct selling",
          "iseBdEnabeled": "true if auction enabled  ",
          "listingPrice": "initial price or minimum price that the seller can accept",
          "releaseTime": " when auction ends",
          "sellFor": "if sell for enabled for auction, this should be more than zero",
          "seller": " nft seller address",
          "status": "in number {Sold,OnMarket, onAuction,Canceled}",
          "tokenAddress": " nft contract address",
          "tokenId": "NFT token Id "
        }
      },
      "getRoleAdmin(bytes32)": {
        "details": "Returns the admin role that controls `role`. See {grantRole} and {revokeRole}. To change a role's admin, use {_setRoleAdmin}."
      },
      "getRoleMember(bytes32,uint256)": {
        "details": "Returns one of the accounts that have `role`. `index` must be a value between 0 and {getRoleMemberCount}, non-inclusive. Role bearers are not sorted in any particular way, and their ordering may change at any point. WARNING: When using {getRoleMember} and {getRoleMemberCount}, make sure you perform all queries on the same block. See the following https://forum.openzeppelin.com/t/iterating-over-elements-on-enumerableset-in-openzeppelin-contracts/2296[forum post] for more information."
      },
      "getRoleMemberCount(bytes32)": {
        "details": "Returns the number of accounts that have `role`. Can be used together with {getRoleMember} to enumerate all bearers of a role."
      },
      "getServiceFee()": {
        "returns": {
          "_0": "the value of the state variable `_feeFraction`"
        }
      },
      "getStakeAllowance(address)": {
        "details": "this function calls StartFiStakes contract to get the total staked tokens for 'user' an substract the current reserves to get the total number of free tokens",
        "params": {
          "staker": ": participant address"
        },
        "returns": {
          "_0": "allowed number of tokens that this contract can transfer from the owner account"
        }
      },
      "getUserReserved(address)": {
        "details": "called by the dapp to get the user stakes on hold",
        "params": {
          "user": ": participant address"
        },
        "returns": {
          "_0": "the value of user reserves"
        }
      },
      "grantRole(bytes32,address)": {
        "details": "Overload {grantRole} to track enumerable memberships"
      },
      "hasRole(bytes32,address)": {
        "details": "Returns `true` if `account` has been granted `role`."
      },
      "listOnMarketplace(address,uint256,uint256)": {
        "details": "called by dapps to list new item",
        "params": {
          "listingPrice": "min price",
          "nFTContract": "nft contract address",
          "tokenId": "token id"
        },
        "returns": {
          "listId": "listing id** Users who want to list their NFT for sale with fixed price call this function  - user MUST approve contract to transfer the NFT      - user MUST have enough stakes used as insurance to not delist the item before the duration stated in the smart contract , if they decided to delist before that time, they lose this insurance. the required insurance amount is a percentage  based on the listing price.**  emit : ListOnMarketplace"
        }
      },
      "listOnMarketplaceWithPermit(address,uint256,uint256,uint256,uint8,bytes32,bytes32)": {
        "details": "called by dapps to list new item",
        "params": {
          "deadline": ":  must be timestamp in future .",
          "listingPrice": "min price",
          "nFTContract": "nft contract address",
          "r": ": normal output of an ECDSA signature",
          "s": ": normal output of an ECDSA signature `v`, `r` and `s` must be valid `secp256k1` signature from `owner`  or 'approved for all' account over EIP712-formatted function arguments.",
          "tokenId": "token id",
          "v": "needed to recover the public key"
        },
        "returns": {
          "listId": "listing id** Users who want to list their NFT for sale with fixed price call this function without sending prior transaction to `approve` the marketplace to transfer NFT. This function call`permit` [`eip-2612`] then call [`listOnMarketplace`] internally**"
        }
      },
      "marketPlaceName()": {
        "returns": {
          "_0": "market place name"
        }
      },
      "migrateEmergency(bytes32)": {
        "details": "called by seller through dapps when s/he wants to remove this token from the marketplace",
        "params": {
          "listingId": "listing id"
        },
        "returns": {
          "_NFTContract": "nft contract address",
          "tokenId": "token id emit : MigrateEmergency"
        }
      },
      "onERC721Received(address,address,uint256,bytes)": {
        "details": "See {IERC721Receiver-onERC721Received}. Always returns `IERC721Receiver.onERC721Received.selector`."
      },
      "pause()": {
        "details": "Pauses contract. Requirements: - the caller must be the owner."
      },
      "paused()": {
        "details": "Returns true if the contract is paused, and false otherwise."
      },
      "renounceRole(bytes32,address)": {
        "details": "Overload {renounceRole} to track enumerable memberships"
      },
      "revokeRole(bytes32,address)": {
        "details": "Overload {revokeRole} to track enumerable memberships"
      },
      "setPrice(uint256)": {
        "details": "only called by  `priceFeeds` to update the STFI/usdt price",
        "params": {
          "_stfiPrice": "the new stfi price per usdt"
        }
      },
      "setUsdCap(uint256)": {
        "details": "only called by `owner` to update the cap",
        "params": {
          "_usdCap": "the new fees value to be stored"
        }
      },
      "supportsInterface(bytes4)": {
        "details": "See {IERC165-supportsInterface}."
      },
      "unpause()": {
        "details": "Unpauses contract. Requirements: - the caller must be the owner."
      },
      "updateAdminWallet(address)": {
        "details": "update the admin wallet address. Requirements: - the caller must be the admin. - the `newWallet` must not be empty."
      },
      "winnerBid(bytes32)": {
        "details": "called by dapp or any contract to get info about a winner bid",
        "params": {
          "listingId": "listing id"
        },
        "returns": {
          "bidId": "bid id",
          "bidPrice": "bid price",
          "bidder": "bidder address",
          "isPurchased": "true if purchased",
          "nFTContract": " nft contract address",
          "tokenId": "nft token id"
        }
      }
    },
    "title": "StartFi MarketPlace desc  marketplace with all functions for item selling by either ceating auction or selling with fixed prices, the contract auto transfer orginal NFT issuer's shares",
    "version": 1
  },
  "userdoc": {
    "kind": "user",
    "methods": {
      "approveDeal(bytes32)": {
        "notice": "STartfi is regulated entity in Estonia and regulation compliance is forced in our smart contract, KYC is need first and any purchase transaction with price exceed the cap can't be proceed unless this deal is approved by Startfi by calling this function - called only by account in owner role"
      },
      "bid(bytes32,uint256)": {
        "notice": "** Users who interested in a certain auction, can bid on it by calling this   function.Bidder don't pay / transfer SFTI on bidding. Only when win the auction [`the auction is ended and this bidder is the last one to bid`], bidder pays by calling [`fulfillBid`] OR [`buyNowWithPermit`] - user MUST have enough stakes used as insurance; grantee and punishment mechanism for malicious bidder. If the bidder don't pay in the   - Bidders can bid as much as they wants , insurance is taken once in the first participation  - the bid price MUST be more than the last bid , if this is the first bid, the bid price MUST be more than or equal the minimum bid the auction creator state - Users CAN NOT bid on auction after auction time is over**"
      },
      "buyNow(bytes32)": {
        "notice": "**  Users who want to buy an NFT from the marketplace whether it's fixed price or auction with `sellForEnabled = true` can call this function. - User MUST approve contract to transfer the STFI token , MUST NOT be less than the price. - If the bid price exceed the cap, STartfi is regulated entity in Estonia and regulation compliance is forced in our smart contract, KYC is need first and the transaction can't be proceed unless this deal is approved by Startfi by calling [`approveDeal`]**if auction, the seller must enabe forSale. prices should be more than or equal the listing price"
      },
      "buyNowWithPermit(bytes32,uint256,uint256,uint8,bytes32,bytes32)": {
        "notice": "**  Users who want to buy an NFT from the marketplace whether it's fixed price or auction with `sellForEnabled = true` can this call this function without sending prior transaction to `approve` the marketplace to transfer STFI tokens. This function call`permit` [`eip-2612`] then call [`buyNow`] internally.**if auction, the seller must enabe forSale. prices should be more than or equal the listing price"
      },
      "deList(bytes32)": {
        "notice": "** Users who no longer want to keep their NFT in our marketplace can easly call this function to get their NFT back. Unsuccessful auction creators need to call it as well to get their nft back with no cost while the item added via [`listOnMarketplace`] or [`listOnMarketplaceWithPermit`]  might lose the insurance amount if they decided to delist the items before the greed time stated in the contract `delistAfter` - Only buyers can delist their own items  - Auction items can't delisted until the auction ended**auction can't be canceled , if seller delist time on sale on maretplace before time to delist, he will pay a fine"
      },
      "disputeAuction(bytes32)": {
        "notice": "**  If the winning bidder didn't pay within the time range stated in te contract `fulfillDuration`, Auction creator calls this function to get the nft back and punish the malicious bidder by taking the insurance (50% goes to the auction staking balance, 50% goes to the platform) - Current time  MUST be more than or equal the `disputeTime` for this auction      - Only auction Creator can dispute. - If the bid price exceed the cap, STartfi is regulated entity in Estonia and regulation compliance is forced in our smart contract, and the auction is approved , auction creator can dispute, if it's not approved yet, auction creator can not. - [`buyNow`]: Users who want to buy an NFT from the marketplace whether it's fixed price or auction with `sellForEnabled = true` can call this function. - User MUST approve contract to transfer the STFI token , MUST NOT be less than the price. - If the bid price exceed the cap, STartfi is regulated entity in Estonia and regulation compliance is forced in our smart contract, KYC is need first and the transaction can't be proceed unless this deal is approved by Startfi by calling [`approveDeal`]**after auction with winner bid . bidder didn't call fullfile within 3 days of auction closing  auction owner can call dispute to delist and punish the spam winner bidder fine is share between the plateform and the auction owner"
      },
      "freeReserves()": {
        "notice": "** users need to stake STFI to list or bid in the marketplace , these tokens needs to set free if the auction is no longer active and user can use these stakes to bid , list or even to withdraw tokens thus, function to free tokens reserved to items of market   in order to keep track of the on hold stakes.   we store user on-hold stakes in a map `userReserves`  to get user on-hold reserves call  getUserReserved on marketplace to get the number of stakes that not on hold, call  userReserves on marketplace , this function subtract the user stakes in staking contract from the on-hold stakes on marketplace This function is greedy, called by user only when s/he wants rather than force the check & updates with every transaction which might be very costly . - Only users can free their own reserves ** this function is greedy, called by user only when s/he wants rather than force the check & updates with every transaction which might be very costly ."
      },
      "fulfillBid(bytes32)": {
        "notice": "**  After the end of the Auction, the winner bidder , the last bidder call this function within a certain duration to pay and get the NFT - user MUST approve contract to transfer the STFI tokens , MUST NOT be less than the bid price      - Winner bidder can call it within the `fulfillDuration` right after the end of the auction. - Winner bider can call it even after the its end as long as the auction reactor has not called dispute. the winner bidder can have chat with the seller  and if the auction creator thinks the winner bidder is not a malicious bidder,  they might agree to wait so we don't want to prevent the scenario where the can see eye to eye. At the end the auction creator wants to buy the NFT and get the price - If the bid price exceed the cap, STartfi is regulated entity in Estonia and regulation compliance is forced in our smart contract, KYC is need first and the transaction can't be proceed unless this deal is approved by Startfi by calling [`approveDeal`] ** emit : FulfillBid"
      },
      "fulfillBidWithPermit(bytes32,uint256,uint8,bytes32,bytes32)": {
        "notice": "**After the end of the Auction, the winner bidder , the last bidder call this function within a certain duration to pay and get the NFT, they call this function without sending prior transaction to `approve` the marketplace to transfer STFI. This function call`permit` [`eip-2612`] then call [`fulfillBid`] internally.** "
      },
      "migrateEmergency(bytes32)": {
        "notice": "** Only when contract is paused, users can safely delist their token with no cost. Startfi team might have to pause the contract to make any update on the protocol terms or in emergency if high risk vulnerability is discovered to protect the users.     - Only buyers can delist their own items **called only when puased , let user to migrate for free if they don't agree on our new terms"
      }
    },
    "version": 1
  },
  "storageLayout": {
    "storage": [
      {
        "astId": 62,
        "contract": "contracts/StartFiMarketPlace.sol:StartFiMarketPlace",
        "label": "_roles",
        "offset": 0,
        "slot": "0",
        "type": "t_mapping(t_bytes32,t_struct(RoleData)57_storage)"
      },
      {
        "astId": 403,
        "contract": "contracts/StartFiMarketPlace.sol:StartFiMarketPlace",
        "label": "_roleMembers",
        "offset": 0,
        "slot": "1",
        "type": "t_mapping(t_bytes32,t_struct(AddressSet)3846_storage)"
      },
      {
        "astId": 685,
        "contract": "contracts/StartFiMarketPlace.sol:StartFiMarketPlace",
        "label": "_paused",
        "offset": 0,
        "slot": "2",
        "type": "t_bool"
      },
      {
        "astId": 4729,
        "contract": "contracts/StartFiMarketPlace.sol:StartFiMarketPlace",
        "label": "_marketPlaceName",
        "offset": 0,
        "slot": "3",
        "type": "t_string_storage"
      },
      {
        "astId": 8379,
        "contract": "contracts/StartFiMarketPlace.sol:StartFiMarketPlace",
        "label": "reputationContract",
        "offset": 0,
        "slot": "4",
        "type": "t_address"
      },
      {
        "astId": 8381,
        "contract": "contracts/StartFiMarketPlace.sol:StartFiMarketPlace",
        "label": "_paymentToken",
        "offset": 0,
        "slot": "5",
        "type": "t_address"
      },
      {
        "astId": 8384,
        "contract": "contracts/StartFiMarketPlace.sol:StartFiMarketPlace",
        "label": "_feeFraction",
        "offset": 0,
        "slot": "6",
        "type": "t_uint256"
      },
      {
        "astId": 8387,
        "contract": "contracts/StartFiMarketPlace.sol:StartFiMarketPlace",
        "label": "_feeBase",
        "offset": 0,
        "slot": "7",
        "type": "t_uint256"
      },
      {
        "astId": 8391,
        "contract": "contracts/StartFiMarketPlace.sol:StartFiMarketPlace",
        "label": "userReserves",
        "offset": 0,
        "slot": "8",
        "type": "t_mapping(t_address,t_uint256)"
      },
      {
        "astId": 8393,
        "contract": "contracts/StartFiMarketPlace.sol:StartFiMarketPlace",
        "label": "stakeContract",
        "offset": 0,
        "slot": "9",
        "type": "t_address"
      },
      {
        "astId": 8396,
        "contract": "contracts/StartFiMarketPlace.sol:StartFiMarketPlace",
        "label": "listqualifyPercentage",
        "offset": 0,
        "slot": "10",
        "type": "t_uint256"
      },
      {
        "astId": 8399,
        "contract": "contracts/StartFiMarketPlace.sol:StartFiMarketPlace",
        "label": "listqualifyPercentageBase",
        "offset": 0,
        "slot": "11",
        "type": "t_uint256"
      },
      {
        "astId": 8143,
        "contract": "contracts/StartFiMarketPlace.sol:StartFiMarketPlace",
        "label": "usdCap",
        "offset": 0,
        "slot": "12",
        "type": "t_uint256"
      },
      {
        "astId": 8145,
        "contract": "contracts/StartFiMarketPlace.sol:StartFiMarketPlace",
        "label": "stfiCap",
        "offset": 0,
        "slot": "13",
        "type": "t_uint256"
      },
      {
        "astId": 8147,
        "contract": "contracts/StartFiMarketPlace.sol:StartFiMarketPlace",
        "label": "stfiUsdt",
        "offset": 0,
        "slot": "14",
        "type": "t_uint256"
      },
      {
        "astId": 8151,
        "contract": "contracts/StartFiMarketPlace.sol:StartFiMarketPlace",
        "label": "kycedDeals",
        "offset": 0,
        "slot": "15",
        "type": "t_mapping(t_bytes32,t_bool)"
      },
      {
        "astId": 8654,
        "contract": "contracts/StartFiMarketPlace.sol:StartFiMarketPlace",
        "label": "offerTerms",
        "offset": 0,
        "slot": "16",
        "type": "t_mapping(t_address,t_struct(conditions)8665_storage)"
      },
      {
        "astId": 5069,
        "contract": "contracts/StartFiMarketPlace.sol:StartFiMarketPlace",
        "label": "delistAfter",
        "offset": 0,
        "slot": "17",
        "type": "t_uint256"
      },
      {
        "astId": 5072,
        "contract": "contracts/StartFiMarketPlace.sol:StartFiMarketPlace",
        "label": "fulfillDuration",
        "offset": 0,
        "slot": "18",
        "type": "t_uint256"
      },
      {
        "astId": 5114,
        "contract": "contracts/StartFiMarketPlace.sol:StartFiMarketPlace",
        "label": "_tokenListings",
        "offset": 0,
        "slot": "19",
        "type": "t_mapping(t_bytes32,t_struct(Listing)5104_storage)"
      },
      {
        "astId": 4877,
        "contract": "contracts/StartFiMarketPlace.sol:StartFiMarketPlace",
        "label": "listingBids",
        "offset": 0,
        "slot": "20",
        "type": "t_mapping(t_bytes32,t_mapping(t_address,t_struct(Bid)4865_storage))"
      },
      {
        "astId": 4882,
        "contract": "contracts/StartFiMarketPlace.sol:StartFiMarketPlace",
        "label": "bidToListing",
        "offset": 0,
        "slot": "21",
        "type": "t_mapping(t_bytes32,t_struct(WinningBid)4870_storage)"
      },
      {
        "astId": 8215,
        "contract": "contracts/StartFiMarketPlace.sol:StartFiMarketPlace",
        "label": "userListing",
        "offset": 0,
        "slot": "22",
        "type": "t_mapping(t_address,t_array(t_bytes32)dyn_storage)"
      },
      {
        "astId": 7792,
        "contract": "contracts/StartFiMarketPlace.sol:StartFiMarketPlace",
        "label": "_adminWallet",
        "offset": 0,
        "slot": "23",
        "type": "t_address"
      },
      {
        "astId": 770,
        "contract": "contracts/StartFiMarketPlace.sol:StartFiMarketPlace",
        "label": "_status",
        "offset": 0,
        "slot": "24",
        "type": "t_uint256"
      }
    ],
    "types": {
      "t_address": {
        "encoding": "inplace",
        "label": "address",
        "numberOfBytes": "20"
      },
      "t_array(t_bytes32)dyn_storage": {
        "base": "t_bytes32",
        "encoding": "dynamic_array",
        "label": "bytes32[]",
        "numberOfBytes": "32"
      },
      "t_bool": {
        "encoding": "inplace",
        "label": "bool",
        "numberOfBytes": "1"
      },
      "t_bytes32": {
        "encoding": "inplace",
        "label": "bytes32",
        "numberOfBytes": "32"
      },
      "t_enum(ListingStatus)5109": {
        "encoding": "inplace",
        "label": "enum MarketPlaceListing.ListingStatus",
        "numberOfBytes": "1"
      },
      "t_mapping(t_address,t_array(t_bytes32)dyn_storage)": {
        "encoding": "mapping",
        "key": "t_address",
        "label": "mapping(address => bytes32[])",
        "numberOfBytes": "32",
        "value": "t_array(t_bytes32)dyn_storage"
      },
      "t_mapping(t_address,t_bool)": {
        "encoding": "mapping",
        "key": "t_address",
        "label": "mapping(address => bool)",
        "numberOfBytes": "32",
        "value": "t_bool"
      },
      "t_mapping(t_address,t_struct(Bid)4865_storage)": {
        "encoding": "mapping",
        "key": "t_address",
        "label": "mapping(address => struct MarketPlaceBid.Bid)",
        "numberOfBytes": "32",
        "value": "t_struct(Bid)4865_storage"
      },
      "t_mapping(t_address,t_struct(conditions)8665_storage)": {
        "encoding": "mapping",
        "key": "t_address",
        "label": "mapping(address => struct StartFiMarketPlaceSpecialOffer.conditions)",
        "numberOfBytes": "32",
        "value": "t_struct(conditions)8665_storage"
      },
      "t_mapping(t_address,t_uint256)": {
        "encoding": "mapping",
        "key": "t_address",
        "label": "mapping(address => uint256)",
        "numberOfBytes": "32",
        "value": "t_uint256"
      },
      "t_mapping(t_bytes32,t_bool)": {
        "encoding": "mapping",
        "key": "t_bytes32",
        "label": "mapping(bytes32 => bool)",
        "numberOfBytes": "32",
        "value": "t_bool"
      },
      "t_mapping(t_bytes32,t_mapping(t_address,t_struct(Bid)4865_storage))": {
        "encoding": "mapping",
        "key": "t_bytes32",
        "label": "mapping(bytes32 => mapping(address => struct MarketPlaceBid.Bid))",
        "numberOfBytes": "32",
        "value": "t_mapping(t_address,t_struct(Bid)4865_storage)"
      },
      "t_mapping(t_bytes32,t_struct(AddressSet)3846_storage)": {
        "encoding": "mapping",
        "key": "t_bytes32",
        "label": "mapping(bytes32 => struct EnumerableSet.AddressSet)",
        "numberOfBytes": "32",
        "value": "t_struct(AddressSet)3846_storage"
      },
      "t_mapping(t_bytes32,t_struct(Listing)5104_storage)": {
        "encoding": "mapping",
        "key": "t_bytes32",
        "label": "mapping(bytes32 => struct MarketPlaceListing.Listing)",
        "numberOfBytes": "32",
        "value": "t_struct(Listing)5104_storage"
      },
      "t_mapping(t_bytes32,t_struct(RoleData)57_storage)": {
        "encoding": "mapping",
        "key": "t_bytes32",
        "label": "mapping(bytes32 => struct AccessControl.RoleData)",
        "numberOfBytes": "32",
        "value": "t_struct(RoleData)57_storage"
      },
      "t_mapping(t_bytes32,t_struct(WinningBid)4870_storage)": {
        "encoding": "mapping",
        "key": "t_bytes32",
        "label": "mapping(bytes32 => struct MarketPlaceBid.WinningBid)",
        "numberOfBytes": "32",
        "value": "t_struct(WinningBid)4870_storage"
      },
      "t_mapping(t_bytes32,t_uint256)": {
        "encoding": "mapping",
        "key": "t_bytes32",
        "label": "mapping(bytes32 => uint256)",
        "numberOfBytes": "32",
        "value": "t_uint256"
      },
      "t_string_storage": {
        "encoding": "bytes",
        "label": "string",
        "numberOfBytes": "32"
      },
      "t_struct(AddressSet)3846_storage": {
        "encoding": "inplace",
        "label": "struct EnumerableSet.AddressSet",
        "members": [
          {
            "astId": 3845,
            "contract": "contracts/StartFiMarketPlace.sol:StartFiMarketPlace",
            "label": "_inner",
            "offset": 0,
            "slot": "0",
            "type": "t_struct(Set)3571_storage"
          }
        ],
        "numberOfBytes": "64"
      },
      "t_struct(Bid)4865_storage": {
        "encoding": "inplace",
        "label": "struct MarketPlaceBid.Bid",
        "members": [
          {
            "astId": 4856,
            "contract": "contracts/StartFiMarketPlace.sol:StartFiMarketPlace",
            "label": "bidId",
            "offset": 0,
            "slot": "0",
            "type": "t_bytes32"
          },
          {
            "astId": 4858,
            "contract": "contracts/StartFiMarketPlace.sol:StartFiMarketPlace",
            "label": "nFTContract",
            "offset": 0,
            "slot": "1",
            "type": "t_address"
          },
          {
            "astId": 4860,
            "contract": "contracts/StartFiMarketPlace.sol:StartFiMarketPlace",
            "label": "tokenId",
            "offset": 0,
            "slot": "2",
            "type": "t_uint256"
          },
          {
            "astId": 4862,
            "contract": "contracts/StartFiMarketPlace.sol:StartFiMarketPlace",
            "label": "bidPrice",
            "offset": 0,
            "slot": "3",
            "type": "t_uint256"
          },
          {
            "astId": 4864,
            "contract": "contracts/StartFiMarketPlace.sol:StartFiMarketPlace",
            "label": "isPurchased",
            "offset": 0,
            "slot": "4",
            "type": "t_bool"
          }
        ],
        "numberOfBytes": "160"
      },
      "t_struct(Listing)5104_storage": {
        "encoding": "inplace",
        "label": "struct MarketPlaceListing.Listing",
        "members": [
          {
            "astId": 5078,
            "contract": "contracts/StartFiMarketPlace.sol:StartFiMarketPlace",
            "label": "nFTContract",
            "offset": 0,
            "slot": "0",
            "type": "t_address"
          },
          {
            "astId": 5080,
            "contract": "contracts/StartFiMarketPlace.sol:StartFiMarketPlace",
            "label": "tokenId",
            "offset": 0,
            "slot": "1",
            "type": "t_uint256"
          },
          {
            "astId": 5082,
            "contract": "contracts/StartFiMarketPlace.sol:StartFiMarketPlace",
            "label": "listingPrice",
            "offset": 0,
            "slot": "2",
            "type": "t_uint256"
          },
          {
            "astId": 5084,
            "contract": "contracts/StartFiMarketPlace.sol:StartFiMarketPlace",
            "label": "endPrice",
            "offset": 0,
            "slot": "3",
            "type": "t_uint256"
          },
          {
            "astId": 5086,
            "contract": "contracts/StartFiMarketPlace.sol:StartFiMarketPlace",
            "label": "seller",
            "offset": 0,
            "slot": "4",
            "type": "t_address"
          },
          {
            "astId": 5088,
            "contract": "contracts/StartFiMarketPlace.sol:StartFiMarketPlace",
            "label": "buyer",
            "offset": 0,
            "slot": "5",
            "type": "t_address"
          },
          {
            "astId": 5090,
            "contract": "contracts/StartFiMarketPlace.sol:StartFiMarketPlace",
            "label": "iseBdEnabeled",
            "offset": 20,
            "slot": "5",
            "type": "t_bool"
          },
          {
            "astId": 5092,
            "contract": "contracts/StartFiMarketPlace.sol:StartFiMarketPlace",
            "label": "isSellForEnabled",
            "offset": 21,
            "slot": "5",
            "type": "t_bool"
          },
          {
            "astId": 5094,
            "contract": "contracts/StartFiMarketPlace.sol:StartFiMarketPlace",
            "label": "releaseTime",
            "offset": 0,
            "slot": "6",
            "type": "t_uint256"
          },
          {
            "astId": 5096,
            "contract": "contracts/StartFiMarketPlace.sol:StartFiMarketPlace",
            "label": "disputeTime",
            "offset": 0,
            "slot": "7",
            "type": "t_uint256"
          },
          {
            "astId": 5098,
            "contract": "contracts/StartFiMarketPlace.sol:StartFiMarketPlace",
            "label": "insurancAmount",
            "offset": 0,
            "slot": "8",
            "type": "t_uint256"
          },
          {
            "astId": 5100,
            "contract": "contracts/StartFiMarketPlace.sol:StartFiMarketPlace",
            "label": "sellFor",
            "offset": 0,
            "slot": "9",
            "type": "t_uint256"
          },
          {
            "astId": 5103,
            "contract": "contracts/StartFiMarketPlace.sol:StartFiMarketPlace",
            "label": "status",
            "offset": 0,
            "slot": "10",
            "type": "t_enum(ListingStatus)5109"
          }
        ],
        "numberOfBytes": "352"
      },
      "t_struct(RoleData)57_storage": {
        "encoding": "inplace",
        "label": "struct AccessControl.RoleData",
        "members": [
          {
            "astId": 54,
            "contract": "contracts/StartFiMarketPlace.sol:StartFiMarketPlace",
            "label": "members",
            "offset": 0,
            "slot": "0",
            "type": "t_mapping(t_address,t_bool)"
          },
          {
            "astId": 56,
            "contract": "contracts/StartFiMarketPlace.sol:StartFiMarketPlace",
            "label": "adminRole",
            "offset": 0,
            "slot": "1",
            "type": "t_bytes32"
          }
        ],
        "numberOfBytes": "64"
      },
      "t_struct(Set)3571_storage": {
        "encoding": "inplace",
        "label": "struct EnumerableSet.Set",
        "members": [
          {
            "astId": 3566,
            "contract": "contracts/StartFiMarketPlace.sol:StartFiMarketPlace",
            "label": "_values",
            "offset": 0,
            "slot": "0",
            "type": "t_array(t_bytes32)dyn_storage"
          },
          {
            "astId": 3570,
            "contract": "contracts/StartFiMarketPlace.sol:StartFiMarketPlace",
            "label": "_indexes",
            "offset": 0,
            "slot": "1",
            "type": "t_mapping(t_bytes32,t_uint256)"
          }
        ],
        "numberOfBytes": "64"
      },
      "t_struct(WinningBid)4870_storage": {
        "encoding": "inplace",
        "label": "struct MarketPlaceBid.WinningBid",
        "members": [
          {
            "astId": 4867,
            "contract": "contracts/StartFiMarketPlace.sol:StartFiMarketPlace",
            "label": "bidId",
            "offset": 0,
            "slot": "0",
            "type": "t_bytes32"
          },
          {
            "astId": 4869,
            "contract": "contracts/StartFiMarketPlace.sol:StartFiMarketPlace",
            "label": "bidder",
            "offset": 0,
            "slot": "1",
            "type": "t_address"
          }
        ],
        "numberOfBytes": "64"
      },
      "t_struct(conditions)8665_storage": {
        "encoding": "inplace",
        "label": "struct StartFiMarketPlaceSpecialOffer.conditions",
        "members": [
          {
            "astId": 8656,
            "contract": "contracts/StartFiMarketPlace.sol:StartFiMarketPlace",
            "label": "delistAfter",
            "offset": 0,
            "slot": "0",
            "type": "t_uint256"
          },
          {
            "astId": 8658,
            "contract": "contracts/StartFiMarketPlace.sol:StartFiMarketPlace",
            "label": "fee",
            "offset": 0,
            "slot": "1",
            "type": "t_uint256"
          },
          {
            "astId": 8660,
            "contract": "contracts/StartFiMarketPlace.sol:StartFiMarketPlace",
            "label": "listqualifyPercentage",
            "offset": 0,
            "slot": "2",
            "type": "t_uint256"
          },
          {
            "astId": 8662,
            "contract": "contracts/StartFiMarketPlace.sol:StartFiMarketPlace",
            "label": "listqualifyPercentageBase",
            "offset": 0,
            "slot": "3",
            "type": "t_uint256"
          },
          {
            "astId": 8664,
            "contract": "contracts/StartFiMarketPlace.sol:StartFiMarketPlace",
            "label": "feeBase",
            "offset": 0,
            "slot": "4",
            "type": "t_uint256"
          }
        ],
        "numberOfBytes": "160"
      },
      "t_uint256": {
        "encoding": "inplace",
        "label": "uint256",
        "numberOfBytes": "32"
      }
    }
  }
}