{
  "address": "0xAE72D7af0d5016f9fa5CE9347Be8dF1F750df04d",
  "abi": [
    {
      "inputs": [
        {
          "internalType": "string",
          "name": "name",
          "type": "string"
        },
        {
          "internalType": "string",
          "name": "symbol",
          "type": "string"
        },
        {
          "internalType": "string",
          "name": "baseTokenURI",
          "type": "string"
        }
      ],
      "stateMutability": "nonpayable",
      "type": "constructor"
    },
    {
      "anonymous": false,
      "inputs": [
        {
          "indexed": true,
          "internalType": "address",
          "name": "owner",
          "type": "address"
        },
        {
          "indexed": true,
          "internalType": "address",
          "name": "approved",
          "type": "address"
        },
        {
          "indexed": true,
          "internalType": "uint256",
          "name": "tokenId",
          "type": "uint256"
        }
      ],
      "name": "Approval",
      "type": "event"
    },
    {
      "anonymous": false,
      "inputs": [
        {
          "indexed": true,
          "internalType": "address",
          "name": "owner",
          "type": "address"
        },
        {
          "indexed": true,
          "internalType": "address",
          "name": "operator",
          "type": "address"
        },
        {
          "indexed": false,
          "internalType": "bool",
          "name": "approved",
          "type": "bool"
        }
      ],
      "name": "ApprovalForAll",
      "type": "event"
    },
    {
      "anonymous": false,
      "inputs": [
        {
          "indexed": false,
          "internalType": "address",
          "name": "account",
          "type": "address"
        }
      ],
      "name": "Paused",
      "type": "event"
    },
    {
      "anonymous": false,
      "inputs": [
        {
          "indexed": true,
          "internalType": "bytes32",
          "name": "role",
          "type": "bytes32"
        },
        {
          "indexed": true,
          "internalType": "bytes32",
          "name": "previousAdminRole",
          "type": "bytes32"
        },
        {
          "indexed": true,
          "internalType": "bytes32",
          "name": "newAdminRole",
          "type": "bytes32"
        }
      ],
      "name": "RoleAdminChanged",
      "type": "event"
    },
    {
      "anonymous": false,
      "inputs": [
        {
          "indexed": true,
          "internalType": "bytes32",
          "name": "role",
          "type": "bytes32"
        },
        {
          "indexed": true,
          "internalType": "address",
          "name": "account",
          "type": "address"
        },
        {
          "indexed": true,
          "internalType": "address",
          "name": "sender",
          "type": "address"
        }
      ],
      "name": "RoleGranted",
      "type": "event"
    },
    {
      "anonymous": false,
      "inputs": [
        {
          "indexed": true,
          "internalType": "bytes32",
          "name": "role",
          "type": "bytes32"
        },
        {
          "indexed": true,
          "internalType": "address",
          "name": "account",
          "type": "address"
        },
        {
          "indexed": true,
          "internalType": "address",
          "name": "sender",
          "type": "address"
        }
      ],
      "name": "RoleRevoked",
      "type": "event"
    },
    {
      "anonymous": false,
      "inputs": [
        {
          "indexed": true,
          "internalType": "address",
          "name": "from",
          "type": "address"
        },
        {
          "indexed": true,
          "internalType": "address",
          "name": "to",
          "type": "address"
        },
        {
          "indexed": true,
          "internalType": "uint256",
          "name": "tokenId",
          "type": "uint256"
        }
      ],
      "name": "Transfer",
      "type": "event"
    },
    {
      "anonymous": false,
      "inputs": [
        {
          "indexed": false,
          "internalType": "address",
          "name": "account",
          "type": "address"
        }
      ],
      "name": "Unpaused",
      "type": "event"
    },
    {
      "inputs": [],
      "name": "DEFAULT_ADMIN_ROLE",
      "outputs": [
        {
          "internalType": "bytes32",
          "name": "",
          "type": "bytes32"
        }
      ],
      "stateMutability": "view",
      "type": "function"
    },
    {
      "inputs": [],
      "name": "DOMAIN_SEPARATOR",
      "outputs": [
        {
          "internalType": "bytes32",
          "name": "",
          "type": "bytes32"
        }
      ],
      "stateMutability": "view",
      "type": "function"
    },
    {
      "inputs": [],
      "name": "MINTER_ROLE",
      "outputs": [
        {
          "internalType": "bytes32",
          "name": "",
          "type": "bytes32"
        }
      ],
      "stateMutability": "view",
      "type": "function"
    },
    {
      "inputs": [],
      "name": "PAUSER_ROLE",
      "outputs": [
        {
          "internalType": "bytes32",
          "name": "",
          "type": "bytes32"
        }
      ],
      "stateMutability": "view",
      "type": "function"
    },
    {
      "inputs": [],
      "name": "PERMIT_TYPEHASH",
      "outputs": [
        {
          "internalType": "bytes32",
          "name": "",
          "type": "bytes32"
        }
      ],
      "stateMutability": "view",
      "type": "function"
    },
    {
      "inputs": [],
      "name": "TRANSFER_TYPEHASH",
      "outputs": [
        {
          "internalType": "bytes32",
          "name": "",
          "type": "bytes32"
        }
      ],
      "stateMutability": "view",
      "type": "function"
    },
    {
      "inputs": [
        {
          "internalType": "address",
          "name": "to",
          "type": "address"
        },
        {
          "internalType": "uint256",
          "name": "tokenId",
          "type": "uint256"
        }
      ],
      "name": "approve",
      "outputs": [],
      "stateMutability": "nonpayable",
      "type": "function"
    },
    {
      "inputs": [
        {
          "internalType": "address",
          "name": "owner",
          "type": "address"
        }
      ],
      "name": "balanceOf",
      "outputs": [
        {
          "internalType": "uint256",
          "name": "",
          "type": "uint256"
        }
      ],
      "stateMutability": "view",
      "type": "function"
    },
    {
      "inputs": [
        {
          "internalType": "uint256",
          "name": "tokenId",
          "type": "uint256"
        }
      ],
      "name": "burn",
      "outputs": [],
      "stateMutability": "nonpayable",
      "type": "function"
    },
    {
      "inputs": [
        {
          "internalType": "uint256",
          "name": "tokenId",
          "type": "uint256"
        }
      ],
      "name": "getApproved",
      "outputs": [
        {
          "internalType": "address",
          "name": "",
          "type": "address"
        }
      ],
      "stateMutability": "view",
      "type": "function"
    },
    {
      "inputs": [],
      "name": "getChainId",
      "outputs": [
        {
          "internalType": "uint256",
          "name": "chainId",
          "type": "uint256"
        }
      ],
      "stateMutability": "view",
      "type": "function"
    },
    {
      "inputs": [
        {
          "internalType": "bytes32",
          "name": "role",
          "type": "bytes32"
        }
      ],
      "name": "getRoleAdmin",
      "outputs": [
        {
          "internalType": "bytes32",
          "name": "",
          "type": "bytes32"
        }
      ],
      "stateMutability": "view",
      "type": "function"
    },
    {
      "inputs": [
        {
          "internalType": "bytes32",
          "name": "role",
          "type": "bytes32"
        },
        {
          "internalType": "uint256",
          "name": "index",
          "type": "uint256"
        }
      ],
      "name": "getRoleMember",
      "outputs": [
        {
          "internalType": "address",
          "name": "",
          "type": "address"
        }
      ],
      "stateMutability": "view",
      "type": "function"
    },
    {
      "inputs": [
        {
          "internalType": "bytes32",
          "name": "role",
          "type": "bytes32"
        }
      ],
      "name": "getRoleMemberCount",
      "outputs": [
        {
          "internalType": "uint256",
          "name": "",
          "type": "uint256"
        }
      ],
      "stateMutability": "view",
      "type": "function"
    },
    {
      "inputs": [
        {
          "internalType": "bytes32",
          "name": "role",
          "type": "bytes32"
        },
        {
          "internalType": "address",
          "name": "account",
          "type": "address"
        }
      ],
      "name": "grantRole",
      "outputs": [],
      "stateMutability": "nonpayable",
      "type": "function"
    },
    {
      "inputs": [
        {
          "internalType": "bytes32",
          "name": "role",
          "type": "bytes32"
        },
        {
          "internalType": "address",
          "name": "account",
          "type": "address"
        }
      ],
      "name": "hasRole",
      "outputs": [
        {
          "internalType": "bool",
          "name": "",
          "type": "bool"
        }
      ],
      "stateMutability": "view",
      "type": "function"
    },
    {
      "inputs": [
        {
          "internalType": "address",
          "name": "owner",
          "type": "address"
        },
        {
          "internalType": "address",
          "name": "operator",
          "type": "address"
        }
      ],
      "name": "isApprovedForAll",
      "outputs": [
        {
          "internalType": "bool",
          "name": "",
          "type": "bool"
        }
      ],
      "stateMutability": "view",
      "type": "function"
    },
    {
      "inputs": [
        {
          "internalType": "address",
          "name": "to",
          "type": "address"
        },
        {
          "internalType": "string",
          "name": "_tokenURI",
          "type": "string"
        }
      ],
      "name": "mint",
      "outputs": [
        {
          "internalType": "uint256",
          "name": "",
          "type": "uint256"
        }
      ],
      "stateMutability": "nonpayable",
      "type": "function"
    },
    {
      "inputs": [
        {
          "internalType": "address",
          "name": "to",
          "type": "address"
        },
        {
          "internalType": "string",
          "name": "_tokenURI",
          "type": "string"
        },
        {
          "internalType": "uint8",
          "name": "share",
          "type": "uint8"
        },
        {
          "internalType": "uint8",
          "name": "separator",
          "type": "uint8"
        }
      ],
      "name": "mintWithRoyalty",
      "outputs": [
        {
          "internalType": "uint256",
          "name": "",
          "type": "uint256"
        }
      ],
      "stateMutability": "nonpayable",
      "type": "function"
    },
    {
      "inputs": [],
      "name": "name",
      "outputs": [
        {
          "internalType": "string",
          "name": "",
          "type": "string"
        }
      ],
      "stateMutability": "view",
      "type": "function"
    },
    {
      "inputs": [
        {
          "internalType": "address",
          "name": "",
          "type": "address"
        }
      ],
      "name": "nonces",
      "outputs": [
        {
          "internalType": "uint256",
          "name": "",
          "type": "uint256"
        }
      ],
      "stateMutability": "view",
      "type": "function"
    },
    {
      "inputs": [
        {
          "internalType": "uint256",
          "name": "tokenId",
          "type": "uint256"
        }
      ],
      "name": "ownerOf",
      "outputs": [
        {
          "internalType": "address",
          "name": "",
          "type": "address"
        }
      ],
      "stateMutability": "view",
      "type": "function"
    },
    {
      "inputs": [],
      "name": "pause",
      "outputs": [],
      "stateMutability": "nonpayable",
      "type": "function"
    },
    {
      "inputs": [],
      "name": "paused",
      "outputs": [
        {
          "internalType": "bool",
          "name": "",
          "type": "bool"
        }
      ],
      "stateMutability": "view",
      "type": "function"
    },
    {
      "inputs": [
        {
          "internalType": "address",
          "name": "target",
          "type": "address"
        },
        {
          "internalType": "address",
          "name": "spender",
          "type": "address"
        },
        {
          "internalType": "uint256",
          "name": "tokenId",
          "type": "uint256"
        },
        {
          "internalType": "uint256",
          "name": "deadline",
          "type": "uint256"
        },
        {
          "internalType": "uint8",
          "name": "v",
          "type": "uint8"
        },
        {
          "internalType": "bytes32",
          "name": "r",
          "type": "bytes32"
        },
        {
          "internalType": "bytes32",
          "name": "s",
          "type": "bytes32"
        }
      ],
      "name": "permit",
      "outputs": [
        {
          "internalType": "bool",
          "name": "",
          "type": "bool"
        }
      ],
      "stateMutability": "nonpayable",
      "type": "function"
    },
    {
      "inputs": [
        {
          "internalType": "bytes32",
          "name": "role",
          "type": "bytes32"
        },
        {
          "internalType": "address",
          "name": "account",
          "type": "address"
        }
      ],
      "name": "renounceRole",
      "outputs": [],
      "stateMutability": "nonpayable",
      "type": "function"
    },
    {
      "inputs": [
        {
          "internalType": "bytes32",
          "name": "role",
          "type": "bytes32"
        },
        {
          "internalType": "address",
          "name": "account",
          "type": "address"
        }
      ],
      "name": "revokeRole",
      "outputs": [],
      "stateMutability": "nonpayable",
      "type": "function"
    },
    {
      "inputs": [
        {
          "internalType": "uint256",
          "name": "_tokenId",
          "type": "uint256"
        },
        {
          "internalType": "uint256",
          "name": "_value",
          "type": "uint256"
        }
      ],
      "name": "royaltyInfo",
      "outputs": [
        {
          "internalType": "address",
          "name": "issuer",
          "type": "address"
        },
        {
          "internalType": "uint256",
          "name": "royaltyAmount",
          "type": "uint256"
        }
      ],
      "stateMutability": "view",
      "type": "function"
    },
    {
      "inputs": [
        {
          "internalType": "address",
          "name": "from",
          "type": "address"
        },
        {
          "internalType": "address",
          "name": "to",
          "type": "address"
        },
        {
          "internalType": "uint256",
          "name": "tokenId",
          "type": "uint256"
        }
      ],
      "name": "safeTransferFrom",
      "outputs": [],
      "stateMutability": "nonpayable",
      "type": "function"
    },
    {
      "inputs": [
        {
          "internalType": "address",
          "name": "from",
          "type": "address"
        },
        {
          "internalType": "address",
          "name": "to",
          "type": "address"
        },
        {
          "internalType": "uint256",
          "name": "tokenId",
          "type": "uint256"
        },
        {
          "internalType": "bytes",
          "name": "_data",
          "type": "bytes"
        }
      ],
      "name": "safeTransferFrom",
      "outputs": [],
      "stateMutability": "nonpayable",
      "type": "function"
    },
    {
      "inputs": [
        {
          "internalType": "address",
          "name": "operator",
          "type": "address"
        },
        {
          "internalType": "bool",
          "name": "approved",
          "type": "bool"
        }
      ],
      "name": "setApprovalForAll",
      "outputs": [],
      "stateMutability": "nonpayable",
      "type": "function"
    },
    {
      "inputs": [
        {
          "internalType": "bytes4",
          "name": "interfaceId",
          "type": "bytes4"
        }
      ],
      "name": "supportsInterface",
      "outputs": [
        {
          "internalType": "bool",
          "name": "",
          "type": "bool"
        }
      ],
      "stateMutability": "view",
      "type": "function"
    },
    {
      "inputs": [],
      "name": "supportsPermit",
      "outputs": [
        {
          "internalType": "bytes4",
          "name": "interfaceId",
          "type": "bytes4"
        }
      ],
      "stateMutability": "pure",
      "type": "function"
    },
    {
      "inputs": [],
      "name": "supportsRoyalty",
      "outputs": [
        {
          "internalType": "bytes4",
          "name": "interfaceId",
          "type": "bytes4"
        }
      ],
      "stateMutability": "pure",
      "type": "function"
    },
    {
      "inputs": [],
      "name": "symbol",
      "outputs": [
        {
          "internalType": "string",
          "name": "",
          "type": "string"
        }
      ],
      "stateMutability": "view",
      "type": "function"
    },
    {
      "inputs": [
        {
          "internalType": "uint256",
          "name": "index",
          "type": "uint256"
        }
      ],
      "name": "tokenByIndex",
      "outputs": [
        {
          "internalType": "uint256",
          "name": "",
          "type": "uint256"
        }
      ],
      "stateMutability": "view",
      "type": "function"
    },
    {
      "inputs": [
        {
          "internalType": "address",
          "name": "owner",
          "type": "address"
        },
        {
          "internalType": "uint256",
          "name": "index",
          "type": "uint256"
        }
      ],
      "name": "tokenOfOwnerByIndex",
      "outputs": [
        {
          "internalType": "uint256",
          "name": "",
          "type": "uint256"
        }
      ],
      "stateMutability": "view",
      "type": "function"
    },
    {
      "inputs": [
        {
          "internalType": "uint256",
          "name": "tokenId",
          "type": "uint256"
        }
      ],
      "name": "tokenURI",
      "outputs": [
        {
          "internalType": "string",
          "name": "",
          "type": "string"
        }
      ],
      "stateMutability": "view",
      "type": "function"
    },
    {
      "inputs": [],
      "name": "totalSupply",
      "outputs": [
        {
          "internalType": "uint256",
          "name": "",
          "type": "uint256"
        }
      ],
      "stateMutability": "view",
      "type": "function"
    },
    {
      "inputs": [
        {
          "internalType": "address",
          "name": "from",
          "type": "address"
        },
        {
          "internalType": "address",
          "name": "to",
          "type": "address"
        },
        {
          "internalType": "uint256",
          "name": "tokenId",
          "type": "uint256"
        }
      ],
      "name": "transferFrom",
      "outputs": [],
      "stateMutability": "nonpayable",
      "type": "function"
    },
    {
      "inputs": [
        {
          "internalType": "address",
          "name": "target",
          "type": "address"
        },
        {
          "internalType": "address",
          "name": "to",
          "type": "address"
        },
        {
          "internalType": "uint256",
          "name": "tokenId",
          "type": "uint256"
        },
        {
          "internalType": "uint256",
          "name": "deadline",
          "type": "uint256"
        },
        {
          "internalType": "uint8",
          "name": "v",
          "type": "uint8"
        },
        {
          "internalType": "bytes32",
          "name": "r",
          "type": "bytes32"
        },
        {
          "internalType": "bytes32",
          "name": "s",
          "type": "bytes32"
        }
      ],
      "name": "transferWithPermit",
      "outputs": [
        {
          "internalType": "bool",
          "name": "",
          "type": "bool"
        }
      ],
      "stateMutability": "nonpayable",
      "type": "function"
    },
    {
      "inputs": [],
      "name": "unpause",
      "outputs": [],
      "stateMutability": "nonpayable",
      "type": "function"
    }
  ],
  "transactionHash": "0xccf265dd8304f03f29d6ba3d22f1e9a1dc68511723be498242be2793753a8a59",
  "args": [
    "StartFiNFTToken",
    "STFI",
    "http://ipfs.io"
  ],
  "solcInputHash": "aee37ec5b576732f7c85fdf26fc1c9b9",
  "bytecode": "0x60806040523480156200001157600080fd5b506040516200397a3803806200397a83398101604081905262000034916200046b565b8283838382828160049080519060200190620000529291906200030e565b508051620000689060059060208401906200030e565b5050600e805460ff191690555080516200008a9060109060208401906200030e565b5062000098600033620001a5565b620000c47f9f2df0fed2c77648de5860a4cc508cd0818c85b8b8a1ab4ceeef8d981c8956a633620001a5565b620000f07f65d7a28e3265b37a6474929f336521b332c1681b933f6cb9f3376673440d862a33620001a5565b5050815160208084019190912060408051808201825260018152603160f81b9084015280517f8b73c3c69bb8fe3d512ecc4cf759cc79239f7b179b0ffacaa9a75d522b39400f938101939093528201527fc89efdaa54c0f20c7adf612882df0950f5a951637e0307cdcb4c672f298b8bc6606082015246608082018190523060a0830152915060c00160408051601f19818403018152919052805160209091012060115550506001601355506200054f915050565b620001bc8282620001e860201b620012c01760201c565b6000828152600360209081526040909120620001e3918390620012ce620001f8821b17901c565b505050565b620001f4828262000218565b5050565b60006200020f836001600160a01b038416620002bc565b90505b92915050565b60008281526002602090815260408083206001600160a01b038516845290915290205460ff16620001f45760008281526002602090815260408083206001600160a01b03851684529091529020805460ff19166001179055620002783390565b6001600160a01b0316816001600160a01b0316837f2f8788117e7eff1d82e926ec794901d17c78024a50270940304540a733656f0d60405160405180910390a45050565b6000818152600183016020526040812054620003055750815460018181018455600084815260208082209093018490558454848252828601909352604090209190915562000212565b50600062000212565b8280546200031c90620004fc565b90600052602060002090601f0160209004810192826200034057600085556200038b565b82601f106200035b57805160ff19168380011785556200038b565b828001600101855582156200038b579182015b828111156200038b5782518255916020019190600101906200036e565b50620003999291506200039d565b5090565b5b808211156200039957600081556001016200039e565b600082601f830112620003c657600080fd5b81516001600160401b0380821115620003e357620003e362000539565b604051601f8301601f19908116603f011681019082821181831017156200040e576200040e62000539565b816040528381526020925086838588010111156200042b57600080fd5b600091505b838210156200044f578582018301518183018401529082019062000430565b83821115620004615760008385830101525b9695505050505050565b6000806000606084860312156200048157600080fd5b83516001600160401b03808211156200049957600080fd5b620004a787838801620003b4565b94506020860151915080821115620004be57600080fd5b620004cc87838801620003b4565b93506040860151915080821115620004e357600080fd5b50620004f286828701620003b4565b9150509250925092565b600181811c908216806200051157607f821691505b602082108114156200053357634e487b7160e01b600052602260045260246000fd5b50919050565b634e487b7160e01b600052604160045260246000fd5b61341b806200055f6000396000f3fe608060405234801561001057600080fd5b506004361061025d5760003560e01c80635c975abb11610146578063a22cb465116100c3578063d0def52111610087578063d0def52114610564578063d505accf14610577578063d53913931461058a578063d547741f146105b1578063e63ab1e9146105c4578063e985e9c5146105eb57600080fd5b8063a22cb46514610505578063b88d4fde14610518578063c87b56dd1461052b578063ca15c8731461053e578063d0ba95581461055157600080fd5b80638456cb591161010a5780638456cb59146104c75780639010d07c146104cf57806391d14854146104e257806395d89b41146104f5578063a217fddf146104fd57600080fd5b80635c975abb14610463578063605629d61461046e5780636352211e1461048157806370a08231146104945780637ecebe00146104a757600080fd5b80632f2ff15d116101df5780633644e515116101a35780633644e5151461040657806336568abe1461040f5780633f4ba83a1461042257806342842e0e1461042a57806342966c681461043d5780634f6ccce71461045057600080fd5b80632f2ff15d146103a65780632f745c59146103b95780633088ac3e146103cc57806330adf81f146103d95780633408e4701461040057600080fd5b806318160ddd1161022657806318160ddd1461031457806323b872dd1461031c578063248a9ca31461032f57806328a96ed1146103525780632a55205a1461037457600080fd5b8062bf26f41461026257806301ffc9a71461029c57806306fdde03146102bf578063081812fc146102d4578063095ea7b3146102ff575b600080fd5b6102897fdf2fb49a1f69c8a73b114786b259dbb4a030c6bfe9099db7004c26857f8df6c781565b6040519081526020015b60405180910390f35b6102af6102aa366004612ecc565b6105fe565b6040519015158152602001610293565b6102c7610644565b6040516102939190613013565b6102e76102e2366004612e6e565b6106d6565b6040516001600160a01b039091168152602001610293565b61031261030d366004612e44565b610763565b005b600c54610289565b61031261032a366004612c33565b6107e9565b61028961033d366004612e6e565b60009081526002602052604090206001015490565b63d505accf60e01b5b6040516001600160e01b03199091168152602001610293565b610387610382366004612eaa565b61081b565b604080516001600160a01b039093168352602083019190915201610293565b6103126103b4366004612e87565b610892565b6102896103c7366004612e44565b6108b4565b63152a902d60e11b61035b565b6102897f48d39b37a35214940203bbbd4f383519797769b13d936f387d89430afef2768881565b46610289565b61028960115481565b61031261041d366004612e87565b61094a565b61031261096c565b610312610438366004612c33565b610a09565b61031261044b366004612e6e565b610a24565b61028961045e366004612e6e565b610a9e565b600e5460ff166102af565b6102af61047c366004612ceb565b610b31565b6102e761048f366004612e6e565b610c38565b6102896104a2366004612be5565b610caf565b6102896104b5366004612be5565b60126020526000908152604090205481565b610312610d36565b6102e76104dd366004612eaa565b610dcf565b6102af6104f0366004612e87565b610dee565b6102c7610e19565b610289600081565b610312610513366004612d55565b610e28565b610312610526366004612c6f565b610eed565b6102c7610539366004612e6e565b610f25565b61028961054c366004612e6e565b61108f565b61028961055f366004612dd5565b6110a6565b610289610572366004612d91565b61116a565b6102af610585366004612ceb565b6111a1565b6102897f9f2df0fed2c77648de5860a4cc508cd0818c85b8b8a1ab4ceeef8d981c8956a681565b6103126105bf366004612e87565b611288565b6102897f65d7a28e3265b37a6474929f336521b332c1681b933f6cb9f3376673440d862a81565b6102af6105f9366004612c00565b611292565b60006001600160e01b0319821663152a902d60e11b148061062f57506001600160e01b0319821663d505accf60e01b145b8061063e575061063e826112e3565b92915050565b606060048054610653906132f7565b80601f016020809104026020016040519081016040528092919081815260200182805461067f906132f7565b80156106cc5780601f106106a1576101008083540402835291602001916106cc565b820191906000526020600020905b8154815290600101906020018083116106af57829003601f168201915b5050505050905090565b60006106e1826112ee565b6107475760405162461bcd60e51b815260206004820152602c60248201527f4552433732313a20617070726f76656420717565727920666f72206e6f6e657860448201526b34b9ba32b73a103a37b5b2b760a11b60648201526084015b60405180910390fd5b506000908152600860205260409020546001600160a01b031690565b600061076e82610c38565b9050806001600160a01b0316836001600160a01b031614156107a25760405162461bcd60e51b815260040161073e906130d5565b336001600160a01b03821614806107be57506107be8133611292565b6107da5760405162461bcd60e51b815260040161073e90613078565b6107e4838361130b565b505050565b6107f4335b82611379565b6108105760405162461bcd60e51b815260040161073e90613116565b6107e483838361143b565b6000828152602081905260408120546001600160a01b031690811561088b5760008481526001602090815260408083206001600160a01b038616845282529182902082518084019093525460ff80821680855261010090920416918301829052610887918691906115e6565b9150505b9250929050565b61089c8282611607565b60008281526003602052604090206107e490826112ce565b60006108bf83610caf565b82106109215760405162461bcd60e51b815260206004820152602b60248201527f455243373231456e756d657261626c653a206f776e657220696e646578206f7560448201526a74206f6620626f756e647360a81b606482015260840161073e565b506001600160a01b03919091166000908152600a60209081526040808320938352929052205490565b610954828261162d565b60008281526003602052604090206107e490826116a7565b6109967f65d7a28e3265b37a6474929f336521b332c1681b933f6cb9f3376673440d862a33610dee565b6109ff5760405162461bcd60e51b815260206004820152603460248201527f4552433732314d696e7465725061757365723a206d75737420686176652070616044820152737573657220726f6c6520746f20756e706175736560601b606482015260840161073e565b610a076116bc565b565b6107e483838360405180602001604052806000815250610eed565b610a2d336107ee565b610a925760405162461bcd60e51b815260206004820152603060248201527f4552433732314275726e61626c653a2063616c6c6572206973206e6f74206f7760448201526f1b995c881b9bdc88185c1c1c9bdd995960821b606482015260840161073e565b610a9b8161174f565b50565b6000610aa9600c5490565b8210610b0c5760405162461bcd60e51b815260206004820152602c60248201527f455243373231456e756d657261626c653a20676c6f62616c20696e646578206f60448201526b7574206f6620626f756e647360a01b606482015260840161073e565b600c8281548110610b1f57610b1f6133a3565b90600052602060002001549050919050565b6000610b428888888888888861178f565b610b8e5760405162461bcd60e51b815260206004820152601e60248201527f53746172744669204e46543a20496e76616c6964207369676e61747572650000604482015260640161073e565b6000610b9987610c38565b9050806001600160a01b0316886001600160a01b03161415610bcd5760405162461bcd60e51b815260040161073e906130d5565b806001600160a01b0316896001600160a01b03161480610bf25750610bf2818a611292565b610c0e5760405162461bcd60e51b815260040161073e90613078565b610c29898989604051806020016040528060008152506118d4565b50600198975050505050505050565b6000818152600660205260408120546001600160a01b03168061063e5760405162461bcd60e51b815260206004820152602960248201527f4552433732313a206f776e657220717565727920666f72206e6f6e657869737460448201526832b73a103a37b5b2b760b91b606482015260840161073e565b60006001600160a01b038216610d1a5760405162461bcd60e51b815260206004820152602a60248201527f4552433732313a2062616c616e636520717565727920666f7220746865207a65604482015269726f206164647265737360b01b606482015260840161073e565b506001600160a01b031660009081526007602052604090205490565b610d607f65d7a28e3265b37a6474929f336521b332c1681b933f6cb9f3376673440d862a33610dee565b610dc75760405162461bcd60e51b815260206004820152603260248201527f4552433732314d696e7465725061757365723a206d75737420686176652070616044820152717573657220726f6c6520746f20706175736560701b606482015260840161073e565b610a07611943565b6000828152600360205260408120610de790836119be565b9392505050565b60009182526002602090815260408084206001600160a01b0393909316845291905290205460ff1690565b606060058054610653906132f7565b6001600160a01b038216331415610e815760405162461bcd60e51b815260206004820152601960248201527f4552433732313a20617070726f766520746f2063616c6c657200000000000000604482015260640161073e565b3360008181526009602090815260408083206001600160a01b03871680855290835292819020805460ff191686151590811790915590519081529192917f17307eab39ab6107e8899845ad3d59bd9653f200f220920489ca2b5937696c31910160405180910390a35050565b610ef73383611379565b610f135760405162461bcd60e51b815260040161073e90613116565b610f1f848484846118d4565b50505050565b6060610f30826112ee565b610f965760405162461bcd60e51b815260206004820152603160248201527f45524337323155524953746f726167653a2055524920717565727920666f72206044820152703737b732bc34b9ba32b73a103a37b5b2b760791b606482015260840161073e565b6000828152600f602052604081208054610faf906132f7565b80601f0160208091040260200160405190810160405280929190818152602001828054610fdb906132f7565b80156110285780601f10610ffd57610100808354040283529160200191611028565b820191906000526020600020905b81548152906001019060200180831161100b57829003601f168201915b5050505050905060006110396119ca565b905080516000141561104c575092915050565b81511561107e578082604051602001611066929190612f32565b60405160208183030381529060405292505050919050565b611087846119d9565b949350505050565b600081815260036020526040812061063e90611aa3565b600061112c6110b460145490565b86858560008481526020818152604080832080546001600160a01b039097166001600160a01b0319909716871790558051808201825260ff9586168152938516848301908152968352600182528083209583529490529290922091518254935182166101000261ffff19909416911617919091179055565b61113e8561113960145490565b611aad565b61115061114a60145490565b85611bec565b61115e601480546001019055565b60145495945050505050565b60006111798361113960145490565b61118b61118560145490565b83611bec565b611199601480546001019055565b601454610de7565b60006111b288888888888888611c77565b6111fe5760405162461bcd60e51b815260206004820152601e60248201527f53746172744669204e46543a20496e76616c6964207369676e61747572650000604482015260640161073e565b600061120987610c38565b9050806001600160a01b0316886001600160a01b0316141561123d5760405162461bcd60e51b815260040161073e906130d5565b806001600160a01b0316896001600160a01b031614806112625750611262818a611292565b61127e5760405162461bcd60e51b815260040161073e90613078565b610c29888861130b565b6109548282611d10565b6001600160a01b03918216600090815260096020908152604080832093909416825291909152205460ff1690565b6112ca8282611d36565b5050565b6000610de7836001600160a01b038416611dbc565b600061063e82611e0b565b6000908152600660205260409020546001600160a01b0316151590565b600081815260086020526040902080546001600160a01b0319166001600160a01b038416908117909155819061134082610c38565b6001600160a01b03167f8c5be1e5ebec7d5bd14f71427d1e84f3dd0314c0f7b2291e5b200ac8c7c3b92560405160405180910390a45050565b6000611384826112ee565b6113e55760405162461bcd60e51b815260206004820152602c60248201527f4552433732313a206f70657261746f7220717565727920666f72206e6f6e657860448201526b34b9ba32b73a103a37b5b2b760a11b606482015260840161073e565b60006113f083610c38565b9050806001600160a01b0316846001600160a01b0316148061142b5750836001600160a01b0316611420846106d6565b6001600160a01b0316145b8061108757506110878185611292565b826001600160a01b031661144e82610c38565b6001600160a01b0316146114b65760405162461bcd60e51b815260206004820152602960248201527f4552433732313a207472616e73666572206f6620746f6b656e2074686174206960448201526839903737ba1037bbb760b91b606482015260840161073e565b6001600160a01b0382166115185760405162461bcd60e51b8152602060048201526024808201527f4552433732313a207472616e7366657220746f20746865207a65726f206164646044820152637265737360e01b606482015260840161073e565b611523838383611e30565b61152e60008261130b565b6001600160a01b038316600090815260076020526040812080546001929061155790849061329d565b90915550506001600160a01b0382166000908152600760205260408120805460019290611585908490613167565b909155505060008181526006602052604080822080546001600160a01b0319166001600160a01b0386811691821790925591518493918716917fddf252ad1be2c89b69c2b068fc378daa952ba7f163c4a11628f55a4df523b3ef91a4505050565b60006110876116006115f984606461327e565b8590611e3b565b8590611e5e565b6000828152600260205260409020600101546116238133611e76565b6107e48383611d36565b6001600160a01b038116331461169d5760405162461bcd60e51b815260206004820152602f60248201527f416363657373436f6e74726f6c3a2063616e206f6e6c792072656e6f756e636560448201526e103937b632b9903337b91039b2b63360891b606482015260840161073e565b6112ca8282611eda565b6000610de7836001600160a01b038416611f41565b600e5460ff166117055760405162461bcd60e51b815260206004820152601460248201527314185d5cd8589b194e881b9bdd081c185d5cd95960621b604482015260640161073e565b600e805460ff191690557f5db9ee0a495bf2e6ff9c91a7834c1ba4fdd244a5e8aa4e537bd38aeae4b073aa335b6040516001600160a01b03909116815260200160405180910390a1565b6117588161202e565b6000818152600f602052604090208054611771906132f7565b159050610a9b576000818152600f60205260408120610a9b91612a4f565b6000844211156117db5760405162461bcd60e51b815260206004820152601760248201527614dd185c9d119a4e88115e1c1a5c9959081c195c9b5a5d604a1b604482015260640161073e565b6001600160a01b038816600090815260126020526040812080547fdf2fb49a1f69c8a73b114786b259dbb4a030c6bfe9099db7004c26857f8df6c7918b918b918b91908661182883613332565b909155506040805160208101969096526001600160a01b0394851690860152929091166060840152608083015260a082015260c0810187905260e00160405160208183030381529060405280519060200120905061188c89828787876011546120d5565b806118a257506118a289828787876011546121a8565b6118ab57600080fd5b6001600160a01b0388161515806118cb57506001600160a01b0388163014155b610c2957600080fd5b600260135414156119275760405162461bcd60e51b815260206004820152601f60248201527f5265656e7472616e637947756172643a207265656e7472616e742063616c6c00604482015260640161073e565b600260135561193884848484612246565b505060016013555050565b600e5460ff16156119895760405162461bcd60e51b815260206004820152601060248201526f14185d5cd8589b194e881c185d5cd95960821b604482015260640161073e565b600e805460ff191660011790557f62e78cea01bee320cd4e420270b5ea74000d11b0c9f74754ebdbfc544b05a2586117323390565b6000610de78383612279565b606060108054610653906132f7565b60606119e4826112ee565b611a485760405162461bcd60e51b815260206004820152602f60248201527f4552433732314d657461646174613a2055524920717565727920666f72206e6f60448201526e3732bc34b9ba32b73a103a37b5b2b760891b606482015260840161073e565b6000611a526119ca565b90506000815111611a725760405180602001604052806000815250610de7565b80611a7c846122ff565b604051602001611a8d929190612f32565b6040516020818303038152906040529392505050565b600061063e825490565b6001600160a01b038216611b035760405162461bcd60e51b815260206004820181905260248201527f4552433732313a206d696e7420746f20746865207a65726f2061646472657373604482015260640161073e565b611b0c816112ee565b15611b595760405162461bcd60e51b815260206004820152601c60248201527f4552433732313a20746f6b656e20616c7265616479206d696e74656400000000604482015260640161073e565b611b6560008383611e30565b6001600160a01b0382166000908152600760205260408120805460019290611b8e908490613167565b909155505060008181526006602052604080822080546001600160a01b0319166001600160a01b03861690811790915590518392907fddf252ad1be2c89b69c2b068fc378daa952ba7f163c4a11628f55a4df523b3ef908290a45050565b611bf5826112ee565b611c585760405162461bcd60e51b815260206004820152602e60248201527f45524337323155524953746f726167653a2055524920736574206f66206e6f6e60448201526d32bc34b9ba32b73a103a37b5b2b760911b606482015260840161073e565b6000828152600f6020908152604090912082516107e492840190612a89565b600084421115611cc35760405162461bcd60e51b815260206004820152601760248201527614dd185c9d119a4e88115e1c1a5c9959081c195c9b5a5d604a1b604482015260640161073e565b6001600160a01b038816600090815260126020526040812080547f48d39b37a35214940203bbbd4f383519797769b13d936f387d89430afef27688918b918b918b91908661182883613332565b600082815260026020526040902060010154611d2c8133611e76565b6107e48383611eda565b611d408282610dee565b6112ca5760008281526002602090815260408083206001600160a01b03851684529091529020805460ff19166001179055611d783390565b6001600160a01b0316816001600160a01b0316837f2f8788117e7eff1d82e926ec794901d17c78024a50270940304540a733656f0d60405160405180910390a45050565b6000818152600183016020526040812054611e035750815460018181018455600084815260208082209093018490558454848252828601909352604090209190915561063e565b50600061063e565b60006001600160e01b0319821663780e9d6360e01b148061063e575061063e826123fd565b6107e483838361243d565b600081611e4a6012600a6131d6565b611e54908561327e565b610de7919061317f565b6000610de78383611e716012600a6131d6565b6124af565b611e808282610dee565b6112ca57611e98816001600160a01b03166014612507565b611ea3836020612507565b604051602001611eb4929190612f61565b60408051601f198184030181529082905262461bcd60e51b825261073e91600401613013565b611ee48282610dee565b156112ca5760008281526002602090815260408083206001600160a01b0385168085529252808320805460ff1916905551339285917ff6391f5c32d9c69d2a47ea670b442974b53935d1edc7fd64eb21e047a839171b9190a45050565b60008181526001830160205260408120548015612024576000611f6560018361329d565b8554909150600090611f799060019061329d565b90506000866000018281548110611f9257611f926133a3565b9060005260206000200154905080876000018481548110611fb557611fb56133a3565b600091825260208083209091019290925582815260018901909152604090208490558654879080611fe857611fe861338d565b6001900381819060005260206000200160009055905586600101600087815260200190815260200160002060009055600194505050505061063e565b600091505061063e565b600061203982610c38565b905061204781600084611e30565b61205260008361130b565b6001600160a01b038116600090815260076020526040812080546001929061207b90849061329d565b909155505060008281526006602052604080822080546001600160a01b0319169055518391906001600160a01b038416907fddf252ad1be2c89b69c2b068fc378daa952ba7f163c4a11628f55a4df523b3ef908390a45050565b60405161190160f01b60208201526022810182905260428101869052600090819060620160408051601f198184030181528282528051602091820120600080855291840180845281905260ff8a169284019290925260608301889052608083018790529092509060019060a0015b6020604051602081039080840390855afa158015612165573d6000803e3d6000fd5b5050604051601f1901519150506001600160a01b0381161580159061219b5750886001600160a01b0316816001600160a01b0316145b9998505050505050505050565b60008061220b87846040517f19457468657265756d205369676e6564204d6573736167653a0a3332000000006020820152603c8101829052605c8101839052600090607c0160405160208183030381529060405280519060200120905092915050565b6040805160008082526020820180845284905260ff8a169282019290925260608101889052608081018790529192509060019060a001612143565b61225184848461143b565b61225d848484846126a3565b610f1f5760405162461bcd60e51b815260040161073e90613026565b815460009082106122d75760405162461bcd60e51b815260206004820152602260248201527f456e756d657261626c655365743a20696e646578206f7574206f6620626f756e604482015261647360f01b606482015260840161073e565b8260000182815481106122ec576122ec6133a3565b9060005260206000200154905092915050565b6060816123235750506040805180820190915260018152600360fc1b602082015290565b8160005b811561234d578061233781613332565b91506123469050600a8361317f565b9150612327565b60008167ffffffffffffffff811115612368576123686133b9565b6040519080825280601f01601f191660200182016040528015612392576020820181803683370190505b5090505b8415611087576123a760018361329d565b91506123b4600a8661334d565b6123bf906030613167565b60f81b8183815181106123d4576123d46133a3565b60200101906001600160f81b031916908160001a9053506123f6600a8661317f565b9450612396565b60006001600160e01b031982166380ac58cd60e01b148061242e57506001600160e01b03198216635b5e139f60e01b145b8061063e575061063e826127ad565b6124488383836127d2565b600e5460ff16156107e45760405162461bcd60e51b815260206004820152602b60248201527f4552433732315061757361626c653a20746f6b656e207472616e73666572207760448201526a1a1a5b19481c185d5cd95960aa1b606482015260840161073e565b6000806124bd600a8461317f565b6124c7858761327e565b6124d1919061317f565b905060056124e0600a8361334d565b106124f3576124f0600a82613167565b90505b6124fe600a8261317f565b95945050505050565b6060600061251683600261327e565b612521906002613167565b67ffffffffffffffff811115612539576125396133b9565b6040519080825280601f01601f191660200182016040528015612563576020820181803683370190505b509050600360fc1b8160008151811061257e5761257e6133a3565b60200101906001600160f81b031916908160001a905350600f60fb1b816001815181106125ad576125ad6133a3565b60200101906001600160f81b031916908160001a90535060006125d184600261327e565b6125dc906001613167565b90505b6001811115612654576f181899199a1a9b1b9c1cb0b131b232b360811b85600f1660108110612610576126106133a3565b1a60f81b828281518110612626576126266133a3565b60200101906001600160f81b031916908160001a90535060049490941c9361264d816132e0565b90506125df565b508315610de75760405162461bcd60e51b815260206004820181905260248201527f537472696e67733a20686578206c656e67746820696e73756666696369656e74604482015260640161073e565b60006001600160a01b0384163b156127a557604051630a85bd0160e11b81526001600160a01b0385169063150b7a02906126e7903390899088908890600401612fd6565b602060405180830381600087803b15801561270157600080fd5b505af1925050508015612731575060408051601f3d908101601f1916820190925261272e91810190612ee9565b60015b61278b573d80801561275f576040519150601f19603f3d011682016040523d82523d6000602084013e612764565b606091505b5080516127835760405162461bcd60e51b815260040161073e90613026565b805181602001fd5b6001600160e01b031916630a85bd0160e11b149050611087565b506001611087565b60006001600160e01b03198216635a05180f60e01b148061063e575061063e8261288a565b6001600160a01b03831661282d5761282881600c80546000838152600d60205260408120829055600182018355919091527fdf6966c971051c3d54ec59162606531493a51404a002842f56009d7e5cf4a8c70155565b612850565b816001600160a01b0316836001600160a01b0316146128505761285083826128bf565b6001600160a01b038216612867576107e48161295c565b826001600160a01b0316826001600160a01b0316146107e4576107e48282612a0b565b60006001600160e01b03198216637965db0b60e01b148061063e57506301ffc9a760e01b6001600160e01b031983161461063e565b600060016128cc84610caf565b6128d6919061329d565b6000838152600b6020526040902054909150808214612929576001600160a01b0384166000908152600a602090815260408083208584528252808320548484528184208190558352600b90915290208190555b506000918252600b602090815260408084208490556001600160a01b039094168352600a81528383209183525290812055565b600c5460009061296e9060019061329d565b6000838152600d6020526040812054600c8054939450909284908110612996576129966133a3565b9060005260206000200154905080600c83815481106129b7576129b76133a3565b6000918252602080832090910192909255828152600d9091526040808220849055858252812055600c8054806129ef576129ef61338d565b6001900381819060005260206000200160009055905550505050565b6000612a1683610caf565b6001600160a01b039093166000908152600a602090815260408083208684528252808320859055938252600b9052919091209190915550565b508054612a5b906132f7565b6000825580601f10612a6b575050565b601f016020900490600052602060002090810190610a9b9190612b0d565b828054612a95906132f7565b90600052602060002090601f016020900481019282612ab75760008555612afd565b82601f10612ad057805160ff1916838001178555612afd565b82800160010185558215612afd579182015b82811115612afd578251825591602001919060010190612ae2565b50612b09929150612b0d565b5090565b5b80821115612b095760008155600101612b0e565b600067ffffffffffffffff80841115612b3d57612b3d6133b9565b604051601f8501601f19908116603f01168101908282118183101715612b6557612b656133b9565b81604052809350858152868686011115612b7e57600080fd5b858560208301376000602087830101525050509392505050565b80356001600160a01b0381168114612baf57600080fd5b919050565b600082601f830112612bc557600080fd5b610de783833560208501612b22565b803560ff81168114612baf57600080fd5b600060208284031215612bf757600080fd5b610de782612b98565b60008060408385031215612c1357600080fd5b612c1c83612b98565b9150612c2a60208401612b98565b90509250929050565b600080600060608486031215612c4857600080fd5b612c5184612b98565b9250612c5f60208501612b98565b9150604084013590509250925092565b60008060008060808587031215612c8557600080fd5b612c8e85612b98565b9350612c9c60208601612b98565b925060408501359150606085013567ffffffffffffffff811115612cbf57600080fd5b8501601f81018713612cd057600080fd5b612cdf87823560208401612b22565b91505092959194509250565b600080600080600080600060e0888a031215612d0657600080fd5b612d0f88612b98565b9650612d1d60208901612b98565b95506040880135945060608801359350612d3960808901612bd4565b925060a0880135915060c0880135905092959891949750929550565b60008060408385031215612d6857600080fd5b612d7183612b98565b915060208301358015158114612d8657600080fd5b809150509250929050565b60008060408385031215612da457600080fd5b612dad83612b98565b9150602083013567ffffffffffffffff811115612dc957600080fd5b61088785828601612bb4565b60008060008060808587031215612deb57600080fd5b612df485612b98565b9350602085013567ffffffffffffffff811115612e1057600080fd5b612e1c87828801612bb4565b935050612e2b60408601612bd4565b9150612e3960608601612bd4565b905092959194509250565b60008060408385031215612e5757600080fd5b612e6083612b98565b946020939093013593505050565b600060208284031215612e8057600080fd5b5035919050565b60008060408385031215612e9a57600080fd5b82359150612c2a60208401612b98565b60008060408385031215612ebd57600080fd5b50508035926020909101359150565b600060208284031215612ede57600080fd5b8135610de7816133cf565b600060208284031215612efb57600080fd5b8151610de7816133cf565b60008151808452612f1e8160208601602086016132b4565b601f01601f19169290920160200192915050565b60008351612f448184602088016132b4565b835190830190612f588183602088016132b4565b01949350505050565b7f416363657373436f6e74726f6c3a206163636f756e7420000000000000000000815260008351612f998160178501602088016132b4565b7001034b99036b4b9b9b4b733903937b6329607d1b6017918401918201528351612fca8160288401602088016132b4565b01602801949350505050565b6001600160a01b038581168252841660208201526040810183905260806060820181905260009061300990830184612f06565b9695505050505050565b602081526000610de76020830184612f06565b60208082526032908201527f4552433732313a207472616e7366657220746f206e6f6e20455243373231526560408201527131b2b4bb32b91034b6b83632b6b2b73a32b960711b606082015260800190565b60208082526038908201527f4552433732313a20617070726f76652063616c6c6572206973206e6f74206f7760408201527f6e6572206e6f7220617070726f76656420666f7220616c6c0000000000000000606082015260800190565b60208082526021908201527f4552433732313a20617070726f76616c20746f2063757272656e74206f776e656040820152603960f91b606082015260800190565b60208082526031908201527f4552433732313a207472616e736665722063616c6c6572206973206e6f74206f6040820152701ddb995c881b9bdc88185c1c1c9bdd9959607a1b606082015260800190565b6000821982111561317a5761317a613361565b500190565b60008261318e5761318e613377565b500490565b600181815b808511156131ce5781600019048211156131b4576131b4613361565b808516156131c157918102915b93841c9390800290613198565b509250929050565b6000610de783836000826131ec5750600161063e565b816131f95750600061063e565b816001811461320f576002811461321957613235565b600191505061063e565b60ff84111561322a5761322a613361565b50506001821b61063e565b5060208310610133831016604e8410600b8410161715613258575081810a61063e565b6132628383613193565b806000190482111561327657613276613361565b029392505050565b600081600019048311821515161561329857613298613361565b500290565b6000828210156132af576132af613361565b500390565b60005b838110156132cf5781810151838201526020016132b7565b83811115610f1f5750506000910152565b6000816132ef576132ef613361565b506000190190565b600181811c9082168061330b57607f821691505b6020821081141561332c57634e487b7160e01b600052602260045260246000fd5b50919050565b600060001982141561334657613346613361565b5060010190565b60008261335c5761335c613377565b500690565b634e487b7160e01b600052601160045260246000fd5b634e487b7160e01b600052601260045260246000fd5b634e487b7160e01b600052603160045260246000fd5b634e487b7160e01b600052603260045260246000fd5b634e487b7160e01b600052604160045260246000fd5b6001600160e01b031981168114610a9b57600080fdfea2646970667358221220403860e494dbbdb0359118a4125a3711e3e56a43b8919cb1f23a4da3f49b207c64736f6c63430008070033",
  "devdoc": {
    "author": "Eman Herawy, StartFi Team",
    "kind": "dev",
    "methods": {
      "approve(address,uint256)": {
        "details": "See {IERC721-approve}."
      },
      "balanceOf(address)": {
        "details": "See {IERC721-balanceOf}."
      },
      "burn(uint256)": {
        "details": "Burns `tokenId`. See {ERC721-_burn}. Requirements: - The caller must own `tokenId` or be an approved operator."
      },
      "getApproved(uint256)": {
        "details": "See {IERC721-getApproved}."
      },
      "getRoleAdmin(bytes32)": {
        "details": "Returns the admin role that controls `role`. See {grantRole} and {revokeRole}. To change a role's admin, use {_setRoleAdmin}."
      },
      "getRoleMember(bytes32,uint256)": {
        "details": "Returns one of the accounts that have `role`. `index` must be a value between 0 and {getRoleMemberCount}, non-inclusive. Role bearers are not sorted in any particular way, and their ordering may change at any point. WARNING: When using {getRoleMember} and {getRoleMemberCount}, make sure you perform all queries on the same block. See the following https://forum.openzeppelin.com/t/iterating-over-elements-on-enumerableset-in-openzeppelin-contracts/2296[forum post] for more information."
      },
      "getRoleMemberCount(bytes32)": {
        "details": "Returns the number of accounts that have `role`. Can be used together with {getRoleMember} to enumerate all bearers of a role."
      },
      "grantRole(bytes32,address)": {
        "details": "Overload {grantRole} to track enumerable memberships"
      },
      "hasRole(bytes32,address)": {
        "details": "Returns `true` if `account` has been granted `role`."
      },
      "isApprovedForAll(address,address)": {
        "details": "See {IERC721-isApprovedForAll}."
      },
      "mint(address,string)": {
        "details": "Creates a new token for `to`. Its token ID will be automatically assigned (and available on the emitted {IERC721-Transfer} event), and the token URI autogenerated based on the base URI passed at construction. See {ERC721-_mint}. Requirements: - the caller must have the `MINTER_ROLE`."
      },
      "mintWithRoyalty(address,string,uint8,uint8)": {
        "details": "calller should be in minter role",
        "params": {
          "_tokenURI": ": serized json object that has the following data ( category, name , desc , tages, ipfs hash)",
          "separator": ": eg. 10",
          "share": ": eg. 25",
          "to": ": NFT issuer"
        },
        "returns": {
          "_0": "token id"
        }
      },
      "name()": {
        "details": "See {IERC721Metadata-name}."
      },
      "ownerOf(uint256)": {
        "details": "See {IERC721-ownerOf}."
      },
      "pause()": {
        "details": "Pauses all token transfers. See {ERC721Pausable} and {Pausable-_pause}. Requirements: - the caller must have the `PAUSER_ROLE`."
      },
      "paused()": {
        "details": "Returns true if the contract is paused, and false otherwise."
      },
      "permit(address,address,uint256,uint256,uint8,bytes32,bytes32)": {
        "details": "Sets `tokenId` as allowance of `spender` account over `owner` account's StartFiRoyaltyNFT token, given `owner` account's signed approval. Emits {Approval} event. Requirements:   - `deadline` must be timestamp in future.   - `v`, `r` and `s` must be valid `secp256k1` signature from `owner`  or 'approved for all' account over EIP712-formatted function arguments.   - the signature must use `owner` or 'approved for all' account's current nonce (see {nonces}).   - the signer cannot be zero address and must be `owner`  or 'approved for all' account. For more information on signature format, see https://eips.ethereum.org/EIPS/eip-2612#specification[relevant EIP section]. StartFiRoyaltyNFT token implementation adapted from https://github.com/anyswap/chaindata/blob/main/AnyswapV5ERC20.sol. with some modification"
      },
      "renounceRole(bytes32,address)": {
        "details": "Overload {renounceRole} to track enumerable memberships"
      },
      "revokeRole(bytes32,address)": {
        "details": "Overload {revokeRole} to track enumerable memberships"
      },
      "royaltyInfo(uint256,uint256)": {
        "details": "the formula is as follow : if issuer share is 2.5 then the share is 25 and the separator is 10  so inorder to calc the amount of royalty share for a token , formula should be totoal (price * share)/(separator*100)",
        "params": {
          "_tokenId": ": token id",
          "_value": ": token price on marketplace "
        },
        "returns": {
          "issuer": ": original issuer of the given token and his/her share of this this token"
        }
      },
      "safeTransferFrom(address,address,uint256)": {
        "details": "See {IERC721-safeTransferFrom}."
      },
      "safeTransferFrom(address,address,uint256,bytes)": {
        "details": "See {IERC721-safeTransferFrom}."
      },
      "setApprovalForAll(address,bool)": {
        "details": "See {IERC721-setApprovalForAll}."
      },
      "supportsInterface(bytes4)": {
        "details": "See {IERC165-supportsInterface}."
      },
      "supportsPermit()": {
        "details": "See {IERC165-supportsInterface}."
      },
      "supportsRoyalty()": {
        "details": "See {IERC165-supportsInterface}."
      },
      "symbol()": {
        "details": "See {IERC721Metadata-symbol}."
      },
      "tokenByIndex(uint256)": {
        "details": "See {IERC721Enumerable-tokenByIndex}."
      },
      "tokenOfOwnerByIndex(address,uint256)": {
        "details": "See {IERC721Enumerable-tokenOfOwnerByIndex}."
      },
      "tokenURI(uint256)": {
        "details": "See {IERC721Metadata-tokenURI}."
      },
      "totalSupply()": {
        "details": "See {IERC721Enumerable-totalSupply}."
      },
      "transferFrom(address,address,uint256)": {
        "details": "See {IERC721-transferFrom}."
      },
      "transferWithPermit(address,address,uint256,uint256,uint8,bytes32,bytes32)": {
        "details": "Sets `tokenId` as allowance of `spender` account over `owner` account's StartFiRoyaltyNFT token, given `owner` account's signed approval. Emits {Transfer} event. Requirements:   - `deadline` must be timestamp in future.   - `v`, `r` and `s` must be valid `secp256k1` signature from `owner`  or 'approved for all' account over EIP712-formatted function arguments.   - the signature must use `owner` or 'approved for all' account's current nonce (see {nonces}).   - the signer cannot be zero address and must be `owner`  or 'approved for all' account. For more information on signature format, see https://eips.ethereum.org/EIPS/eip-2612#specification[relevant EIP section]. StartFiRoyaltyNFT token implementation adapted from https://github.com/anyswap/chaindata/blob/main/AnyswapV5ERC20.sol. with some modification"
      },
      "unpause()": {
        "details": "Unpauses all token transfers. See {ERC721Pausable} and {Pausable-_unpause}. Requirements: - the caller must have the `PAUSER_ROLE`."
      }
    },
    "title": "StartFi Royalty NFT [ desc ] : NFT contract with Royalty option",
    "version": 1
  },
  "userdoc": {
    "kind": "user",
    "methods": {
      "mintWithRoyalty(address,string,uint8,uint8)": {
        "notice": "mint new NFT with roylty support, soldidty doesn't support decimal, so if we want to add 2.5 % share we need to pass 25 as share and 10 as base"
      }
    },
    "version": 1
  },
  "storageLayout": {
    "storage": [
      {
        "astId": 4610,
        "contract": "contracts/StartFiRoyaltyNFT.sol:StartFiRoyaltyNFT",
        "label": "tokenIdToIssuer",
        "offset": 0,
        "slot": "0",
        "type": "t_mapping(t_uint256,t_address)"
      },
      {
        "astId": 4617,
        "contract": "contracts/StartFiRoyaltyNFT.sol:StartFiRoyaltyNFT",
        "label": "_issuerPercentage",
        "offset": 0,
        "slot": "1",
        "type": "t_mapping(t_uint256,t_mapping(t_address,t_struct(Base)4622_storage))"
      },
      {
        "astId": 62,
        "contract": "contracts/StartFiRoyaltyNFT.sol:StartFiRoyaltyNFT",
        "label": "_roles",
        "offset": 0,
        "slot": "2",
        "type": "t_mapping(t_bytes32,t_struct(RoleData)57_storage)"
      },
      {
        "astId": 403,
        "contract": "contracts/StartFiRoyaltyNFT.sol:StartFiRoyaltyNFT",
        "label": "_roleMembers",
        "offset": 0,
        "slot": "3",
        "type": "t_mapping(t_bytes32,t_struct(AddressSet)3846_storage)"
      },
      {
        "astId": 1525,
        "contract": "contracts/StartFiRoyaltyNFT.sol:StartFiRoyaltyNFT",
        "label": "_name",
        "offset": 0,
        "slot": "4",
        "type": "t_string_storage"
      },
      {
        "astId": 1527,
        "contract": "contracts/StartFiRoyaltyNFT.sol:StartFiRoyaltyNFT",
        "label": "_symbol",
        "offset": 0,
        "slot": "5",
        "type": "t_string_storage"
      },
      {
        "astId": 1531,
        "contract": "contracts/StartFiRoyaltyNFT.sol:StartFiRoyaltyNFT",
        "label": "_owners",
        "offset": 0,
        "slot": "6",
        "type": "t_mapping(t_uint256,t_address)"
      },
      {
        "astId": 1535,
        "contract": "contracts/StartFiRoyaltyNFT.sol:StartFiRoyaltyNFT",
        "label": "_balances",
        "offset": 0,
        "slot": "7",
        "type": "t_mapping(t_address,t_uint256)"
      },
      {
        "astId": 1539,
        "contract": "contracts/StartFiRoyaltyNFT.sol:StartFiRoyaltyNFT",
        "label": "_tokenApprovals",
        "offset": 0,
        "slot": "8",
        "type": "t_mapping(t_uint256,t_address)"
      },
      {
        "astId": 1545,
        "contract": "contracts/StartFiRoyaltyNFT.sol:StartFiRoyaltyNFT",
        "label": "_operatorApprovals",
        "offset": 0,
        "slot": "9",
        "type": "t_mapping(t_address,t_mapping(t_address,t_bool))"
      },
      {
        "astId": 2496,
        "contract": "contracts/StartFiRoyaltyNFT.sol:StartFiRoyaltyNFT",
        "label": "_ownedTokens",
        "offset": 0,
        "slot": "10",
        "type": "t_mapping(t_address,t_mapping(t_uint256,t_uint256))"
      },
      {
        "astId": 2500,
        "contract": "contracts/StartFiRoyaltyNFT.sol:StartFiRoyaltyNFT",
        "label": "_ownedTokensIndex",
        "offset": 0,
        "slot": "11",
        "type": "t_mapping(t_uint256,t_uint256)"
      },
      {
        "astId": 2503,
        "contract": "contracts/StartFiRoyaltyNFT.sol:StartFiRoyaltyNFT",
        "label": "_allTokens",
        "offset": 0,
        "slot": "12",
        "type": "t_array(t_uint256)dyn_storage"
      },
      {
        "astId": 2507,
        "contract": "contracts/StartFiRoyaltyNFT.sol:StartFiRoyaltyNFT",
        "label": "_allTokensIndex",
        "offset": 0,
        "slot": "13",
        "type": "t_mapping(t_uint256,t_uint256)"
      },
      {
        "astId": 685,
        "contract": "contracts/StartFiRoyaltyNFT.sol:StartFiRoyaltyNFT",
        "label": "_paused",
        "offset": 0,
        "slot": "14",
        "type": "t_bool"
      },
      {
        "astId": 4108,
        "contract": "contracts/StartFiRoyaltyNFT.sol:StartFiRoyaltyNFT",
        "label": "_tokenURIs",
        "offset": 0,
        "slot": "15",
        "type": "t_mapping(t_uint256,t_string_storage)"
      },
      {
        "astId": 4110,
        "contract": "contracts/StartFiRoyaltyNFT.sol:StartFiRoyaltyNFT",
        "label": "_baseTokenURI",
        "offset": 0,
        "slot": "16",
        "type": "t_string_storage"
      },
      {
        "astId": 4354,
        "contract": "contracts/StartFiRoyaltyNFT.sol:StartFiRoyaltyNFT",
        "label": "DOMAIN_SEPARATOR",
        "offset": 0,
        "slot": "17",
        "type": "t_bytes32"
      },
      {
        "astId": 4359,
        "contract": "contracts/StartFiRoyaltyNFT.sol:StartFiRoyaltyNFT",
        "label": "nonces",
        "offset": 0,
        "slot": "18",
        "type": "t_mapping(t_address,t_uint256)"
      },
      {
        "astId": 770,
        "contract": "contracts/StartFiRoyaltyNFT.sol:StartFiRoyaltyNFT",
        "label": "_status",
        "offset": 0,
        "slot": "19",
        "type": "t_uint256"
      },
      {
        "astId": 8999,
        "contract": "contracts/StartFiRoyaltyNFT.sol:StartFiRoyaltyNFT",
        "label": "_tokenIdTracker",
        "offset": 0,
        "slot": "20",
        "type": "t_struct(Counter)3266_storage"
      }
    ],
    "types": {
      "t_address": {
        "encoding": "inplace",
        "label": "address",
        "numberOfBytes": "20"
      },
      "t_array(t_bytes32)dyn_storage": {
        "base": "t_bytes32",
        "encoding": "dynamic_array",
        "label": "bytes32[]",
        "numberOfBytes": "32"
      },
      "t_array(t_uint256)dyn_storage": {
        "base": "t_uint256",
        "encoding": "dynamic_array",
        "label": "uint256[]",
        "numberOfBytes": "32"
      },
      "t_bool": {
        "encoding": "inplace",
        "label": "bool",
        "numberOfBytes": "1"
      },
      "t_bytes32": {
        "encoding": "inplace",
        "label": "bytes32",
        "numberOfBytes": "32"
      },
      "t_mapping(t_address,t_bool)": {
        "encoding": "mapping",
        "key": "t_address",
        "label": "mapping(address => bool)",
        "numberOfBytes": "32",
        "value": "t_bool"
      },
      "t_mapping(t_address,t_mapping(t_address,t_bool))": {
        "encoding": "mapping",
        "key": "t_address",
        "label": "mapping(address => mapping(address => bool))",
        "numberOfBytes": "32",
        "value": "t_mapping(t_address,t_bool)"
      },
      "t_mapping(t_address,t_mapping(t_uint256,t_uint256))": {
        "encoding": "mapping",
        "key": "t_address",
        "label": "mapping(address => mapping(uint256 => uint256))",
        "numberOfBytes": "32",
        "value": "t_mapping(t_uint256,t_uint256)"
      },
      "t_mapping(t_address,t_struct(Base)4622_storage)": {
        "encoding": "mapping",
        "key": "t_address",
        "label": "mapping(address => struct ERC721Royalty.Base)",
        "numberOfBytes": "32",
        "value": "t_struct(Base)4622_storage"
      },
      "t_mapping(t_address,t_uint256)": {
        "encoding": "mapping",
        "key": "t_address",
        "label": "mapping(address => uint256)",
        "numberOfBytes": "32",
        "value": "t_uint256"
      },
      "t_mapping(t_bytes32,t_struct(AddressSet)3846_storage)": {
        "encoding": "mapping",
        "key": "t_bytes32",
        "label": "mapping(bytes32 => struct EnumerableSet.AddressSet)",
        "numberOfBytes": "32",
        "value": "t_struct(AddressSet)3846_storage"
      },
      "t_mapping(t_bytes32,t_struct(RoleData)57_storage)": {
        "encoding": "mapping",
        "key": "t_bytes32",
        "label": "mapping(bytes32 => struct AccessControl.RoleData)",
        "numberOfBytes": "32",
        "value": "t_struct(RoleData)57_storage"
      },
      "t_mapping(t_bytes32,t_uint256)": {
        "encoding": "mapping",
        "key": "t_bytes32",
        "label": "mapping(bytes32 => uint256)",
        "numberOfBytes": "32",
        "value": "t_uint256"
      },
      "t_mapping(t_uint256,t_address)": {
        "encoding": "mapping",
        "key": "t_uint256",
        "label": "mapping(uint256 => address)",
        "numberOfBytes": "32",
        "value": "t_address"
      },
      "t_mapping(t_uint256,t_mapping(t_address,t_struct(Base)4622_storage))": {
        "encoding": "mapping",
        "key": "t_uint256",
        "label": "mapping(uint256 => mapping(address => struct ERC721Royalty.Base))",
        "numberOfBytes": "32",
        "value": "t_mapping(t_address,t_struct(Base)4622_storage)"
      },
      "t_mapping(t_uint256,t_string_storage)": {
        "encoding": "mapping",
        "key": "t_uint256",
        "label": "mapping(uint256 => string)",
        "numberOfBytes": "32",
        "value": "t_string_storage"
      },
      "t_mapping(t_uint256,t_uint256)": {
        "encoding": "mapping",
        "key": "t_uint256",
        "label": "mapping(uint256 => uint256)",
        "numberOfBytes": "32",
        "value": "t_uint256"
      },
      "t_string_storage": {
        "encoding": "bytes",
        "label": "string",
        "numberOfBytes": "32"
      },
      "t_struct(AddressSet)3846_storage": {
        "encoding": "inplace",
        "label": "struct EnumerableSet.AddressSet",
        "members": [
          {
            "astId": 3845,
            "contract": "contracts/StartFiRoyaltyNFT.sol:StartFiRoyaltyNFT",
            "label": "_inner",
            "offset": 0,
            "slot": "0",
            "type": "t_struct(Set)3571_storage"
          }
        ],
        "numberOfBytes": "64"
      },
      "t_struct(Base)4622_storage": {
        "encoding": "inplace",
        "label": "struct ERC721Royalty.Base",
        "members": [
          {
            "astId": 4619,
            "contract": "contracts/StartFiRoyaltyNFT.sol:StartFiRoyaltyNFT",
            "label": "share",
            "offset": 0,
            "slot": "0",
            "type": "t_uint8"
          },
          {
            "astId": 4621,
            "contract": "contracts/StartFiRoyaltyNFT.sol:StartFiRoyaltyNFT",
            "label": "shareSeparator",
            "offset": 1,
            "slot": "0",
            "type": "t_uint8"
          }
        ],
        "numberOfBytes": "32"
      },
      "t_struct(Counter)3266_storage": {
        "encoding": "inplace",
        "label": "struct Counters.Counter",
        "members": [
          {
            "astId": 3265,
            "contract": "contracts/StartFiRoyaltyNFT.sol:StartFiRoyaltyNFT",
            "label": "_value",
            "offset": 0,
            "slot": "0",
            "type": "t_uint256"
          }
        ],
        "numberOfBytes": "32"
      },
      "t_struct(RoleData)57_storage": {
        "encoding": "inplace",
        "label": "struct AccessControl.RoleData",
        "members": [
          {
            "astId": 54,
            "contract": "contracts/StartFiRoyaltyNFT.sol:StartFiRoyaltyNFT",
            "label": "members",
            "offset": 0,
            "slot": "0",
            "type": "t_mapping(t_address,t_bool)"
          },
          {
            "astId": 56,
            "contract": "contracts/StartFiRoyaltyNFT.sol:StartFiRoyaltyNFT",
            "label": "adminRole",
            "offset": 0,
            "slot": "1",
            "type": "t_bytes32"
          }
        ],
        "numberOfBytes": "64"
      },
      "t_struct(Set)3571_storage": {
        "encoding": "inplace",
        "label": "struct EnumerableSet.Set",
        "members": [
          {
            "astId": 3566,
            "contract": "contracts/StartFiRoyaltyNFT.sol:StartFiRoyaltyNFT",
            "label": "_values",
            "offset": 0,
            "slot": "0",
            "type": "t_array(t_bytes32)dyn_storage"
          },
          {
            "astId": 3570,
            "contract": "contracts/StartFiRoyaltyNFT.sol:StartFiRoyaltyNFT",
            "label": "_indexes",
            "offset": 0,
            "slot": "1",
            "type": "t_mapping(t_bytes32,t_uint256)"
          }
        ],
        "numberOfBytes": "64"
      },
      "t_uint256": {
        "encoding": "inplace",
        "label": "uint256",
        "numberOfBytes": "32"
      },
      "t_uint8": {
        "encoding": "inplace",
        "label": "uint8",
        "numberOfBytes": "1"
      }
    }
  }
}