{
  "address": "0xcf06e09924C888B5A44C5FE1915FE737FA84B148",
  "abi": [
    {
      "inputs": [
        {
          "internalType": "string",
          "name": "_marketPlaceName",
          "type": "string"
        },
        {
          "internalType": "address",
          "name": "_paymentContract",
          "type": "address"
        },
        {
          "internalType": "address",
          "name": "_stakeContract",
          "type": "address"
        },
        {
          "internalType": "address",
          "name": "_reputationContract",
          "type": "address"
        },
        {
          "internalType": "address",
          "name": "adminWallet",
          "type": "address"
        }
      ],
      "stateMutability": "nonpayable",
      "type": "constructor"
    },
    {
      "anonymous": false,
      "inputs": [
        {
          "indexed": false,
          "internalType": "bytes32",
          "name": "listId",
          "type": "bytes32"
        },
        {
          "indexed": false,
          "internalType": "address",
          "name": "approver",
          "type": "address"
        },
        {
          "indexed": false,
          "internalType": "uint256",
          "name": "timestamp",
          "type": "uint256"
        }
      ],
      "name": "ApproveDeal",
      "type": "event"
    },
    {
      "anonymous": false,
      "inputs": [
        {
          "indexed": false,
          "internalType": "bytes32",
          "name": "bidId",
          "type": "bytes32"
        },
        {
          "indexed": false,
          "internalType": "bytes32",
          "name": "listingId",
          "type": "bytes32"
        },
        {
          "indexed": false,
          "internalType": "address",
          "name": "tokenAddress",
          "type": "address"
        },
        {
          "indexed": false,
          "internalType": "address",
          "name": "bidder",
          "type": "address"
        },
        {
          "indexed": false,
          "internalType": "uint256",
          "name": "tokenId",
          "type": "uint256"
        },
        {
          "indexed": false,
          "internalType": "uint256",
          "name": "bidPrice",
          "type": "uint256"
        },
        {
          "indexed": false,
          "internalType": "uint256",
          "name": "timestamp",
          "type": "uint256"
        }
      ],
      "name": "BidOnAuction",
      "type": "event"
    },
    {
      "anonymous": false,
      "inputs": [
        {
          "indexed": false,
          "internalType": "bytes32",
          "name": "listId",
          "type": "bytes32"
        },
        {
          "indexed": false,
          "internalType": "address",
          "name": "nFTContract",
          "type": "address"
        },
        {
          "indexed": false,
          "internalType": "address",
          "name": "buyer",
          "type": "address"
        },
        {
          "indexed": false,
          "internalType": "uint256",
          "name": "tokenId",
          "type": "uint256"
        },
        {
          "indexed": false,
          "internalType": "uint256",
          "name": "sellingPrice",
          "type": "uint256"
        },
        {
          "indexed": false,
          "internalType": "address",
          "name": "seller",
          "type": "address"
        },
        {
          "indexed": false,
          "internalType": "bool",
          "name": "isAucton",
          "type": "bool"
        },
        {
          "indexed": false,
          "internalType": "address",
          "name": "issuer",
          "type": "address"
        },
        {
          "indexed": false,
          "internalType": "uint256",
          "name": "royaltyAmount",
          "type": "uint256"
        },
        {
          "indexed": false,
          "internalType": "uint256",
          "name": "fees",
          "type": "uint256"
        },
        {
          "indexed": false,
          "internalType": "uint256",
          "name": "netPrice",
          "type": "uint256"
        },
        {
          "indexed": false,
          "internalType": "uint256",
          "name": "timestamp",
          "type": "uint256"
        }
      ],
      "name": "BuyNow",
      "type": "event"
    },
    {
      "anonymous": false,
      "inputs": [
        {
          "indexed": false,
          "internalType": "uint256",
          "name": "newFees",
          "type": "uint256"
        },
        {
          "indexed": false,
          "internalType": "uint256",
          "name": "newBase",
          "type": "uint256"
        }
      ],
      "name": "ChangeFees",
      "type": "event"
    },
    {
      "anonymous": false,
      "inputs": [
        {
          "indexed": false,
          "internalType": "uint256",
          "name": "duration",
          "type": "uint256"
        }
      ],
      "name": "ChangeFulfillDuration",
      "type": "event"
    },
    {
      "anonymous": false,
      "inputs": [
        {
          "indexed": false,
          "internalType": "uint256",
          "name": "newFees",
          "type": "uint256"
        },
        {
          "indexed": false,
          "internalType": "uint256",
          "name": "newBase",
          "type": "uint256"
        }
      ],
      "name": "ChangeListInsuranceAmount",
      "type": "event"
    },
    {
      "anonymous": false,
      "inputs": [
        {
          "indexed": false,
          "internalType": "string",
          "name": "Name",
          "type": "string"
        }
      ],
      "name": "ChangeMarketPlaceName",
      "type": "event"
    },
    {
      "anonymous": false,
      "inputs": [
        {
          "indexed": false,
          "internalType": "address",
          "name": "reputationContract",
          "type": "address"
        }
      ],
      "name": "ChangeReputationContract",
      "type": "event"
    },
    {
      "anonymous": false,
      "inputs": [
        {
          "indexed": false,
          "internalType": "address",
          "name": "utiltiyToken",
          "type": "address"
        }
      ],
      "name": "ChangeUtilityToken",
      "type": "event"
    },
    {
      "anonymous": false,
      "inputs": [
        {
          "indexed": false,
          "internalType": "bytes32",
          "name": "listId",
          "type": "bytes32"
        },
        {
          "indexed": false,
          "internalType": "address",
          "name": "nFTContract",
          "type": "address"
        },
        {
          "indexed": false,
          "internalType": "address",
          "name": "seller",
          "type": "address"
        },
        {
          "indexed": false,
          "internalType": "uint256",
          "name": "tokenId",
          "type": "uint256"
        },
        {
          "indexed": false,
          "internalType": "uint256",
          "name": "listingPrice",
          "type": "uint256"
        },
        {
          "indexed": false,
          "internalType": "bool",
          "name": "isSellForEnabled",
          "type": "bool"
        },
        {
          "indexed": false,
          "internalType": "uint256",
          "name": "sellFor",
          "type": "uint256"
        },
        {
          "indexed": false,
          "internalType": "uint256",
          "name": "releaseTime",
          "type": "uint256"
        },
        {
          "indexed": false,
          "internalType": "uint256",
          "name": "insurancAmount",
          "type": "uint256"
        },
        {
          "indexed": false,
          "internalType": "uint256",
          "name": "timestamp",
          "type": "uint256"
        }
      ],
      "name": "CreateAuction",
      "type": "event"
    },
    {
      "anonymous": false,
      "inputs": [
        {
          "indexed": false,
          "internalType": "bytes32",
          "name": "listId",
          "type": "bytes32"
        },
        {
          "indexed": false,
          "internalType": "address",
          "name": "nFTContract",
          "type": "address"
        },
        {
          "indexed": false,
          "internalType": "address",
          "name": "owner",
          "type": "address"
        },
        {
          "indexed": false,
          "internalType": "uint256",
          "name": "tokenId",
          "type": "uint256"
        },
        {
          "indexed": false,
          "internalType": "uint256",
          "name": "timestamp",
          "type": "uint256"
        }
      ],
      "name": "DeListOffMarketplace",
      "type": "event"
    },
    {
      "anonymous": false,
      "inputs": [
        {
          "indexed": false,
          "internalType": "bytes32",
          "name": "bidId",
          "type": "bytes32"
        },
        {
          "indexed": false,
          "internalType": "bytes32",
          "name": "listingId",
          "type": "bytes32"
        },
        {
          "indexed": false,
          "internalType": "address",
          "name": "tokenAddress",
          "type": "address"
        },
        {
          "indexed": false,
          "internalType": "address",
          "name": "bidder",
          "type": "address"
        },
        {
          "indexed": false,
          "internalType": "uint256",
          "name": "tokenId",
          "type": "uint256"
        },
        {
          "indexed": false,
          "internalType": "address",
          "name": "seller",
          "type": "address"
        },
        {
          "indexed": false,
          "internalType": "uint256",
          "name": "insurancAmount",
          "type": "uint256"
        },
        {
          "indexed": false,
          "internalType": "uint256",
          "name": "remaining",
          "type": "uint256"
        },
        {
          "indexed": false,
          "internalType": "uint256",
          "name": "finefees",
          "type": "uint256"
        },
        {
          "indexed": false,
          "internalType": "uint256",
          "name": "timestamp",
          "type": "uint256"
        }
      ],
      "name": "DisputeAuction",
      "type": "event"
    },
    {
      "anonymous": false,
      "inputs": [
        {
          "indexed": false,
          "internalType": "bytes32",
          "name": "bidId",
          "type": "bytes32"
        },
        {
          "indexed": false,
          "internalType": "bytes32",
          "name": "listingId",
          "type": "bytes32"
        },
        {
          "indexed": false,
          "internalType": "address",
          "name": "tokenAddress",
          "type": "address"
        },
        {
          "indexed": false,
          "internalType": "address",
          "name": "bidder",
          "type": "address"
        },
        {
          "indexed": false,
          "internalType": "uint256",
          "name": "tokenId",
          "type": "uint256"
        },
        {
          "indexed": false,
          "internalType": "uint256",
          "name": "bidPrice",
          "type": "uint256"
        },
        {
          "indexed": false,
          "internalType": "address",
          "name": "issuer",
          "type": "address"
        },
        {
          "indexed": false,
          "internalType": "uint256",
          "name": "royaltyAmount",
          "type": "uint256"
        },
        {
          "indexed": false,
          "internalType": "uint256",
          "name": "fees",
          "type": "uint256"
        },
        {
          "indexed": false,
          "internalType": "uint256",
          "name": "netPrice",
          "type": "uint256"
        },
        {
          "indexed": false,
          "internalType": "uint256",
          "name": "timestamp",
          "type": "uint256"
        }
      ],
      "name": "FulfillBid",
      "type": "event"
    },
    {
      "anonymous": false,
      "inputs": [
        {
          "indexed": false,
          "internalType": "bytes32",
          "name": "listId",
          "type": "bytes32"
        },
        {
          "indexed": false,
          "internalType": "address",
          "name": "nFTContract",
          "type": "address"
        },
        {
          "indexed": false,
          "internalType": "address",
          "name": "buyer",
          "type": "address"
        },
        {
          "indexed": false,
          "internalType": "uint256",
          "name": "tokenId",
          "type": "uint256"
        },
        {
          "indexed": false,
          "internalType": "uint256",
          "name": "listingPrice",
          "type": "uint256"
        },
        {
          "indexed": false,
          "internalType": "uint256",
          "name": "timestamp",
          "type": "uint256"
        }
      ],
      "name": "ListOnMarketplace",
      "type": "event"
    },
    {
      "anonymous": false,
      "inputs": [
        {
          "indexed": false,
          "internalType": "bytes32",
          "name": "listId",
          "type": "bytes32"
        },
        {
          "indexed": false,
          "internalType": "address",
          "name": "nFTContract",
          "type": "address"
        },
        {
          "indexed": false,
          "internalType": "address",
          "name": "owner",
          "type": "address"
        },
        {
          "indexed": false,
          "internalType": "uint256",
          "name": "tokenId",
          "type": "uint256"
        },
        {
          "indexed": false,
          "internalType": "uint256",
          "name": "fineFees",
          "type": "uint256"
        },
        {
          "indexed": false,
          "internalType": "uint256",
          "name": "releaseTime",
          "type": "uint256"
        },
        {
          "indexed": false,
          "internalType": "uint256",
          "name": "timestamp",
          "type": "uint256"
        }
      ],
      "name": "MigrateEmergency",
      "type": "event"
    },
    {
      "anonymous": false,
      "inputs": [
        {
          "indexed": false,
          "internalType": "address",
          "name": "admin",
          "type": "address"
        },
        {
          "indexed": false,
          "internalType": "address",
          "name": "wallet",
          "type": "address"
        },
        {
          "indexed": false,
          "internalType": "uint256",
          "name": "_fee",
          "type": "uint256"
        },
        {
          "indexed": false,
          "internalType": "uint256",
          "name": "_feeBase",
          "type": "uint256"
        }
      ],
      "name": "NewOffer",
      "type": "event"
    },
    {
      "anonymous": false,
      "inputs": [
        {
          "indexed": false,
          "internalType": "address",
          "name": "account",
          "type": "address"
        }
      ],
      "name": "Paused",
      "type": "event"
    },
    {
      "anonymous": false,
      "inputs": [
        {
          "indexed": true,
          "internalType": "bytes32",
          "name": "role",
          "type": "bytes32"
        },
        {
          "indexed": true,
          "internalType": "bytes32",
          "name": "previousAdminRole",
          "type": "bytes32"
        },
        {
          "indexed": true,
          "internalType": "bytes32",
          "name": "newAdminRole",
          "type": "bytes32"
        }
      ],
      "name": "RoleAdminChanged",
      "type": "event"
    },
    {
      "anonymous": false,
      "inputs": [
        {
          "indexed": true,
          "internalType": "bytes32",
          "name": "role",
          "type": "bytes32"
        },
        {
          "indexed": true,
          "internalType": "address",
          "name": "account",
          "type": "address"
        },
        {
          "indexed": true,
          "internalType": "address",
          "name": "sender",
          "type": "address"
        }
      ],
      "name": "RoleGranted",
      "type": "event"
    },
    {
      "anonymous": false,
      "inputs": [
        {
          "indexed": true,
          "internalType": "bytes32",
          "name": "role",
          "type": "bytes32"
        },
        {
          "indexed": true,
          "internalType": "address",
          "name": "account",
          "type": "address"
        },
        {
          "indexed": true,
          "internalType": "address",
          "name": "sender",
          "type": "address"
        }
      ],
      "name": "RoleRevoked",
      "type": "event"
    },
    {
      "anonymous": false,
      "inputs": [
        {
          "indexed": false,
          "internalType": "address",
          "name": "account",
          "type": "address"
        }
      ],
      "name": "Unpaused",
      "type": "event"
    },
    {
      "anonymous": false,
      "inputs": [
        {
          "indexed": false,
          "internalType": "address",
          "name": "newWallet",
          "type": "address"
        }
      ],
      "name": "UpdateAdminWallet",
      "type": "event"
    },
    {
      "anonymous": false,
      "inputs": [
        {
          "indexed": false,
          "internalType": "address",
          "name": "user",
          "type": "address"
        },
        {
          "indexed": false,
          "internalType": "uint256",
          "name": "lastReserves",
          "type": "uint256"
        },
        {
          "indexed": false,
          "internalType": "uint256",
          "name": "newReserves",
          "type": "uint256"
        },
        {
          "indexed": false,
          "internalType": "uint256",
          "name": "timestamp",
          "type": "uint256"
        }
      ],
      "name": "UserReservesFree",
      "type": "event"
    },
    {
      "inputs": [],
      "name": "DEFAULT_ADMIN_ROLE",
      "outputs": [
        {
          "internalType": "bytes32",
          "name": "",
          "type": "bytes32"
        }
      ],
      "stateMutability": "view",
      "type": "function"
    },
    {
      "inputs": [],
      "name": "OWNER_ROLE",
      "outputs": [
        {
          "internalType": "bytes32",
          "name": "",
          "type": "bytes32"
        }
      ],
      "stateMutability": "view",
      "type": "function"
    },
    {
      "inputs": [],
      "name": "PRICE_FEEDER_ROLE",
      "outputs": [
        {
          "internalType": "bytes32",
          "name": "",
          "type": "bytes32"
        }
      ],
      "stateMutability": "view",
      "type": "function"
    },
    {
      "inputs": [
        {
          "internalType": "address",
          "name": "wallet",
          "type": "address"
        },
        {
          "internalType": "uint256",
          "name": "_fee",
          "type": "uint256"
        },
        {
          "internalType": "uint256",
          "name": "feeBase",
          "type": "uint256"
        }
      ],
      "name": "addOffer",
      "outputs": [],
      "stateMutability": "nonpayable",
      "type": "function"
    },
    {
      "inputs": [
        {
          "internalType": "bytes32",
          "name": "listingId",
          "type": "bytes32"
        }
      ],
      "name": "approveDeal",
      "outputs": [],
      "stateMutability": "nonpayable",
      "type": "function"
    },
    {
      "inputs": [
        {
          "internalType": "bytes32",
          "name": "listingId",
          "type": "bytes32"
        },
        {
          "internalType": "uint256",
          "name": "bidPrice",
          "type": "uint256"
        }
      ],
      "name": "bid",
      "outputs": [
        {
          "internalType": "bytes32",
          "name": "bidId",
          "type": "bytes32"
        }
      ],
      "stateMutability": "nonpayable",
      "type": "function"
    },
    {
      "inputs": [
        {
          "internalType": "bytes32",
          "name": "listingId",
          "type": "bytes32"
        }
      ],
      "name": "buyNow",
      "outputs": [
        {
          "internalType": "address",
          "name": "_NFTContract",
          "type": "address"
        },
        {
          "internalType": "uint256",
          "name": "tokenId",
          "type": "uint256"
        }
      ],
      "stateMutability": "nonpayable",
      "type": "function"
    },
    {
      "inputs": [
        {
          "internalType": "bytes32",
          "name": "listingId",
          "type": "bytes32"
        },
        {
          "internalType": "uint256",
          "name": "price",
          "type": "uint256"
        },
        {
          "internalType": "uint256",
          "name": "deadline",
          "type": "uint256"
        },
        {
          "internalType": "uint8",
          "name": "v",
          "type": "uint8"
        },
        {
          "internalType": "bytes32",
          "name": "r",
          "type": "bytes32"
        },
        {
          "internalType": "bytes32",
          "name": "s",
          "type": "bytes32"
        }
      ],
      "name": "buyNowWithPermit",
      "outputs": [],
      "stateMutability": "nonpayable",
      "type": "function"
    },
    {
      "inputs": [
        {
          "internalType": "uint256",
          "name": "newFees",
          "type": "uint256"
        },
        {
          "internalType": "uint256",
          "name": "newBase",
          "type": "uint256"
        }
      ],
      "name": "changeFees",
      "outputs": [
        {
          "internalType": "uint256",
          "name": "percentage",
          "type": "uint256"
        }
      ],
      "stateMutability": "nonpayable",
      "type": "function"
    },
    {
      "inputs": [
        {
          "internalType": "uint256",
          "name": "duration",
          "type": "uint256"
        }
      ],
      "name": "changeFulfillDuration",
      "outputs": [],
      "stateMutability": "nonpayable",
      "type": "function"
    },
    {
      "inputs": [
        {
          "internalType": "uint256",
          "name": "newFees",
          "type": "uint256"
        },
        {
          "internalType": "uint256",
          "name": "newBase",
          "type": "uint256"
        }
      ],
      "name": "changeListInsuranceAmount",
      "outputs": [
        {
          "internalType": "uint256",
          "name": "percentage",
          "type": "uint256"
        }
      ],
      "stateMutability": "nonpayable",
      "type": "function"
    },
    {
      "inputs": [
        {
          "internalType": "string",
          "name": "_name",
          "type": "string"
        }
      ],
      "name": "changeMarketPlaceName",
      "outputs": [],
      "stateMutability": "nonpayable",
      "type": "function"
    },
    {
      "inputs": [
        {
          "internalType": "address",
          "name": "_reputationContract",
          "type": "address"
        }
      ],
      "name": "changeReputationContract",
      "outputs": [],
      "stateMutability": "nonpayable",
      "type": "function"
    },
    {
      "inputs": [
        {
          "internalType": "address",
          "name": "_token",
          "type": "address"
        }
      ],
      "name": "changeUtilityToken",
      "outputs": [],
      "stateMutability": "nonpayable",
      "type": "function"
    },
    {
      "inputs": [
        {
          "internalType": "address",
          "name": "nFTContract",
          "type": "address"
        },
        {
          "internalType": "uint256",
          "name": "tokenId",
          "type": "uint256"
        },
        {
          "internalType": "uint256",
          "name": "minimumBid",
          "type": "uint256"
        },
        {
          "internalType": "uint256",
          "name": "insurancAmount",
          "type": "uint256"
        },
        {
          "internalType": "bool",
          "name": "isSellForEnabled",
          "type": "bool"
        },
        {
          "internalType": "uint256",
          "name": "sellFor",
          "type": "uint256"
        },
        {
          "internalType": "uint256",
          "name": "duration",
          "type": "uint256"
        }
      ],
      "name": "createAuction",
      "outputs": [
        {
          "internalType": "bytes32",
          "name": "listId",
          "type": "bytes32"
        }
      ],
      "stateMutability": "nonpayable",
      "type": "function"
    },
    {
      "inputs": [
        {
          "internalType": "address",
          "name": "nFTContract",
          "type": "address"
        },
        {
          "internalType": "uint256",
          "name": "tokenId",
          "type": "uint256"
        },
        {
          "internalType": "uint256",
          "name": "listingPrice",
          "type": "uint256"
        },
        {
          "internalType": "uint256",
          "name": "insurancAmount",
          "type": "uint256"
        },
        {
          "internalType": "bool",
          "name": "isSellForEnabled",
          "type": "bool"
        },
        {
          "internalType": "uint256",
          "name": "sellFor",
          "type": "uint256"
        },
        {
          "internalType": "uint256",
          "name": "duration",
          "type": "uint256"
        },
        {
          "internalType": "uint256",
          "name": "deadline",
          "type": "uint256"
        },
        {
          "internalType": "uint8",
          "name": "v",
          "type": "uint8"
        },
        {
          "internalType": "bytes32",
          "name": "r",
          "type": "bytes32"
        },
        {
          "internalType": "bytes32",
          "name": "s",
          "type": "bytes32"
        }
      ],
      "name": "createAuctionWithPermit",
      "outputs": [
        {
          "internalType": "bytes32",
          "name": "listId",
          "type": "bytes32"
        }
      ],
      "stateMutability": "nonpayable",
      "type": "function"
    },
    {
      "inputs": [
        {
          "internalType": "bytes32",
          "name": "listingId",
          "type": "bytes32"
        }
      ],
      "name": "deList",
      "outputs": [
        {
          "internalType": "address",
          "name": "_NFTContract",
          "type": "address"
        },
        {
          "internalType": "uint256",
          "name": "tokenId",
          "type": "uint256"
        }
      ],
      "stateMutability": "nonpayable",
      "type": "function"
    },
    {
      "inputs": [
        {
          "internalType": "bytes32",
          "name": "listingId",
          "type": "bytes32"
        }
      ],
      "name": "disputeAuction",
      "outputs": [
        {
          "internalType": "address",
          "name": "_NFTContract",
          "type": "address"
        },
        {
          "internalType": "uint256",
          "name": "tokenId",
          "type": "uint256"
        }
      ],
      "stateMutability": "nonpayable",
      "type": "function"
    },
    {
      "inputs": [],
      "name": "freeReserves",
      "outputs": [
        {
          "internalType": "uint256",
          "name": "curentReserves",
          "type": "uint256"
        }
      ],
      "stateMutability": "nonpayable",
      "type": "function"
    },
    {
      "inputs": [
        {
          "internalType": "bytes32",
          "name": "listingId",
          "type": "bytes32"
        }
      ],
      "name": "fulfillBid",
      "outputs": [
        {
          "internalType": "address",
          "name": "_NFTContract",
          "type": "address"
        },
        {
          "internalType": "uint256",
          "name": "tokenId",
          "type": "uint256"
        }
      ],
      "stateMutability": "nonpayable",
      "type": "function"
    },
    {
      "inputs": [
        {
          "internalType": "bytes32",
          "name": "listingId",
          "type": "bytes32"
        },
        {
          "internalType": "uint256",
          "name": "deadline",
          "type": "uint256"
        },
        {
          "internalType": "uint8",
          "name": "v",
          "type": "uint8"
        },
        {
          "internalType": "bytes32",
          "name": "r",
          "type": "bytes32"
        },
        {
          "internalType": "bytes32",
          "name": "s",
          "type": "bytes32"
        }
      ],
      "name": "fulfillBidWithPermit",
      "outputs": [
        {
          "internalType": "address",
          "name": "_NFTContract",
          "type": "address"
        },
        {
          "internalType": "uint256",
          "name": "tokenId",
          "type": "uint256"
        }
      ],
      "stateMutability": "nonpayable",
      "type": "function"
    },
    {
      "inputs": [],
      "name": "fulfillDuration",
      "outputs": [
        {
          "internalType": "uint256",
          "name": "",
          "type": "uint256"
        }
      ],
      "stateMutability": "view",
      "type": "function"
    },
    {
      "inputs": [
        {
          "internalType": "bytes32",
          "name": "listingId",
          "type": "bytes32"
        },
        {
          "internalType": "address",
          "name": "bidder",
          "type": "address"
        }
      ],
      "name": "getAuctionBidDetails",
      "outputs": [
        {
          "internalType": "bytes32",
          "name": "bidId",
          "type": "bytes32"
        },
        {
          "internalType": "address",
          "name": "nFTContract",
          "type": "address"
        },
        {
          "internalType": "uint256",
          "name": "tokenId",
          "type": "uint256"
        },
        {
          "internalType": "uint256",
          "name": "bidPrice",
          "type": "uint256"
        },
        {
          "internalType": "bool",
          "name": "isPurchased",
          "type": "bool"
        }
      ],
      "stateMutability": "view",
      "type": "function"
    },
    {
      "inputs": [
        {
          "internalType": "bytes32",
          "name": "listingId",
          "type": "bytes32"
        }
      ],
      "name": "getListingDetails",
      "outputs": [
        {
          "internalType": "address",
          "name": "tokenAddress",
          "type": "address"
        },
        {
          "internalType": "uint256",
          "name": "tokenId",
          "type": "uint256"
        },
        {
          "internalType": "uint256",
          "name": "listingPrice",
          "type": "uint256"
        },
        {
          "internalType": "uint256",
          "name": "endPrice",
          "type": "uint256"
        },
        {
          "internalType": "address",
          "name": "seller",
          "type": "address"
        },
        {
          "internalType": "address",
          "name": "buyer",
          "type": "address"
        },
        {
          "internalType": "bool",
          "name": "iseBdEnabeled",
          "type": "bool"
        },
        {
          "internalType": "bool",
          "name": "isSellForEnabled",
          "type": "bool"
        },
        {
          "internalType": "uint256",
          "name": "releaseTime",
          "type": "uint256"
        },
        {
          "internalType": "uint256",
          "name": "disputeTime",
          "type": "uint256"
        },
        {
          "internalType": "uint256",
          "name": "insurancAmount",
          "type": "uint256"
        },
        {
          "internalType": "uint256",
          "name": "sellFor",
          "type": "uint256"
        },
        {
          "internalType": "uint256",
          "name": "status",
          "type": "uint256"
        }
      ],
      "stateMutability": "view",
      "type": "function"
    },
    {
      "inputs": [
        {
          "internalType": "address",
          "name": "wallet",
          "type": "address"
        }
      ],
      "name": "getOffer",
      "outputs": [
        {
          "internalType": "uint256",
          "name": "_fee",
          "type": "uint256"
        },
        {
          "internalType": "uint256",
          "name": "_feeBase",
          "type": "uint256"
        }
      ],
      "stateMutability": "view",
      "type": "function"
    },
    {
      "inputs": [
        {
          "internalType": "bytes32",
          "name": "role",
          "type": "bytes32"
        }
      ],
      "name": "getRoleAdmin",
      "outputs": [
        {
          "internalType": "bytes32",
          "name": "",
          "type": "bytes32"
        }
      ],
      "stateMutability": "view",
      "type": "function"
    },
    {
      "inputs": [
        {
          "internalType": "bytes32",
          "name": "role",
          "type": "bytes32"
        },
        {
          "internalType": "uint256",
          "name": "index",
          "type": "uint256"
        }
      ],
      "name": "getRoleMember",
      "outputs": [
        {
          "internalType": "address",
          "name": "",
          "type": "address"
        }
      ],
      "stateMutability": "view",
      "type": "function"
    },
    {
      "inputs": [
        {
          "internalType": "bytes32",
          "name": "role",
          "type": "bytes32"
        }
      ],
      "name": "getRoleMemberCount",
      "outputs": [
        {
          "internalType": "uint256",
          "name": "",
          "type": "uint256"
        }
      ],
      "stateMutability": "view",
      "type": "function"
    },
    {
      "inputs": [],
      "name": "getServiceFee",
      "outputs": [
        {
          "internalType": "uint256",
          "name": "",
          "type": "uint256"
        }
      ],
      "stateMutability": "view",
      "type": "function"
    },
    {
      "inputs": [
        {
          "internalType": "address",
          "name": "staker",
          "type": "address"
        }
      ],
      "name": "getStakeAllowance",
      "outputs": [
        {
          "internalType": "uint256",
          "name": "",
          "type": "uint256"
        }
      ],
      "stateMutability": "view",
      "type": "function"
    },
    {
      "inputs": [
        {
          "internalType": "address",
          "name": "user",
          "type": "address"
        }
      ],
      "name": "getUserReserved",
      "outputs": [
        {
          "internalType": "uint256",
          "name": "",
          "type": "uint256"
        }
      ],
      "stateMutability": "view",
      "type": "function"
    },
    {
      "inputs": [
        {
          "internalType": "bytes32",
          "name": "role",
          "type": "bytes32"
        },
        {
          "internalType": "address",
          "name": "account",
          "type": "address"
        }
      ],
      "name": "grantRole",
      "outputs": [],
      "stateMutability": "nonpayable",
      "type": "function"
    },
    {
      "inputs": [
        {
          "internalType": "bytes32",
          "name": "role",
          "type": "bytes32"
        },
        {
          "internalType": "address",
          "name": "account",
          "type": "address"
        }
      ],
      "name": "hasRole",
      "outputs": [
        {
          "internalType": "bool",
          "name": "",
          "type": "bool"
        }
      ],
      "stateMutability": "view",
      "type": "function"
    },
    {
      "inputs": [
        {
          "internalType": "bytes32",
          "name": "listingId",
          "type": "bytes32"
        }
      ],
      "name": "isApprovedDeal",
      "outputs": [
        {
          "internalType": "bool",
          "name": "status",
          "type": "bool"
        }
      ],
      "stateMutability": "view",
      "type": "function"
    },
    {
      "inputs": [
        {
          "internalType": "address",
          "name": "nFTContract",
          "type": "address"
        },
        {
          "internalType": "uint256",
          "name": "tokenId",
          "type": "uint256"
        },
        {
          "internalType": "uint256",
          "name": "listingPrice",
          "type": "uint256"
        }
      ],
      "name": "listOnMarketplace",
      "outputs": [
        {
          "internalType": "bytes32",
          "name": "listId",
          "type": "bytes32"
        }
      ],
      "stateMutability": "nonpayable",
      "type": "function"
    },
    {
      "inputs": [
        {
          "internalType": "address",
          "name": "nFTContract",
          "type": "address"
        },
        {
          "internalType": "uint256",
          "name": "tokenId",
          "type": "uint256"
        },
        {
          "internalType": "uint256",
          "name": "listingPrice",
          "type": "uint256"
        },
        {
          "internalType": "uint256",
          "name": "deadline",
          "type": "uint256"
        },
        {
          "internalType": "uint8",
          "name": "v",
          "type": "uint8"
        },
        {
          "internalType": "bytes32",
          "name": "r",
          "type": "bytes32"
        },
        {
          "internalType": "bytes32",
          "name": "s",
          "type": "bytes32"
        }
      ],
      "name": "listOnMarketplaceWithPermit",
      "outputs": [
        {
          "internalType": "bytes32",
          "name": "listId",
          "type": "bytes32"
        }
      ],
      "stateMutability": "nonpayable",
      "type": "function"
    },
    {
      "inputs": [],
      "name": "listingCounter",
      "outputs": [
        {
          "internalType": "uint256",
          "name": "",
          "type": "uint256"
        }
      ],
      "stateMutability": "view",
      "type": "function"
    },
    {
      "inputs": [],
      "name": "listqualifyPercentage",
      "outputs": [
        {
          "internalType": "uint256",
          "name": "",
          "type": "uint256"
        }
      ],
      "stateMutability": "view",
      "type": "function"
    },
    {
      "inputs": [],
      "name": "listqualifyPercentageBase",
      "outputs": [
        {
          "internalType": "uint256",
          "name": "",
          "type": "uint256"
        }
      ],
      "stateMutability": "view",
      "type": "function"
    },
    {
      "inputs": [],
      "name": "marketPlaceName",
      "outputs": [
        {
          "internalType": "string",
          "name": "",
          "type": "string"
        }
      ],
      "stateMutability": "view",
      "type": "function"
    },
    {
      "inputs": [
        {
          "internalType": "bytes32",
          "name": "listingId",
          "type": "bytes32"
        }
      ],
      "name": "migrateEmergency",
      "outputs": [
        {
          "internalType": "address",
          "name": "_NFTContract",
          "type": "address"
        },
        {
          "internalType": "uint256",
          "name": "tokenId",
          "type": "uint256"
        }
      ],
      "stateMutability": "nonpayable",
      "type": "function"
    },
    {
      "inputs": [
        {
          "internalType": "address",
          "name": "",
          "type": "address"
        },
        {
          "internalType": "address",
          "name": "",
          "type": "address"
        },
        {
          "internalType": "uint256",
          "name": "",
          "type": "uint256"
        },
        {
          "internalType": "bytes",
          "name": "",
          "type": "bytes"
        }
      ],
      "name": "onERC721Received",
      "outputs": [
        {
          "internalType": "bytes4",
          "name": "",
          "type": "bytes4"
        }
      ],
      "stateMutability": "nonpayable",
      "type": "function"
    },
    {
      "inputs": [],
      "name": "pause",
      "outputs": [],
      "stateMutability": "nonpayable",
      "type": "function"
    },
    {
      "inputs": [],
      "name": "paused",
      "outputs": [
        {
          "internalType": "bool",
          "name": "",
          "type": "bool"
        }
      ],
      "stateMutability": "view",
      "type": "function"
    },
    {
      "inputs": [
        {
          "internalType": "bytes32",
          "name": "role",
          "type": "bytes32"
        },
        {
          "internalType": "address",
          "name": "account",
          "type": "address"
        }
      ],
      "name": "renounceRole",
      "outputs": [],
      "stateMutability": "nonpayable",
      "type": "function"
    },
    {
      "inputs": [
        {
          "internalType": "bytes32",
          "name": "role",
          "type": "bytes32"
        },
        {
          "internalType": "address",
          "name": "account",
          "type": "address"
        }
      ],
      "name": "revokeRole",
      "outputs": [],
      "stateMutability": "nonpayable",
      "type": "function"
    },
    {
      "inputs": [
        {
          "internalType": "uint256",
          "name": "_stfiPrice",
          "type": "uint256"
        }
      ],
      "name": "setPrice",
      "outputs": [],
      "stateMutability": "nonpayable",
      "type": "function"
    },
    {
      "inputs": [
        {
          "internalType": "uint256",
          "name": "_usdCap",
          "type": "uint256"
        }
      ],
      "name": "setUsdCap",
      "outputs": [],
      "stateMutability": "nonpayable",
      "type": "function"
    },
    {
      "inputs": [],
      "name": "stakeContract",
      "outputs": [
        {
          "internalType": "address",
          "name": "",
          "type": "address"
        }
      ],
      "stateMutability": "view",
      "type": "function"
    },
    {
      "inputs": [],
      "name": "stfiCap",
      "outputs": [
        {
          "internalType": "uint256",
          "name": "",
          "type": "uint256"
        }
      ],
      "stateMutability": "view",
      "type": "function"
    },
    {
      "inputs": [],
      "name": "stfiUsdt",
      "outputs": [
        {
          "internalType": "uint256",
          "name": "",
          "type": "uint256"
        }
      ],
      "stateMutability": "view",
      "type": "function"
    },
    {
      "inputs": [
        {
          "internalType": "bytes4",
          "name": "interfaceId",
          "type": "bytes4"
        }
      ],
      "name": "supportsInterface",
      "outputs": [
        {
          "internalType": "bool",
          "name": "",
          "type": "bool"
        }
      ],
      "stateMutability": "view",
      "type": "function"
    },
    {
      "inputs": [],
      "name": "unpause",
      "outputs": [],
      "stateMutability": "nonpayable",
      "type": "function"
    },
    {
      "inputs": [
        {
          "internalType": "address",
          "name": "newWallet",
          "type": "address"
        }
      ],
      "name": "updateAdminWallet",
      "outputs": [],
      "stateMutability": "nonpayable",
      "type": "function"
    },
    {
      "inputs": [],
      "name": "usdCap",
      "outputs": [
        {
          "internalType": "uint256",
          "name": "",
          "type": "uint256"
        }
      ],
      "stateMutability": "view",
      "type": "function"
    },
    {
      "inputs": [
        {
          "internalType": "bytes32",
          "name": "listingId",
          "type": "bytes32"
        }
      ],
      "name": "winnerBid",
      "outputs": [
        {
          "internalType": "bytes32",
          "name": "bidId",
          "type": "bytes32"
        },
        {
          "internalType": "address",
          "name": "bidder",
          "type": "address"
        },
        {
          "internalType": "address",
          "name": "nFTContract",
          "type": "address"
        },
        {
          "internalType": "uint256",
          "name": "tokenId",
          "type": "uint256"
        },
        {
          "internalType": "uint256",
          "name": "bidPrice",
          "type": "uint256"
        },
        {
          "internalType": "bool",
          "name": "isPurchased",
          "type": "bool"
        }
      ],
      "stateMutability": "view",
      "type": "function"
    }
  ],
  "transactionHash": "0x4b3cc8f17290d963c703eb6173347359bcf1da8fa60bbf392ca9619cc2b20fe8",
  "args": [
    "StartFi Market",
    "0x5A34229cc5251F05FB1CFA796Da9fc2221d3A19F",
    "0xA2bf2CE5FDf7c37C5928846193f350EdF1faE517",
    "0xF24bDc6B1b33006c8652c3aB05467Ab0904AB6f9",
    "0x7D4E772156A4c7C8Bc2622D8aA3B2E50BDE5c035"
  ],
  "solcInputHash": "d1593a8ecc6f184fdd33f9856336ee42",
  "bytecode": "0x60806040526019600655600a600755600a8055600a600b556203f4806011553480156200002b57600080fd5b5060405162005b8b38038062005b8b8339810160408190526200004e9162000393565b6002805460ff191690558451819086908690859083908390839082908290859062000081906003906020840190620002d0565b5050600580546001600160a01b039384166001600160a01b0319918216179091556004805492909316911617905550620000c1915060009050856200016b565b620000ed7fb19546dff01e856fb3f010c267a7b1c60363cf8a4664e21cc89c26224620214e856200016b565b620001197f7d867aa9d791a9a4be418f90a2f248aa2c5f1348317792a6f6412f94df9819f7856200016b565b5050601680546001600160a01b039384166001600160a01b0319918216179091556001601755600980549690931695169490941790555050612710600c55505061c350600d55506005600e556200050f565b620001828282620001ae60201b620033ea1760201c565b6000828152600160209081526040909120620001a9918390620033f8620001be821b17901c565b505050565b620001ba8282620001de565b5050565b6000620001d5836001600160a01b0384166200027e565b90505b92915050565b6000828152602081815260408083206001600160a01b038516845290915290205460ff16620001ba576000828152602081815260408083206001600160a01b03851684529091529020805460ff191660011790556200023a3390565b6001600160a01b0316816001600160a01b0316837f2f8788117e7eff1d82e926ec794901d17c78024a50270940304540a733656f0d60405160405180910390a45050565b6000818152600183016020526040812054620002c757508154600181810184556000848152602080822090930184905584548482528286019093526040902091909155620001d8565b506000620001d8565b828054620002de90620004bc565b90600052602060002090601f0160209004810192826200030257600085556200034d565b82601f106200031d57805160ff19168380011785556200034d565b828001600101855582156200034d579182015b828111156200034d57825182559160200191906001019062000330565b506200035b9291506200035f565b5090565b5b808211156200035b576000815560010162000360565b80516001600160a01b03811681146200038e57600080fd5b919050565b600080600080600060a08688031215620003ac57600080fd5b85516001600160401b0380821115620003c457600080fd5b818801915088601f830112620003d957600080fd5b815181811115620003ee57620003ee620004f9565b604051601f8201601f19908116603f01168101908382118183101715620004195762000419620004f9565b81604052828152602093508b848487010111156200043657600080fd5b600091505b828210156200045a57848201840151818301850152908301906200043b565b828211156200046c5760008484830101525b98506200047e91505088820162000376565b95505050620004906040870162000376565b9250620004a06060870162000376565b9150620004b06080870162000376565b90509295509295909350565b600181811c90821680620004d157607f821691505b60208210811415620004f357634e487b7160e01b600052602260045260246000fd5b50919050565b634e487b7160e01b600052604160045260246000fd5b61566c806200051f6000396000f3fe608060405234801561001057600080fd5b50600436106103785760003560e01c806369abe662116101d3578063a217fddf11610104578063e123ff58116100a2578063eb75c4101161007c578063eb75c4101461091e578063ec77bb8c14610964578063f28c071614610977578063ffd856ad1461098a57600080fd5b8063e123ff581461086c578063e1a1d7ed1461087f578063e58378bb1461090957600080fd5b8063ca15c873116100de578063ca15c87314610820578063cd772f5c14610833578063d547741f14610846578063d7ad49311461085957600080fd5b8063a217fddf146107f2578063b3331bee146107fa578063c82f26011461080d57600080fd5b80638456cb5911610171578063913d7ee21161014b578063913d7ee2146107a657806391b7f5ed146107b957806391d14854146107cc578063a01a93b3146107df57600080fd5b80638456cb59146107765780638ef291e91461077e5780639010d07c1461079357600080fd5b80637a59acd2116101ad5780637a59acd21461069c5780637b356561146106af5780637ebed0951461073c57806383ed80631461074f57600080fd5b806369abe662146106685780636bb598161461068b5780636c2c9c7d1461069357600080fd5b80633a33ae80116102ad5780635add4b111161024b5780635eec0870116102255780635eec087014610630578063611d45a2146106435780636298c93a14610656578063649ee6831461065f57600080fd5b80635add4b11146106095780635bbd49f4146106125780635c975abb1461062557600080fd5b80634b3ee2bb116102875780634b3ee2bb1461051957806356461e8e146105bb57806356abf8d0146105c457806356e9d1f3146105d757600080fd5b80633a33ae80146104f55780633f4ba83a146104fe578063421415cc1461050657600080fd5b806321ecff5b1161031a57806329c5cdf3116102f457806329c5cdf3146104b35780632a6bf14c146104c65780632f2ff15d146104cf57806336568abe146104e257600080fd5b806321ecff5b1461046a578063248a9ca31461047d57806329194964146104a057600080fd5b80631a186227116103565780631a186227146103ee5780631d984523146104195780631dee84881461042c5780631f78fd0b1461044157600080fd5b806301ffc9a71461037d57806311a1933c146103a5578063150b7a02146103b7575b600080fd5b61039061038b366004614ebf565b61099d565b60405190151581526020015b60405180910390f35b6006545b60405190815260200161039c565b6103d56103c5366004614b57565b630a85bd0160e11b949350505050565b6040516001600160e01b0319909116815260200161039c565b600954610401906001600160a01b031681565b6040516001600160a01b03909116815260200161039c565b6103a9610427366004614e05565b6109c8565b61043f61043a366004614e27565b610a76565b005b6103a961044f366004614b1d565b6001600160a01b031660009081526008602052604090205490565b6103a9610478366004614e05565b610ae3565b6103a961048b366004614dbc565b60009081526020819052604090206001015490565b61043f6104ae366004614dbc565b610b7e565b6103a96104c1366004614c05565b610be0565b6103a960115481565b61043f6104dd366004614dd5565b610db0565b61043f6104f0366004614dd5565b610dd7565b6103a9600d5481565b61043f610df9565b6103a9610514366004614ca2565b610e59565b610580610527366004614dbc565b60009081526014602090815260408083208054600191820154601385528386206001600160a01b03918216808852955292909420908101546002820154600383015460049093015495969495919093169360ff90911690565b604080519687526001600160a01b039586166020880152939094169285019290925260608401526080830152151560a082015260c00161039c565b6103a9600b5481565b61043f6105d2366004614c05565b610ec9565b6105ea6105e5366004614dbc565b610f7f565b604080516001600160a01b03909316835260208301919091520161039c565b6103a9600e5481565b6103a9610620366004614c3a565b61125e565b60025460ff16610390565b61043f61063e366004614b1d565b61157e565b6105ea610651366004614dbc565b611659565b6103a9600c5481565b6103a9600a5481565b610390610676366004614dbc565b6000908152600f602052604090205460ff1690565b6103a96118b4565b6103a960185481565b6103a96106aa366004614b1d565b611b4b565b6106c26106bd366004614dbc565b611bf2565b604080516001600160a01b039e8f168152602081019d909d528c019a909a5260608b0198909852958a1660808a01529890931660a088015290151560c0870152151560e08601526101008501526101208401949094526101408301939093526101608201929092526101808101919091526101a00161039c565b61043f61074a366004614b1d565b611c93565b6103a97f7d867aa9d791a9a4be418f90a2f248aa2c5f1348317792a6f6412f94df9819f781565b61043f611d64565b610786611dc3565b60405161039c9190615066565b6104016107a1366004614e05565b611e55565b61043f6107b4366004614ee9565b611e6d565b61043f6107c7366004614dbc565b611f06565b6103906107da366004614dd5565b611fa4565b6105ea6107ed366004614dbc565b611fcd565b6103a9600081565b6103a9610808366004614d3a565b612361565b61043f61081b366004614dbc565b6123c9565b6103a961082e366004614dbc565b612499565b6103a9610841366004614e05565b6124b0565b61043f610854366004614dd5565b61297a565b6105ea610867366004614dbc565b612984565b6105ea61087a366004614dbc565b612d0d565b6108d761088d366004614dd5565b60009182526013602090815260408084206001600160a01b039384168552909152909120805460018201546002830154600384015460049094015492959190941693929160ff1690565b604080519586526001600160a01b0390941660208601529284019190915260608301521515608082015260a00161039c565b6103a960008051602061561783398151915281565b61094f61092c366004614b1d565b6001600160a01b0316600090815260106020526040902080546001909101549091565b6040805192835260208301919091520161039c565b6105ea610972366004614e78565b6130c2565b61043f610985366004614dbc565b613151565b61043f610998366004614b1d565b613319565b60006001600160e01b03198216635a05180f60e01b14806109c257506109c28261340d565b92915050565b60006109e260008051602061561783398151915233611fa4565b610a075760405162461bcd60e51b81526004016109fe906151aa565b60405180910390fd5b60025460ff16610a295760405162461bcd60e51b81526004016109fe90615099565b610a338383613442565b60408051858152602081018590529192507f4aed3beccf37ae9977a9fce4ed1771b1a6ee2f1c290134080bf2264d58f6e2ca91015b60405180910390a192915050565b610a843386868686866134c8565b610ad05760405162461bcd60e51b815260206004820152601a60248201527f537461727446693a20496e76616c6964207369676e617475726500000000000060448201526064016109fe565b610ad986612984565b5050505050505050565b6000610afd60008051602061561783398151915233611fa4565b610b195760405162461bcd60e51b81526004016109fe906151aa565b60025460ff16610b3b5760405162461bcd60e51b81526004016109fe90615099565b610b458383613544565b60408051858152602081018590529192507f0dba25723c12d14a525942a1f517d05faa831a99752d9e8273a56eb021106b7e9101610a68565b610b9660008051602061561783398151915233611fa4565b610bb25760405162461bcd60e51b81526004016109fe906151aa565b60025460ff16610bd45760405162461bcd60e51b81526004016109fe90615099565b610bdd816135ca565b50565b6000610bee60025460ff1690565b15610c0b5760405162461bcd60e51b81526004016109fe906151fa565b8160008111610c585760405162461bcd60e51b815260206004820152601960248201527816995c9bc815985b1d59481a5cc81b9bdd08185b1b1bddd959603a1b60448201526064016109fe565b60188054906000610c6883615540565b91905055508484610c763390565b601854604051610c8d949392914291602001614f4b565b604051602081830303815290604052805190602001209150610caf8585613639565b610ccb5760405162461bcd60e51b81526004016109fe90615281565b610cd882863387876136ca565b610d1d5760405162461bcd60e51b8152602060048201526016602482015275436f756c646e2774206c69737420746865206974656d60501b60448201526064016109fe565b604080518381526001600160a01b0387166020820152338183015260608101869052608081018590524260a082015290517f49106c20b85d090f5e277321755f4aa52208129bcbc2940327186f7f7f1c031a9181900360c00190a1610d8c338686306000806000806000613878565b610da85760405162461bcd60e51b81526004016109fe9061533c565b509392505050565b610dba8282613a86565b6000828152600160205260409020610dd290826133f8565b505050565b610de18282613aac565b6000828152600160205260409020610dd29082613b26565b610e1160008051602061561783398151915233611fa4565b610e2d5760405162461bcd60e51b81526004016109fe906151aa565b60025460ff16610e4f5760405162461bcd60e51b81526004016109fe90615099565b610e57613b3b565b565b6000610e6a8c338d88888888613ba7565b610eaa5760405162461bcd60e51b8152602060048201526011602482015270696e76616c6964207369676e617475726560781b60448201526064016109fe565b610eb98c8c8c8c8c8c8c61125e565b9c9b505050505050505050505050565b610ee160008051602061561783398151915233611fa4565b610efd5760405162461bcd60e51b81526004016109fe906151aa565b60025460ff1615610f205760405162461bcd60e51b81526004016109fe906151fa565b610f2b838383613c57565b604080513381526001600160a01b03851660208201528082018490526060810183905290517ff5c7e6c2b8dc927897290afe37ff3c0df5d40c978875b7588c11d639f990b5499181900360800190a1505050565b600080610f8e60025460ff1690565b15610fab5760405162461bcd60e51b81526004016109fe906151fa565b6000838152601260205260409020600a015460ff166001816003811115610fd457610fd461559b565b1480610ff157506002816003811115610fef57610fef61559b565b145b61104f5760405162461bcd60e51b815260206004820152602960248201527f4974656d206973206e6f74206f6e2041756374696f6e206f72204c697374656460448201526820666f722073616c6560b81b60648201526084016109fe565b600084815260126020526040902060058101546004909101546001600160a01b0391821691163381146110be5760405162461bcd60e51b815260206004820152601760248201527621b0b63632b91034b9903737ba103a34329037bbb732b960491b60448201526064016109fe565b6001600160a01b0382161561110c5760405162461bcd60e51b815260206004820152601460248201527320b63932b0b23c903137bab3b43a103a37b5b2b760611b60448201526064016109fe565b600086815260126020526040902080546001909101546001600160a01b039091169550935060028360038111156111455761114561559b565b14156111c35760008681526012602052604081206006015460115490919061116e908390613d0e565b9050428111156111c05760405162461bcd60e51b815260206004820152601e60248201527f4e6f74207468652074696d6520746f2044656c6973742061756374696f6e000060448201526064016109fe565b50505b6111d08660006003613d1a565b604080518781526001600160a01b0387811660208301528316818301526060810186905242608082015290517f6dc4b575e1450ba0ba61ffb69a8da69f79d671bee33a01783b6a14c469cb7e709181900360a00190a161123a308686846000806000806000613878565b6112565760405162461bcd60e51b81526004016109fe9061533c565b505050915091565b600061126c60025460ff1690565b156112895760405162461bcd60e51b81526004016109fe906151fa565b85600081116112d65760405162461bcd60e51b815260206004820152601960248201527816995c9bc815985b1d59481a5cc81b9bdd08185b1b1bddd959603a1b60448201526064016109fe565b61a8c0831161133d5760405162461bcd60e51b815260206004820152602d60248201527f41756374696f6e2073686f756c64206265206c69766520666f72206d6f72652060448201526c7468616e20313220686f75727360981b60648201526084016109fe565b600e5486101561138f5760405162461bcd60e51b815260206004820152601e60248201527f496e76616c69642041756374696f6e207175616c69667920416d6f756e74000060448201526064016109fe565b600061139b4285613d0e565b6018805491925060006113ad83615540565b919050555089896113bb3390565b6018546040516113d2949392918691602001614f4b565b604051602081830303815290604052805190602001209250851561144557878510156114405760405162461bcd60e51b815260206004820152601960248201527f5a65726f207072696365206973206e6f7420616c6c6f7765640000000000000060448201526064016109fe565b61144a565b600094505b6114548a8a613639565b6114705760405162461bcd60e51b81526004016109fe90615281565b611481838b338c8c8b8b888f613d8d565b6114c65760405162461bcd60e51b8152602060048201526016602482015275436f756c646e2774206c69737420746865206974656d60501b60448201526064016109fe565b604080518481526001600160a01b038c1660208201523381830152606081018b9052608081018a905287151560a082015260c0810187905260e0810183905261010081018990524261012082015290517fd7f1b8f328c218ec2774158bb7329aaa002cda2cb72482f7927b5c1991697f1b918190036101400190a1611555338b8b306000806000806000613878565b6115715760405162461bcd60e51b81526004016109fe9061533c565b5050979650505050505050565b806001600160a01b0381166115a55760405162461bcd60e51b81526004016109fe906150c7565b6115b0600033611fa4565b6115f25760405162461bcd60e51b81526020600482015260136024820152722ab720baba3437b934bd32b21031b0b63632b960691b60448201526064016109fe565b601680546001600160a01b0319166001600160a01b038416179055611618600083613f39565b6040516001600160a01b03831681527f07725cf1e627ba6b8a0d3bde9462e150e033b44fa6f17a31024d141122c1396f906020015b60405180910390a15050565b60008061166860025460ff1690565b6116845760405162461bcd60e51b81526004016109fe90615099565b50506000818152601260205260409020600a81015460058201546004830154835460068501546001909501546001600160a01b0391821695909460ff1693821692909116906116d03390565b6001600160a01b0316826001600160a01b03161461172a5760405162461bcd60e51b815260206004820152601760248201527621b0b63632b91034b9903737ba103a34329037bbb732b960491b60448201526064016109fe565b6001600160a01b038316156117785760405162461bcd60e51b815260206004820152601460248201527320b63932b0b23c903137bab3b43a103a37b5b2b760611b60448201526064016109fe565b600184600381111561178c5761178c61559b565b14806117a9575060028460038111156117a7576117a761559b565b145b6117f55760405162461bcd60e51b815260206004820181905260248201527f416c726561647920626f75676874206f722063616e63656c656420746f6b656e60448201526064016109fe565b6118028760006003613d1a565b6000878152601260209081526040918290206008015482518a81526001600160a01b038a8116938201939093529185168284015260608201889052608082015260a081018390524260c082015290517f60974777054aa4309a55a645d5dab87017a79bbad06dac2fda24be4d8e3b49969181900360e00190a161188f308787856000806000806000613878565b6118ab5760405162461bcd60e51b81526004016109fe9061533c565b50505050915091565b3360009081526008602090815260408083205460158352818420805483518186028101860190945280845291938593929083018282801561191457602002820191906000526020600020905b815481526020019060010190808311611900575b50505050509050601560006119263390565b6001600160a01b03166001600160a01b031681526020019081526020016000206000611952919061499f565b336000908152601560205260408120905b8251811015611ace57600260126000858481518110611984576119846155c7565b6020908102919091018101518252810191909152604001600020600a015460ff1660038111156119b6576119b661559b565b1415611abc5742601260008584815181106119d3576119d36155c7565b6020026020010151815260200190815260200160002060070154108015611a3f5750336001600160a01b031660146000858481518110611a1557611a156155c7565b6020908102919091018101518252810191909152604001600020600101546001600160a01b031614155b15611a4957611abc565b81838281518110611a5c57611a5c6155c7565b6020908102919091018101518254600181018455600093845291832090910155835160129190859084908110611a9457611a946155c7565b602002602001015181526020019081526020016000206008015485611ab99190615371565b94505b80611ac681615540565b915050611963565b503360009081526015602052604090208154611aec919083906149bd565b50336000908152600860205260409020849055604080513381526020810185905280820186905242606082015290517f0d0e56539d6f587bb6a3924f7dee452834a223586e9bb60d3827f4006cb0655d9181900360800190a150505090565b6001600160a01b03818116600081815260086020526040808220546009549151630fa6707960e21b815260048101949094529193919283929190911690633e99c1e49060240160206040518083038186803b158015611ba957600080fd5b505afa158015611bbd573d6000803e3d6000fd5b505050506040513d601f19601f82011682018060405250810190611be19190614f32565b611beb91906154a7565b9392505050565b6000818152601260205260408120805460018201546002830154600380850154600486015460058701546006880154600789015460088a015460098b0154600a909b01546001600160a01b039a8b169c999b989a9699958716989685169760ff600160a01b8704811698600160a81b90970481169795969495939493921690811115611c8057611c8061559b565b905091939597999b9d90929496989a9c50565b806001600160a01b038116611cba5760405162461bcd60e51b81526004016109fe906150c7565b611cd260008051602061561783398151915233611fa4565b611cee5760405162461bcd60e51b81526004016109fe906151aa565b60025460ff16611d105760405162461bcd60e51b81526004016109fe90615099565b600480546001600160a01b0319166001600160a01b0384161790556040516001600160a01b03831681527fbe3260255e87723bd3e58ffcce4c909c98caadd416e23b7e098070f92fd75bbd9060200161164d565b611d7c60008051602061561783398151915233611fa4565b611d985760405162461bcd60e51b81526004016109fe906151aa565b60025460ff1615611dbb5760405162461bcd60e51b81526004016109fe906151fa565b610e57613f43565b606060038054611dd290615505565b80601f0160208091040260200160405190810160405280929190818152602001828054611dfe90615505565b8015611e4b5780601f10611e2057610100808354040283529160200191611e4b565b820191906000526020600020905b815481529060010190602001808311611e2e57829003601f168201915b5050505050905090565b6000828152600160205260408120611beb9083613f9b565b611e8560008051602061561783398151915233611fa4565b611ea15760405162461bcd60e51b81526004016109fe906151aa565b60025460ff16611ec35760405162461bcd60e51b81526004016109fe90615099565b611ecc81613fa7565b7fe28169ccda724be8baad801e6de41dad86e49186953944c40f68eb91e100ea8681604051611efb9190615066565b60405180910390a150565b611f307f7d867aa9d791a9a4be418f90a2f248aa2c5f1348317792a6f6412f94df9819f733611fa4565b611f8c5760405162461bcd60e51b815260206004820152602760248201527f537461727446694d61726b6574506c6163653a20556e417574686f72697a65646044820152661031b0b63632b960c91b60648201526084016109fe565b600e819055600c54611f9e9082615488565b600d5550565b6000918252602082815260408084206001600160a01b0393909316845291905290205460ff1690565b600080611fdc60025460ff1690565b15611ff95760405162461bcd60e51b81526004016109fe906151fa565b600083815260126020526040902060060154839042118015612040575060026000828152601260205260409020600a015460ff16600381111561203e5761203e61559b565b145b6120a15760405162461bcd60e51b815260206004820152602c60248201527f41756374696f6e206973206e6f7420656e646564206f72206e6f206c6f6e676560448201526b391037b71030bab1ba34b7b760a11b60648201526084016109fe565b6000848152601460209081526040808320600190810154601290935292206004810154815491909301546001600160a01b0391821696509450908116911633821461212e5760405162461bcd60e51b815260206004820152601860248201527f43616c6c6572206973206e6f74207468652077696e6e6572000000000000000060448201526064016109fe565b60008681526013602090815260408083206001600160a01b0386168452909152902060030154600d5481111561218c576000878152600f602052604090205460ff1661218c5760405162461bcd60e51b81526004016109fe906152d2565b8061219684613fba565b10156121b45760405162461bcd60e51b81526004016109fe90615140565b6001600160a01b03821660009081526010602052604081205481908190819015612216576001600160a01b03861660009081526010602052604090208054600190910154612207918c918c91899161403e565b92965090945092509050612232565b6122278a8a8760065460075461403e565b929650909450925090505b60008b81526013602090815260408083203384529091528120600401805460ff19166001179055612266908c908990613d1a565b612278338b8b89888888886001613878565b6122945760405162461bcd60e51b81526004016109fe906150fe565b60008b8152601260205260408120600801546122b2918991906140b0565b506122be868887614128565b5060008b8152601460209081526040918290205482519081529081018d90526001600160a01b038c8116828401528981166060830152608082018c905260a08201889052861660c082015260e08101859052610100810184905261012081018390524261014082015290517f770608f9b23b449846d60bf6a9fd216b33db427cd5726cf1071d134311431442918190036101600190a15050505050505050915091565b600061237288338988888888613ba7565b6123b25760405162461bcd60e51b8152602060048201526011602482015270696e76616c6964207369676e617475726560781b60448201526064016109fe565b6123bd888888610be0565b98975050505050505050565b6123e160008051602061561783398151915233611fa4565b6123fd5760405162461bcd60e51b81526004016109fe906151aa565b60025460ff1661241f5760405162461bcd60e51b81526004016109fe90615099565b6201518081116124645760405162461bcd60e51b815260206004820152601060248201526f24b73b30b634b210323ab930ba34b7b760811b60448201526064016109fe565b60118190556040518181527ff49a73cf36f0d199722739f91a682c327b1e2d3fde466a159e78e0ea0dbbacf890602001611efb565b60008181526001602052604081206109c2906141b8565b60006124be60025460ff1690565b156124db5760405162461bcd60e51b81526004016109fe906151fa565b600083815260126020526040902060060154839042108015612522575060026000828152601260205260409020600a015460ff1660038111156125205761252061559b565b145b6125615760405162461bcd60e51b815260206004820152601060248201526f105d58dd1a5bdb881a5cc8195b99195960821b60448201526064016109fe565b6000848152601260208181526040808420805460018083015484518087018d90526bffffffffffffffffffffffff19606085811b82168389015233901b166054820152606880820183905286518083039091018152608890910186528051908701208c89526014875294909720015494909352600801549095506001600160a01b039182169392919091169081612677576000888152601260205260409020600201548710156126725760405162461bcd60e51b815260206004820152603660248201527f626964207072696365206d757374206265206d6f7265207468616e206f7220656044820152757175616c20746865206d696e696d756d20707269636560501b60648201526084016109fe565b6126fc565b60008881526013602090815260408083206001600160a01b038616845290915290206003015487116126fc5760405162461bcd60e51b815260206004820152602860248201527f626964207072696365206d757374206265206d6f7265207468616e20746865206044820152671b185cdd08189a5960c21b60648201526084016109fe565b600088815260136020908152604080832033845290915290206003015480612801578161272833611b4b565b101561276c5760405162461bcd60e51b81526020600482015260136024820152724e6f7420656e6f75676820726573657276657360681b60448201526064016109fe565b336000818152601560209081526040822080546001810182558184529183209091018c905591905280546127a390829081906149bd565b5060006127b2338560016140b0565b116127ff5760405162461bcd60e51b815260206004820152601b60248201527f52657365727665205a65726f206973206e6f7420616c6c6f776564000000000060448201526064016109fe565b505b6128d1878a8733888d6040805180820182528781526001600160a01b03948516602080830182815260008a81526014835285812094518555905160019485018054918a166001600160a01b0319928316179055855160a0810187529b8c529888168b83019081528b860197885260608c0196875260808c018281529a825260138352858220938252929091529290922097518855905187820180549190951695169490941790925551600285015551600384015590516004909201805492151560ff199093169290921790915590565b61290c5760405162461bcd60e51b815260206004820152600c60248201526b10dbdd5b191b89dd08109a5960a21b60448201526064016109fe565b60408051888152602081018b90526001600160a01b038716818301523360608201526080810186905260a081018a90524260c082015290517f2d4cfcefc09a529d21dfffe1fc49a95663a8e6ee7aa367506e419a6d437882859181900360e00190a150505050505092915050565b610de182826141c2565b60008061299360025460ff1690565b156129b05760405162461bcd60e51b81526004016109fe906151fa565b60008381526012602052604081206005810154600a9091015460ff600160a81b909204821692916001911660038111156129ec576129ec61559b565b1415612a0a5750600084815260126020526040902060020154612ab2565b60026000868152601260205260409020600a015460ff166003811115612a3257612a3261559b565b1415612ab2576001821515148015612a5a575060008581526012602052604090206006015442105b612a9e5760405162461bcd60e51b8152602060048201526015602482015274546f6b656e206973206e6f7420666f722073616c6560581b60448201526064016109fe565b506000848152601260205260409020600901545b6000858152601260205260409020600481015481546001909201546001600160a01b03928316965094501681612b505760405162461bcd60e51b815260206004820152603960248201527f537461727466694d61726b6574706c63653a20496e76616c696420707269636560448201527f206f7220546f6b656e206973206e6f7420666f722073616c650000000000000060648201526084016109fe565b600d54821115612b88576000868152600f602052604090205460ff16612b885760405162461bcd60e51b81526004016109fe906152d2565b81612b9233613fba565b1015612bb05760405162461bcd60e51b81526004016109fe90615140565b6001600160a01b03811660009081526010602052604081205481908190819015612c12576001600160a01b03851660009081526010602052604090208054600190910154612c03918b918b918a9161403e565b92965090945092509050612c2e565b612c2389898860065460075461403e565b929650909450925090505b612c3a8a336000613d1a565b612c45853388614128565b50604080518b81526001600160a01b03808c1660208301523382840152606082018b90526080820189905287811660a083015289151560c0830152861660e08201526101008101859052610120810184905261014081018390524261016082015290517ff18fd7f8585dc258636a453d4a87ee3dd6edda50c1f438348bddf640ca6fbbec918190036101800190a1612ce5338a8a88888888886001613878565b612d015760405162461bcd60e51b81526004016109fe906150fe565b50505050505050915091565b600080612d1c60025460ff1690565b15612d395760405162461bcd60e51b81526004016109fe906151fa565b6000838152601460209081526040808320600101546012909252909120600401546001600160a01b039182169116338114612db65760405162461bcd60e51b815260206004820152601760248201527f4f6e6c792053656c6c65722063616e206469737075746500000000000000000060448201526064016109fe565b60008581526012602052604090208054600182015460088301546007909301546001600160a01b039283169750909550908416612e355760405162461bcd60e51b815260206004820181905260248201527f4d61726b6574706c6163653a2041756374696f6e20686173206e6f206269647360448201526064016109fe565b42811115612e965760405162461bcd60e51b815260206004820152602860248201527f4d61726b6574706c6163653a2043616e206e6f742064697370757465206265666044820152676f72652074696d6560c01b60648201526084016109fe565b60026000888152601260205260409020600a015460ff166003811115612ebe57612ebe61559b565b14612f175760405162461bcd60e51b815260206004820152602360248201527f4d61726b6574706c6163653a204974656d206973206e6f74206f6e204175637460448201526234b7b760e91b60648201526084016109fe565b600d5460008881526013602090815260408083206001600160a01b03891684529091529020600301541115612f74576000878152600f602052604090205460ff16612f745760405162461bcd60e51b81526004016109fe906152d2565b600080612f80846141e8565b6016549193509150612f9d9087906001600160a01b031684614210565b612fb95760405162461bcd60e51b81526004016109fe90615224565b612fc4868683614210565b612fe05760405162461bcd60e51b81526004016109fe90615224565b612fec868560006140b0565b50612ffa8960006003613d1a565b6000898152601460209081526040918290205482519081529081018b90526001600160a01b038a8116828401528881166060830152608082018a9052871660a082015260c0810186905260e0810183905261010081018490524261012082015290517fb46a91724b95c8764d64242653194717e2ab549e1b76e207124d3bddc39aed6d918190036101400190a161309b308989886000806000806000613878565b6130b75760405162461bcd60e51b81526004016109fe9061533c565b505050505050915091565b600085815260136020908152604080832033808552925282206003015482916130ee91888888886134c8565b61313a5760405162461bcd60e51b815260206004820152601a60248201527f537461727446693a20496e76616c6964207369676e617475726500000000000060448201526064016109fe565b61314387611fcd565b915091509550959350505050565b61316960008051602061561783398151915233611fa4565b6131855760405162461bcd60e51b81526004016109fe906151aa565b60025460ff16156131a85760405162461bcd60e51b81526004016109fe906151fa565b60026000828152601260205260409020600a015460ff1660038111156131d0576131d061559b565b1480613201575060016000828152601260205260409020600a015460ff1660038111156131ff576131ff61559b565b145b61324d5760405162461bcd60e51b815260206004820181905260248201527f537461727446694d61726b6574706c6163653a20496e76616c6964204954656d60448201526064016109fe565b60026000828152601260205260409020600a015460ff1660038111156132755761327561559b565b14156132b3576000818152601260205260409020600601544211156132b3576132a042601154613d0e565b6000828152601260205260409020600701555b6000818152600f60205260409020805460ff191660011790557f9bfd958891fe06dddc3c7b564113a5fefaa5958db6ec809ab3d39ef6d5e5cc69816132f53390565b604080519283526001600160a01b0390911660208301524290820152606001611efb565b806001600160a01b0381166133405760405162461bcd60e51b81526004016109fe906150c7565b61335860008051602061561783398151915233611fa4565b6133745760405162461bcd60e51b81526004016109fe906151aa565b60025460ff166133965760405162461bcd60e51b81526004016109fe90615099565b600580546001600160a01b0319166001600160a01b0384161790556040516001600160a01b03831681527f34ebd4cf402719b97a4e51402bd4a109c70b0b732ce4ead80c769d9d2a427ac09060200161164d565b6133f48282614245565b5050565b6000611beb836001600160a01b0384166142c9565b60006001600160e01b03198216637965db0b60e01b14806109c257506301ffc9a760e01b6001600160e01b03198316146109c2565b600061344e8383614318565b9050673782dace9d90000081111580156134705750670de0b6b3a76400008110155b6134bc5760405162461bcd60e51b815260206004820152601f60248201527f50657263656e746167652073686f756c642062652066726f6d20312d3420250060448201526064016109fe565b600a92909255600b5590565b60055460405163d505accf60e01b81526000916001600160a01b03169063d505accf90613505908a9030908b908b908b908b908b90600401615025565b600060405180830381600087803b15801561351f57600080fd5b505af1158015613533573d6000803e3d6000fd5b5060019a9950505050505050505050565b60006135508383614318565b9050673782dace9d90000081111580156135725750670de0b6b3a76400008110155b6135be5760405162461bcd60e51b815260206004820152601f60248201527f50657263656e746167652073686f756c642062652066726f6d20312d3420250060448201526064016109fe565b60069290925560075590565b600081116136345760405162461bcd60e51b815260206004820152603160248201527f537461727446694d61726b6574706c6163654361703a20636170206d757374206044820152706265206d6f7265207468616e207a65726f60781b60648201526084016109fe565b600c55565b60405163020604bf60e21b8152600481018290526000906001600160a01b0384169063081812fc9060240160206040518083038186803b15801561367c57600080fd5b505afa9250505080156136ac575060408051601f3d908101601f191682019092526136a991810190614b3a565b60015b6136b8575060006109c2565b6001600160a01b0316301490506109c2565b6000604051806101a00160405280866001600160a01b0316815260200184815260200183815260200160008152602001856001600160a01b0316815260200160006001600160a01b03168152602001600015158152602001600015158152602001428152602001600081526020016000815260200160008152602001600160038111156137595761375961559b565b9052600087815260126020908152604091829020835181546001600160a01b039182166001600160a01b03199182161783559285015160018084019190915593850151600283015560608501516003808401919091556080860151600484018054918416919095161790935560a085015160058301805460c088015160e08901511515600160a81b0260ff60a81b19911515600160a01b026001600160a81b0319909316949095169390931717919091169190911790556101008401516006820155610120840151600782015561014084015160088201556101608401516009820155610180840151600a8201805492949193909260ff1916919084908111156138655761386561559b565b0217905550600198975050505050505050565b6000600260175414156138cd5760405162461bcd60e51b815260206004820152601f60248201527f5265656e7472616e637947756172643a207265656e7472616e742063616c6c0060448201526064016109fe565b60026017558115613a68576016546138f0908b906001600160a01b031686614324565b61393c5760405162461bcd60e51b815260206004820152601f60248201527f436f756c646e2774207472616e7366657220746f6b656e20617320666565730060448201526064016109fe565b866001600160a01b0316866001600160a01b03161415613967576139608584615371565b92506139d7565b6001600160a01b038616156139d7576139818a8787614324565b6139d75760405162461bcd60e51b815260206004820152602160248201527f436f756c646e2774207472616e7366657220746f6b656e20746f2069737375656044820152603960f91b60648201526084016109fe565b6139e28a8885614324565b613a385760405162461bcd60e51b815260206004820152602160248201527f436f756c646e2774207472616e7366657220746f6b656e20746f2073656c6c656044820152603960f91b60648201526084016109fe565b613a448989308d614359565b613a605760405162461bcd60e51b81526004016109fe9061533c565b506001613a74565b613a4489898c8a614359565b60016017559998505050505050505050565b600082815260208190526040902060010154613aa281336143c9565b610dd28383614245565b6001600160a01b0381163314613b1c5760405162461bcd60e51b815260206004820152602f60248201527f416363657373436f6e74726f6c3a2063616e206f6e6c792072656e6f756e636560448201526e103937b632b9903337b91039b2b63360891b60648201526084016109fe565b6133f4828261442d565b6000611beb836001600160a01b038416614492565b60025460ff16613b5d5760405162461bcd60e51b81526004016109fe90615099565b6002805460ff191690557f5db9ee0a495bf2e6ff9c91a7834c1ba4fdd244a5e8aa4e537bd38aeae4b073aa335b6040516001600160a01b03909116815260200160405180910390a1565b6000613bb28861457f565b15613c485760405163d505accf60e01b81526001600160a01b0389169063d505accf90613bef908a9030908b908b908b908b908b90600401615025565b602060405180830381600087803b158015613c0957600080fd5b505af1158015613c1d573d6000803e3d6000fd5b505050506040513d601f19601f82011682018060405250810190613c419190614d9f565b9050613c4c565b5060005b979650505050505050565b6001600160a01b03831660009081526010602052604090205415613cd45760405162461bcd60e51b815260206004820152602e60248201527f537461727446694d61726b6574506c6163655370656369616c4f666665723a2060448201526d105b1c9958591e48195e1a5cda5d60921b60648201526084016109fe565b60408051808201825292835260208084019283526001600160a01b0390941660009081526010909452909220905181559051600190910155565b6000611beb8284615371565b6000838152601260205260409020600a01805482919060ff19166001836003811115613d4857613d4861559b565b02179055506001600160a01b03821615610dd257600083815260126020526040902060050180546001600160a01b0384166001600160a01b0319909116179055505050565b6000604051806101a001604052808a6001600160a01b0316815260200188815260200187815260200160008152602001896001600160a01b0316815260200160006001600160a01b03168152602001600115158152602001861515815260200184815260200160115485613e019190615371565b815260208101849052604081018690526060016002905260008b815260126020908152604091829020835181546001600160a01b039182166001600160a01b03199182161783559285015160018084019190915593850151600283015560608501516003808401919091556080860151600484018054918416919095161790935560a085015160058301805460c088015160e08901511515600160a81b0260ff60a81b19911515600160a01b026001600160a81b0319909316949095169390931717919091169190911790556101008401516006820155610120840151600782015561014084015160088201556101608401516009820155610180840151600a8201805492949193909260ff191691908490811115613f2257613f2261559b565b021790555060019c9b505050505050505050505050565b610dba82826133ea565b60025460ff1615613f665760405162461bcd60e51b81526004016109fe906151fa565b6002805460ff191660011790557f62e78cea01bee320cd4e420270b5ea74000d11b0c9f74754ebdbfc544b05a258613b8a3390565b6000611beb8383614609565b80516133f4906003906020840190614a0d565b600554604051636eb1769f60e11b81526001600160a01b038381166004830152306024830152600092169063dd62ed3e9060440160206040518083038186803b15801561400657600080fd5b505afa15801561401a573d6000803e3d6000fd5b505050506040513d601f19601f820116820180604052508101906109c29190614f32565b60008060008061404f87878761468f565b915061405b82886154a7565b90506140668961457f565b156140a4576140768989896146b0565b9094509250821580159061409257506001600160a01b03841615155b156140a4576140a183826154a7565b90505b95509550955095915050565b6000816140e0576001600160a01b0384166000908152600860205260409020546140db9084906154a7565b614104565b6001600160a01b038416600090815260086020526040902054614104908490615371565b6001600160a01b038516600090815260086020526040902081905590509392505050565b600480546040516305dbd19960e31b81526000926001600160a01b0390921691632ede8cc89161415e9187918991889101615001565b602060405180830381600087803b15801561417857600080fd5b505af115801561418c573d6000803e3d6000fd5b505050506040513d601f19601f820116820180604052508101906141b09190614d9f565b949350505050565b60006109c2825490565b6000828152602081905260409020600101546141de81336143c9565b610dd2838361442d565b6000806141fd83671bc16d674ec8000061473f565b915061420982846154a7565b9050915091565b60095460405163929c517960e01b81526000916001600160a01b03169063929c51799061415e90879087908790600401615001565b61424f8282611fa4565b6133f4576000828152602081815260408083206001600160a01b03851684529091529020805460ff191660011790556142853390565b6001600160a01b0316816001600160a01b0316837f2f8788117e7eff1d82e926ec794901d17c78024a50270940304540a733656f0d60405160405180910390a45050565b6000818152600183016020526040812054614310575081546001818101845560008481526020808220909301849055845484825282860190935260409020919091556109c2565b5060006109c2565b6000611beb838361473f565b6005546040516323b872dd60e01b81526000916001600160a01b0316906323b872dd9061415e90879087908790600401615001565b604051632142170760e11b81526000906001600160a01b038616906342842e0e9061438c90869086908990600401615001565b600060405180830381600087803b1580156143a657600080fd5b505af11580156143ba573d6000803e3d6000fd5b50600198975050505050505050565b6143d38282611fa4565b6133f4576143eb816001600160a01b03166014614757565b6143f6836020614757565b604051602001614407929190614f8c565b60408051601f198184030181529082905262461bcd60e51b82526109fe91600401615066565b6144378282611fa4565b156133f4576000828152602081815260408083206001600160a01b0385168085529252808320805460ff1916905551339285917ff6391f5c32d9c69d2a47ea670b442974b53935d1edc7fd64eb21e047a839171b9190a45050565b600081815260018301602052604081205480156145755760006144b66001836154a7565b85549091506000906144ca906001906154a7565b905060008660000182815481106144e3576144e36155c7565b9060005260206000200154905080876000018481548110614506576145066155c7565b600091825260208083209091019290925582815260018901909152604090208490558654879080614539576145396155b1565b600190038181906000526020600020016000905590558660010160008781526020019081526020016000206000905560019450505050506109c2565b60009150506109c2565b6040516301ffc9a760e01b815263152a902d60e11b60048201526000906001600160a01b038316906301ffc9a79060240160206040518083038186803b1580156145c857600080fd5b505afa9250505080156145f8575060408051601f3d908101601f191682019092526145f591810190614d9f565b60015b6109c257506000919050565b919050565b815460009082106146675760405162461bcd60e51b815260206004820152602260248201527f456e756d657261626c655365743a20696e646578206f7574206f6620626f756e604482015261647360f01b60648201526084016109fe565b82600001828154811061467c5761467c6155c7565b9060005260206000200154905092915050565b60006141b06146a96146a2846064615488565b85906148f3565b8590614916565b60405163152a902d60e11b8152600481018390526024810182905260009081906001600160a01b03861690632a55205a90604401604080518083038186803b1580156146fb57600080fd5b505afa15801561470f573d6000803e3d6000fd5b505050506040513d601f19601f820116820180604052508101906147339190614bd7565b90969095509350505050565b6000611beb83836147526012600a6153e0565b61492e565b60606000614766836002615488565b614771906002615371565b67ffffffffffffffff811115614789576147896155dd565b6040519080825280601f01601f1916602001820160405280156147b3576020820181803683370190505b509050600360fc1b816000815181106147ce576147ce6155c7565b60200101906001600160f81b031916908160001a905350600f60fb1b816001815181106147fd576147fd6155c7565b60200101906001600160f81b031916908160001a9053506000614821846002615488565b61482c906001615371565b90505b60018111156148a4576f181899199a1a9b1b9c1cb0b131b232b360811b85600f1660108110614860576148606155c7565b1a60f81b828281518110614876576148766155c7565b60200101906001600160f81b031916908160001a90535060049490941c9361489d816154ee565b905061482f565b508315611beb5760405162461bcd60e51b815260206004820181905260248201527f537472696e67733a20686578206c656e67746820696e73756666696369656e7460448201526064016109fe565b6000816149026012600a6153e0565b61490c9085615488565b611beb9190615389565b6000611beb83836149296012600a6153e0565b614987565b6000808361493d84600a615488565b6149479087615488565b6149519190615389565b90506005614960600a8361555b565b1061497357614970600a82615371565b90505b61497e600a82615389565b95945050505050565b600080614995600a84615389565b6149478587615488565b5080546000825590600052602060002090810190610bdd9190614a81565b8280548282559060005260206000209081019282156149fd5760005260206000209182015b828111156149fd5782548255916001019190600101906149e2565b50614a09929150614a81565b5090565b828054614a1990615505565b90600052602060002090601f016020900481019282614a3b57600085556149fd565b82601f10614a5457805160ff19168380011785556149fd565b828001600101855582156149fd579182015b828111156149fd578251825591602001919060010190614a66565b5b80821115614a095760008155600101614a82565b600067ffffffffffffffff80841115614ab157614ab16155dd565b604051601f8501601f19908116603f01168101908282118183101715614ad957614ad96155dd565b81604052809350858152868686011115614af257600080fd5b858560208301376000602087830101525050509392505050565b803560ff8116811461460457600080fd5b600060208284031215614b2f57600080fd5b8135611beb816155f3565b600060208284031215614b4c57600080fd5b8151611beb816155f3565b60008060008060808587031215614b6d57600080fd5b8435614b78816155f3565b93506020850135614b88816155f3565b925060408501359150606085013567ffffffffffffffff811115614bab57600080fd5b8501601f81018713614bbc57600080fd5b614bcb87823560208401614a96565b91505092959194509250565b60008060408385031215614bea57600080fd5b8251614bf5816155f3565b6020939093015192949293505050565b600080600060608486031215614c1a57600080fd5b8335614c25816155f3565b95602085013595506040909401359392505050565b600080600080600080600060e0888a031215614c5557600080fd5b8735614c60816155f3565b96506020880135955060408801359450606088013593506080880135614c8581615608565b9699959850939692959460a0840135945060c09093013592915050565b60008060008060008060008060008060006101608c8e031215614cc457600080fd5b8b35614ccf816155f3565b9a5060208c0135995060408c0135985060608c0135975060808c0135614cf481615608565b965060a08c0135955060c08c0135945060e08c01359350614d186101008d01614b0c565b92506101208c013591506101408c013590509295989b509295989b9093969950565b600080600080600080600060e0888a031215614d5557600080fd5b8735614d60816155f3565b9650602088013595506040880135945060608801359350614d8360808901614b0c565b925060a0880135915060c0880135905092959891949750929550565b600060208284031215614db157600080fd5b8151611beb81615608565b600060208284031215614dce57600080fd5b5035919050565b60008060408385031215614de857600080fd5b823591506020830135614dfa816155f3565b809150509250929050565b60008060408385031215614e1857600080fd5b50508035926020909101359150565b60008060008060008060c08789031215614e4057600080fd5b863595506020870135945060408701359350614e5e60608801614b0c565b92506080870135915060a087013590509295509295509295565b600080600080600060a08688031215614e9057600080fd5b8535945060208601359350614ea760408701614b0c565b94979396509394606081013594506080013592915050565b600060208284031215614ed157600080fd5b81356001600160e01b031981168114611beb57600080fd5b600060208284031215614efb57600080fd5b813567ffffffffffffffff811115614f1257600080fd5b8201601f81018413614f2357600080fd5b6141b084823560208401614a96565b600060208284031215614f4457600080fd5b5051919050565b6bffffffffffffffffffffffff19606096871b8116825260148201959095529290941b90921660348201526048810191909152606881019190915260880190565b7f416363657373436f6e74726f6c3a206163636f756e7420000000000000000000815260008351614fc48160178501602088016154be565b7001034b99036b4b9b9b4b733903937b6329607d1b6017918401918201528351614ff58160288401602088016154be565b01602801949350505050565b6001600160a01b039384168152919092166020820152604081019190915260600190565b6001600160a01b0397881681529590961660208601526040850193909352606084019190915260ff16608083015260a082015260c081019190915260e00190565b60208152600082518060208401526150858160408501602087016154be565b601f01601f19169190910160400192915050565b60208082526014908201527314185d5cd8589b194e881b9bdd081c185d5cd95960621b604082015260600190565b6020808252601b908201527f5a65726f2061646472657373206973206e6f7420616c6c6f7765640000000000604082015260600190565b60208082526022908201527f537461727446693a20636f756c64206e6f7420657863757465207472616e736660408201526132b960f11b606082015260800190565b60208082526044908201527f4d61726b6574706c616365206973206e6f7420616c6c6f77656420746f20776960408201527f7468647261772074686520726571756972656420616d6f756e74206f6620746f6060820152636b656e7360e01b608082015260a00190565b60208082526030908201527f537461727446694d61726b6574506c61636541646d696e3a2063616c6c65722060408201526f34b9903737ba103a34329037bbb732b960811b606082015260800190565b60208082526010908201526f14185d5cd8589b194e881c185d5cd95960821b604082015260600190565b6020808252603a908201527f4d61726b6574706c6163653a20636f756c646e2774206465647563742074686560408201527f2066696e6520666f72207468652061646d696e2077616c6c6574000000000000606082015260800190565b60208082526031908201527f4d61726b6574706c616365206973206e6f7420616c6c6f77656420746f20747260408201527030b739b332b9103cb7bab9103a37b5b2b760791b606082015260800190565b60208082526044908201527f537461727466694d61726b6574706c6163653a2050726963652065786365656460408201527f656420746865206361702e20596f75206e65656420746f2067657420617070726060820152631bdd995960e21b608082015260a00190565b6020808252818101527f4e465420746f6b656e20636f756c646e2774206265207472616e736665726564604082015260600190565b600082198211156153845761538461556f565b500190565b60008261539857615398615585565b500490565b600181815b808511156153d85781600019048211156153be576153be61556f565b808516156153cb57918102915b93841c93908002906153a2565b509250929050565b6000611beb83836000826153f6575060016109c2565b81615403575060006109c2565b816001811461541957600281146154235761543f565b60019150506109c2565b60ff8411156154345761543461556f565b50506001821b6109c2565b5060208310610133831016604e8410600b8410161715615462575081810a6109c2565b61546c838361539d565b80600019048211156154805761548061556f565b029392505050565b60008160001904831182151516156154a2576154a261556f565b500290565b6000828210156154b9576154b961556f565b500390565b60005b838110156154d95781810151838201526020016154c1565b838111156154e8576000848401525b50505050565b6000816154fd576154fd61556f565b506000190190565b600181811c9082168061551957607f821691505b6020821081141561553a57634e487b7160e01b600052602260045260246000fd5b50919050565b60006000198214156155545761555461556f565b5060010190565b60008261556a5761556a615585565b500690565b634e487b7160e01b600052601160045260246000fd5b634e487b7160e01b600052601260045260246000fd5b634e487b7160e01b600052602160045260246000fd5b634e487b7160e01b600052603160045260246000fd5b634e487b7160e01b600052603260045260246000fd5b634e487b7160e01b600052604160045260246000fd5b6001600160a01b0381168114610bdd57600080fd5b8015158114610bdd57600080fdfeb19546dff01e856fb3f010c267a7b1c60363cf8a4664e21cc89c26224620214ea2646970667358221220df90c5c466e22da97c1257a7ec7909aef964e2f5668e71aceb5f0091695b95b864736f6c63430008070033",
  "devdoc": {
    "author": "Eman Herawy, StartFi Team",
    "kind": "dev",
    "methods": {
      "addOffer(address,uint256,uint256)": {
        "details": "only called by `owner` to change the name and `whenPaused`",
        "params": {
          "_fee": "marketplace reputation contract",
          "feeBase": "marketplace reputation contract",
          "wallet": "marketplace reputation contract"
        }
      },
      "approveDeal(bytes32)": {
        "details": "only called by `owner` to approve listing that exceeded cap after doing the KYC",
        "params": {
          "listingId": "listing Id emit ApproveDeal"
        }
      },
      "bid(bytes32,uint256)": {
        "details": "called by dapps to bid on an auction",
        "params": {
          "bidPrice": "price",
          "listingId": "listing id"
        },
        "returns": {
          "bidId": "bid id emit : BidOnAuction"
        }
      },
      "buyNow(bytes32)": {
        "details": "called by buyer through dapps when s/he wants to buy a gevin NFT  token from the marketplace",
        "params": {
          "listingId": "listing id"
        },
        "returns": {
          "_NFTContract": "nft contract address",
          "tokenId": "token id emit : BuyNow"
        }
      },
      "buyNowWithPermit(bytes32,uint256,uint256,uint8,bytes32,bytes32)": {
        "details": "called by buyer through dapps when s/he wants to buy a gevin NFT  token from the marketplace",
        "params": {
          "deadline": ":  must be timestamp in future .",
          "listingId": "listing id",
          "price": "gevin price",
          "r": ": normal output of an ECDSA signature",
          "s": ": normal output of an ECDSA signature `v`, `r` and `s` must be valid `secp256k1` signature from `owner`  or 'approved for all' account over EIP712-formatted function arguments.",
          "v": "needed to recover the public key"
        }
      },
      "changeFees(uint256,uint256)": {
        "details": "only called by `owner` to change the name and `whenPaused`",
        "params": {
          "newBase": "the new basefees value to be stored",
          "newFees": "the new fees value to be stored"
        },
        "returns": {
          "percentage": "the value of the state variable `_feeFraction`"
        }
      },
      "changeFulfillDuration(uint256)": {
        "details": "only called by `owner` to change the fulfill Duration for auctions and `whenPaused`",
        "params": {
          "duration": "duration for bid winner to fulfill an auction"
        }
      },
      "changeListInsuranceAmount(uint256,uint256)": {
        "details": "only called by `owner` to change the name and `whenPaused`",
        "params": {
          "newBase": "the new basefees value to be stored",
          "newFees": "the new fees value to be stored"
        },
        "returns": {
          "percentage": "the value of the state variable `_feeFraction`"
        }
      },
      "changeMarketPlaceName(string)": {
        "details": "only called by `owner` to change the name and `whenPaused`",
        "params": {
          "_name": "marketplace new name"
        }
      },
      "changeReputationContract(address)": {
        "details": "only called by `owner` to change the name and `whenPaused`",
        "params": {
          "_reputationContract": "marketplace reputation contract"
        }
      },
      "changeUtilityToken(address)": {
        "details": "only called by `owner` to change the name and `whenPaused`",
        "params": {
          "_token": "token address"
        }
      },
      "createAuction(address,uint256,uint256,uint256,bool,uint256,uint256)": {
        "details": "called by dapps to create  new auction",
        "params": {
          "duration": "when auction ends",
          "insurancAmount": "amount of token locked as qualify for any bidder wants bid",
          "isSellForEnabled": "true if auction enable direct selling",
          "minimumBid": "minimum Bid price",
          "nFTContract": "nft contract address",
          "sellFor": "price  to sell with if isSellForEnabled=true",
          "tokenId": "token id"
        },
        "returns": {
          "listId": "listing id**  Users who want to list their NFT as auction for bidding with/without allowing direct sale. - user MUST approve contract to transfer the NFT      - Time to live auction duration must be more than 12 hours. - if `sellForEnabled` is true, `sellFor` value must be more than zero - auction creator MUST specify the insurance amounts for any bidder to bid with considering that it MUST NOT be less that 1 USDT value in STFI. **  emit : CreateAuction"
        }
      },
      "createAuctionWithPermit(address,uint256,uint256,uint256,bool,uint256,uint256,uint256,uint8,bytes32,bytes32)": {
        "details": "called by dapps to create  new auction",
        "params": {
          "deadline": ":  must be timestamp in future .",
          "duration": "when auction ends",
          "insurancAmount": "amount of token locked as qualify for any bidder wants bid",
          "isSellForEnabled": "true if auction enable direct selling",
          "listingPrice": "min price",
          "nFTContract": "nft contract address",
          "r": ": normal output of an ECDSA signature",
          "s": ": normal output of an ECDSA signature `v`, `r` and `s` must be valid `secp256k1` signature from `owner`  or 'approved for all' account over EIP712-formatted function arguments.",
          "sellFor": "price  to sell with if isSellForEnabled=true",
          "tokenId": "token id",
          "v": "needed to recover the public key"
        },
        "returns": {
          "listId": "listing id**  Users who want to list their NFT as auction for bidding with/without allowing direct sale call this function without sending prior transaction to `approve` the marketplace to transfer NFT. This function call`permit` [`eip-2612`] then call [`createAuction`] internally.**"
        }
      },
      "deList(bytes32)": {
        "details": "called by seller through dapps when s/he wants to remove this token from the marketplace",
        "params": {
          "listingId": "listing id"
        },
        "returns": {
          "_NFTContract": "nft contract address",
          "tokenId": "token id emit DeListOffMarketplace"
        }
      },
      "disputeAuction(bytes32)": {
        "details": "called by seller through dapps when his/her auction is  not fulfilled after 3 days",
        "params": {
          "listingId": "listing id"
        },
        "returns": {
          "_NFTContract": "nft contract address",
          "tokenId": "token id emit : DisputeAuction"
        }
      },
      "freeReserves()": {
        "details": "called by user through dapps when his/her wants to free his reserved tokens which are no longer in active auction .",
        "returns": {
          "curentReserves": "user reserves after freeing the unused reservd emit : UserReservesFree"
        }
      },
      "fulfillBid(bytes32)": {
        "details": "called by bidder through dapps when bidder win an auction and wants to pay to get the NFT",
        "params": {
          "listingId": "listing id"
        },
        "returns": {
          "_NFTContract": "nft contract address",
          "tokenId": "token id"
        }
      },
      "fulfillBidWithPermit(bytes32,uint256,uint8,bytes32,bytes32)": {
        "details": "called by bidder through dapps when bidder win an auction and wants to pay to get the NFT",
        "params": {
          "deadline": ":  must be timestamp in future .",
          "listingId": "listing id",
          "r": ": normal output of an ECDSA signature",
          "s": ": normal output of an ECDSA signature `v`, `r` and `s` must be valid `secp256k1` signature from `owner`  or 'approved for all' account over EIP712-formatted function arguments.",
          "v": "needed to recover the public key"
        },
        "returns": {
          "_NFTContract": "nft contract address",
          "tokenId": "token id"
        }
      },
      "getAuctionBidDetails(bytes32,address)": {
        "details": "called by dapp or any contract to get info about a given bidder in a listing",
        "params": {
          "bidder": "bidder address",
          "listingId": "listing id"
        },
        "returns": {
          "bidId": "bid id",
          "bidPrice": "bid price",
          "nFTContract": " nft contract address",
          "tokenId": "nft token id"
        }
      },
      "getListingDetails(bytes32)": {
        "details": "called by dapp or any contract to get info about a gevin listing    ",
        "params": {
          "listingId": "listing id      "
        },
        "returns": {
          "buyer": " nft buyer address",
          "disputeTime": " when auction creator can dispute and take the insurance from the bad actor 'bidWinner' ",
          "endPrice": "purchase price",
          "insurancAmount": " amount of token locked as qualify for any bidder wants bid ",
          "isSellForEnabled": "true if auction enable direct selling",
          "iseBdEnabeled": "true if auction enabled  ",
          "listingPrice": "initial price or minimum price that the seller can accept",
          "releaseTime": " when auction ends",
          "sellFor": "if sell for enabled for auction, this should be more than zero",
          "seller": " nft seller address",
          "status": "in number {Sold,OnMarket, onAuction,Canceled}",
          "tokenAddress": " nft contract address",
          "tokenId": "NFT token Id "
        }
      },
      "getRoleAdmin(bytes32)": {
        "details": "Returns the admin role that controls `role`. See {grantRole} and {revokeRole}. To change a role's admin, use {_setRoleAdmin}."
      },
      "getRoleMember(bytes32,uint256)": {
        "details": "Returns one of the accounts that have `role`. `index` must be a value between 0 and {getRoleMemberCount}, non-inclusive. Role bearers are not sorted in any particular way, and their ordering may change at any point. WARNING: When using {getRoleMember} and {getRoleMemberCount}, make sure you perform all queries on the same block. See the following https://forum.openzeppelin.com/t/iterating-over-elements-on-enumerableset-in-openzeppelin-contracts/2296[forum post] for more information."
      },
      "getRoleMemberCount(bytes32)": {
        "details": "Returns the number of accounts that have `role`. Can be used together with {getRoleMember} to enumerate all bearers of a role."
      },
      "getServiceFee()": {
        "returns": {
          "_0": "the value of the state variable `_feeFraction`"
        }
      },
      "getStakeAllowance(address)": {
        "details": "this function calls StartFiStakes contract to get the total staked tokens for 'user' an substract the current reserves to get the total number of free tokens",
        "params": {
          "staker": ": participant address"
        },
        "returns": {
          "_0": "allowed number of tokens that this contract can transfer from the owner account"
        }
      },
      "getUserReserved(address)": {
        "details": "called by the dapp to get the user stakes on hold",
        "params": {
          "user": ": participant address"
        },
        "returns": {
          "_0": "the value of user reserves"
        }
      },
      "grantRole(bytes32,address)": {
        "details": "Overload {grantRole} to track enumerable memberships"
      },
      "hasRole(bytes32,address)": {
        "details": "Returns `true` if `account` has been granted `role`."
      },
      "listOnMarketplace(address,uint256,uint256)": {
        "details": "called by dapps to list new item",
        "params": {
          "listingPrice": "min price",
          "nFTContract": "nft contract address",
          "tokenId": "token id"
        },
        "returns": {
          "listId": "listing id** Users who want to list their NFT for sale with fixed price call this function  - user MUST approve contract to transfer the NFT      - user MUST have enough stakes used as insurance to not delist the item before the duration stated in the smart contract , if they decided to delist before that time, they lose this insurance. the required insurance amount is a percentage  based on the listing price.**  emit : ListOnMarketplace"
        }
      },
      "listOnMarketplaceWithPermit(address,uint256,uint256,uint256,uint8,bytes32,bytes32)": {
        "details": "called by dapps to list new item",
        "params": {
          "deadline": ":  must be timestamp in future .",
          "listingPrice": "min price",
          "nFTContract": "nft contract address",
          "r": ": normal output of an ECDSA signature",
          "s": ": normal output of an ECDSA signature `v`, `r` and `s` must be valid `secp256k1` signature from `owner`  or 'approved for all' account over EIP712-formatted function arguments.",
          "tokenId": "token id",
          "v": "needed to recover the public key"
        },
        "returns": {
          "listId": "listing id** Users who want to list their NFT for sale with fixed price call this function without sending prior transaction to `approve` the marketplace to transfer NFT. This function call`permit` [`eip-2612`] then call [`listOnMarketplace`] internally**"
        }
      },
      "marketPlaceName()": {
        "returns": {
          "_0": "market place name"
        }
      },
      "migrateEmergency(bytes32)": {
        "details": "called by seller through dapps when s/he wants to remove this token from the marketplace",
        "params": {
          "listingId": "listing id"
        },
        "returns": {
          "_NFTContract": "nft contract address",
          "tokenId": "token id emit : MigrateEmergency"
        }
      },
      "onERC721Received(address,address,uint256,bytes)": {
        "details": "See {IERC721Receiver-onERC721Received}. Always returns `IERC721Receiver.onERC721Received.selector`."
      },
      "pause()": {
        "details": "Pauses contract. Requirements: - the caller must be the owner."
      },
      "paused()": {
        "details": "Returns true if the contract is paused, and false otherwise."
      },
      "renounceRole(bytes32,address)": {
        "details": "Overload {renounceRole} to track enumerable memberships"
      },
      "revokeRole(bytes32,address)": {
        "details": "Overload {revokeRole} to track enumerable memberships"
      },
      "setPrice(uint256)": {
        "details": "only called by  `priceFeeds` to update the STFI/usdt price",
        "params": {
          "_stfiPrice": "the new stfi price per usdt"
        }
      },
      "setUsdCap(uint256)": {
        "details": "only called by `owner` to update the cap",
        "params": {
          "_usdCap": "the new fees value to be stored"
        }
      },
      "supportsInterface(bytes4)": {
        "details": "See {IERC165-supportsInterface}."
      },
      "unpause()": {
        "details": "Unpauses contract. Requirements: - the caller must be the owner."
      },
      "updateAdminWallet(address)": {
        "details": "update the admin wallet address. Requirements: - the caller must be the admin. - the `newWallet` must not be empty."
      },
      "winnerBid(bytes32)": {
        "details": "called by dapp or any contract to get info about a winner bid",
        "params": {
          "listingId": "listing id"
        },
        "returns": {
          "bidId": "bid id",
          "bidPrice": "bid price",
          "bidder": "bidder address",
          "isPurchased": "true if purchased",
          "nFTContract": " nft contract address",
          "tokenId": "nft token id"
        }
      }
    },
    "title": "StartFi MarketPlace desc  marketplace with all functions for item selling by either ceating auction or selling with fixed prices, the contract auto transfer orginal NFT issuer's shares",
    "version": 1
  },
  "userdoc": {
    "kind": "user",
    "methods": {
      "approveDeal(bytes32)": {
        "notice": "STartfi is regulated entity in Estonia and regulation compliance is forced in our smart contract, KYC is need first and any purchase transaction with price exceed the cap can't be proceed unless this deal is approved by Startfi by calling this function - called only by account in owner role"
      },
      "bid(bytes32,uint256)": {
        "notice": "** Users who interested in a certain auction, can bid on it by calling this   function.Bidder don't pay / transfer SFTI on bidding. Only when win the auction [`the auction is ended and this bidder is the last one to bid`], bidder pays by calling [`fulfillBid`] OR [`buyNowWithPermit`] - user MUST have enough stakes used as insurance; grantee and punishment mechanism for malicious bidder. If the bidder don't pay in the   - Bidders can bid as much as they wants , insurance is taken once in the first participation  - the bid price MUST be more than the last bid , if this is the first bid, the bid price MUST be more than or equal the minimum bid the auction creator state - Users CAN NOT bid on auction after auction time is over**"
      },
      "buyNow(bytes32)": {
        "notice": "**  Users who want to buy an NFT from the marketplace whether it's fixed price or auction with `sellForEnabled = true` can call this function. - User MUST approve contract to transfer the STFI token , MUST NOT be less than the price. - If the bid price exceed the cap, STartfi is regulated entity in Estonia and regulation compliance is forced in our smart contract, KYC is need first and the transaction can't be proceed unless this deal is approved by Startfi by calling [`approveDeal`]**if auction, the seller must enabe forSale. prices should be more than or equal the listing price"
      },
      "buyNowWithPermit(bytes32,uint256,uint256,uint8,bytes32,bytes32)": {
        "notice": "**  Users who want to buy an NFT from the marketplace whether it's fixed price or auction with `sellForEnabled = true` can this call this function without sending prior transaction to `approve` the marketplace to transfer STFI tokens. This function call`permit` [`eip-2612`] then call [`buyNow`] internally.**if auction, the seller must enabe forSale. prices should be more than or equal the listing price"
      },
      "deList(bytes32)": {
        "notice": "** Users who no longer want to keep their NFT in our marketplace can easly call this function to get their NFT back. Unsuccessful auction creators need to call it as well to get their nft back with no cost as well as the item added via [`listOnMarketplace`] or [`listOnMarketplaceWithPermit`]   - Only buyers can delist their own items  - Auction items can't delisted until the auction ended**auction can't be canceled , if seller delist time on sale on maretplace before time to delist, he will pay a fine"
      },
      "disputeAuction(bytes32)": {
        "notice": "**  If the winning bidder didn't pay within the time range stated in te contract `fulfillDuration`, Auction creator calls this function to get the nft back and punish the malicious bidder by taking the insurance (50% goes to the auction staking balance, 50% goes to the platform) - Current time  MUST be more than or equal the `disputeTime` for this auction      - Only auction Creator can dispute. - If the bid price exceed the cap, STartfi is regulated entity in Estonia and regulation compliance is forced in our smart contract, and the auction is approved , auction creator can dispute, if it's not approved yet, auction creator can not. - [`buyNow`]: Users who want to buy an NFT from the marketplace whether it's fixed price or auction with `sellForEnabled = true` can call this function. - User MUST approve contract to transfer the STFI token , MUST NOT be less than the price. - If the bid price exceed the cap, STartfi is regulated entity in Estonia and regulation compliance is forced in our smart contract, KYC is need first and the transaction can't be proceed unless this deal is approved by Startfi by calling [`approveDeal`]**after auction with winner bid . bidder didn't call fullfile within 3 days of auction closing  auction owner can call dispute to delist and punish the spam winner bidder fine is share between the plateform and the auction owner"
      },
      "freeReserves()": {
        "notice": "** users need to stake STFI to list or bid in the marketplace , these tokens needs to set free if the auction is no longer active and user can use these stakes to bid , list or even to withdraw tokens thus, function to free tokens reserved to items of market   in order to keep track of the on hold stakes.   we store user on-hold stakes in a map `userReserves`  to get user on-hold reserves call  getUserReserved on marketplace to get the number of stakes that not on hold, call  userReserves on marketplace , this function subtract the user stakes in staking contract from the on-hold stakes on marketplace This function is greedy, called by user only when s/he wants rather than force the check & updates with every transaction which might be very costly . - Only users can free their own reserves ** this function is greedy, called by user only when s/he wants rather than force the check & updates with every transaction which might be very costly ."
      },
      "fulfillBid(bytes32)": {
        "notice": "**  After the end of the Auction, the winner bidder , the last bidder call this function within a certain duration to pay and get the NFT - user MUST approve contract to transfer the STFI tokens , MUST NOT be less than the bid price      - Winner bidder can call it within the `fulfillDuration` right after the end of the auction. - Winner bider can call it even after the its end as long as the auction reactor has not called dispute. the winner bidder can have chat with the seller  and if the auction creator thinks the winner bidder is not a malicious bidder,  they might agree to wait so we don't want to prevent the scenario where the can see eye to eye. At the end the auction creator wants to buy the NFT and get the price - If the bid price exceed the cap, STartfi is regulated entity in Estonia and regulation compliance is forced in our smart contract, KYC is need first and the transaction can't be proceed unless this deal is approved by Startfi by calling [`approveDeal`] ** emit : FulfillBid"
      },
      "fulfillBidWithPermit(bytes32,uint256,uint8,bytes32,bytes32)": {
        "notice": "**After the end of the Auction, the winner bidder , the last bidder call this function within a certain duration to pay and get the NFT, they call this function without sending prior transaction to `approve` the marketplace to transfer STFI. This function call`permit` [`eip-2612`] then call [`fulfillBid`] internally.** "
      },
      "migrateEmergency(bytes32)": {
        "notice": "** Only when contract is paused, users can safely delist their token with no cost. Startfi team might have to pause the contract to make any update on the protocol terms or in emergency if high risk vulnerability is discovered to protect the users.     - Only buyers can delist their own items **called only when puased , let user to migrate for free if they don't agree on our new terms"
      }
    },
    "version": 1
  },
  "storageLayout": {
    "storage": [
      {
        "astId": 62,
        "contract": "contracts/StartFiMarketPlace.sol:StartFiMarketPlace",
        "label": "_roles",
        "offset": 0,
        "slot": "0",
        "type": "t_mapping(t_bytes32,t_struct(RoleData)57_storage)"
      },
      {
        "astId": 403,
        "contract": "contracts/StartFiMarketPlace.sol:StartFiMarketPlace",
        "label": "_roleMembers",
        "offset": 0,
        "slot": "1",
        "type": "t_mapping(t_bytes32,t_struct(AddressSet)3846_storage)"
      },
      {
        "astId": 685,
        "contract": "contracts/StartFiMarketPlace.sol:StartFiMarketPlace",
        "label": "_paused",
        "offset": 0,
        "slot": "2",
        "type": "t_bool"
      },
      {
        "astId": 4740,
        "contract": "contracts/StartFiMarketPlace.sol:StartFiMarketPlace",
        "label": "_marketPlaceName",
        "offset": 0,
        "slot": "3",
        "type": "t_string_storage"
      },
      {
        "astId": 8093,
        "contract": "contracts/StartFiMarketPlace.sol:StartFiMarketPlace",
        "label": "reputationContract",
        "offset": 0,
        "slot": "4",
        "type": "t_address"
      },
      {
        "astId": 8095,
        "contract": "contracts/StartFiMarketPlace.sol:StartFiMarketPlace",
        "label": "_paymentToken",
        "offset": 0,
        "slot": "5",
        "type": "t_address"
      },
      {
        "astId": 8098,
        "contract": "contracts/StartFiMarketPlace.sol:StartFiMarketPlace",
        "label": "_feeFraction",
        "offset": 0,
        "slot": "6",
        "type": "t_uint256"
      },
      {
        "astId": 8101,
        "contract": "contracts/StartFiMarketPlace.sol:StartFiMarketPlace",
        "label": "_feeBase",
        "offset": 0,
        "slot": "7",
        "type": "t_uint256"
      },
      {
        "astId": 8105,
        "contract": "contracts/StartFiMarketPlace.sol:StartFiMarketPlace",
        "label": "userReserves",
        "offset": 0,
        "slot": "8",
        "type": "t_mapping(t_address,t_uint256)"
      },
      {
        "astId": 8107,
        "contract": "contracts/StartFiMarketPlace.sol:StartFiMarketPlace",
        "label": "stakeContract",
        "offset": 0,
        "slot": "9",
        "type": "t_address"
      },
      {
        "astId": 8110,
        "contract": "contracts/StartFiMarketPlace.sol:StartFiMarketPlace",
        "label": "listqualifyPercentage",
        "offset": 0,
        "slot": "10",
        "type": "t_uint256"
      },
      {
        "astId": 8113,
        "contract": "contracts/StartFiMarketPlace.sol:StartFiMarketPlace",
        "label": "listqualifyPercentageBase",
        "offset": 0,
        "slot": "11",
        "type": "t_uint256"
      },
      {
        "astId": 7857,
        "contract": "contracts/StartFiMarketPlace.sol:StartFiMarketPlace",
        "label": "usdCap",
        "offset": 0,
        "slot": "12",
        "type": "t_uint256"
      },
      {
        "astId": 7859,
        "contract": "contracts/StartFiMarketPlace.sol:StartFiMarketPlace",
        "label": "stfiCap",
        "offset": 0,
        "slot": "13",
        "type": "t_uint256"
      },
      {
        "astId": 7861,
        "contract": "contracts/StartFiMarketPlace.sol:StartFiMarketPlace",
        "label": "stfiUsdt",
        "offset": 0,
        "slot": "14",
        "type": "t_uint256"
      },
      {
        "astId": 7865,
        "contract": "contracts/StartFiMarketPlace.sol:StartFiMarketPlace",
        "label": "kycedDeals",
        "offset": 0,
        "slot": "15",
        "type": "t_mapping(t_bytes32,t_bool)"
      },
      {
        "astId": 8368,
        "contract": "contracts/StartFiMarketPlace.sol:StartFiMarketPlace",
        "label": "offerTerms",
        "offset": 0,
        "slot": "16",
        "type": "t_mapping(t_address,t_struct(conditions)8373_storage)"
      },
      {
        "astId": 5078,
        "contract": "contracts/StartFiMarketPlace.sol:StartFiMarketPlace",
        "label": "fulfillDuration",
        "offset": 0,
        "slot": "17",
        "type": "t_uint256"
      },
      {
        "astId": 5120,
        "contract": "contracts/StartFiMarketPlace.sol:StartFiMarketPlace",
        "label": "_tokenListings",
        "offset": 0,
        "slot": "18",
        "type": "t_mapping(t_bytes32,t_struct(Listing)5110_storage)"
      },
      {
        "astId": 4888,
        "contract": "contracts/StartFiMarketPlace.sol:StartFiMarketPlace",
        "label": "listingBids",
        "offset": 0,
        "slot": "19",
        "type": "t_mapping(t_bytes32,t_mapping(t_address,t_struct(Bid)4876_storage))"
      },
      {
        "astId": 4893,
        "contract": "contracts/StartFiMarketPlace.sol:StartFiMarketPlace",
        "label": "bidToListing",
        "offset": 0,
        "slot": "20",
        "type": "t_mapping(t_bytes32,t_struct(WinningBid)4881_storage)"
      },
      {
        "astId": 7929,
        "contract": "contracts/StartFiMarketPlace.sol:StartFiMarketPlace",
        "label": "userBids",
        "offset": 0,
        "slot": "21",
        "type": "t_mapping(t_address,t_array(t_bytes32)dyn_storage)"
      },
      {
        "astId": 7526,
        "contract": "contracts/StartFiMarketPlace.sol:StartFiMarketPlace",
        "label": "_adminWallet",
        "offset": 0,
        "slot": "22",
        "type": "t_address"
      },
      {
        "astId": 770,
        "contract": "contracts/StartFiMarketPlace.sol:StartFiMarketPlace",
        "label": "_status",
        "offset": 0,
        "slot": "23",
        "type": "t_uint256"
      },
      {
        "astId": 5391,
        "contract": "contracts/StartFiMarketPlace.sol:StartFiMarketPlace",
        "label": "listingCounter",
        "offset": 0,
        "slot": "24",
        "type": "t_uint256"
      }
    ],
    "types": {
      "t_address": {
        "encoding": "inplace",
        "label": "address",
        "numberOfBytes": "20"
      },
      "t_array(t_bytes32)dyn_storage": {
        "base": "t_bytes32",
        "encoding": "dynamic_array",
        "label": "bytes32[]",
        "numberOfBytes": "32"
      },
      "t_bool": {
        "encoding": "inplace",
        "label": "bool",
        "numberOfBytes": "1"
      },
      "t_bytes32": {
        "encoding": "inplace",
        "label": "bytes32",
        "numberOfBytes": "32"
      },
      "t_enum(ListingStatus)5115": {
        "encoding": "inplace",
        "label": "enum MarketPlaceListing.ListingStatus",
        "numberOfBytes": "1"
      },
      "t_mapping(t_address,t_array(t_bytes32)dyn_storage)": {
        "encoding": "mapping",
        "key": "t_address",
        "label": "mapping(address => bytes32[])",
        "numberOfBytes": "32",
        "value": "t_array(t_bytes32)dyn_storage"
      },
      "t_mapping(t_address,t_bool)": {
        "encoding": "mapping",
        "key": "t_address",
        "label": "mapping(address => bool)",
        "numberOfBytes": "32",
        "value": "t_bool"
      },
      "t_mapping(t_address,t_struct(Bid)4876_storage)": {
        "encoding": "mapping",
        "key": "t_address",
        "label": "mapping(address => struct MarketPlaceBid.Bid)",
        "numberOfBytes": "32",
        "value": "t_struct(Bid)4876_storage"
      },
      "t_mapping(t_address,t_struct(conditions)8373_storage)": {
        "encoding": "mapping",
        "key": "t_address",
        "label": "mapping(address => struct StartFiMarketPlaceSpecialOffer.conditions)",
        "numberOfBytes": "32",
        "value": "t_struct(conditions)8373_storage"
      },
      "t_mapping(t_address,t_uint256)": {
        "encoding": "mapping",
        "key": "t_address",
        "label": "mapping(address => uint256)",
        "numberOfBytes": "32",
        "value": "t_uint256"
      },
      "t_mapping(t_bytes32,t_bool)": {
        "encoding": "mapping",
        "key": "t_bytes32",
        "label": "mapping(bytes32 => bool)",
        "numberOfBytes": "32",
        "value": "t_bool"
      },
      "t_mapping(t_bytes32,t_mapping(t_address,t_struct(Bid)4876_storage))": {
        "encoding": "mapping",
        "key": "t_bytes32",
        "label": "mapping(bytes32 => mapping(address => struct MarketPlaceBid.Bid))",
        "numberOfBytes": "32",
        "value": "t_mapping(t_address,t_struct(Bid)4876_storage)"
      },
      "t_mapping(t_bytes32,t_struct(AddressSet)3846_storage)": {
        "encoding": "mapping",
        "key": "t_bytes32",
        "label": "mapping(bytes32 => struct EnumerableSet.AddressSet)",
        "numberOfBytes": "32",
        "value": "t_struct(AddressSet)3846_storage"
      },
      "t_mapping(t_bytes32,t_struct(Listing)5110_storage)": {
        "encoding": "mapping",
        "key": "t_bytes32",
        "label": "mapping(bytes32 => struct MarketPlaceListing.Listing)",
        "numberOfBytes": "32",
        "value": "t_struct(Listing)5110_storage"
      },
      "t_mapping(t_bytes32,t_struct(RoleData)57_storage)": {
        "encoding": "mapping",
        "key": "t_bytes32",
        "label": "mapping(bytes32 => struct AccessControl.RoleData)",
        "numberOfBytes": "32",
        "value": "t_struct(RoleData)57_storage"
      },
      "t_mapping(t_bytes32,t_struct(WinningBid)4881_storage)": {
        "encoding": "mapping",
        "key": "t_bytes32",
        "label": "mapping(bytes32 => struct MarketPlaceBid.WinningBid)",
        "numberOfBytes": "32",
        "value": "t_struct(WinningBid)4881_storage"
      },
      "t_mapping(t_bytes32,t_uint256)": {
        "encoding": "mapping",
        "key": "t_bytes32",
        "label": "mapping(bytes32 => uint256)",
        "numberOfBytes": "32",
        "value": "t_uint256"
      },
      "t_string_storage": {
        "encoding": "bytes",
        "label": "string",
        "numberOfBytes": "32"
      },
      "t_struct(AddressSet)3846_storage": {
        "encoding": "inplace",
        "label": "struct EnumerableSet.AddressSet",
        "members": [
          {
            "astId": 3845,
            "contract": "contracts/StartFiMarketPlace.sol:StartFiMarketPlace",
            "label": "_inner",
            "offset": 0,
            "slot": "0",
            "type": "t_struct(Set)3571_storage"
          }
        ],
        "numberOfBytes": "64"
      },
      "t_struct(Bid)4876_storage": {
        "encoding": "inplace",
        "label": "struct MarketPlaceBid.Bid",
        "members": [
          {
            "astId": 4867,
            "contract": "contracts/StartFiMarketPlace.sol:StartFiMarketPlace",
            "label": "bidId",
            "offset": 0,
            "slot": "0",
            "type": "t_bytes32"
          },
          {
            "astId": 4869,
            "contract": "contracts/StartFiMarketPlace.sol:StartFiMarketPlace",
            "label": "nFTContract",
            "offset": 0,
            "slot": "1",
            "type": "t_address"
          },
          {
            "astId": 4871,
            "contract": "contracts/StartFiMarketPlace.sol:StartFiMarketPlace",
            "label": "tokenId",
            "offset": 0,
            "slot": "2",
            "type": "t_uint256"
          },
          {
            "astId": 4873,
            "contract": "contracts/StartFiMarketPlace.sol:StartFiMarketPlace",
            "label": "bidPrice",
            "offset": 0,
            "slot": "3",
            "type": "t_uint256"
          },
          {
            "astId": 4875,
            "contract": "contracts/StartFiMarketPlace.sol:StartFiMarketPlace",
            "label": "isPurchased",
            "offset": 0,
            "slot": "4",
            "type": "t_bool"
          }
        ],
        "numberOfBytes": "160"
      },
      "t_struct(Listing)5110_storage": {
        "encoding": "inplace",
        "label": "struct MarketPlaceListing.Listing",
        "members": [
          {
            "astId": 5084,
            "contract": "contracts/StartFiMarketPlace.sol:StartFiMarketPlace",
            "label": "nFTContract",
            "offset": 0,
            "slot": "0",
            "type": "t_address"
          },
          {
            "astId": 5086,
            "contract": "contracts/StartFiMarketPlace.sol:StartFiMarketPlace",
            "label": "tokenId",
            "offset": 0,
            "slot": "1",
            "type": "t_uint256"
          },
          {
            "astId": 5088,
            "contract": "contracts/StartFiMarketPlace.sol:StartFiMarketPlace",
            "label": "listingPrice",
            "offset": 0,
            "slot": "2",
            "type": "t_uint256"
          },
          {
            "astId": 5090,
            "contract": "contracts/StartFiMarketPlace.sol:StartFiMarketPlace",
            "label": "endPrice",
            "offset": 0,
            "slot": "3",
            "type": "t_uint256"
          },
          {
            "astId": 5092,
            "contract": "contracts/StartFiMarketPlace.sol:StartFiMarketPlace",
            "label": "seller",
            "offset": 0,
            "slot": "4",
            "type": "t_address"
          },
          {
            "astId": 5094,
            "contract": "contracts/StartFiMarketPlace.sol:StartFiMarketPlace",
            "label": "buyer",
            "offset": 0,
            "slot": "5",
            "type": "t_address"
          },
          {
            "astId": 5096,
            "contract": "contracts/StartFiMarketPlace.sol:StartFiMarketPlace",
            "label": "iseBdEnabeled",
            "offset": 20,
            "slot": "5",
            "type": "t_bool"
          },
          {
            "astId": 5098,
            "contract": "contracts/StartFiMarketPlace.sol:StartFiMarketPlace",
            "label": "isSellForEnabled",
            "offset": 21,
            "slot": "5",
            "type": "t_bool"
          },
          {
            "astId": 5100,
            "contract": "contracts/StartFiMarketPlace.sol:StartFiMarketPlace",
            "label": "releaseTime",
            "offset": 0,
            "slot": "6",
            "type": "t_uint256"
          },
          {
            "astId": 5102,
            "contract": "contracts/StartFiMarketPlace.sol:StartFiMarketPlace",
            "label": "disputeTime",
            "offset": 0,
            "slot": "7",
            "type": "t_uint256"
          },
          {
            "astId": 5104,
            "contract": "contracts/StartFiMarketPlace.sol:StartFiMarketPlace",
            "label": "insurancAmount",
            "offset": 0,
            "slot": "8",
            "type": "t_uint256"
          },
          {
            "astId": 5106,
            "contract": "contracts/StartFiMarketPlace.sol:StartFiMarketPlace",
            "label": "sellFor",
            "offset": 0,
            "slot": "9",
            "type": "t_uint256"
          },
          {
            "astId": 5109,
            "contract": "contracts/StartFiMarketPlace.sol:StartFiMarketPlace",
            "label": "status",
            "offset": 0,
            "slot": "10",
            "type": "t_enum(ListingStatus)5115"
          }
        ],
        "numberOfBytes": "352"
      },
      "t_struct(RoleData)57_storage": {
        "encoding": "inplace",
        "label": "struct AccessControl.RoleData",
        "members": [
          {
            "astId": 54,
            "contract": "contracts/StartFiMarketPlace.sol:StartFiMarketPlace",
            "label": "members",
            "offset": 0,
            "slot": "0",
            "type": "t_mapping(t_address,t_bool)"
          },
          {
            "astId": 56,
            "contract": "contracts/StartFiMarketPlace.sol:StartFiMarketPlace",
            "label": "adminRole",
            "offset": 0,
            "slot": "1",
            "type": "t_bytes32"
          }
        ],
        "numberOfBytes": "64"
      },
      "t_struct(Set)3571_storage": {
        "encoding": "inplace",
        "label": "struct EnumerableSet.Set",
        "members": [
          {
            "astId": 3566,
            "contract": "contracts/StartFiMarketPlace.sol:StartFiMarketPlace",
            "label": "_values",
            "offset": 0,
            "slot": "0",
            "type": "t_array(t_bytes32)dyn_storage"
          },
          {
            "astId": 3570,
            "contract": "contracts/StartFiMarketPlace.sol:StartFiMarketPlace",
            "label": "_indexes",
            "offset": 0,
            "slot": "1",
            "type": "t_mapping(t_bytes32,t_uint256)"
          }
        ],
        "numberOfBytes": "64"
      },
      "t_struct(WinningBid)4881_storage": {
        "encoding": "inplace",
        "label": "struct MarketPlaceBid.WinningBid",
        "members": [
          {
            "astId": 4878,
            "contract": "contracts/StartFiMarketPlace.sol:StartFiMarketPlace",
            "label": "bidId",
            "offset": 0,
            "slot": "0",
            "type": "t_bytes32"
          },
          {
            "astId": 4880,
            "contract": "contracts/StartFiMarketPlace.sol:StartFiMarketPlace",
            "label": "bidder",
            "offset": 0,
            "slot": "1",
            "type": "t_address"
          }
        ],
        "numberOfBytes": "64"
      },
      "t_struct(conditions)8373_storage": {
        "encoding": "inplace",
        "label": "struct StartFiMarketPlaceSpecialOffer.conditions",
        "members": [
          {
            "astId": 8370,
            "contract": "contracts/StartFiMarketPlace.sol:StartFiMarketPlace",
            "label": "fee",
            "offset": 0,
            "slot": "0",
            "type": "t_uint256"
          },
          {
            "astId": 8372,
            "contract": "contracts/StartFiMarketPlace.sol:StartFiMarketPlace",
            "label": "feeBase",
            "offset": 0,
            "slot": "1",
            "type": "t_uint256"
          }
        ],
        "numberOfBytes": "64"
      },
      "t_uint256": {
        "encoding": "inplace",
        "label": "uint256",
        "numberOfBytes": "32"
      }
    }
  }
}