{
  "address": "0xA2bf2CE5FDf7c37C5928846193f350EdF1faE517",
  "abi": [
    {
      "inputs": [
        {
          "internalType": "address",
          "name": "_stfiToken",
          "type": "address"
        }
      ],
      "stateMutability": "nonpayable",
      "type": "constructor"
    },
    {
      "anonymous": false,
      "inputs": [
        {
          "indexed": true,
          "internalType": "address",
          "name": "previousOwner",
          "type": "address"
        },
        {
          "indexed": true,
          "internalType": "address",
          "name": "newOwner",
          "type": "address"
        }
      ],
      "name": "OwnershipTransferred",
      "type": "event"
    },
    {
      "inputs": [
        {
          "internalType": "address",
          "name": "finePayer",
          "type": "address"
        },
        {
          "internalType": "address",
          "name": "to",
          "type": "address"
        },
        {
          "internalType": "uint256",
          "name": "amount",
          "type": "uint256"
        }
      ],
      "name": "deduct",
      "outputs": [
        {
          "internalType": "bool",
          "name": "",
          "type": "bool"
        }
      ],
      "stateMutability": "nonpayable",
      "type": "function"
    },
    {
      "inputs": [
        {
          "internalType": "address",
          "name": "user",
          "type": "address"
        },
        {
          "internalType": "uint256",
          "name": "amount",
          "type": "uint256"
        }
      ],
      "name": "deposit",
      "outputs": [],
      "stateMutability": "nonpayable",
      "type": "function"
    },
    {
      "inputs": [
        {
          "internalType": "address",
          "name": "owner",
          "type": "address"
        }
      ],
      "name": "getReserves",
      "outputs": [
        {
          "internalType": "uint256",
          "name": "",
          "type": "uint256"
        }
      ],
      "stateMutability": "view",
      "type": "function"
    },
    {
      "inputs": [],
      "name": "owner",
      "outputs": [
        {
          "internalType": "address",
          "name": "",
          "type": "address"
        }
      ],
      "stateMutability": "view",
      "type": "function"
    },
    {
      "inputs": [],
      "name": "renounceOwnership",
      "outputs": [],
      "stateMutability": "nonpayable",
      "type": "function"
    },
    {
      "inputs": [
        {
          "internalType": "address",
          "name": "_marketplace",
          "type": "address"
        }
      ],
      "name": "setMarketplace",
      "outputs": [],
      "stateMutability": "nonpayable",
      "type": "function"
    },
    {
      "inputs": [
        {
          "internalType": "address",
          "name": "newOwner",
          "type": "address"
        }
      ],
      "name": "transferOwnership",
      "outputs": [],
      "stateMutability": "nonpayable",
      "type": "function"
    },
    {
      "inputs": [
        {
          "internalType": "uint256",
          "name": "amount",
          "type": "uint256"
        }
      ],
      "name": "withdraw",
      "outputs": [],
      "stateMutability": "nonpayable",
      "type": "function"
    }
  ],
  "transactionHash": "0xa8141b969ab820c6159a2c4ea3426bb32a29f5ca8bf1f5b4c82c5c65a238ae54",
  "args": [
    "0x5A34229cc5251F05FB1CFA796Da9fc2221d3A19F"
  ],
  "solcInputHash": "d1593a8ecc6f184fdd33f9856336ee42",
  "bytecode": "0x608060405234801561001057600080fd5b5060405161099038038061099083398101604081905261002f91610095565b600080546001600160a01b031916339081178255604051909182917f8be0079c531659141344cd1fd0a4f28419497f9722a3daafe3b4186f6b6457e0908290a350600380546001600160a01b0319166001600160a01b03929092169190911790556100c5565b6000602082840312156100a757600080fd5b81516001600160a01b03811681146100be57600080fd5b9392505050565b6108bc806100d46000396000f3fe608060405234801561001057600080fd5b50600436106100885760003560e01c806373ad6c2d1161005b57806373ad6c2d146100f95780638da5cb5b1461010c578063929c517914610127578063f2fde38b1461014a57600080fd5b80632e1a7d4d1461008d5780633e99c1e4146100a257806347e7ef24146100de578063715018a6146100f1575b600080fd5b6100a061009b3660046107b2565b61015d565b005b6100cb6100b036600461070f565b6001600160a01b031660009081526001602052604090205490565b6040519081526020015b60405180910390f35b6100a06100ec366004610766565b61026e565b6100a06102e6565b6100a061010736600461070f565b61035a565b6000546040516001600160a01b0390911681526020016100d5565b61013a61013536600461072a565b6103a6565b60405190151581526020016100d5565b6100a061015836600461070f565b61045a565b6002546000906001600160a01b0316631f78fd0b336040516001600160e01b031960e084901b1681526001600160a01b03909116600482015260240160206040518083038186803b1580156101b157600080fd5b505afa1580156101c5573d6000803e3d6000fd5b505050506040513d601f19601f820116820180604052508101906101e991906107cb565b3360009081526001602052604081205491925090610208908390610859565b9050828110156102335760405162461bcd60e51b815260040161022a906107e4565b60405180910390fd5b61023d3384610544565b5033600090815260016020526040902054610259908490610859565b33600090815260016020526040902055505050565b80610278336105d2565b10156102965760405162461bcd60e51b815260040161022a906107e4565b6102a133308361065c565b506001600160a01b0382166000908152600160205260409020546102c6908290610841565b6001600160a01b0390921660009081526001602052604090209190915550565b6000546001600160a01b031633146103105760405162461bcd60e51b815260040161022a9061080c565b600080546040516001600160a01b03909116907f8be0079c531659141344cd1fd0a4f28419497f9722a3daafe3b4186f6b6457e0908390a3600080546001600160a01b0319169055565b6000546001600160a01b031633146103845760405162461bcd60e51b815260040161022a9061080c565b600280546001600160a01b0319166001600160a01b0392909216919091179055565b6001600160a01b0383166000908152600160205260408120548211156103de5760405162461bcd60e51b815260040161022a906107e4565b6001600160a01b038416600090815260016020526040902054610402908390610859565b6001600160a01b038086166000908152600160205260408082209390935590851681522054610432908390610841565b6001600160a01b03841660009081526001602081905260409091209190915590509392505050565b6000546001600160a01b031633146104845760405162461bcd60e51b815260040161022a9061080c565b6001600160a01b0381166104e95760405162461bcd60e51b815260206004820152602660248201527f4f776e61626c653a206e6577206f776e657220697320746865207a65726f206160448201526564647265737360d01b606482015260840161022a565b600080546040516001600160a01b03808516939216917f8be0079c531659141344cd1fd0a4f28419497f9722a3daafe3b4186f6b6457e091a3600080546001600160a01b0319166001600160a01b0392909216919091179055565b60035460405163a9059cbb60e01b81526001600160a01b03848116600483015260248201849052600092169063a9059cbb90604401602060405180830381600087803b15801561059357600080fd5b505af11580156105a7573d6000803e3d6000fd5b505050506040513d601f19601f820116820180604052508101906105cb9190610790565b9392505050565b600354604051636eb1769f60e11b81526001600160a01b038381166004830152306024830152600092169063dd62ed3e9060440160206040518083038186803b15801561061e57600080fd5b505afa158015610632573d6000803e3d6000fd5b505050506040513d601f19601f8201168201806040525081019061065691906107cb565b92915050565b6003546040516323b872dd60e01b81526001600160a01b03858116600483015284811660248301526044820184905260009216906323b872dd90606401602060405180830381600087803b1580156106b357600080fd5b505af11580156106c7573d6000803e3d6000fd5b505050506040513d601f19601f820116820180604052508101906106eb9190610790565b949350505050565b80356001600160a01b038116811461070a57600080fd5b919050565b60006020828403121561072157600080fd5b6105cb826106f3565b60008060006060848603121561073f57600080fd5b610748846106f3565b9250610756602085016106f3565b9150604084013590509250925092565b6000806040838503121561077957600080fd5b610782836106f3565b946020939093013593505050565b6000602082840312156107a257600080fd5b815180151581146105cb57600080fd5b6000602082840312156107c457600080fd5b5035919050565b6000602082840312156107dd57600080fd5b5051919050565b6020808252600e908201526d125b9d985b1a5908185b5bdd5b9d60921b604082015260600190565b6020808252818101527f4f776e61626c653a2063616c6c6572206973206e6f7420746865206f776e6572604082015260600190565b6000821982111561085457610854610870565b500190565b60008282101561086b5761086b610870565b500390565b634e487b7160e01b600052601160045260246000fdfea2646970667358221220079e851331be7854a838c5f2d0c6d607c9312dc35e388fca8573f0f80ab7986264736f6c63430008070033",
  "devdoc": {
    "author": "Eman Herawy, StartFi Team",
    "kind": "dev",
    "methods": {
      "owner()": {
        "details": "Returns the address of the current owner."
      },
      "renounceOwnership()": {
        "details": "Leaves the contract without owner. It will not be possible to call `onlyOwner` functions anymore. Can only be called by the current owner. NOTE: Renouncing ownership will leave the contract without an owner, thereby removing any functionality that is only available to the owner."
      },
      "transferOwnership(address)": {
        "details": "Transfers ownership of the contract to a new account (`newOwner`). Can only be called by the current owner."
      }
    },
    "title": "StartFi Stakes [ desc ] : contract to hold users stakes",
    "version": 1
  },
  "userdoc": {
    "kind": "user",
    "methods": {},
    "notice": ": the logic behind this contract is not implemented yet, this is just a basic design for the sake of testing the marketplace cycle",
    "version": 1
  },
  "storageLayout": {
    "storage": [
      {
        "astId": 565,
        "contract": "contracts/StartFiStakes.sol:StartFiStakes",
        "label": "_owner",
        "offset": 0,
        "slot": "0",
        "type": "t_address"
      },
      {
        "astId": 8967,
        "contract": "contracts/StartFiStakes.sol:StartFiStakes",
        "label": "stakerReserved",
        "offset": 0,
        "slot": "1",
        "type": "t_mapping(t_address,t_uint256)"
      },
      {
        "astId": 8969,
        "contract": "contracts/StartFiStakes.sol:StartFiStakes",
        "label": "marketplace",
        "offset": 0,
        "slot": "2",
        "type": "t_address"
      },
      {
        "astId": 8971,
        "contract": "contracts/StartFiStakes.sol:StartFiStakes",
        "label": "stfiToken",
        "offset": 0,
        "slot": "3",
        "type": "t_address"
      }
    ],
    "types": {
      "t_address": {
        "encoding": "inplace",
        "label": "address",
        "numberOfBytes": "20"
      },
      "t_mapping(t_address,t_uint256)": {
        "encoding": "mapping",
        "key": "t_address",
        "label": "mapping(address => uint256)",
        "numberOfBytes": "32",
        "value": "t_uint256"
      },
      "t_uint256": {
        "encoding": "inplace",
        "label": "uint256",
        "numberOfBytes": "32"
      }
    }
  }
}