{
  "address": "0xddaAd340b0f1Ef65169Ae5E41A8b10776a75482d",
  "abi": [
    {
      "inputs": [
        {
          "internalType": "string",
          "name": "name",
          "type": "string"
        },
        {
          "internalType": "string",
          "name": "symbol",
          "type": "string"
        }
      ],
      "stateMutability": "nonpayable",
      "type": "constructor"
    },
    {
      "anonymous": false,
      "inputs": [
        {
          "indexed": true,
          "internalType": "address",
          "name": "owner",
          "type": "address"
        },
        {
          "indexed": true,
          "internalType": "address",
          "name": "approved",
          "type": "address"
        },
        {
          "indexed": true,
          "internalType": "uint256",
          "name": "tokenId",
          "type": "uint256"
        }
      ],
      "name": "Approval",
      "type": "event"
    },
    {
      "anonymous": false,
      "inputs": [
        {
          "indexed": true,
          "internalType": "address",
          "name": "owner",
          "type": "address"
        },
        {
          "indexed": true,
          "internalType": "address",
          "name": "operator",
          "type": "address"
        },
        {
          "indexed": false,
          "internalType": "bool",
          "name": "approved",
          "type": "bool"
        }
      ],
      "name": "ApprovalForAll",
      "type": "event"
    },
    {
      "anonymous": false,
      "inputs": [
        {
          "indexed": false,
          "internalType": "uint256",
          "name": "tokenId",
          "type": "uint256"
        },
        {
          "indexed": false,
          "internalType": "uint256",
          "name": "share",
          "type": "uint256"
        },
        {
          "indexed": false,
          "internalType": "uint256",
          "name": "base",
          "type": "uint256"
        },
        {
          "indexed": false,
          "internalType": "address",
          "name": "issuer",
          "type": "address"
        }
      ],
      "name": "MintWithRoyalty",
      "type": "event"
    },
    {
      "anonymous": false,
      "inputs": [
        {
          "indexed": true,
          "internalType": "address",
          "name": "from",
          "type": "address"
        },
        {
          "indexed": true,
          "internalType": "address",
          "name": "to",
          "type": "address"
        },
        {
          "indexed": true,
          "internalType": "uint256",
          "name": "tokenId",
          "type": "uint256"
        }
      ],
      "name": "Transfer",
      "type": "event"
    },
    {
      "inputs": [],
      "name": "DOMAIN_SEPARATOR",
      "outputs": [
        {
          "internalType": "bytes32",
          "name": "",
          "type": "bytes32"
        }
      ],
      "stateMutability": "view",
      "type": "function"
    },
    {
      "inputs": [],
      "name": "PERMIT_TYPEHASH",
      "outputs": [
        {
          "internalType": "bytes32",
          "name": "",
          "type": "bytes32"
        }
      ],
      "stateMutability": "view",
      "type": "function"
    },
    {
      "inputs": [],
      "name": "TRANSFER_TYPEHASH",
      "outputs": [
        {
          "internalType": "bytes32",
          "name": "",
          "type": "bytes32"
        }
      ],
      "stateMutability": "view",
      "type": "function"
    },
    {
      "inputs": [
        {
          "internalType": "address",
          "name": "to",
          "type": "address"
        },
        {
          "internalType": "uint256",
          "name": "tokenId",
          "type": "uint256"
        }
      ],
      "name": "approve",
      "outputs": [],
      "stateMutability": "nonpayable",
      "type": "function"
    },
    {
      "inputs": [
        {
          "internalType": "address",
          "name": "owner",
          "type": "address"
        }
      ],
      "name": "balanceOf",
      "outputs": [
        {
          "internalType": "uint256",
          "name": "",
          "type": "uint256"
        }
      ],
      "stateMutability": "view",
      "type": "function"
    },
    {
      "inputs": [
        {
          "internalType": "uint256",
          "name": "tokenId",
          "type": "uint256"
        }
      ],
      "name": "getApproved",
      "outputs": [
        {
          "internalType": "address",
          "name": "",
          "type": "address"
        }
      ],
      "stateMutability": "view",
      "type": "function"
    },
    {
      "inputs": [],
      "name": "getChainId",
      "outputs": [
        {
          "internalType": "uint256",
          "name": "chainId",
          "type": "uint256"
        }
      ],
      "stateMutability": "view",
      "type": "function"
    },
    {
      "inputs": [
        {
          "internalType": "uint256",
          "name": "tokenId",
          "type": "uint256"
        }
      ],
      "name": "getTokenIssuer",
      "outputs": [
        {
          "internalType": "address",
          "name": "issuer",
          "type": "address"
        }
      ],
      "stateMutability": "view",
      "type": "function"
    },
    {
      "inputs": [
        {
          "internalType": "address",
          "name": "owner",
          "type": "address"
        },
        {
          "internalType": "address",
          "name": "operator",
          "type": "address"
        }
      ],
      "name": "isApprovedForAll",
      "outputs": [
        {
          "internalType": "bool",
          "name": "",
          "type": "bool"
        }
      ],
      "stateMutability": "view",
      "type": "function"
    },
    {
      "inputs": [
        {
          "internalType": "address",
          "name": "to",
          "type": "address"
        },
        {
          "internalType": "string",
          "name": "_tokenURI",
          "type": "string"
        }
      ],
      "name": "mint",
      "outputs": [
        {
          "internalType": "uint256",
          "name": "",
          "type": "uint256"
        }
      ],
      "stateMutability": "nonpayable",
      "type": "function"
    },
    {
      "inputs": [
        {
          "internalType": "address",
          "name": "to",
          "type": "address"
        },
        {
          "internalType": "string",
          "name": "_tokenURI",
          "type": "string"
        },
        {
          "internalType": "uint8",
          "name": "share",
          "type": "uint8"
        },
        {
          "internalType": "uint8",
          "name": "separator",
          "type": "uint8"
        }
      ],
      "name": "mintWithRoyalty",
      "outputs": [
        {
          "internalType": "uint256",
          "name": "",
          "type": "uint256"
        }
      ],
      "stateMutability": "nonpayable",
      "type": "function"
    },
    {
      "inputs": [],
      "name": "name",
      "outputs": [
        {
          "internalType": "string",
          "name": "",
          "type": "string"
        }
      ],
      "stateMutability": "view",
      "type": "function"
    },
    {
      "inputs": [
        {
          "internalType": "address",
          "name": "",
          "type": "address"
        }
      ],
      "name": "nonces",
      "outputs": [
        {
          "internalType": "uint256",
          "name": "",
          "type": "uint256"
        }
      ],
      "stateMutability": "view",
      "type": "function"
    },
    {
      "inputs": [
        {
          "internalType": "uint256",
          "name": "tokenId",
          "type": "uint256"
        }
      ],
      "name": "ownerOf",
      "outputs": [
        {
          "internalType": "address",
          "name": "",
          "type": "address"
        }
      ],
      "stateMutability": "view",
      "type": "function"
    },
    {
      "inputs": [
        {
          "internalType": "address",
          "name": "target",
          "type": "address"
        },
        {
          "internalType": "address",
          "name": "spender",
          "type": "address"
        },
        {
          "internalType": "uint256",
          "name": "tokenId",
          "type": "uint256"
        },
        {
          "internalType": "uint256",
          "name": "deadline",
          "type": "uint256"
        },
        {
          "internalType": "uint8",
          "name": "v",
          "type": "uint8"
        },
        {
          "internalType": "bytes32",
          "name": "r",
          "type": "bytes32"
        },
        {
          "internalType": "bytes32",
          "name": "s",
          "type": "bytes32"
        }
      ],
      "name": "permit",
      "outputs": [
        {
          "internalType": "bool",
          "name": "",
          "type": "bool"
        }
      ],
      "stateMutability": "nonpayable",
      "type": "function"
    },
    {
      "inputs": [
        {
          "internalType": "uint256",
          "name": "_tokenId",
          "type": "uint256"
        },
        {
          "internalType": "uint256",
          "name": "_value",
          "type": "uint256"
        }
      ],
      "name": "royaltyInfo",
      "outputs": [
        {
          "internalType": "address",
          "name": "issuer",
          "type": "address"
        },
        {
          "internalType": "uint256",
          "name": "royaltyAmount",
          "type": "uint256"
        }
      ],
      "stateMutability": "view",
      "type": "function"
    },
    {
      "inputs": [
        {
          "internalType": "address",
          "name": "from",
          "type": "address"
        },
        {
          "internalType": "address",
          "name": "to",
          "type": "address"
        },
        {
          "internalType": "uint256",
          "name": "tokenId",
          "type": "uint256"
        }
      ],
      "name": "safeTransferFrom",
      "outputs": [],
      "stateMutability": "nonpayable",
      "type": "function"
    },
    {
      "inputs": [
        {
          "internalType": "address",
          "name": "from",
          "type": "address"
        },
        {
          "internalType": "address",
          "name": "to",
          "type": "address"
        },
        {
          "internalType": "uint256",
          "name": "tokenId",
          "type": "uint256"
        },
        {
          "internalType": "bytes",
          "name": "_data",
          "type": "bytes"
        }
      ],
      "name": "safeTransferFrom",
      "outputs": [],
      "stateMutability": "nonpayable",
      "type": "function"
    },
    {
      "inputs": [
        {
          "internalType": "address",
          "name": "operator",
          "type": "address"
        },
        {
          "internalType": "bool",
          "name": "approved",
          "type": "bool"
        }
      ],
      "name": "setApprovalForAll",
      "outputs": [],
      "stateMutability": "nonpayable",
      "type": "function"
    },
    {
      "inputs": [
        {
          "internalType": "bytes4",
          "name": "interfaceId",
          "type": "bytes4"
        }
      ],
      "name": "supportsInterface",
      "outputs": [
        {
          "internalType": "bool",
          "name": "",
          "type": "bool"
        }
      ],
      "stateMutability": "view",
      "type": "function"
    },
    {
      "inputs": [],
      "name": "supportsPermit",
      "outputs": [
        {
          "internalType": "bytes4",
          "name": "interfaceId",
          "type": "bytes4"
        }
      ],
      "stateMutability": "pure",
      "type": "function"
    },
    {
      "inputs": [],
      "name": "supportsRoyalty",
      "outputs": [
        {
          "internalType": "bytes4",
          "name": "interfaceId",
          "type": "bytes4"
        }
      ],
      "stateMutability": "pure",
      "type": "function"
    },
    {
      "inputs": [],
      "name": "symbol",
      "outputs": [
        {
          "internalType": "string",
          "name": "",
          "type": "string"
        }
      ],
      "stateMutability": "view",
      "type": "function"
    },
    {
      "inputs": [
        {
          "internalType": "uint256",
          "name": "index",
          "type": "uint256"
        }
      ],
      "name": "tokenByIndex",
      "outputs": [
        {
          "internalType": "uint256",
          "name": "",
          "type": "uint256"
        }
      ],
      "stateMutability": "view",
      "type": "function"
    },
    {
      "inputs": [
        {
          "internalType": "address",
          "name": "owner",
          "type": "address"
        },
        {
          "internalType": "uint256",
          "name": "index",
          "type": "uint256"
        }
      ],
      "name": "tokenOfOwnerByIndex",
      "outputs": [
        {
          "internalType": "uint256",
          "name": "",
          "type": "uint256"
        }
      ],
      "stateMutability": "view",
      "type": "function"
    },
    {
      "inputs": [
        {
          "internalType": "uint256",
          "name": "tokenId",
          "type": "uint256"
        }
      ],
      "name": "tokenURI",
      "outputs": [
        {
          "internalType": "string",
          "name": "",
          "type": "string"
        }
      ],
      "stateMutability": "view",
      "type": "function"
    },
    {
      "inputs": [],
      "name": "totalSupply",
      "outputs": [
        {
          "internalType": "uint256",
          "name": "",
          "type": "uint256"
        }
      ],
      "stateMutability": "view",
      "type": "function"
    },
    {
      "inputs": [
        {
          "internalType": "address",
          "name": "from",
          "type": "address"
        },
        {
          "internalType": "address",
          "name": "to",
          "type": "address"
        },
        {
          "internalType": "uint256",
          "name": "tokenId",
          "type": "uint256"
        }
      ],
      "name": "transferFrom",
      "outputs": [],
      "stateMutability": "nonpayable",
      "type": "function"
    },
    {
      "inputs": [
        {
          "internalType": "address",
          "name": "target",
          "type": "address"
        },
        {
          "internalType": "address",
          "name": "to",
          "type": "address"
        },
        {
          "internalType": "uint256",
          "name": "tokenId",
          "type": "uint256"
        },
        {
          "internalType": "uint256",
          "name": "deadline",
          "type": "uint256"
        },
        {
          "internalType": "uint8",
          "name": "v",
          "type": "uint8"
        },
        {
          "internalType": "bytes32",
          "name": "r",
          "type": "bytes32"
        },
        {
          "internalType": "bytes32",
          "name": "s",
          "type": "bytes32"
        }
      ],
      "name": "transferWithPermit",
      "outputs": [
        {
          "internalType": "bool",
          "name": "",
          "type": "bool"
        }
      ],
      "stateMutability": "nonpayable",
      "type": "function"
    }
  ],
  "transactionHash": "0x1ec40a207720e1765d0838601e348cde5f27a97aea928df281ae55ea9b73c68b",
  "args": [
    "StartFiNFTToken",
    "STFI"
  ],
  "solcInputHash": "b4ee5648d0e9d9b46f5b1ab4eac42396",
  "bytecode": "0x60806040523480156200001157600080fd5b5060405162002ba038038062002ba083398101604081905262000034916200026c565b6001600081905582516020808501918220604080518082018252948552603160f81b9483019490945283517f8b73c3c69bb8fe3d512ecc4cf759cc79239f7b179b0ffacaa9a75d522b39400f81840152808501919091527fc89efdaa54c0f20c7adf612882df0950f5a951637e0307cdcb4c672f298b8bc660608201524660808201523060a0808301919091528451808303909101815260c09091019093528251920191909120600355825183918391620000f29160059162000113565b5080516200010890600690602084019062000113565b505050505062000326565b8280546200012190620002d3565b90600052602060002090601f01602090048101928262000145576000855562000190565b82601f106200016057805160ff191683800117855562000190565b8280016001018555821562000190579182015b828111156200019057825182559160200191906001019062000173565b506200019e929150620001a2565b5090565b5b808211156200019e5760008155600101620001a3565b600082601f830112620001ca578081fd5b81516001600160401b0380821115620001e757620001e762000310565b604051601f8301601f19908116603f0116810190828211818310171562000212576200021262000310565b816040528381526020925086838588010111156200022e578485fd5b8491505b8382101562000251578582018301518183018401529082019062000232565b838211156200026257848385830101525b9695505050505050565b600080604083850312156200027f578182fd5b82516001600160401b038082111562000296578384fd5b620002a486838701620001b9565b93506020850151915080821115620002ba578283fd5b50620002c985828601620001b9565b9150509250929050565b600181811c90821680620002e857607f821691505b602082108114156200030a57634e487b7160e01b600052602260045260246000fd5b50919050565b634e487b7160e01b600052604160045260246000fd5b61286a80620003366000396000f3fe608060405234801561001057600080fd5b50600436106101ce5760003560e01c806342842e0e11610104578063a22cb465116100a2578063d0ba955811610071578063d0ba955814610433578063d0def52114610446578063d505accf14610459578063e985e9c51461046c57600080fd5b8063a22cb465146103d1578063b88d4fde146103e4578063bec65015146103f7578063c87b56dd1461042057600080fd5b80636352211e116100de5780636352211e1461038357806370a08231146103965780637ecebe00146103a957806395d89b41146103c957600080fd5b806342842e0e1461034a5780634f6ccce71461035d578063605629d61461037057600080fd5b806328a96ed1116101715780633088ac3e1161014b5780633088ac3e1461030757806330adf81f146103145780633408e4701461033b5780633644e5151461034157600080fd5b806328a96ed1146102a05780632a55205a146102c25780632f745c59146102f457600080fd5b8063081812fc116101ad578063081812fc14610245578063095ea7b31461027057806318160ddd1461028557806323b872dd1461028d57600080fd5b8062bf26f4146101d357806301ffc9a71461020d57806306fdde0314610230575b600080fd5b6101fa7fdf2fb49a1f69c8a73b114786b259dbb4a030c6bfe9099db7004c26857f8df6c781565b6040519081526020015b60405180910390f35b61022061021b36600461239a565b6104a8565b6040519015158152602001610204565b6102386104ee565b60405161020491906124a2565b6102586102533660046123d2565b610580565b6040516001600160a01b039091168152602001610204565b61028361027e366004612371565b61061a565b005b600d546101fa565b61028361029b36600461216b565b6106a0565b63d505accf60e01b5b6040516001600160e01b03199091168152602001610204565b6102d56102d03660046123ea565b6106d1565b604080516001600160a01b039093168352602083019190915201610204565b6101fa610302366004612371565b610748565b63152a902d60e11b6102a9565b6101fa7f48d39b37a35214940203bbbd4f383519797769b13d936f387d89430afef2768881565b466101fa565b6101fa60035481565b61028361035836600461216b565b6107de565b6101fa61036b3660046123d2565b6107f9565b61022061037e36600461221f565b61089a565b6102586103913660046123d2565b6109c1565b6101fa6103a436600461211f565b610a38565b6101fa6103b736600461211f565b60046020526000908152604090205481565b610238610abf565b6102836103df366004612288565b610ace565b6102836103f23660046121a6565b610b93565b6102586104053660046123d2565b6000908152600160205260409020546001600160a01b031690565b61023861042e3660046123d2565b610bcb565b6101fa610441366004612304565b610bd6565b6101fa6104543660046122c2565b610c2b565b61022061046736600461221f565b610c65565b61022061047a366004612139565b6001600160a01b039182166000908152600a6020908152604080832093909416825291909152205460ff1690565b60006001600160e01b0319821663152a902d60e11b14806104d957506001600160e01b0319821663d505accf60e01b145b806104e857506104e882610d6c565b92915050565b6060600580546104fd9061276f565b80601f01602080910402602001604051908101604052809291908181526020018280546105299061276f565b80156105765780601f1061054b57610100808354040283529160200191610576565b820191906000526020600020905b81548152906001019060200180831161055957829003601f168201915b5050505050905090565b6000818152600760205260408120546001600160a01b03166105fe5760405162461bcd60e51b815260206004820152602c60248201527f4552433732313a20617070726f76656420717565727920666f72206e6f6e657860448201526b34b9ba32b73a103a37b5b2b760a11b60648201526084015b60405180910390fd5b506000908152600960205260409020546001600160a01b031690565b6000610625826109c1565b9050806001600160a01b0316836001600160a01b031614156106595760405162461bcd60e51b81526004016105f590612564565b336001600160a01b03821614806106755750610675813361047a565b6106915760405162461bcd60e51b81526004016105f590612507565b61069b8383610d91565b505050565b6106aa3382610dff565b6106c65760405162461bcd60e51b81526004016105f5906125a5565b61069b838383610ef2565b6000828152600160205260408120546001600160a01b03169081156107415760008481526002602090815260408083206001600160a01b038616845282529182902082518084019093525460ff8082168085526101009092041691830182905261073d9186919061109d565b9150505b9250929050565b600061075383610a38565b82106107b55760405162461bcd60e51b815260206004820152602b60248201527f455243373231456e756d657261626c653a206f776e657220696e646578206f7560448201526a74206f6620626f756e647360a81b60648201526084016105f5565b506001600160a01b03919091166000908152600b60209081526040808320938352929052205490565b61069b83838360405180602001604052806000815250610b93565b6000610804600d5490565b82106108675760405162461bcd60e51b815260206004820152602c60248201527f455243373231456e756d657261626c653a20676c6f62616c20696e646578206f60448201526b7574206f6620626f756e647360a01b60648201526084016105f5565b600d828154811061088857634e487b7160e01b600052603260045260246000fd5b90600052602060002001549050919050565b60006108ab888888888888886110be565b6108f75760405162461bcd60e51b815260206004820152601e60248201527f53746172744669204e46543a20496e76616c6964207369676e6174757265000060448201526064016105f5565b6000610902876109c1565b9050806001600160a01b0316886001600160a01b031614156109365760405162461bcd60e51b81526004016105f590612564565b806001600160a01b0316896001600160a01b0316148061097b57506001600160a01b038082166000908152600a60209081526040808320938d168352929052205460ff165b6109975760405162461bcd60e51b81526004016105f590612507565b6109b289898960405180602001604052806000815250611203565b50600198975050505050505050565b6000818152600760205260408120546001600160a01b0316806104e85760405162461bcd60e51b815260206004820152602960248201527f4552433732313a206f776e657220717565727920666f72206e6f6e657869737460448201526832b73a103a37b5b2b760b91b60648201526084016105f5565b60006001600160a01b038216610aa35760405162461bcd60e51b815260206004820152602a60248201527f4552433732313a2062616c616e636520717565727920666f7220746865207a65604482015269726f206164647265737360b01b60648201526084016105f5565b506001600160a01b031660009081526008602052604090205490565b6060600680546104fd9061276f565b6001600160a01b038216331415610b275760405162461bcd60e51b815260206004820152601960248201527f4552433732313a20617070726f766520746f2063616c6c65720000000000000060448201526064016105f5565b336000818152600a602090815260408083206001600160a01b03871680855290835292819020805460ff191686151590811790915590519081529192917f17307eab39ab6107e8899845ad3d59bd9653f200f220920489ca2b5937696c31910160405180910390a35050565b610b9d3383610dff565b610bb95760405162461bcd60e51b81526004016105f5906125a5565b610bc584848484611203565b50505050565b60606104e882611272565b6000610bec610be460105490565b8685856113f1565b610bfe85610bf960105490565b611534565b610c10610c0a60105490565b85611682565b610c1e601080546001019055565b506010545b949350505050565b6000610c3a83610bf960105490565b610c4c610c4660105490565b83611682565b610c5a601080546001019055565b6010545b9392505050565b6000610c768888888888888861171c565b610cc25760405162461bcd60e51b815260206004820152601e60248201527f53746172744669204e46543a20496e76616c6964207369676e6174757265000060448201526064016105f5565b6000610ccd876109c1565b9050806001600160a01b0316886001600160a01b03161415610d015760405162461bcd60e51b81526004016105f590612564565b806001600160a01b0316896001600160a01b03161480610d4657506001600160a01b038082166000908152600a60209081526040808320938d168352929052205460ff165b610d625760405162461bcd60e51b81526004016105f590612507565b6109b28888610d91565b60006001600160e01b0319821663780e9d6360e01b14806104e857506104e8826117b5565b600081815260096020526040902080546001600160a01b0319166001600160a01b0384169081179091558190610dc6826109c1565b6001600160a01b03167f8c5be1e5ebec7d5bd14f71427d1e84f3dd0314c0f7b2291e5b200ac8c7c3b92560405160405180910390a45050565b6000818152600760205260408120546001600160a01b0316610e785760405162461bcd60e51b815260206004820152602c60248201527f4552433732313a206f70657261746f7220717565727920666f72206e6f6e657860448201526b34b9ba32b73a103a37b5b2b760a11b60648201526084016105f5565b6000610e83836109c1565b9050806001600160a01b0316846001600160a01b03161480610ebe5750836001600160a01b0316610eb384610580565b6001600160a01b0316145b80610c2357506001600160a01b038082166000908152600a602090815260408083209388168352929052205460ff16610c23565b826001600160a01b0316610f05826109c1565b6001600160a01b031614610f6d5760405162461bcd60e51b815260206004820152602960248201527f4552433732313a207472616e73666572206f6620746f6b656e2074686174206960448201526839903737ba1037bbb760b91b60648201526084016105f5565b6001600160a01b038216610fcf5760405162461bcd60e51b8152602060048201526024808201527f4552433732313a207472616e7366657220746f20746865207a65726f206164646044820152637265737360e01b60648201526084016105f5565b610fda838383611805565b610fe5600082610d91565b6001600160a01b038316600090815260086020526040812080546001929061100e90849061272c565b90915550506001600160a01b038216600090815260086020526040812080546001929061103c9084906125f6565b909155505060008181526007602052604080822080546001600160a01b0319166001600160a01b0386811691821790925591518493918716917fddf252ad1be2c89b69c2b068fc378daa952ba7f163c4a11628f55a4df523b3ef91a4505050565b6000610c236110b76110b084606461270d565b8590611810565b8590611833565b60008442111561110a5760405162461bcd60e51b815260206004820152601760248201527614dd185c9d119a4e88115e1c1a5c9959081c195c9b5a5d604a1b60448201526064016105f5565b6001600160a01b038816600090815260046020526040812080547fdf2fb49a1f69c8a73b114786b259dbb4a030c6bfe9099db7004c26857f8df6c7918b918b918b919086611157836127aa565b909155506040805160208101969096526001600160a01b0394851690860152929091166060840152608083015260a082015260c0810187905260e0016040516020818303038152906040528051906020012090506111bb898287878760035461184b565b806111d157506111d1898287878760035461191e565b6111da57600080fd5b6001600160a01b0388161515806111fa57506001600160a01b0388163014155b6109b257600080fd5b600260005414156112565760405162461bcd60e51b815260206004820152601f60248201527f5265656e7472616e637947756172643a207265656e7472616e742063616c6c0060448201526064016105f5565b6002600055611267848484846119bc565b505060016000555050565b6000818152600760205260409020546060906001600160a01b03166112f35760405162461bcd60e51b815260206004820152603160248201527f45524337323155524953746f726167653a2055524920717565727920666f72206044820152703737b732bc34b9ba32b73a103a37b5b2b760791b60648201526084016105f5565b6000828152600f60205260408120805461130c9061276f565b80601f01602080910402602001604051908101604052809291908181526020018280546113389061276f565b80156113855780601f1061135a57610100808354040283529160200191611385565b820191906000526020600020905b81548152906001019060200180831161136857829003601f168201915b5050505050905060006113a360408051602081019091526000815290565b90508051600014156113b6575092915050565b8151156113e85780826040516020016113d0929190612437565b60405160208183030381529060405292505050919050565b610c23846119ef565b60008260ff16118015611407575060008160ff16115b61146d5760405162461bcd60e51b815260206004820152603160248201527f736570617261746f7220616e642053686172652076616c756573206d757374206044820152706265206d6f7265207468616e207a65726f60781b60648201526084016105f5565b600084815260016020908152604080832080546001600160a01b0388166001600160a01b031990911681179091558151808301835260ff8781168083528782168387018181528c895260028852868920868a5288529786902093518454985184166101000261ffff19909916931692909217969096179091558251898152938401949094529082019290925260608101919091527f0119a3ab98077a7e91da7e1b11997f5c3107f09a6cfd10bc50c0ed54d3b313f29060800160405180910390a150505050565b6001600160a01b03821661158a5760405162461bcd60e51b815260206004820181905260248201527f4552433732313a206d696e7420746f20746865207a65726f206164647265737360448201526064016105f5565b6000818152600760205260409020546001600160a01b0316156115ef5760405162461bcd60e51b815260206004820152601c60248201527f4552433732313a20746f6b656e20616c7265616479206d696e7465640000000060448201526064016105f5565b6115fb60008383611805565b6001600160a01b03821660009081526008602052604081208054600192906116249084906125f6565b909155505060008181526007602052604080822080546001600160a01b0319166001600160a01b03861690811790915590518392907fddf252ad1be2c89b69c2b068fc378daa952ba7f163c4a11628f55a4df523b3ef908290a45050565b6000828152600760205260409020546001600160a01b03166116fd5760405162461bcd60e51b815260206004820152602e60248201527f45524337323155524953746f726167653a2055524920736574206f66206e6f6e60448201526d32bc34b9ba32b73a103a37b5b2b760911b60648201526084016105f5565b6000828152600f60209081526040909120825161069b92840190611fc4565b6000844211156117685760405162461bcd60e51b815260206004820152601760248201527614dd185c9d119a4e88115e1c1a5c9959081c195c9b5a5d604a1b60448201526064016105f5565b6001600160a01b038816600090815260046020526040812080547f48d39b37a35214940203bbbd4f383519797769b13d936f387d89430afef27688918b918b918b919086611157836127aa565b60006001600160e01b031982166380ac58cd60e01b14806117e657506001600160e01b03198216635b5e139f60e01b145b806104e857506301ffc9a760e01b6001600160e01b03198316146104e8565b61069b838383611ad6565b60008161181f6012600a612665565b611829908561270d565b610c5e919061260e565b6000610c5e83836118466012600a612665565b611b8e565b60405161190160f01b60208201526022810182905260428101869052600090819060620160408051601f198184030181528282528051602091820120600080855291840180845281905260ff8a169284019290925260608301889052608083018790529092509060019060a0015b6020604051602081039080840390855afa1580156118db573d6000803e3d6000fd5b5050604051601f1901519150506001600160a01b038116158015906119115750886001600160a01b0316816001600160a01b0316145b9998505050505050505050565b60008061198187846040517f19457468657265756d205369676e6564204d6573736167653a0a3332000000006020820152603c8101829052605c8101839052600090607c0160405160208183030381529060405280519060200120905092915050565b6040805160008082526020820180845284905260ff8a169282019290925260608101889052608081018790529192509060019060a0016118b9565b6119c7848484610ef2565b6119d384848484611be6565b610bc55760405162461bcd60e51b81526004016105f5906124b5565b6000818152600760205260409020546060906001600160a01b0316611a6e5760405162461bcd60e51b815260206004820152602f60248201527f4552433732314d657461646174613a2055524920717565727920666f72206e6f60448201526e3732bc34b9ba32b73a103a37b5b2b760891b60648201526084016105f5565b6000611a8560408051602081019091526000815290565b90506000815111611aa55760405180602001604052806000815250610c5e565b80611aaf84611cf0565b604051602001611ac0929190612437565b6040516020818303038152906040529392505050565b6001600160a01b038316611b3157611b2c81600d80546000838152600e60205260408120829055600182018355919091527fd7b6990105719101dabeb77144f2a3385c8033acd3af97e9423a695e81ad1eb50155565b611b54565b816001600160a01b0316836001600160a01b031614611b5457611b548382611e0a565b6001600160a01b038216611b6b5761069b81611ea7565b826001600160a01b0316826001600160a01b03161461069b5761069b8282611f80565b600080611b9c600a8461260e565b611ba6858761270d565b611bb0919061260e565b90506005611bbf600a836127c5565b10611bd257611bcf600a826125f6565b90505b611bdd600a8261260e565b95945050505050565b60006001600160a01b0384163b15611ce857604051630a85bd0160e11b81526001600160a01b0385169063150b7a0290611c2a903390899088908890600401612466565b602060405180830381600087803b158015611c4457600080fd5b505af1925050508015611c74575060408051601f3d908101601f19168201909252611c71918101906123b6565b60015b611cce573d808015611ca2576040519150601f19603f3d011682016040523d82523d6000602084013e611ca7565b606091505b508051611cc65760405162461bcd60e51b81526004016105f5906124b5565b805181602001fd5b6001600160e01b031916630a85bd0160e11b149050610c23565b506001610c23565b606081611d145750506040805180820190915260018152600360fc1b602082015290565b8160005b8115611d3e5780611d28816127aa565b9150611d379050600a8361260e565b9150611d18565b60008167ffffffffffffffff811115611d6757634e487b7160e01b600052604160045260246000fd5b6040519080825280601f01601f191660200182016040528015611d91576020820181803683370190505b5090505b8415610c2357611da660018361272c565b9150611db3600a866127c5565b611dbe9060306125f6565b60f81b818381518110611de157634e487b7160e01b600052603260045260246000fd5b60200101906001600160f81b031916908160001a905350611e03600a8661260e565b9450611d95565b60006001611e1784610a38565b611e21919061272c565b6000838152600c6020526040902054909150808214611e74576001600160a01b0384166000908152600b602090815260408083208584528252808320548484528184208190558352600c90915290208190555b506000918252600c602090815260408084208490556001600160a01b039094168352600b81528383209183525290812055565b600d54600090611eb99060019061272c565b6000838152600e6020526040812054600d8054939450909284908110611eef57634e487b7160e01b600052603260045260246000fd5b9060005260206000200154905080600d8381548110611f1e57634e487b7160e01b600052603260045260246000fd5b6000918252602080832090910192909255828152600e9091526040808220849055858252812055600d805480611f6457634e487b7160e01b600052603160045260246000fd5b6001900381819060005260206000200160009055905550505050565b6000611f8b83610a38565b6001600160a01b039093166000908152600b602090815260408083208684528252808320859055938252600c9052919091209190915550565b828054611fd09061276f565b90600052602060002090601f016020900481019282611ff25760008555612038565b82601f1061200b57805160ff1916838001178555612038565b82800160010185558215612038579182015b8281111561203857825182559160200191906001019061201d565b50612044929150612048565b5090565b5b808211156120445760008155600101612049565b600067ffffffffffffffff8084111561207857612078612805565b604051601f8501601f19908116603f011681019082821181831017156120a0576120a0612805565b816040528093508581528686860111156120b957600080fd5b858560208301376000602087830101525050509392505050565b80356001600160a01b03811681146120ea57600080fd5b919050565b600082601f8301126120ff578081fd5b610c5e8383356020850161205d565b803560ff811681146120ea57600080fd5b600060208284031215612130578081fd5b610c5e826120d3565b6000806040838503121561214b578081fd5b612154836120d3565b9150612162602084016120d3565b90509250929050565b60008060006060848603121561217f578081fd5b612188846120d3565b9250612196602085016120d3565b9150604084013590509250925092565b600080600080608085870312156121bb578081fd5b6121c4856120d3565b93506121d2602086016120d3565b925060408501359150606085013567ffffffffffffffff8111156121f4578182fd5b8501601f81018713612204578182fd5b6122138782356020840161205d565b91505092959194509250565b600080600080600080600060e0888a031215612239578283fd5b612242886120d3565b9650612250602089016120d3565b9550604088013594506060880135935061226c6080890161210e565b925060a0880135915060c0880135905092959891949750929550565b6000806040838503121561229a578182fd5b6122a3836120d3565b9150602083013580151581146122b7578182fd5b809150509250929050565b600080604083850312156122d4578182fd5b6122dd836120d3565b9150602083013567ffffffffffffffff8111156122f8578182fd5b61073d858286016120ef565b60008060008060808587031215612319578384fd5b612322856120d3565b9350602085013567ffffffffffffffff81111561233d578384fd5b612349878288016120ef565b9350506123586040860161210e565b91506123666060860161210e565b905092959194509250565b60008060408385031215612383578182fd5b61238c836120d3565b946020939093013593505050565b6000602082840312156123ab578081fd5b8135610c5e8161281b565b6000602082840312156123c7578081fd5b8151610c5e8161281b565b6000602082840312156123e3578081fd5b5035919050565b600080604083850312156123fc578182fd5b50508035926020909101359150565b60008151808452612423816020860160208601612743565b601f01601f19169290920160200192915050565b60008351612449818460208801612743565b83519083019061245d818360208801612743565b01949350505050565b60006001600160a01b03808716835280861660208401525083604083015260806060830152612498608083018461240b565b9695505050505050565b602081526000610c5e602083018461240b565b60208082526032908201527f4552433732313a207472616e7366657220746f206e6f6e20455243373231526560408201527131b2b4bb32b91034b6b83632b6b2b73a32b960711b606082015260800190565b60208082526038908201527f4552433732313a20617070726f76652063616c6c6572206973206e6f74206f7760408201527f6e6572206e6f7220617070726f76656420666f7220616c6c0000000000000000606082015260800190565b60208082526021908201527f4552433732313a20617070726f76616c20746f2063757272656e74206f776e656040820152603960f91b606082015260800190565b60208082526031908201527f4552433732313a207472616e736665722063616c6c6572206973206e6f74206f6040820152701ddb995c881b9bdc88185c1c1c9bdd9959607a1b606082015260800190565b60008219821115612609576126096127d9565b500190565b60008261261d5761261d6127ef565b500490565b600181815b8085111561265d578160001904821115612643576126436127d9565b8085161561265057918102915b93841c9390800290612627565b509250929050565b6000610c5e838360008261267b575060016104e8565b81612688575060006104e8565b816001811461269e57600281146126a8576126c4565b60019150506104e8565b60ff8411156126b9576126b96127d9565b50506001821b6104e8565b5060208310610133831016604e8410600b84101617156126e7575081810a6104e8565b6126f18383612622565b8060001904821115612705576127056127d9565b029392505050565b6000816000190483118215151615612727576127276127d9565b500290565b60008282101561273e5761273e6127d9565b500390565b60005b8381101561275e578181015183820152602001612746565b83811115610bc55750506000910152565b600181811c9082168061278357607f821691505b602082108114156127a457634e487b7160e01b600052602260045260246000fd5b50919050565b60006000198214156127be576127be6127d9565b5060010190565b6000826127d4576127d46127ef565b500690565b634e487b7160e01b600052601160045260246000fd5b634e487b7160e01b600052601260045260246000fd5b634e487b7160e01b600052604160045260246000fd5b6001600160e01b03198116811461283157600080fd5b5056fea264697066735822122099eb8f2a98e76efd529484d1cee3687c4dbd579da53987c8c3cd2e95ae7d79d964736f6c63430008040033",
  "devdoc": {
    "kind": "dev",
    "methods": {
      "approve(address,uint256)": {
        "details": "See {IERC721-approve}."
      },
      "balanceOf(address)": {
        "details": "See {IERC721-balanceOf}."
      },
      "getApproved(uint256)": {
        "details": "See {IERC721-getApproved}."
      },
      "isApprovedForAll(address,address)": {
        "details": "See {IERC721-isApprovedForAll}."
      },
      "mint(address,string)": {
        "details": "Creates a new token for `to`. Its token ID will be automatically assigned (and available on the emitted {IERC721-Transfer} event), and the token URI autogenerated based on the base URI passed at construction. See {ERC721-_mint}. Requirements: - the caller must have the `MINTER_ROLE`."
      },
      "mintWithRoyalty(address,string,uint8,uint8)": {
        "details": "calller should be in minter role",
        "params": {
          "_tokenURI": ": serized json object that has the following data ( category, name , desc , tages, ipfs hash)",
          "separator": ": eg. 10",
          "share": ": eg. 25",
          "to": ": NFT issuer"
        },
        "returns": {
          "_0": "token id"
        }
      },
      "name()": {
        "details": "See {IERC721Metadata-name}."
      },
      "ownerOf(uint256)": {
        "details": "See {IERC721-ownerOf}."
      },
      "permit(address,address,uint256,uint256,uint8,bytes32,bytes32)": {
        "details": "Sets `tokenId` as allowance of `spender` account over `owner` account's StartFiRoyaltyNFT token, given `owner` account's signed approval. Emits {Approval} event. Requirements:   - `deadline` must be timestamp in future.   - `v`, `r` and `s` must be valid `secp256k1` signature from `owner`  or 'approved for all' account over EIP712-formatted function arguments.   - the signature must use `owner` or 'approved for all' account's current nonce (see {nonces}).   - the signer cannot be zero address and must be `owner`  or 'approved for all' account. For more information on signature format, see https://eips.ethereum.org/EIPS/eip-2612#specification[relevant EIP section]. StartFiRoyaltyNFT token implementation adapted from https://github.com/anyswap/chaindata/blob/main/AnyswapV5ERC20.sol. with some modification"
      },
      "royaltyInfo(uint256,uint256)": {
        "details": "the formula is as follow : if issuer share is 2.5 then the share is 25 and the separator is 10  so inorder to calc the amount of royalty share for a token , formula should be totoal (price * share)/(separator*100)",
        "params": {
          "_tokenId": ": token id",
          "_value": ": token price on marketplace "
        },
        "returns": {
          "issuer": ": original issuer of the given token and his/her share of this this token"
        }
      },
      "safeTransferFrom(address,address,uint256)": {
        "details": "See {IERC721-safeTransferFrom}."
      },
      "safeTransferFrom(address,address,uint256,bytes)": {
        "details": "See {IERC721-safeTransferFrom}."
      },
      "setApprovalForAll(address,bool)": {
        "details": "See {IERC721-setApprovalForAll}."
      },
      "supportsInterface(bytes4)": {
        "details": "See {IERC165-supportsInterface}."
      },
      "supportsPermit()": {
        "details": "See {IERC165-supportsInterface}."
      },
      "supportsRoyalty()": {
        "details": "See {IERC165-supportsInterface}."
      },
      "symbol()": {
        "details": "See {IERC721Metadata-symbol}."
      },
      "tokenByIndex(uint256)": {
        "details": "See {IERC721Enumerable-tokenByIndex}."
      },
      "tokenOfOwnerByIndex(address,uint256)": {
        "details": "See {IERC721Enumerable-tokenOfOwnerByIndex}."
      },
      "totalSupply()": {
        "details": "See {IERC721Enumerable-totalSupply}."
      },
      "transferFrom(address,address,uint256)": {
        "details": "See {IERC721-transferFrom}."
      },
      "transferWithPermit(address,address,uint256,uint256,uint8,bytes32,bytes32)": {
        "details": "Sets `tokenId` as allowance of `spender` account over `owner` account's StartFiRoyaltyNFT token, given `owner` account's signed approval. Emits {Transfer} event. Requirements:   - `deadline` must be timestamp in future.   - `v`, `r` and `s` must be valid `secp256k1` signature from `owner`  or 'approved for all' account over EIP712-formatted function arguments.   - the signature must use `owner` or 'approved for all' account's current nonce (see {nonces}).   - the signer cannot be zero address and must be `owner`  or 'approved for all' account. For more information on signature format, see https://eips.ethereum.org/EIPS/eip-2612#specification[relevant EIP section]. StartFiRoyaltyNFT token implementation adapted from https://github.com/anyswap/chaindata/blob/main/AnyswapV5ERC20.sol. with some modification"
      }
    },
    "title": "StartFi Royalty NFT [ desc ] : NFT contract with Royalty option",
    "version": 1
  },
  "userdoc": {
    "kind": "user",
    "methods": {
      "mintWithRoyalty(address,string,uint8,uint8)": {
        "notice": "mint new NFT with roylty support, soldidty doesn't support decimal, so if we want to add 2.5 % share we need to pass 25 as share and 10 as base"
      }
    },
    "version": 1
  },
  "storageLayout": {
    "storage": [
      {
        "astId": 790,
        "contract": "contracts/StartFiRoyaltyNFT.sol:StartFiRoyaltyNFT",
        "label": "_status",
        "offset": 0,
        "slot": "0",
        "type": "t_uint256"
      },
      {
        "astId": 4556,
        "contract": "contracts/StartFiRoyaltyNFT.sol:StartFiRoyaltyNFT",
        "label": "tokenIdToIssuer",
        "offset": 0,
        "slot": "1",
        "type": "t_mapping(t_uint256,t_address)"
      },
      {
        "astId": 4563,
        "contract": "contracts/StartFiRoyaltyNFT.sol:StartFiRoyaltyNFT",
        "label": "_issuerPercentage",
        "offset": 0,
        "slot": "2",
        "type": "t_mapping(t_uint256,t_mapping(t_address,t_struct(Base)4578_storage))"
      },
      {
        "astId": 4300,
        "contract": "contracts/StartFiRoyaltyNFT.sol:StartFiRoyaltyNFT",
        "label": "DOMAIN_SEPARATOR",
        "offset": 0,
        "slot": "3",
        "type": "t_bytes32"
      },
      {
        "astId": 4305,
        "contract": "contracts/StartFiRoyaltyNFT.sol:StartFiRoyaltyNFT",
        "label": "nonces",
        "offset": 0,
        "slot": "4",
        "type": "t_mapping(t_address,t_uint256)"
      },
      {
        "astId": 1585,
        "contract": "contracts/StartFiRoyaltyNFT.sol:StartFiRoyaltyNFT",
        "label": "_name",
        "offset": 0,
        "slot": "5",
        "type": "t_string_storage"
      },
      {
        "astId": 1587,
        "contract": "contracts/StartFiRoyaltyNFT.sol:StartFiRoyaltyNFT",
        "label": "_symbol",
        "offset": 0,
        "slot": "6",
        "type": "t_string_storage"
      },
      {
        "astId": 1591,
        "contract": "contracts/StartFiRoyaltyNFT.sol:StartFiRoyaltyNFT",
        "label": "_owners",
        "offset": 0,
        "slot": "7",
        "type": "t_mapping(t_uint256,t_address)"
      },
      {
        "astId": 1595,
        "contract": "contracts/StartFiRoyaltyNFT.sol:StartFiRoyaltyNFT",
        "label": "_balances",
        "offset": 0,
        "slot": "8",
        "type": "t_mapping(t_address,t_uint256)"
      },
      {
        "astId": 1599,
        "contract": "contracts/StartFiRoyaltyNFT.sol:StartFiRoyaltyNFT",
        "label": "_tokenApprovals",
        "offset": 0,
        "slot": "9",
        "type": "t_mapping(t_uint256,t_address)"
      },
      {
        "astId": 1605,
        "contract": "contracts/StartFiRoyaltyNFT.sol:StartFiRoyaltyNFT",
        "label": "_operatorApprovals",
        "offset": 0,
        "slot": "10",
        "type": "t_mapping(t_address,t_mapping(t_address,t_bool))"
      },
      {
        "astId": 2524,
        "contract": "contracts/StartFiRoyaltyNFT.sol:StartFiRoyaltyNFT",
        "label": "_ownedTokens",
        "offset": 0,
        "slot": "11",
        "type": "t_mapping(t_address,t_mapping(t_uint256,t_uint256))"
      },
      {
        "astId": 2528,
        "contract": "contracts/StartFiRoyaltyNFT.sol:StartFiRoyaltyNFT",
        "label": "_ownedTokensIndex",
        "offset": 0,
        "slot": "12",
        "type": "t_mapping(t_uint256,t_uint256)"
      },
      {
        "astId": 2531,
        "contract": "contracts/StartFiRoyaltyNFT.sol:StartFiRoyaltyNFT",
        "label": "_allTokens",
        "offset": 0,
        "slot": "13",
        "type": "t_array(t_uint256)dyn_storage"
      },
      {
        "astId": 2535,
        "contract": "contracts/StartFiRoyaltyNFT.sol:StartFiRoyaltyNFT",
        "label": "_allTokensIndex",
        "offset": 0,
        "slot": "14",
        "type": "t_mapping(t_uint256,t_uint256)"
      },
      {
        "astId": 2860,
        "contract": "contracts/StartFiRoyaltyNFT.sol:StartFiRoyaltyNFT",
        "label": "_tokenURIs",
        "offset": 0,
        "slot": "15",
        "type": "t_mapping(t_uint256,t_string_storage)"
      },
      {
        "astId": 8250,
        "contract": "contracts/StartFiRoyaltyNFT.sol:StartFiRoyaltyNFT",
        "label": "_tokenIdTracker",
        "offset": 0,
        "slot": "16",
        "type": "t_struct(Counter)3385_storage"
      }
    ],
    "types": {
      "t_address": {
        "encoding": "inplace",
        "label": "address",
        "numberOfBytes": "20"
      },
      "t_array(t_uint256)dyn_storage": {
        "base": "t_uint256",
        "encoding": "dynamic_array",
        "label": "uint256[]",
        "numberOfBytes": "32"
      },
      "t_bool": {
        "encoding": "inplace",
        "label": "bool",
        "numberOfBytes": "1"
      },
      "t_bytes32": {
        "encoding": "inplace",
        "label": "bytes32",
        "numberOfBytes": "32"
      },
      "t_mapping(t_address,t_bool)": {
        "encoding": "mapping",
        "key": "t_address",
        "label": "mapping(address => bool)",
        "numberOfBytes": "32",
        "value": "t_bool"
      },
      "t_mapping(t_address,t_mapping(t_address,t_bool))": {
        "encoding": "mapping",
        "key": "t_address",
        "label": "mapping(address => mapping(address => bool))",
        "numberOfBytes": "32",
        "value": "t_mapping(t_address,t_bool)"
      },
      "t_mapping(t_address,t_mapping(t_uint256,t_uint256))": {
        "encoding": "mapping",
        "key": "t_address",
        "label": "mapping(address => mapping(uint256 => uint256))",
        "numberOfBytes": "32",
        "value": "t_mapping(t_uint256,t_uint256)"
      },
      "t_mapping(t_address,t_struct(Base)4578_storage)": {
        "encoding": "mapping",
        "key": "t_address",
        "label": "mapping(address => struct ERC721Royalty.Base)",
        "numberOfBytes": "32",
        "value": "t_struct(Base)4578_storage"
      },
      "t_mapping(t_address,t_uint256)": {
        "encoding": "mapping",
        "key": "t_address",
        "label": "mapping(address => uint256)",
        "numberOfBytes": "32",
        "value": "t_uint256"
      },
      "t_mapping(t_uint256,t_address)": {
        "encoding": "mapping",
        "key": "t_uint256",
        "label": "mapping(uint256 => address)",
        "numberOfBytes": "32",
        "value": "t_address"
      },
      "t_mapping(t_uint256,t_mapping(t_address,t_struct(Base)4578_storage))": {
        "encoding": "mapping",
        "key": "t_uint256",
        "label": "mapping(uint256 => mapping(address => struct ERC721Royalty.Base))",
        "numberOfBytes": "32",
        "value": "t_mapping(t_address,t_struct(Base)4578_storage)"
      },
      "t_mapping(t_uint256,t_string_storage)": {
        "encoding": "mapping",
        "key": "t_uint256",
        "label": "mapping(uint256 => string)",
        "numberOfBytes": "32",
        "value": "t_string_storage"
      },
      "t_mapping(t_uint256,t_uint256)": {
        "encoding": "mapping",
        "key": "t_uint256",
        "label": "mapping(uint256 => uint256)",
        "numberOfBytes": "32",
        "value": "t_uint256"
      },
      "t_string_storage": {
        "encoding": "bytes",
        "label": "string",
        "numberOfBytes": "32"
      },
      "t_struct(Base)4578_storage": {
        "encoding": "inplace",
        "label": "struct ERC721Royalty.Base",
        "members": [
          {
            "astId": 4575,
            "contract": "contracts/StartFiRoyaltyNFT.sol:StartFiRoyaltyNFT",
            "label": "share",
            "offset": 0,
            "slot": "0",
            "type": "t_uint8"
          },
          {
            "astId": 4577,
            "contract": "contracts/StartFiRoyaltyNFT.sol:StartFiRoyaltyNFT",
            "label": "shareSeparator",
            "offset": 1,
            "slot": "0",
            "type": "t_uint8"
          }
        ],
        "numberOfBytes": "32"
      },
      "t_struct(Counter)3385_storage": {
        "encoding": "inplace",
        "label": "struct Counters.Counter",
        "members": [
          {
            "astId": 3384,
            "contract": "contracts/StartFiRoyaltyNFT.sol:StartFiRoyaltyNFT",
            "label": "_value",
            "offset": 0,
            "slot": "0",
            "type": "t_uint256"
          }
        ],
        "numberOfBytes": "32"
      },
      "t_uint256": {
        "encoding": "inplace",
        "label": "uint256",
        "numberOfBytes": "32"
      },
      "t_uint8": {
        "encoding": "inplace",
        "label": "uint8",
        "numberOfBytes": "1"
      }
    }
  }
}