{
  "address": "0x0fC5025C764cE34df352757e82f7B5c4Df39A836",
  "abi": [
    {
      "inputs": [
        {
          "internalType": "address",
          "name": "_stfiToken",
          "type": "address"
        },
        {
          "internalType": "address",
          "name": "_owner",
          "type": "address"
        }
      ],
      "stateMutability": "nonpayable",
      "type": "constructor"
    },
    {
      "anonymous": false,
      "inputs": [
        {
          "indexed": true,
          "internalType": "address",
          "name": "previousOwner",
          "type": "address"
        },
        {
          "indexed": true,
          "internalType": "address",
          "name": "newOwner",
          "type": "address"
        }
      ],
      "name": "OwnershipTransferred",
      "type": "event"
    },
    {
      "inputs": [
        {
          "internalType": "address",
          "name": "finePayer",
          "type": "address"
        },
        {
          "internalType": "address",
          "name": "to",
          "type": "address"
        },
        {
          "internalType": "uint256",
          "name": "amount",
          "type": "uint256"
        }
      ],
      "name": "deduct",
      "outputs": [
        {
          "internalType": "bool",
          "name": "",
          "type": "bool"
        }
      ],
      "stateMutability": "nonpayable",
      "type": "function"
    },
    {
      "inputs": [
        {
          "internalType": "address",
          "name": "user",
          "type": "address"
        },
        {
          "internalType": "uint256",
          "name": "amount",
          "type": "uint256"
        }
      ],
      "name": "deposit",
      "outputs": [],
      "stateMutability": "nonpayable",
      "type": "function"
    },
    {
      "inputs": [
        {
          "internalType": "address",
          "name": "owner",
          "type": "address"
        }
      ],
      "name": "getReserves",
      "outputs": [
        {
          "internalType": "uint256",
          "name": "",
          "type": "uint256"
        }
      ],
      "stateMutability": "view",
      "type": "function"
    },
    {
      "inputs": [],
      "name": "owner",
      "outputs": [
        {
          "internalType": "address",
          "name": "",
          "type": "address"
        }
      ],
      "stateMutability": "view",
      "type": "function"
    },
    {
      "inputs": [],
      "name": "renounceOwnership",
      "outputs": [],
      "stateMutability": "nonpayable",
      "type": "function"
    },
    {
      "inputs": [
        {
          "internalType": "address",
          "name": "_marketplace",
          "type": "address"
        }
      ],
      "name": "setMarketplace",
      "outputs": [],
      "stateMutability": "nonpayable",
      "type": "function"
    },
    {
      "inputs": [
        {
          "internalType": "address",
          "name": "newOwner",
          "type": "address"
        }
      ],
      "name": "transferOwnership",
      "outputs": [],
      "stateMutability": "nonpayable",
      "type": "function"
    },
    {
      "inputs": [
        {
          "internalType": "uint256",
          "name": "amount",
          "type": "uint256"
        }
      ],
      "name": "withdraw",
      "outputs": [],
      "stateMutability": "nonpayable",
      "type": "function"
    }
  ],
  "transactionHash": "0xdbe9c0dc01cbf4f630a0b368de4ed926c692ec56588fa7b60062e8b9927744e6",
  "args": [
    "0xd2a5bC10698FD955D1Fe6cb468a17809A08fd005",
    "0x5B38Da6a701c568545dCfcB03FcB875f56beddC4"
  ],
  "solcInputHash": "b4ee5648d0e9d9b46f5b1ab4eac42396",
  "bytecode": "0x608060405234801561001057600080fd5b50604051610aea380380610aea83398101604081905261002f9161019f565b61003833610063565b600380546001600160a01b0319166001600160a01b03841617905561005c816100b3565b50506101d1565b600080546001600160a01b038381166001600160a01b0319831681178455604051919092169283917f8be0079c531659141344cd1fd0a4f28419497f9722a3daafe3b4186f6b6457e09190a35050565b6000546001600160a01b031633146101125760405162461bcd60e51b815260206004820181905260248201527f4f776e61626c653a2063616c6c6572206973206e6f7420746865206f776e657260448201526064015b60405180910390fd5b6001600160a01b0381166101775760405162461bcd60e51b815260206004820152602660248201527f4f776e61626c653a206e6577206f776e657220697320746865207a65726f206160448201526564647265737360d01b6064820152608401610109565b61018081610063565b50565b80516001600160a01b038116811461019a57600080fd5b919050565b600080604083850312156101b1578182fd5b6101ba83610183565b91506101c860208401610183565b90509250929050565b61090a806101e06000396000f3fe608060405234801561001057600080fd5b50600436106100885760003560e01c806373ad6c2d1161005b57806373ad6c2d146100f95780638da5cb5b1461010c578063929c517914610127578063f2fde38b1461014a57600080fd5b80632e1a7d4d1461008d5780633e99c1e4146100a257806347e7ef24146100de578063715018a6146100f1575b600080fd5b6100a061009b36600461085f565b61015d565b005b6100cb6100b03660046107c1565b6001600160a01b031660009081526001602052604090205490565b6040519081526020015b60405180910390f35b6100a06100ec366004610816565b61028b565b6100a0610324565b6100a06101073660046107c1565b61038a565b6000546040516001600160a01b0390911681526020016100d5565b61013a6101353660046107db565b610406565b60405190151581526020016100d5565b6100a06101583660046107c1565b6104db565b6002546000906001600160a01b0316631f78fd0b336040516001600160e01b031960e084901b1681526001600160a01b03909116600482015260240160206040518083038186803b1580156101b157600080fd5b505afa1580156101c5573d6000803e3d6000fd5b505050506040513d601f19601f820116820180604052508101906101e99190610877565b33600090815260016020526040812054919250906102089083906108a7565b9050828110156102505760405162461bcd60e51b815260206004820152600e60248201526d125b9d985b1a5908185b5bdd5b9d60921b60448201526064015b60405180910390fd5b61025a33846105a6565b50336000908152600160205260409020546102769084906108a7565b33600090815260016020526040902055505050565b8061029533610634565b10156102d45760405162461bcd60e51b815260206004820152600e60248201526d125b9d985b1a5908185b5bdd5b9d60921b6044820152606401610247565b6102df3330836106be565b506001600160a01b03821660009081526001602052604090205461030490829061088f565b6001600160a01b0390921660009081526001602052604090209190915550565b6000546001600160a01b0316331461037e5760405162461bcd60e51b815260206004820181905260248201527f4f776e61626c653a2063616c6c6572206973206e6f7420746865206f776e65726044820152606401610247565b6103886000610755565b565b6000546001600160a01b031633146103e45760405162461bcd60e51b815260206004820181905260248201527f4f776e61626c653a2063616c6c6572206973206e6f7420746865206f776e65726044820152606401610247565b600280546001600160a01b0319166001600160a01b0392909216919091179055565b6001600160a01b03831660009081526001602052604081205482111561045f5760405162461bcd60e51b815260206004820152600e60248201526d125b9d985b1a5908185b5bdd5b9d60921b6044820152606401610247565b6001600160a01b0384166000908152600160205260409020546104839083906108a7565b6001600160a01b0380861660009081526001602052604080822093909355908516815220546104b390839061088f565b6001600160a01b03841660009081526001602081905260409091209190915590509392505050565b6000546001600160a01b031633146105355760405162461bcd60e51b815260206004820181905260248201527f4f776e61626c653a2063616c6c6572206973206e6f7420746865206f776e65726044820152606401610247565b6001600160a01b03811661059a5760405162461bcd60e51b815260206004820152602660248201527f4f776e61626c653a206e6577206f776e657220697320746865207a65726f206160448201526564647265737360d01b6064820152608401610247565b6105a381610755565b50565b60035460405163a9059cbb60e01b81526001600160a01b03848116600483015260248201849052600092169063a9059cbb90604401602060405180830381600087803b1580156105f557600080fd5b505af1158015610609573d6000803e3d6000fd5b505050506040513d601f19601f8201168201806040525081019061062d919061083f565b9392505050565b600354604051636eb1769f60e11b81526001600160a01b038381166004830152306024830152600092169063dd62ed3e9060440160206040518083038186803b15801561068057600080fd5b505afa158015610694573d6000803e3d6000fd5b505050506040513d601f19601f820116820180604052508101906106b89190610877565b92915050565b6003546040516323b872dd60e01b81526001600160a01b03858116600483015284811660248301526044820184905260009216906323b872dd90606401602060405180830381600087803b15801561071557600080fd5b505af1158015610729573d6000803e3d6000fd5b505050506040513d601f19601f8201168201806040525081019061074d919061083f565b949350505050565b600080546001600160a01b038381166001600160a01b0319831681178455604051919092169283917f8be0079c531659141344cd1fd0a4f28419497f9722a3daafe3b4186f6b6457e09190a35050565b80356001600160a01b03811681146107bc57600080fd5b919050565b6000602082840312156107d2578081fd5b61062d826107a5565b6000806000606084860312156107ef578182fd5b6107f8846107a5565b9250610806602085016107a5565b9150604084013590509250925092565b60008060408385031215610828578182fd5b610831836107a5565b946020939093013593505050565b600060208284031215610850578081fd5b8151801515811461062d578182fd5b600060208284031215610870578081fd5b5035919050565b600060208284031215610888578081fd5b5051919050565b600082198211156108a2576108a26108be565b500190565b6000828210156108b9576108b96108be565b500390565b634e487b7160e01b600052601160045260246000fdfea264697066735822122011f6a359848caf4a9f4df65ab40ab5553b2fa3f32f14ab911557954643e2d27364736f6c63430008040033",
  "devdoc": {
    "kind": "dev",
    "methods": {
      "owner()": {
        "details": "Returns the address of the current owner."
      },
      "renounceOwnership()": {
        "details": "Leaves the contract without owner. It will not be possible to call `onlyOwner` functions anymore. Can only be called by the current owner. NOTE: Renouncing ownership will leave the contract without an owner, thereby removing any functionality that is only available to the owner."
      },
      "transferOwnership(address)": {
        "details": "Transfers ownership of the contract to a new account (`newOwner`). Can only be called by the current owner."
      }
    },
    "title": "StartFi Stakes [ desc ] : contract to hold users stakes",
    "version": 1
  },
  "userdoc": {
    "kind": "user",
    "methods": {},
    "notice": ": the logic behind this contract is not implemented yet, this is just a basic design for the sake of testing the marketplace cycle",
    "version": 1
  },
  "storageLayout": {
    "storage": [
      {
        "astId": 591,
        "contract": "contracts/StartFiStakes.sol:StartFiStakes",
        "label": "_owner",
        "offset": 0,
        "slot": "0",
        "type": "t_address"
      },
      {
        "astId": 8602,
        "contract": "contracts/StartFiStakes.sol:StartFiStakes",
        "label": "stakerReserved",
        "offset": 0,
        "slot": "1",
        "type": "t_mapping(t_address,t_uint256)"
      },
      {
        "astId": 8604,
        "contract": "contracts/StartFiStakes.sol:StartFiStakes",
        "label": "marketplace",
        "offset": 0,
        "slot": "2",
        "type": "t_address"
      },
      {
        "astId": 8606,
        "contract": "contracts/StartFiStakes.sol:StartFiStakes",
        "label": "stfiToken",
        "offset": 0,
        "slot": "3",
        "type": "t_address"
      }
    ],
    "types": {
      "t_address": {
        "encoding": "inplace",
        "label": "address",
        "numberOfBytes": "20"
      },
      "t_mapping(t_address,t_uint256)": {
        "encoding": "mapping",
        "key": "t_address",
        "label": "mapping(address => uint256)",
        "numberOfBytes": "32",
        "value": "t_uint256"
      },
      "t_uint256": {
        "encoding": "inplace",
        "label": "uint256",
        "numberOfBytes": "32"
      }
    }
  }
}