{
  "address": "0x5D2040965481E2D970FFF9B7e1ED5C016C56fC2F",
  "abi": [
    {
      "inputs": [],
      "stateMutability": "nonpayable",
      "type": "constructor"
    },
    {
      "anonymous": false,
      "inputs": [
        {
          "indexed": true,
          "internalType": "bytes32",
          "name": "role",
          "type": "bytes32"
        },
        {
          "indexed": true,
          "internalType": "bytes32",
          "name": "previousAdminRole",
          "type": "bytes32"
        },
        {
          "indexed": true,
          "internalType": "bytes32",
          "name": "newAdminRole",
          "type": "bytes32"
        }
      ],
      "name": "RoleAdminChanged",
      "type": "event"
    },
    {
      "anonymous": false,
      "inputs": [
        {
          "indexed": true,
          "internalType": "bytes32",
          "name": "role",
          "type": "bytes32"
        },
        {
          "indexed": true,
          "internalType": "address",
          "name": "account",
          "type": "address"
        },
        {
          "indexed": true,
          "internalType": "address",
          "name": "sender",
          "type": "address"
        }
      ],
      "name": "RoleGranted",
      "type": "event"
    },
    {
      "anonymous": false,
      "inputs": [
        {
          "indexed": true,
          "internalType": "bytes32",
          "name": "role",
          "type": "bytes32"
        },
        {
          "indexed": true,
          "internalType": "address",
          "name": "account",
          "type": "address"
        },
        {
          "indexed": true,
          "internalType": "address",
          "name": "sender",
          "type": "address"
        }
      ],
      "name": "RoleRevoked",
      "type": "event"
    },
    {
      "inputs": [],
      "name": "BURNER_ROLE",
      "outputs": [
        {
          "internalType": "bytes32",
          "name": "",
          "type": "bytes32"
        }
      ],
      "stateMutability": "view",
      "type": "function"
    },
    {
      "inputs": [],
      "name": "DEFAULT_ADMIN_ROLE",
      "outputs": [
        {
          "internalType": "bytes32",
          "name": "",
          "type": "bytes32"
        }
      ],
      "stateMutability": "view",
      "type": "function"
    },
    {
      "inputs": [],
      "name": "MINTER_ROLE",
      "outputs": [
        {
          "internalType": "bytes32",
          "name": "",
          "type": "bytes32"
        }
      ],
      "stateMutability": "view",
      "type": "function"
    },
    {
      "inputs": [
        {
          "internalType": "address",
          "name": "to",
          "type": "address"
        },
        {
          "internalType": "uint256",
          "name": "amount",
          "type": "uint256"
        }
      ],
      "name": "burnReputation",
      "outputs": [
        {
          "internalType": "uint256",
          "name": "balance",
          "type": "uint256"
        }
      ],
      "stateMutability": "nonpayable",
      "type": "function"
    },
    {
      "inputs": [
        {
          "internalType": "address",
          "name": "buyer",
          "type": "address"
        },
        {
          "internalType": "address",
          "name": "seller",
          "type": "address"
        },
        {
          "internalType": "uint256",
          "name": "totalAmount",
          "type": "uint256"
        }
      ],
      "name": "calcAndMintintReputation",
      "outputs": [
        {
          "internalType": "bool",
          "name": "",
          "type": "bool"
        }
      ],
      "stateMutability": "nonpayable",
      "type": "function"
    },
    {
      "inputs": [
        {
          "internalType": "bytes32",
          "name": "role",
          "type": "bytes32"
        }
      ],
      "name": "getRoleAdmin",
      "outputs": [
        {
          "internalType": "bytes32",
          "name": "",
          "type": "bytes32"
        }
      ],
      "stateMutability": "view",
      "type": "function"
    },
    {
      "inputs": [
        {
          "internalType": "bytes32",
          "name": "role",
          "type": "bytes32"
        },
        {
          "internalType": "uint256",
          "name": "index",
          "type": "uint256"
        }
      ],
      "name": "getRoleMember",
      "outputs": [
        {
          "internalType": "address",
          "name": "",
          "type": "address"
        }
      ],
      "stateMutability": "view",
      "type": "function"
    },
    {
      "inputs": [
        {
          "internalType": "bytes32",
          "name": "role",
          "type": "bytes32"
        }
      ],
      "name": "getRoleMemberCount",
      "outputs": [
        {
          "internalType": "uint256",
          "name": "",
          "type": "uint256"
        }
      ],
      "stateMutability": "view",
      "type": "function"
    },
    {
      "inputs": [
        {
          "internalType": "address",
          "name": "user",
          "type": "address"
        }
      ],
      "name": "getUserReputation",
      "outputs": [
        {
          "internalType": "uint256",
          "name": "balance",
          "type": "uint256"
        }
      ],
      "stateMutability": "view",
      "type": "function"
    },
    {
      "inputs": [
        {
          "internalType": "bytes32",
          "name": "role",
          "type": "bytes32"
        },
        {
          "internalType": "address",
          "name": "account",
          "type": "address"
        }
      ],
      "name": "grantRole",
      "outputs": [],
      "stateMutability": "nonpayable",
      "type": "function"
    },
    {
      "inputs": [
        {
          "internalType": "bytes32",
          "name": "role",
          "type": "bytes32"
        },
        {
          "internalType": "address",
          "name": "account",
          "type": "address"
        }
      ],
      "name": "hasRole",
      "outputs": [
        {
          "internalType": "bool",
          "name": "",
          "type": "bool"
        }
      ],
      "stateMutability": "view",
      "type": "function"
    },
    {
      "inputs": [
        {
          "internalType": "address",
          "name": "to",
          "type": "address"
        },
        {
          "internalType": "uint256",
          "name": "amount",
          "type": "uint256"
        }
      ],
      "name": "mintReputation",
      "outputs": [
        {
          "internalType": "uint256",
          "name": "balance",
          "type": "uint256"
        }
      ],
      "stateMutability": "nonpayable",
      "type": "function"
    },
    {
      "inputs": [
        {
          "internalType": "bytes32",
          "name": "role",
          "type": "bytes32"
        },
        {
          "internalType": "address",
          "name": "account",
          "type": "address"
        }
      ],
      "name": "renounceRole",
      "outputs": [],
      "stateMutability": "nonpayable",
      "type": "function"
    },
    {
      "inputs": [
        {
          "internalType": "bytes32",
          "name": "role",
          "type": "bytes32"
        },
        {
          "internalType": "address",
          "name": "account",
          "type": "address"
        }
      ],
      "name": "revokeRole",
      "outputs": [],
      "stateMutability": "nonpayable",
      "type": "function"
    },
    {
      "inputs": [
        {
          "internalType": "bytes4",
          "name": "interfaceId",
          "type": "bytes4"
        }
      ],
      "name": "supportsInterface",
      "outputs": [
        {
          "internalType": "bool",
          "name": "",
          "type": "bool"
        }
      ],
      "stateMutability": "view",
      "type": "function"
    }
  ],
  "transactionHash": "0x906a4a0e6f95098cf9a63a0e8e0bfe3f6cfd48d6d75e239e1f29418f3e7dba12",
  "args": [],
  "solcInputHash": "0cde34bb0e3656ab12e54591121c8799",
  "bytecode": "0x60806040523480156200001157600080fd5b506200001f6000336200007d565b6200004b7f9f2df0fed2c77648de5860a4cc508cd0818c85b8b8a1ab4ceeef8d981c8956a6336200007d565b620000777f3c11d16cbaffd01df69ce1c404f6340ee057498f5f00246190ea54220576a848336200007d565b620001e2565b620000948282620000c060201b6200061e1760201c565b6000828152600160209081526040909120620000bb9183906200062c620000d0821b17901c565b505050565b620000cc8282620000f0565b5050565b6000620000e7836001600160a01b03841662000190565b90505b92915050565b6000828152602081815260408083206001600160a01b038516845290915290205460ff16620000cc576000828152602081815260408083206001600160a01b03851684529091529020805460ff191660011790556200014c3390565b6001600160a01b0316816001600160a01b0316837f2f8788117e7eff1d82e926ec794901d17c78024a50270940304540a733656f0d60405160405180910390a45050565b6000818152600183016020526040812054620001d957508154600181810184556000848152602080822090930184905584548482528286019093526040902091909155620000ea565b506000620000ea565b610f2780620001f26000396000f3fe608060405234801561001057600080fd5b50600436106100f55760003560e01c80639010d07c11610097578063baccbfdb11610066578063baccbfdb14610221578063ca15c8731461024a578063d53913931461025d578063d547741f1461028457600080fd5b80639010d07c146101c857806391d14854146101f3578063943ccab814610206578063a217fddf1461021957600080fd5b80632ede8cc8116100d35780632ede8cc81461017a5780632f2ff15d1461018d57806336568abe146101a2578063684f7b0e146101b557600080fd5b806301ffc9a7146100fa578063248a9ca314610122578063282c51f314610153575b600080fd5b61010d610108366004610cc0565b610297565b60405190151581526020015b60405180910390f35b610145610130366004610c59565b60009081526020819052604090206001015490565b604051908152602001610119565b6101457f3c11d16cbaffd01df69ce1c404f6340ee057498f5f00246190ea54220576a84881565b61010d610188366004610bf3565b6102c2565b6101a061019b366004610c72565b6103a5565b005b6101a06101b0366004610c72565b6103cc565b6101456101c3366004610c2f565b6103ee565b6101db6101d6366004610c9e565b610549565b6040516001600160a01b039091168152602001610119565b61010d610201366004610c72565b610568565b610145610214366004610c2f565b610591565b610145600081565b61014561022f366004610bd8565b6001600160a01b031660009081526002602052604090205490565b610145610258366004610c59565b6105fd565b6101457f9f2df0fed2c77648de5860a4cc508cd0818c85b8b8a1ab4ceeef8d981c8956a681565b6101a0610292366004610c72565b610614565b60006001600160e01b03198216635a05180f60e01b14806102bc57506102bc82610641565b92915050565b60006102ee7f9f2df0fed2c77648de5860a4cc508cd0818c85b8b8a1ab4ceeef8d981c8956a633610568565b6103135760405162461bcd60e51b815260040161030a90610d92565b60405180910390fd5b6000610320600284610dfa565b6001600160a01b03861660009081526002602052604081205491925090610348908390610de2565b6001600160a01b03861660009081526002602052604081205491925090610370908490610de2565b6001600160a01b0397881660009081526002602052604080822094909455969097168652509093209390935550600192915050565b6103af8282610676565b60008281526001602052604090206103c7908261062c565b505050565b6103d6828261069c565b60008281526001602052604090206103c79082610716565b600061041a7f3c11d16cbaffd01df69ce1c404f6340ee057498f5f00246190ea54220576a84833610568565b61048c5760405162461bcd60e51b815260206004820152603960248201527f5374617274466952657075746174696f6e3a206d75737420686176652062757260448201527f6e20726f6c6520746f206275726e2072657075746174696f6e00000000000000606482015260840161030a565b6001600160a01b0383166000908152600260205260409020548211156105035760405162461bcd60e51b815260206004820152602660248201527f5374617274466952657075746174696f6e3a204e6f7420656e6f756768742062604482015265616c616e636560d01b606482015260840161030a565b6001600160a01b038316600090815260026020526040902054610527908390610e3b565b6001600160a01b038416600090815260026020526040902081905590506102bc565b6000828152600160205260408120610561908361072b565b9392505050565b6000918252602082815260408084206001600160a01b0393909316845291905290205460ff1690565b60006105bd7f9f2df0fed2c77648de5860a4cc508cd0818c85b8b8a1ab4ceeef8d981c8956a633610568565b6105d95760405162461bcd60e51b815260040161030a90610d92565b6001600160a01b038316600090815260026020526040902054610527908390610de2565b60008181526001602052604081206102bc90610737565b6103d68282610741565b6106288282610767565b5050565b6000610561836001600160a01b0384166107eb565b60006001600160e01b03198216637965db0b60e01b14806102bc57506301ffc9a760e01b6001600160e01b03198316146102bc565b600082815260208190526040902060010154610692813361083a565b6103c78383610767565b6001600160a01b038116331461070c5760405162461bcd60e51b815260206004820152602f60248201527f416363657373436f6e74726f6c3a2063616e206f6e6c792072656e6f756e636560448201526e103937b632b9903337b91039b2b63360891b606482015260840161030a565b610628828261089e565b6000610561836001600160a01b038416610903565b600061056183836109f6565b60006102bc825490565b60008281526020819052604090206001015461075d813361083a565b6103c7838361089e565b6107718282610568565b610628576000828152602081815260408083206001600160a01b03851684529091529020805460ff191660011790556107a73390565b6001600160a01b0316816001600160a01b0316837f2f8788117e7eff1d82e926ec794901d17c78024a50270940304540a733656f0d60405160405180910390a45050565b6000818152600183016020526040812054610832575081546001818101845560008481526020808220909301849055845484825282860190935260409020919091556102bc565b5060006102bc565b6108448282610568565b6106285761085c816001600160a01b03166014610a20565b610867836020610a20565b604051602001610878929190610cea565b60408051601f198184030181529082905262461bcd60e51b825261030a91600401610d5f565b6108a88282610568565b15610628576000828152602081815260408083206001600160a01b0385168085529252808320805460ff1916905551339285917ff6391f5c32d9c69d2a47ea670b442974b53935d1edc7fd64eb21e047a839171b9190a45050565b600081815260018301602052604081205480156109ec576000610927600183610e3b565b855490915060009061093b90600190610e3b565b90508181146109a057600086600001828154811061095b5761095b610ec5565b906000526020600020015490508087600001848154811061097e5761097e610ec5565b6000918252602080832090910192909255918252600188019052604090208390555b85548690806109b1576109b1610eaf565b6001900381819060005260206000200160009055905585600101600086815260200190815260200160002060009055600193505050506102bc565b60009150506102bc565b6000826000018281548110610a0d57610a0d610ec5565b9060005260206000200154905092915050565b60606000610a2f836002610e1c565b610a3a906002610de2565b67ffffffffffffffff811115610a5257610a52610edb565b6040519080825280601f01601f191660200182016040528015610a7c576020820181803683370190505b509050600360fc1b81600081518110610a9757610a97610ec5565b60200101906001600160f81b031916908160001a905350600f60fb1b81600181518110610ac657610ac6610ec5565b60200101906001600160f81b031916908160001a9053506000610aea846002610e1c565b610af5906001610de2565b90505b6001811115610b6d576f181899199a1a9b1b9c1cb0b131b232b360811b85600f1660108110610b2957610b29610ec5565b1a60f81b828281518110610b3f57610b3f610ec5565b60200101906001600160f81b031916908160001a90535060049490941c93610b6681610e82565b9050610af8565b5083156105615760405162461bcd60e51b815260206004820181905260248201527f537472696e67733a20686578206c656e67746820696e73756666696369656e74604482015260640161030a565b80356001600160a01b0381168114610bd357600080fd5b919050565b600060208284031215610bea57600080fd5b61056182610bbc565b600080600060608486031215610c0857600080fd5b610c1184610bbc565b9250610c1f60208501610bbc565b9150604084013590509250925092565b60008060408385031215610c4257600080fd5b610c4b83610bbc565b946020939093013593505050565b600060208284031215610c6b57600080fd5b5035919050565b60008060408385031215610c8557600080fd5b82359150610c9560208401610bbc565b90509250929050565b60008060408385031215610cb157600080fd5b50508035926020909101359150565b600060208284031215610cd257600080fd5b81356001600160e01b03198116811461056157600080fd5b7f416363657373436f6e74726f6c3a206163636f756e7420000000000000000000815260008351610d22816017850160208801610e52565b7001034b99036b4b9b9b4b733903937b6329607d1b6017918401918201528351610d53816028840160208801610e52565b01602801949350505050565b6020815260008251806020840152610d7e816040850160208701610e52565b601f01601f19169190910160400192915050565b60208082526030908201527f5374617274466952657075746174696f6e3a206d7573742068617665206d696e60408201526f1d195c881c9bdb19481d1bc81b5a5b9d60821b606082015260800190565b60008219821115610df557610df5610e99565b500190565b600082610e1757634e487b7160e01b600052601260045260246000fd5b500490565b6000816000190483118215151615610e3657610e36610e99565b500290565b600082821015610e4d57610e4d610e99565b500390565b60005b83811015610e6d578181015183820152602001610e55565b83811115610e7c576000848401525b50505050565b600081610e9157610e91610e99565b506000190190565b634e487b7160e01b600052601160045260246000fd5b634e487b7160e01b600052603160045260246000fd5b634e487b7160e01b600052603260045260246000fd5b634e487b7160e01b600052604160045260246000fdfea26469706673582212208c5fc83df3d35f7e68cac3b58dfa5c1482b373fac906a8ed30faecfff0bea01564736f6c63430008070033",
  "devdoc": {
    "author": "Eman Herawy, StartFi Team",
    "kind": "dev",
    "methods": {
      "burnReputation(address,uint256)": {
        "details": "this function is to burn reputation points for the \"to\"",
        "params": {
          "amount": ": points to be subtract to the \" to \" balance",
          "to": ": reciepiant address"
        },
        "returns": {
          "balance": ": \"to\" current reputation balance"
        }
      },
      "calcAndMintintReputation(address,address,uint256)": {
        "details": "this function is to mint reputation points for the \"to\"",
        "params": {
          "buyer": ": buyer address",
          "seller": ": buyer address",
          "totalAmount": ": price"
        },
        "returns": {
          "_0": "true if it's passed : \"to\" current reputation balance"
        }
      },
      "getRoleAdmin(bytes32)": {
        "details": "Returns the admin role that controls `role`. See {grantRole} and {revokeRole}. To change a role's admin, use {_setRoleAdmin}."
      },
      "getRoleMember(bytes32,uint256)": {
        "details": "Returns one of the accounts that have `role`. `index` must be a value between 0 and {getRoleMemberCount}, non-inclusive. Role bearers are not sorted in any particular way, and their ordering may change at any point. WARNING: When using {getRoleMember} and {getRoleMemberCount}, make sure you perform all queries on the same block. See the following https://forum.openzeppelin.com/t/iterating-over-elements-on-enumerableset-in-openzeppelin-contracts/2296[forum post] for more information."
      },
      "getRoleMemberCount(bytes32)": {
        "details": "Returns the number of accounts that have `role`. Can be used together with {getRoleMember} to enumerate all bearers of a role."
      },
      "grantRole(bytes32,address)": {
        "details": "Overload {grantRole} to track enumerable memberships"
      },
      "hasRole(bytes32,address)": {
        "details": "Returns `true` if `account` has been granted `role`."
      },
      "mintReputation(address,uint256)": {
        "details": "this function is to mint reputation points for the \"to\"",
        "params": {
          "amount": ": points to be added to the \" to \" balance",
          "to": ": reciepiant address"
        },
        "returns": {
          "balance": ": \"to\" current reputation balance"
        }
      },
      "renounceRole(bytes32,address)": {
        "details": "Overload {renounceRole} to track enumerable memberships"
      },
      "revokeRole(bytes32,address)": {
        "details": "Overload {revokeRole} to track enumerable memberships"
      },
      "supportsInterface(bytes4)": {
        "details": "See {IERC165-supportsInterface}."
      }
    },
    "title": "StartFi Reputation contract desc contract to mamange the reputation for startfi users",
    "version": 1
  },
  "userdoc": {
    "kind": "user",
    "methods": {
      "burnReputation(address,uint256)": {
        "notice": "only called by caller in the burner role"
      },
      "calcAndMintintReputation(address,address,uint256)": {
        "notice": "only called by caller in the minter role"
      },
      "mintReputation(address,uint256)": {
        "notice": "only called by caller in the minter role"
      }
    },
    "version": 1
  },
  "storageLayout": {
    "storage": [
      {
        "astId": 24,
        "contract": "contracts/StartFiReputation.sol:StartFiReputation",
        "label": "_roles",
        "offset": 0,
        "slot": "0",
        "type": "t_mapping(t_bytes32,t_struct(RoleData)19_storage)"
      },
      {
        "astId": 325,
        "contract": "contracts/StartFiReputation.sol:StartFiReputation",
        "label": "_roleMembers",
        "offset": 0,
        "slot": "1",
        "type": "t_mapping(t_bytes32,t_struct(AddressSet)3943_storage)"
      },
      {
        "astId": 8966,
        "contract": "contracts/StartFiReputation.sol:StartFiReputation",
        "label": "userReputation",
        "offset": 0,
        "slot": "2",
        "type": "t_mapping(t_address,t_uint256)"
      }
    ],
    "types": {
      "t_address": {
        "encoding": "inplace",
        "label": "address",
        "numberOfBytes": "20"
      },
      "t_array(t_bytes32)dyn_storage": {
        "base": "t_bytes32",
        "encoding": "dynamic_array",
        "label": "bytes32[]",
        "numberOfBytes": "32"
      },
      "t_bool": {
        "encoding": "inplace",
        "label": "bool",
        "numberOfBytes": "1"
      },
      "t_bytes32": {
        "encoding": "inplace",
        "label": "bytes32",
        "numberOfBytes": "32"
      },
      "t_mapping(t_address,t_bool)": {
        "encoding": "mapping",
        "key": "t_address",
        "label": "mapping(address => bool)",
        "numberOfBytes": "32",
        "value": "t_bool"
      },
      "t_mapping(t_address,t_uint256)": {
        "encoding": "mapping",
        "key": "t_address",
        "label": "mapping(address => uint256)",
        "numberOfBytes": "32",
        "value": "t_uint256"
      },
      "t_mapping(t_bytes32,t_struct(AddressSet)3943_storage)": {
        "encoding": "mapping",
        "key": "t_bytes32",
        "label": "mapping(bytes32 => struct EnumerableSet.AddressSet)",
        "numberOfBytes": "32",
        "value": "t_struct(AddressSet)3943_storage"
      },
      "t_mapping(t_bytes32,t_struct(RoleData)19_storage)": {
        "encoding": "mapping",
        "key": "t_bytes32",
        "label": "mapping(bytes32 => struct AccessControl.RoleData)",
        "numberOfBytes": "32",
        "value": "t_struct(RoleData)19_storage"
      },
      "t_mapping(t_bytes32,t_uint256)": {
        "encoding": "mapping",
        "key": "t_bytes32",
        "label": "mapping(bytes32 => uint256)",
        "numberOfBytes": "32",
        "value": "t_uint256"
      },
      "t_struct(AddressSet)3943_storage": {
        "encoding": "inplace",
        "label": "struct EnumerableSet.AddressSet",
        "members": [
          {
            "astId": 3942,
            "contract": "contracts/StartFiReputation.sol:StartFiReputation",
            "label": "_inner",
            "offset": 0,
            "slot": "0",
            "type": "t_struct(Set)3642_storage"
          }
        ],
        "numberOfBytes": "64"
      },
      "t_struct(RoleData)19_storage": {
        "encoding": "inplace",
        "label": "struct AccessControl.RoleData",
        "members": [
          {
            "astId": 16,
            "contract": "contracts/StartFiReputation.sol:StartFiReputation",
            "label": "members",
            "offset": 0,
            "slot": "0",
            "type": "t_mapping(t_address,t_bool)"
          },
          {
            "astId": 18,
            "contract": "contracts/StartFiReputation.sol:StartFiReputation",
            "label": "adminRole",
            "offset": 0,
            "slot": "1",
            "type": "t_bytes32"
          }
        ],
        "numberOfBytes": "64"
      },
      "t_struct(Set)3642_storage": {
        "encoding": "inplace",
        "label": "struct EnumerableSet.Set",
        "members": [
          {
            "astId": 3637,
            "contract": "contracts/StartFiReputation.sol:StartFiReputation",
            "label": "_values",
            "offset": 0,
            "slot": "0",
            "type": "t_array(t_bytes32)dyn_storage"
          },
          {
            "astId": 3641,
            "contract": "contracts/StartFiReputation.sol:StartFiReputation",
            "label": "_indexes",
            "offset": 0,
            "slot": "1",
            "type": "t_mapping(t_bytes32,t_uint256)"
          }
        ],
        "numberOfBytes": "64"
      },
      "t_uint256": {
        "encoding": "inplace",
        "label": "uint256",
        "numberOfBytes": "32"
      }
    }
  }
}