{
  "address": "0x9DD41ECd6e1701CE34523ed98423c1eFb0805aBD",
  "abi": [
    {
      "anonymous": false,
      "inputs": [
        {
          "indexed": false,
          "internalType": "address",
          "name": "addr",
          "type": "address"
        },
        {
          "indexed": false,
          "internalType": "uint256",
          "name": "value",
          "type": "uint256"
        },
        {
          "indexed": false,
          "internalType": "bytes32",
          "name": "salt",
          "type": "bytes32"
        }
      ],
      "name": "Deployed",
      "type": "event"
    },
    {
      "inputs": [
        {
          "internalType": "bytes32",
          "name": "salt",
          "type": "bytes32"
        },
        {
          "internalType": "bytes32",
          "name": "codeHash",
          "type": "bytes32"
        }
      ],
      "name": "computeAddress",
      "outputs": [
        {
          "internalType": "address",
          "name": "",
          "type": "address"
        }
      ],
      "stateMutability": "view",
      "type": "function"
    },
    {
      "inputs": [
        {
          "internalType": "uint256",
          "name": "value",
          "type": "uint256"
        },
        {
          "internalType": "bytes32",
          "name": "salt",
          "type": "bytes32"
        },
        {
          "internalType": "bytes",
          "name": "code",
          "type": "bytes"
        }
      ],
      "name": "deploy",
      "outputs": [
        {
          "internalType": "address",
          "name": "newAddress",
          "type": "address"
        }
      ],
      "stateMutability": "nonpayable",
      "type": "function"
    }
  ],
  "transactionHash": "0x672f05d97cdf81165813b7fe9b7f3bfc3e34e8b133e93c91b11f198290a6c7b1",
  "args": [],
  "solcInputHash": "4dcafc6e0403da1772017979172c9b95",
  "bytecode": "0x608060405234801561001057600080fd5b5061038e806100206000396000f3fe608060405234801561001057600080fd5b50600436106100365760003560e01c8063481286e61461003b57806366cfa0571461006a575b600080fd5b61004e61004936600461025c565b61007d565b6040516001600160a01b03909116815260200160405180910390f35b61004e61007836600461027e565b610090565b600061008983836100f1565b9392505050565b600061009d84848461014d565b604080516001600160a01b0383168152602081018790529081018590529091507f74b412106d13cbc6ab8d1233d1a7cbb6d6e5f73714818298134e1333995300099060600160405180910390a19392505050565b604080516001600160f81b03196020808301919091526bffffffffffffffffffffffff193060601b1660218301526035820185905260558083018590528351808403909101815260759092019092528051910120600090610089565b600080844710156101a55760405162461bcd60e51b815260206004820152601d60248201527f437265617465323a20696e73756666696369656e742062616c616e636500000060448201526064015b60405180910390fd5b82516101f35760405162461bcd60e51b815260206004820181905260248201527f437265617465323a2062797465636f6465206c656e677468206973207a65726f604482015260640161019c565b8383516020850187f590506001600160a01b0381166102545760405162461bcd60e51b815260206004820152601960248201527f437265617465323a204661696c6564206f6e206465706c6f7900000000000000604482015260640161019c565b949350505050565b6000806040838503121561026f57600080fd5b50508035926020909101359150565b60008060006060848603121561029357600080fd5b8335925060208401359150604084013567ffffffffffffffff808211156102b957600080fd5b818601915086601f8301126102cd57600080fd5b8135818111156102df576102df610342565b604051601f8201601f19908116603f0116810190838211818310171561030757610307610342565b8160405282815289602084870101111561032057600080fd5b8260208601602083013760006020848301015280955050505050509250925092565b634e487b7160e01b600052604160045260246000fdfea264697066735822122012796cde1a1694bce1677b7475460e8f79eb79e06f9ddc4bf2780d569a0516f364736f6c63430008070033",
  "devdoc": {
    "events": {
      "Deployed(address,uint256,bytes32)": {
        "details": "Deploys a contract using `CREATE2`. The address where the contract will be deployed can be known in advance via {computeAddress}. The bytecode for a contract can be obtained from Solidity with `type(contractName).creationCode`. Requirements: - `bytecode` must not be empty. - `salt` must have not been used for `bytecode` already. - the factory must have a balance of at least `value`. - if `value` is non-zero, `bytecode` must have a `payable` constructor."
      }
    },
    "kind": "dev",
    "methods": {
      "computeAddress(bytes32,bytes32)": {
        "details": "Returns the address where a contract will be stored if deployed via {deploy}. Any change in the `bytecodeHash` or `salt` will result in a new destination address."
      }
    },
    "title": "CREATE2 Deployer Smart Contract",
    "version": 1
  },
  "userdoc": {
    "kind": "user",
    "methods": {},
    "version": 1
  },
  "storageLayout": {
    "storage": [],
    "types": null
  }
}