{
  "address": "0x5171e2d76B3D114e06712320D5c1534cB0107455",
  "abi": [
    {
      "inputs": [
        {
          "internalType": "string",
          "name": "_marketPlaceName",
          "type": "string"
        },
        {
          "internalType": "address",
          "name": "_paymentContract",
          "type": "address"
        },
        {
          "internalType": "address",
          "name": "_stakeContract",
          "type": "address"
        },
        {
          "internalType": "address",
          "name": "adminWallet",
          "type": "address"
        },
        {
          "internalType": "uint256",
          "name": "usdCap_",
          "type": "uint256"
        },
        {
          "internalType": "uint256",
          "name": "stfiCap_",
          "type": "uint256"
        },
        {
          "internalType": "uint256",
          "name": "stfiUsdt_",
          "type": "uint256"
        }
      ],
      "stateMutability": "nonpayable",
      "type": "constructor"
    },
    {
      "anonymous": false,
      "inputs": [
        {
          "indexed": false,
          "internalType": "bytes32",
          "name": "bidId",
          "type": "bytes32"
        },
        {
          "indexed": true,
          "internalType": "bytes32",
          "name": "listingId",
          "type": "bytes32"
        },
        {
          "indexed": false,
          "internalType": "address",
          "name": "bidder",
          "type": "address"
        },
        {
          "indexed": false,
          "internalType": "uint256",
          "name": "bidPrice",
          "type": "uint256"
        },
        {
          "indexed": false,
          "internalType": "uint256",
          "name": "timestamp",
          "type": "uint256"
        }
      ],
      "name": "BidOnAuction",
      "type": "event"
    },
    {
      "anonymous": false,
      "inputs": [
        {
          "indexed": true,
          "internalType": "bytes32",
          "name": "listId",
          "type": "bytes32"
        },
        {
          "indexed": false,
          "internalType": "address",
          "name": "token",
          "type": "address"
        },
        {
          "indexed": false,
          "internalType": "address",
          "name": "buyer",
          "type": "address"
        },
        {
          "indexed": false,
          "internalType": "address",
          "name": "seller",
          "type": "address"
        },
        {
          "indexed": false,
          "internalType": "uint256",
          "name": "tokenId",
          "type": "uint256"
        },
        {
          "indexed": false,
          "internalType": "uint256",
          "name": "sellingPrice",
          "type": "uint256"
        },
        {
          "indexed": false,
          "internalType": "address",
          "name": "issuer",
          "type": "address"
        },
        {
          "indexed": false,
          "internalType": "uint256",
          "name": "royaltyAmount",
          "type": "uint256"
        },
        {
          "indexed": false,
          "internalType": "uint256",
          "name": "fees",
          "type": "uint256"
        },
        {
          "indexed": false,
          "internalType": "uint256",
          "name": "netPrice",
          "type": "uint256"
        },
        {
          "indexed": false,
          "internalType": "uint256",
          "name": "timestamp",
          "type": "uint256"
        }
      ],
      "name": "BuyNow",
      "type": "event"
    },
    {
      "anonymous": false,
      "inputs": [
        {
          "indexed": false,
          "internalType": "uint256",
          "name": "newFees",
          "type": "uint256"
        },
        {
          "indexed": false,
          "internalType": "uint256",
          "name": "newBase",
          "type": "uint256"
        }
      ],
      "name": "ChangeFees",
      "type": "event"
    },
    {
      "anonymous": false,
      "inputs": [
        {
          "indexed": false,
          "internalType": "uint256",
          "name": "duration",
          "type": "uint256"
        }
      ],
      "name": "ChangeFulfillDuration",
      "type": "event"
    },
    {
      "anonymous": false,
      "inputs": [
        {
          "indexed": false,
          "internalType": "uint256",
          "name": "newFees",
          "type": "uint256"
        },
        {
          "indexed": false,
          "internalType": "uint256",
          "name": "newBase",
          "type": "uint256"
        }
      ],
      "name": "ChangeListInsuranceAmount",
      "type": "event"
    },
    {
      "anonymous": false,
      "inputs": [
        {
          "indexed": false,
          "internalType": "string",
          "name": "Name",
          "type": "string"
        }
      ],
      "name": "ChangeMarketPlaceName",
      "type": "event"
    },
    {
      "anonymous": false,
      "inputs": [
        {
          "indexed": false,
          "internalType": "address",
          "name": "reputationContract",
          "type": "address"
        }
      ],
      "name": "ChangeReputationContract",
      "type": "event"
    },
    {
      "anonymous": false,
      "inputs": [
        {
          "indexed": false,
          "internalType": "address",
          "name": "utiltiyToken",
          "type": "address"
        }
      ],
      "name": "ChangeUtilityToken",
      "type": "event"
    },
    {
      "anonymous": false,
      "inputs": [
        {
          "indexed": false,
          "internalType": "bytes32",
          "name": "listId",
          "type": "bytes32"
        },
        {
          "indexed": true,
          "internalType": "address",
          "name": "token",
          "type": "address"
        },
        {
          "indexed": false,
          "internalType": "address",
          "name": "seller",
          "type": "address"
        },
        {
          "indexed": true,
          "internalType": "uint256",
          "name": "tokenId",
          "type": "uint256"
        },
        {
          "indexed": false,
          "internalType": "uint256",
          "name": "listingPrice",
          "type": "uint256"
        },
        {
          "indexed": false,
          "internalType": "uint256",
          "name": "minimumBid",
          "type": "uint256"
        },
        {
          "indexed": false,
          "internalType": "uint256",
          "name": "releaseTime",
          "type": "uint256"
        },
        {
          "indexed": false,
          "internalType": "uint256",
          "name": "insuranceAmount",
          "type": "uint256"
        },
        {
          "indexed": false,
          "internalType": "uint256",
          "name": "timestamp",
          "type": "uint256"
        }
      ],
      "name": "CreateAuction",
      "type": "event"
    },
    {
      "anonymous": false,
      "inputs": [
        {
          "indexed": false,
          "internalType": "bytes32",
          "name": "listId",
          "type": "bytes32"
        },
        {
          "indexed": false,
          "internalType": "address",
          "name": "token",
          "type": "address"
        },
        {
          "indexed": false,
          "internalType": "address",
          "name": "owner",
          "type": "address"
        },
        {
          "indexed": false,
          "internalType": "uint256",
          "name": "tokenId",
          "type": "uint256"
        },
        {
          "indexed": false,
          "internalType": "uint256",
          "name": "timestamp",
          "type": "uint256"
        }
      ],
      "name": "DeListOffMarketplace",
      "type": "event"
    },
    {
      "anonymous": false,
      "inputs": [
        {
          "indexed": false,
          "internalType": "bytes32",
          "name": "bidId",
          "type": "bytes32"
        },
        {
          "indexed": true,
          "internalType": "bytes32",
          "name": "listingId",
          "type": "bytes32"
        },
        {
          "indexed": false,
          "internalType": "address",
          "name": "tokenAddress",
          "type": "address"
        },
        {
          "indexed": false,
          "internalType": "address",
          "name": "bidder",
          "type": "address"
        },
        {
          "indexed": false,
          "internalType": "uint256",
          "name": "tokenId",
          "type": "uint256"
        },
        {
          "indexed": false,
          "internalType": "address",
          "name": "seller",
          "type": "address"
        },
        {
          "indexed": false,
          "internalType": "uint256",
          "name": "insuranceAmount",
          "type": "uint256"
        },
        {
          "indexed": false,
          "internalType": "uint256",
          "name": "remaining",
          "type": "uint256"
        },
        {
          "indexed": false,
          "internalType": "uint256",
          "name": "finefees",
          "type": "uint256"
        },
        {
          "indexed": false,
          "internalType": "uint256",
          "name": "timestamp",
          "type": "uint256"
        }
      ],
      "name": "DisputeAuction",
      "type": "event"
    },
    {
      "anonymous": false,
      "inputs": [
        {
          "indexed": false,
          "internalType": "bytes32",
          "name": "bidId",
          "type": "bytes32"
        },
        {
          "indexed": true,
          "internalType": "bytes32",
          "name": "listingId",
          "type": "bytes32"
        },
        {
          "indexed": false,
          "internalType": "address",
          "name": "tokenAddress",
          "type": "address"
        },
        {
          "indexed": false,
          "internalType": "address",
          "name": "bidder",
          "type": "address"
        },
        {
          "indexed": false,
          "internalType": "uint256",
          "name": "tokenId",
          "type": "uint256"
        },
        {
          "indexed": false,
          "internalType": "uint256",
          "name": "bidPrice",
          "type": "uint256"
        },
        {
          "indexed": false,
          "internalType": "address",
          "name": "issuer",
          "type": "address"
        },
        {
          "indexed": false,
          "internalType": "uint256",
          "name": "royaltyAmount",
          "type": "uint256"
        },
        {
          "indexed": false,
          "internalType": "uint256",
          "name": "fees",
          "type": "uint256"
        },
        {
          "indexed": false,
          "internalType": "uint256",
          "name": "netPrice",
          "type": "uint256"
        },
        {
          "indexed": false,
          "internalType": "uint256",
          "name": "timestamp",
          "type": "uint256"
        }
      ],
      "name": "FulfillBid",
      "type": "event"
    },
    {
      "anonymous": false,
      "inputs": [
        {
          "indexed": true,
          "internalType": "bytes32",
          "name": "listId",
          "type": "bytes32"
        },
        {
          "indexed": false,
          "internalType": "address",
          "name": "approver",
          "type": "address"
        },
        {
          "indexed": false,
          "internalType": "bool",
          "name": "status",
          "type": "bool"
        },
        {
          "indexed": false,
          "internalType": "uint256",
          "name": "timestamp",
          "type": "uint256"
        }
      ],
      "name": "HandelKyc",
      "type": "event"
    },
    {
      "anonymous": false,
      "inputs": [
        {
          "indexed": false,
          "internalType": "bytes32",
          "name": "listId",
          "type": "bytes32"
        },
        {
          "indexed": true,
          "internalType": "address",
          "name": "token",
          "type": "address"
        },
        {
          "indexed": false,
          "internalType": "address",
          "name": "seller",
          "type": "address"
        },
        {
          "indexed": true,
          "internalType": "uint256",
          "name": "tokenId",
          "type": "uint256"
        },
        {
          "indexed": false,
          "internalType": "uint256",
          "name": "listingPrice",
          "type": "uint256"
        },
        {
          "indexed": false,
          "internalType": "uint256",
          "name": "timestamp",
          "type": "uint256"
        }
      ],
      "name": "ListOnMarketplace",
      "type": "event"
    },
    {
      "anonymous": false,
      "inputs": [
        {
          "indexed": false,
          "internalType": "bytes32",
          "name": "listId",
          "type": "bytes32"
        },
        {
          "indexed": false,
          "internalType": "address",
          "name": "token",
          "type": "address"
        },
        {
          "indexed": false,
          "internalType": "address",
          "name": "owner",
          "type": "address"
        },
        {
          "indexed": false,
          "internalType": "uint256",
          "name": "tokenId",
          "type": "uint256"
        },
        {
          "indexed": false,
          "internalType": "uint256",
          "name": "fineFees",
          "type": "uint256"
        },
        {
          "indexed": false,
          "internalType": "uint256",
          "name": "releaseTime",
          "type": "uint256"
        },
        {
          "indexed": false,
          "internalType": "uint256",
          "name": "timestamp",
          "type": "uint256"
        }
      ],
      "name": "MigrateEmergency",
      "type": "event"
    },
    {
      "anonymous": false,
      "inputs": [
        {
          "indexed": false,
          "internalType": "address",
          "name": "admin",
          "type": "address"
        },
        {
          "indexed": false,
          "internalType": "address",
          "name": "wallet",
          "type": "address"
        },
        {
          "indexed": false,
          "internalType": "uint256",
          "name": "_fee",
          "type": "uint256"
        },
        {
          "indexed": false,
          "internalType": "uint256",
          "name": "_feeBase",
          "type": "uint256"
        }
      ],
      "name": "NewOffer",
      "type": "event"
    },
    {
      "anonymous": false,
      "inputs": [
        {
          "indexed": false,
          "internalType": "address",
          "name": "account",
          "type": "address"
        }
      ],
      "name": "Paused",
      "type": "event"
    },
    {
      "anonymous": false,
      "inputs": [
        {
          "indexed": true,
          "internalType": "bytes32",
          "name": "role",
          "type": "bytes32"
        },
        {
          "indexed": true,
          "internalType": "bytes32",
          "name": "previousAdminRole",
          "type": "bytes32"
        },
        {
          "indexed": true,
          "internalType": "bytes32",
          "name": "newAdminRole",
          "type": "bytes32"
        }
      ],
      "name": "RoleAdminChanged",
      "type": "event"
    },
    {
      "anonymous": false,
      "inputs": [
        {
          "indexed": true,
          "internalType": "bytes32",
          "name": "role",
          "type": "bytes32"
        },
        {
          "indexed": true,
          "internalType": "address",
          "name": "account",
          "type": "address"
        },
        {
          "indexed": true,
          "internalType": "address",
          "name": "sender",
          "type": "address"
        }
      ],
      "name": "RoleGranted",
      "type": "event"
    },
    {
      "anonymous": false,
      "inputs": [
        {
          "indexed": true,
          "internalType": "bytes32",
          "name": "role",
          "type": "bytes32"
        },
        {
          "indexed": true,
          "internalType": "address",
          "name": "account",
          "type": "address"
        },
        {
          "indexed": true,
          "internalType": "address",
          "name": "sender",
          "type": "address"
        }
      ],
      "name": "RoleRevoked",
      "type": "event"
    },
    {
      "anonymous": false,
      "inputs": [
        {
          "indexed": false,
          "internalType": "address",
          "name": "account",
          "type": "address"
        }
      ],
      "name": "Unpaused",
      "type": "event"
    },
    {
      "anonymous": false,
      "inputs": [
        {
          "indexed": false,
          "internalType": "address",
          "name": "newWallet",
          "type": "address"
        }
      ],
      "name": "UpdateAdminWallet",
      "type": "event"
    },
    {
      "anonymous": false,
      "inputs": [
        {
          "indexed": false,
          "internalType": "address",
          "name": "user",
          "type": "address"
        },
        {
          "indexed": false,
          "internalType": "uint256",
          "name": "lastReserves",
          "type": "uint256"
        },
        {
          "indexed": false,
          "internalType": "uint256",
          "name": "newReserves",
          "type": "uint256"
        },
        {
          "indexed": false,
          "internalType": "uint256",
          "name": "timestamp",
          "type": "uint256"
        }
      ],
      "name": "UserReservesRelease",
      "type": "event"
    },
    {
      "inputs": [],
      "name": "DEFAULT_ADMIN_ROLE",
      "outputs": [
        {
          "internalType": "bytes32",
          "name": "",
          "type": "bytes32"
        }
      ],
      "stateMutability": "view",
      "type": "function"
    },
    {
      "inputs": [],
      "name": "OWNER_ROLE",
      "outputs": [
        {
          "internalType": "bytes32",
          "name": "",
          "type": "bytes32"
        }
      ],
      "stateMutability": "view",
      "type": "function"
    },
    {
      "inputs": [],
      "name": "PRICE_FEEDER_ROLE",
      "outputs": [
        {
          "internalType": "bytes32",
          "name": "",
          "type": "bytes32"
        }
      ],
      "stateMutability": "view",
      "type": "function"
    },
    {
      "inputs": [
        {
          "internalType": "address",
          "name": "wallet",
          "type": "address"
        },
        {
          "internalType": "uint256",
          "name": "_fee",
          "type": "uint256"
        },
        {
          "internalType": "uint256",
          "name": "feeBase",
          "type": "uint256"
        }
      ],
      "name": "addOffer",
      "outputs": [],
      "stateMutability": "nonpayable",
      "type": "function"
    },
    {
      "inputs": [
        {
          "internalType": "bytes32",
          "name": "listingId",
          "type": "bytes32"
        },
        {
          "internalType": "bool",
          "name": "status",
          "type": "bool"
        }
      ],
      "name": "approveDeal",
      "outputs": [],
      "stateMutability": "nonpayable",
      "type": "function"
    },
    {
      "inputs": [
        {
          "internalType": "bytes32",
          "name": "listingId",
          "type": "bytes32"
        },
        {
          "internalType": "uint256",
          "name": "bidPrice",
          "type": "uint256"
        }
      ],
      "name": "bid",
      "outputs": [],
      "stateMutability": "nonpayable",
      "type": "function"
    },
    {
      "inputs": [
        {
          "internalType": "bytes32",
          "name": "listingId",
          "type": "bytes32"
        }
      ],
      "name": "buyNow",
      "outputs": [],
      "stateMutability": "nonpayable",
      "type": "function"
    },
    {
      "inputs": [
        {
          "internalType": "bytes32",
          "name": "listingId",
          "type": "bytes32"
        },
        {
          "internalType": "uint256",
          "name": "price",
          "type": "uint256"
        },
        {
          "internalType": "uint256",
          "name": "deadline",
          "type": "uint256"
        },
        {
          "internalType": "uint8",
          "name": "v",
          "type": "uint8"
        },
        {
          "internalType": "bytes32",
          "name": "r",
          "type": "bytes32"
        },
        {
          "internalType": "bytes32",
          "name": "s",
          "type": "bytes32"
        }
      ],
      "name": "buyNowWithPermit",
      "outputs": [],
      "stateMutability": "nonpayable",
      "type": "function"
    },
    {
      "inputs": [
        {
          "internalType": "uint256",
          "name": "numerator",
          "type": "uint256"
        },
        {
          "internalType": "uint256",
          "name": "donomirator",
          "type": "uint256"
        }
      ],
      "name": "changeFees",
      "outputs": [
        {
          "internalType": "uint256",
          "name": "percentage",
          "type": "uint256"
        }
      ],
      "stateMutability": "nonpayable",
      "type": "function"
    },
    {
      "inputs": [
        {
          "internalType": "uint256",
          "name": "_duration",
          "type": "uint256"
        }
      ],
      "name": "changeFulfillDuration",
      "outputs": [],
      "stateMutability": "nonpayable",
      "type": "function"
    },
    {
      "inputs": [
        {
          "internalType": "uint256",
          "name": "numerator",
          "type": "uint256"
        },
        {
          "internalType": "uint256",
          "name": "donomirator",
          "type": "uint256"
        }
      ],
      "name": "changeListInsuranceAmount",
      "outputs": [
        {
          "internalType": "uint256",
          "name": "percentage",
          "type": "uint256"
        }
      ],
      "stateMutability": "nonpayable",
      "type": "function"
    },
    {
      "inputs": [
        {
          "internalType": "string",
          "name": "_name",
          "type": "string"
        }
      ],
      "name": "changeMarketPlaceName",
      "outputs": [],
      "stateMutability": "nonpayable",
      "type": "function"
    },
    {
      "inputs": [
        {
          "internalType": "address",
          "name": "_token",
          "type": "address"
        }
      ],
      "name": "changeUtilityToken",
      "outputs": [],
      "stateMutability": "nonpayable",
      "type": "function"
    },
    {
      "inputs": [
        {
          "internalType": "address",
          "name": "token",
          "type": "address"
        },
        {
          "internalType": "uint256",
          "name": "tokenId",
          "type": "uint256"
        },
        {
          "internalType": "uint256",
          "name": "minimumBid",
          "type": "uint256"
        },
        {
          "internalType": "uint256",
          "name": "insuranceAmount",
          "type": "uint256"
        },
        {
          "internalType": "bool",
          "name": "isSellForEnabled",
          "type": "bool"
        },
        {
          "internalType": "uint256",
          "name": "listingPrice",
          "type": "uint256"
        },
        {
          "internalType": "uint256",
          "name": "duration",
          "type": "uint256"
        }
      ],
      "name": "createAuction",
      "outputs": [
        {
          "internalType": "bytes32",
          "name": "listId",
          "type": "bytes32"
        }
      ],
      "stateMutability": "nonpayable",
      "type": "function"
    },
    {
      "inputs": [
        {
          "internalType": "address",
          "name": "token",
          "type": "address"
        },
        {
          "internalType": "uint256",
          "name": "tokenId",
          "type": "uint256"
        },
        {
          "internalType": "uint256",
          "name": "minimumBid",
          "type": "uint256"
        },
        {
          "internalType": "uint256",
          "name": "insuranceAmount",
          "type": "uint256"
        },
        {
          "internalType": "bool",
          "name": "isSellForEnabled",
          "type": "bool"
        },
        {
          "internalType": "uint256",
          "name": "listingPrice",
          "type": "uint256"
        },
        {
          "internalType": "uint256",
          "name": "duration",
          "type": "uint256"
        },
        {
          "internalType": "uint256",
          "name": "deadline",
          "type": "uint256"
        },
        {
          "internalType": "uint8",
          "name": "v",
          "type": "uint8"
        },
        {
          "internalType": "bytes32",
          "name": "r",
          "type": "bytes32"
        },
        {
          "internalType": "bytes32",
          "name": "s",
          "type": "bytes32"
        }
      ],
      "name": "createAuctionWithPermit",
      "outputs": [
        {
          "internalType": "bytes32",
          "name": "listId",
          "type": "bytes32"
        }
      ],
      "stateMutability": "nonpayable",
      "type": "function"
    },
    {
      "inputs": [
        {
          "internalType": "bytes32",
          "name": "listingId",
          "type": "bytes32"
        }
      ],
      "name": "deList",
      "outputs": [],
      "stateMutability": "nonpayable",
      "type": "function"
    },
    {
      "inputs": [
        {
          "internalType": "bytes32",
          "name": "listingId",
          "type": "bytes32"
        }
      ],
      "name": "disputeAuction",
      "outputs": [
        {
          "internalType": "address",
          "name": "_token",
          "type": "address"
        },
        {
          "internalType": "uint256",
          "name": "tokenId",
          "type": "uint256"
        }
      ],
      "stateMutability": "nonpayable",
      "type": "function"
    },
    {
      "inputs": [
        {
          "internalType": "bytes32",
          "name": "listingId",
          "type": "bytes32"
        }
      ],
      "name": "fulfillBid",
      "outputs": [],
      "stateMutability": "nonpayable",
      "type": "function"
    },
    {
      "inputs": [
        {
          "internalType": "bytes32",
          "name": "listingId",
          "type": "bytes32"
        },
        {
          "internalType": "uint256",
          "name": "deadline",
          "type": "uint256"
        },
        {
          "internalType": "uint8",
          "name": "v",
          "type": "uint8"
        },
        {
          "internalType": "bytes32",
          "name": "r",
          "type": "bytes32"
        },
        {
          "internalType": "bytes32",
          "name": "s",
          "type": "bytes32"
        }
      ],
      "name": "fulfillBidWithPermit",
      "outputs": [],
      "stateMutability": "nonpayable",
      "type": "function"
    },
    {
      "inputs": [],
      "name": "fulfillDuration",
      "outputs": [
        {
          "internalType": "uint256",
          "name": "",
          "type": "uint256"
        }
      ],
      "stateMutability": "view",
      "type": "function"
    },
    {
      "inputs": [
        {
          "internalType": "bytes32",
          "name": "listingId",
          "type": "bytes32"
        },
        {
          "internalType": "address",
          "name": "bidder",
          "type": "address"
        }
      ],
      "name": "getAuctionBidDetails",
      "outputs": [
        {
          "internalType": "bytes32",
          "name": "bidId",
          "type": "bytes32"
        },
        {
          "internalType": "uint256",
          "name": "bidPrice",
          "type": "uint256"
        },
        {
          "internalType": "bool",
          "name": "isPurchased",
          "type": "bool"
        },
        {
          "internalType": "bool",
          "name": "isStakeReserved",
          "type": "bool"
        }
      ],
      "stateMutability": "view",
      "type": "function"
    },
    {
      "inputs": [
        {
          "internalType": "bytes32",
          "name": "listingId",
          "type": "bytes32"
        }
      ],
      "name": "getListingDetails",
      "outputs": [
        {
          "internalType": "address",
          "name": "tokenAddress",
          "type": "address"
        },
        {
          "internalType": "address",
          "name": "seller",
          "type": "address"
        },
        {
          "internalType": "address",
          "name": "buyer",
          "type": "address"
        },
        {
          "internalType": "uint256",
          "name": "tokenId",
          "type": "uint256"
        },
        {
          "internalType": "uint256",
          "name": "listingPrice",
          "type": "uint256"
        },
        {
          "internalType": "uint256",
          "name": "releaseTime",
          "type": "uint256"
        },
        {
          "internalType": "uint256",
          "name": "disputeTime",
          "type": "uint256"
        },
        {
          "internalType": "uint256",
          "name": "insuranceAmount",
          "type": "uint256"
        },
        {
          "internalType": "uint256",
          "name": "minimumBid",
          "type": "uint256"
        },
        {
          "internalType": "uint256",
          "name": "listingType",
          "type": "uint256"
        },
        {
          "internalType": "uint256",
          "name": "status",
          "type": "uint256"
        }
      ],
      "stateMutability": "view",
      "type": "function"
    },
    {
      "inputs": [
        {
          "internalType": "address",
          "name": "wallet",
          "type": "address"
        }
      ],
      "name": "getOffer",
      "outputs": [
        {
          "internalType": "uint256",
          "name": "_fee",
          "type": "uint256"
        },
        {
          "internalType": "uint256",
          "name": "_base",
          "type": "uint256"
        }
      ],
      "stateMutability": "view",
      "type": "function"
    },
    {
      "inputs": [
        {
          "internalType": "bytes32",
          "name": "role",
          "type": "bytes32"
        }
      ],
      "name": "getRoleAdmin",
      "outputs": [
        {
          "internalType": "bytes32",
          "name": "",
          "type": "bytes32"
        }
      ],
      "stateMutability": "view",
      "type": "function"
    },
    {
      "inputs": [
        {
          "internalType": "bytes32",
          "name": "role",
          "type": "bytes32"
        },
        {
          "internalType": "uint256",
          "name": "index",
          "type": "uint256"
        }
      ],
      "name": "getRoleMember",
      "outputs": [
        {
          "internalType": "address",
          "name": "",
          "type": "address"
        }
      ],
      "stateMutability": "view",
      "type": "function"
    },
    {
      "inputs": [
        {
          "internalType": "bytes32",
          "name": "role",
          "type": "bytes32"
        }
      ],
      "name": "getRoleMemberCount",
      "outputs": [
        {
          "internalType": "uint256",
          "name": "",
          "type": "uint256"
        }
      ],
      "stateMutability": "view",
      "type": "function"
    },
    {
      "inputs": [],
      "name": "getServiceFee",
      "outputs": [
        {
          "internalType": "uint256",
          "name": "",
          "type": "uint256"
        }
      ],
      "stateMutability": "view",
      "type": "function"
    },
    {
      "inputs": [
        {
          "internalType": "address",
          "name": "staker",
          "type": "address"
        }
      ],
      "name": "getStakeAllowance",
      "outputs": [
        {
          "internalType": "uint256",
          "name": "",
          "type": "uint256"
        }
      ],
      "stateMutability": "view",
      "type": "function"
    },
    {
      "inputs": [
        {
          "internalType": "address",
          "name": "user",
          "type": "address"
        }
      ],
      "name": "getUserReserved",
      "outputs": [
        {
          "internalType": "uint256",
          "name": "",
          "type": "uint256"
        }
      ],
      "stateMutability": "view",
      "type": "function"
    },
    {
      "inputs": [
        {
          "internalType": "bytes32",
          "name": "role",
          "type": "bytes32"
        },
        {
          "internalType": "address",
          "name": "account",
          "type": "address"
        }
      ],
      "name": "grantRole",
      "outputs": [],
      "stateMutability": "nonpayable",
      "type": "function"
    },
    {
      "inputs": [
        {
          "internalType": "bytes32",
          "name": "role",
          "type": "bytes32"
        },
        {
          "internalType": "address",
          "name": "account",
          "type": "address"
        }
      ],
      "name": "hasRole",
      "outputs": [
        {
          "internalType": "bool",
          "name": "",
          "type": "bool"
        }
      ],
      "stateMutability": "view",
      "type": "function"
    },
    {
      "inputs": [
        {
          "internalType": "bytes32",
          "name": "listingId",
          "type": "bytes32"
        }
      ],
      "name": "isApprovedDeal",
      "outputs": [
        {
          "internalType": "bool",
          "name": "status",
          "type": "bool"
        }
      ],
      "stateMutability": "view",
      "type": "function"
    },
    {
      "inputs": [
        {
          "internalType": "address",
          "name": "token",
          "type": "address"
        },
        {
          "internalType": "uint256",
          "name": "tokenId",
          "type": "uint256"
        },
        {
          "internalType": "uint256",
          "name": "listingPrice",
          "type": "uint256"
        }
      ],
      "name": "listOnMarketplace",
      "outputs": [],
      "stateMutability": "nonpayable",
      "type": "function"
    },
    {
      "inputs": [
        {
          "internalType": "address",
          "name": "token",
          "type": "address"
        },
        {
          "internalType": "uint256",
          "name": "tokenId",
          "type": "uint256"
        },
        {
          "internalType": "uint256",
          "name": "listingPrice",
          "type": "uint256"
        },
        {
          "internalType": "uint256",
          "name": "deadline",
          "type": "uint256"
        },
        {
          "internalType": "uint8",
          "name": "v",
          "type": "uint8"
        },
        {
          "internalType": "bytes32",
          "name": "r",
          "type": "bytes32"
        },
        {
          "internalType": "bytes32",
          "name": "s",
          "type": "bytes32"
        }
      ],
      "name": "listOnMarketplaceWithPermit",
      "outputs": [],
      "stateMutability": "nonpayable",
      "type": "function"
    },
    {
      "inputs": [],
      "name": "listingCounter",
      "outputs": [
        {
          "internalType": "uint256",
          "name": "",
          "type": "uint256"
        }
      ],
      "stateMutability": "view",
      "type": "function"
    },
    {
      "inputs": [
        {
          "internalType": "uint256",
          "name": "",
          "type": "uint256"
        }
      ],
      "name": "listings",
      "outputs": [
        {
          "internalType": "bytes32",
          "name": "",
          "type": "bytes32"
        }
      ],
      "stateMutability": "view",
      "type": "function"
    },
    {
      "inputs": [],
      "name": "listqualifyPercentage",
      "outputs": [
        {
          "internalType": "uint256",
          "name": "",
          "type": "uint256"
        }
      ],
      "stateMutability": "view",
      "type": "function"
    },
    {
      "inputs": [],
      "name": "listqualifyPercentageBase",
      "outputs": [
        {
          "internalType": "uint256",
          "name": "",
          "type": "uint256"
        }
      ],
      "stateMutability": "view",
      "type": "function"
    },
    {
      "inputs": [],
      "name": "marketPlaceName",
      "outputs": [
        {
          "internalType": "string",
          "name": "",
          "type": "string"
        }
      ],
      "stateMutability": "view",
      "type": "function"
    },
    {
      "inputs": [
        {
          "internalType": "bytes32",
          "name": "listingId",
          "type": "bytes32"
        }
      ],
      "name": "migrateEmergency",
      "outputs": [],
      "stateMutability": "nonpayable",
      "type": "function"
    },
    {
      "inputs": [
        {
          "internalType": "address",
          "name": "",
          "type": "address"
        },
        {
          "internalType": "address",
          "name": "",
          "type": "address"
        },
        {
          "internalType": "uint256",
          "name": "",
          "type": "uint256"
        },
        {
          "internalType": "bytes",
          "name": "",
          "type": "bytes"
        }
      ],
      "name": "onERC721Received",
      "outputs": [
        {
          "internalType": "bytes4",
          "name": "",
          "type": "bytes4"
        }
      ],
      "stateMutability": "nonpayable",
      "type": "function"
    },
    {
      "inputs": [],
      "name": "pause",
      "outputs": [],
      "stateMutability": "nonpayable",
      "type": "function"
    },
    {
      "inputs": [],
      "name": "paused",
      "outputs": [
        {
          "internalType": "bool",
          "name": "",
          "type": "bool"
        }
      ],
      "stateMutability": "view",
      "type": "function"
    },
    {
      "inputs": [
        {
          "internalType": "bytes32[]",
          "name": "listingIds",
          "type": "bytes32[]"
        },
        {
          "internalType": "address",
          "name": "bidder",
          "type": "address"
        }
      ],
      "name": "releaseBatchReserves",
      "outputs": [],
      "stateMutability": "nonpayable",
      "type": "function"
    },
    {
      "inputs": [
        {
          "internalType": "bytes32",
          "name": "listingId",
          "type": "bytes32"
        },
        {
          "internalType": "address",
          "name": "bidder",
          "type": "address"
        }
      ],
      "name": "releaseListingReserves",
      "outputs": [],
      "stateMutability": "nonpayable",
      "type": "function"
    },
    {
      "inputs": [
        {
          "internalType": "bytes32",
          "name": "role",
          "type": "bytes32"
        },
        {
          "internalType": "address",
          "name": "account",
          "type": "address"
        }
      ],
      "name": "renounceRole",
      "outputs": [],
      "stateMutability": "nonpayable",
      "type": "function"
    },
    {
      "inputs": [
        {
          "internalType": "bytes32",
          "name": "role",
          "type": "bytes32"
        },
        {
          "internalType": "address",
          "name": "account",
          "type": "address"
        }
      ],
      "name": "revokeRole",
      "outputs": [],
      "stateMutability": "nonpayable",
      "type": "function"
    },
    {
      "inputs": [
        {
          "internalType": "uint256",
          "name": "_stfiPrice",
          "type": "uint256"
        }
      ],
      "name": "setPrice",
      "outputs": [],
      "stateMutability": "nonpayable",
      "type": "function"
    },
    {
      "inputs": [
        {
          "internalType": "uint256",
          "name": "usdCap_",
          "type": "uint256"
        }
      ],
      "name": "setUsdCap",
      "outputs": [],
      "stateMutability": "nonpayable",
      "type": "function"
    },
    {
      "inputs": [],
      "name": "stakeContract",
      "outputs": [
        {
          "internalType": "address",
          "name": "",
          "type": "address"
        }
      ],
      "stateMutability": "view",
      "type": "function"
    },
    {
      "inputs": [],
      "name": "stfiCap",
      "outputs": [
        {
          "internalType": "uint256",
          "name": "",
          "type": "uint256"
        }
      ],
      "stateMutability": "view",
      "type": "function"
    },
    {
      "inputs": [],
      "name": "stfiUsdt",
      "outputs": [
        {
          "internalType": "uint256",
          "name": "",
          "type": "uint256"
        }
      ],
      "stateMutability": "view",
      "type": "function"
    },
    {
      "inputs": [
        {
          "internalType": "bytes4",
          "name": "interfaceId",
          "type": "bytes4"
        }
      ],
      "name": "supportsInterface",
      "outputs": [
        {
          "internalType": "bool",
          "name": "",
          "type": "bool"
        }
      ],
      "stateMutability": "view",
      "type": "function"
    },
    {
      "inputs": [],
      "name": "unpause",
      "outputs": [],
      "stateMutability": "nonpayable",
      "type": "function"
    },
    {
      "inputs": [],
      "name": "unpauseTimestamp",
      "outputs": [
        {
          "internalType": "uint256",
          "name": "",
          "type": "uint256"
        }
      ],
      "stateMutability": "view",
      "type": "function"
    },
    {
      "inputs": [
        {
          "internalType": "address",
          "name": "newWallet",
          "type": "address"
        }
      ],
      "name": "updateAdminWallet",
      "outputs": [],
      "stateMutability": "nonpayable",
      "type": "function"
    },
    {
      "inputs": [],
      "name": "usdCap",
      "outputs": [
        {
          "internalType": "uint256",
          "name": "",
          "type": "uint256"
        }
      ],
      "stateMutability": "view",
      "type": "function"
    },
    {
      "inputs": [
        {
          "internalType": "bytes32",
          "name": "listingId",
          "type": "bytes32"
        }
      ],
      "name": "winnerBid",
      "outputs": [
        {
          "internalType": "bytes32",
          "name": "bidId",
          "type": "bytes32"
        },
        {
          "internalType": "address",
          "name": "bidder",
          "type": "address"
        },
        {
          "internalType": "uint256",
          "name": "bidPrice",
          "type": "uint256"
        },
        {
          "internalType": "bool",
          "name": "isPurchased",
          "type": "bool"
        },
        {
          "internalType": "bool",
          "name": "isStakeReserved",
          "type": "bool"
        }
      ],
      "stateMutability": "view",
      "type": "function"
    }
  ],
  "transactionHash": "0xaf23e46b3f4af6484f44bbd7199ecc2038884203ed39b48118ae366105efc322",
  "args": [
    "StartFi Market",
    "0xD70cc1336ecf0B8FaD791e010CA6aC5F82980A38",
    "0xDA9d107dEa05318194100B8780b03EbDcC5D1E78",
    "0x5B38Da6a701c568545dCfcB03FcB875f56beddC4",
    "20000000000000000000000",
    "200000000000000000000000",
    "10000000000000000000"
  ],
  "solcInputHash": "b4ee5648d0e9d9b46f5b1ab4eac42396",
  "bytecode": "0x60806040523480156200001157600080fd5b50604051620062453803806200624583398101604081905262000034916200038c565b6002805460ff191690556200004987620000c2565b6200005484620000db565b600680546001600160a01b0319166001600160a01b038816179055600980546001600160a01b0319166001600160a01b039690961695909517909455600d91909155600e5550600f5550506203f480600355426004556019600755600a6008819055808055600b556200050c565b8051620000d7906005906020840190620002c9565b5050565b620000e860008262000168565b620001147fb19546dff01e856fb3f010c267a7b1c60363cf8a4664e21cc89c26224620214e8262000168565b620001407f7d867aa9d791a9a4be418f90a2f248aa2c5f1348317792a6f6412f94df9819f78262000168565b600280546001600160a01b0390921661010002610100600160a81b0319909216919091179055565b6200017f8282620001ab60201b620043911760201c565b6000828152600160209081526040909120620001a69183906200439b620001b7821b17901c565b505050565b620000d78282620001d7565b6000620001ce836001600160a01b03841662000277565b90505b92915050565b6000828152602081815260408083206001600160a01b038516845290915290205460ff16620000d7576000828152602081815260408083206001600160a01b03851684529091529020805460ff19166001179055620002333390565b6001600160a01b0316816001600160a01b0316837f2f8788117e7eff1d82e926ec794901d17c78024a50270940304540a733656f0d60405160405180910390a45050565b6000818152600183016020526040812054620002c057508154600181810184556000848152602080822090930184905584548482528286019093526040902091909155620001d1565b506000620001d1565b828054620002d790620004b9565b90600052602060002090601f016020900481019282620002fb576000855562000346565b82601f106200031657805160ff191683800117855562000346565b8280016001018555821562000346579182015b828111156200034657825182559160200191906001019062000329565b506200035492915062000358565b5090565b5b8082111562000354576000815560010162000359565b80516001600160a01b03811681146200038757600080fd5b919050565b600080600080600080600060e0888a031215620003a7578283fd5b87516001600160401b0380821115620003be578485fd5b818a0191508a601f830112620003d2578485fd5b815181811115620003e757620003e7620004f6565b604051601f8201601f19908116603f01168101908382118183101715620004125762000412620004f6565b81604052828152602093508d848487010111156200042e578788fd5b8791505b8282101562000451578482018401518183018501529083019062000432565b828211156200046257878484830101525b9a50620004749150508a82016200036f565b9750505062000486604089016200036f565b945062000496606089016200036f565b93506080880151925060a0880151915060c0880151905092959891949750929550565b600181811c90821680620004ce57607f821691505b60208210811415620004f057634e487b7160e01b600052602260045260246000fd5b50919050565b634e487b7160e01b600052604160045260246000fd5b615d29806200051c6000396000f3fe608060405234801561001057600080fd5b506004361061038e5760003560e01c806369abe662116101de578063b3331bee1161010f578063d7ad4931116100ad578063e58378bb1161007c578063e58378bb14610944578063eb75c41014610959578063ec77bb8c1461099f578063ffd856ad146109b257600080fd5b8063d7ad493114610874578063de74e57b14610887578063e123ff581461089a578063e1a1d7ed146108cc57600080fd5b8063ca15c873116100e9578063ca15c87314610828578063cd772f5c1461083b578063d482ad9e1461084e578063d547741f1461086157600080fd5b8063b3331bee146107ef578063b381065b14610802578063c82f26011461081557600080fd5b80638ef291e91161017c57806391b7f5ed1161015657806391b7f5ed1461078a57806391d148541461079d578063a01a93b3146107d4578063a217fddf146107e757600080fd5b80638ef291e91461074f5780639010d07c14610764578063913d7ee21461077757600080fd5b80637b356561116101b85780637b356561146106a0578063805596a01461071757806383ed8063146107205780638456cb591461074757600080fd5b806369abe662146106615780636c2c9c7d146106845780637a59acd21461068d57600080fd5b80633a33ae80116102c357806356e9d1f3116102615780635eec0870116102305780635eec08701461062a578063611d45a21461063d5780636298c93a14610650578063649ee6831461065857600080fd5b806356e9d1f3146105f15780635add4b11146106045780635bbd49f41461060c5780635c975abb1461061f57600080fd5b80634b046d9b1161029d5780634b046d9b1461052e5780634b3ee2bb1461054157806356461e8e146105d557806356abf8d0146105de57600080fd5b80633a33ae801461050b5780633f4ba83a14610513578063421415cc1461051b57600080fd5b806321ecff5b1161033057806329c5cdf31161030a57806329c5cdf3146104c95780632a6bf14c146104dc5780632f2ff15d146104e557806336568abe146104f857600080fd5b806321ecff5b14610480578063248a9ca31461049357806329194964146104b657600080fd5b80631a1862271161036c5780631a186227146104045780631d9845231461042f5780631dee8488146104425780631f78fd0b1461045757600080fd5b806301ffc9a71461039357806311a1933c146103bb578063150b7a02146103cd575b600080fd5b6103a66103a1366004615631565b6109c5565b60405190151581526020015b60405180910390f35b6007545b6040519081526020016103b2565b6103eb6103db3660046151f9565b630a85bd0160e11b949350505050565b6040516001600160e01b031990911681526020016103b2565b600954610417906001600160a01b031681565b6040516001600160a01b0390911681526020016103b2565b6103bf61043d36600461557a565b6109f0565b61045561045036600461559b565b610b13565b005b6103bf6104653660046151c1565b6001600160a01b03166000908152600c602052604090205490565b6103bf61048e36600461557a565b610b90565b6103bf6104a136600461550f565b60009081526020819052604090206001015490565b6104556104c436600461550f565b610ca0565b6104556104d73660046152a3565b610d65565b6103bf60035481565b6104556104f3366004615527565b61120b565b610455610506366004615527565b611232565b600e546103bf565b610455611254565b6103bf61052936600461533e565b6112b8565b61045561053c366004615439565b611328565b6105a161054f36600461550f565b60009081526015602090815260408083208054600191820154601485528386206001600160a01b0390911680875294529190932092830154600290930154909391929160ff8083169261010090041690565b604080519586526001600160a01b03909416602086015292840191909152151560608301521515608082015260a0016103b2565b6103bf600b5481565b6104556105ec3660046152a3565b611377565b6104556105ff36600461550f565b6114a8565b600f546103bf565b6103bf61061a3660046152d7565b6117be565b60025460ff166103a6565b6104556106383660046151c1565b611de3565b61045561064b36600461550f565b611ef9565b600d546103bf565b6103bf600a5481565b6103a661066f36600461550f565b60009081526010602052604090205460ff1690565b6103bf60165481565b6103bf61069b3660046151c1565b61212e565b6106b36106ae36600461550f565b612139565b604080516001600160a01b039c8d1681529a8c1660208c015298909a16978901979097526060880195909552608087019390935260a086019190915260c085015260e0840152610100830152610120820152610140810191909152610160016103b2565b6103bf60045481565b6103bf7f7d867aa9d791a9a4be418f90a2f248aa2c5f1348317792a6f6412f94df9819f781565b61045561220a565b610757612269565b6040516103b2919061576d565b61041761077236600461557a565b6122fb565b610455610785366004615659565b61231a565b61045561079836600461550f565b6123be565b6103a66107ab366004615527565b6000918252602082815260408084206001600160a01b0393909316845291905290205460ff1690565b6104556107e236600461550f565b61244c565b6103bf600081565b6104556107fd3660046153d5565b612bad565b610455610810366004615527565b612c10565b61045561082336600461550f565b612e21565b6103bf61083636600461550f565b612ebb565b61045561084936600461557a565b612ed2565b61045561085c366004615556565b61337f565b61045561086f366004615527565b61363c565b61045561088236600461550f565b613646565b6103bf61089536600461550f565b613cb4565b6108ad6108a836600461550f565b613cd5565b604080516001600160a01b0390931683526020830191909152016103b2565b61091c6108da366004615527565b60009182526014602090815260408084206001600160a01b03939093168452919052902080546001820154600290920154909260ff8083169261010090041690565b60408051948552602085019390935290151591830191909152151560608201526080016103b2565b6103bf600080516020615cd483398151915281565b61098a6109673660046151c1565b6001600160a01b0316600090815260116020526040902080546001909101549091565b604080519283526020830191909152016103b2565b6104556109ad3660046155eb565b6141fc565b6104556109c03660046151c1565b614296565b60006001600160e01b03198216635a05180f60e01b14806109ea57506109ea826143b0565b92915050565b6000610a0a600080516020615cd4833981519152336107ab565b610a2f5760405162461bcd60e51b8152600401610a26906158ac565b60405180910390fd5b60025460ff16610a515760405162461bcd60e51b8152600401610a26906157a0565b610a5b83836143e5565b9050673782dace9d9000008111158015610a7d5750670de0b6b3a76400008110155b610ac95760405162461bcd60e51b815260206004820152601f60248201527f50657263656e746167652073686f756c642062652066726f6d20312d342025006044820152606401610a26565b600a839055600b82905560408051848152602081018490527f4aed3beccf37ae9977a9fce4ed1771b1a6ee2f1c290134080bf2264d58f6e2ca91015b60405180910390a192915050565b6006546001600160a01b031663d505accf333088888888886040518863ffffffff1660e01b8152600401610b4d979695949392919061572c565b600060405180830381600087803b158015610b6757600080fd5b505af1158015610b7b573d6000803e3d6000fd5b50505050610b8886613646565b505050505050565b6000610baa600080516020615cd4833981519152336107ab565b610bc65760405162461bcd60e51b8152600401610a26906158ac565b60025460ff16610be85760405162461bcd60e51b8152600401610a26906157a0565b610bf283836143e5565b9050673782dace9d9000008111158015610c145750670de0b6b3a76400008110155b610c605760405162461bcd60e51b815260206004820152601f60248201527f50657263656e746167652073686f756c642062652066726f6d20312d342025006044820152606401610a26565b6007839055600882905560408051848152602081018490527f0dba25723c12d14a525942a1f517d05faa831a99752d9e8273a56eb021106b7e9101610b05565b610cb8600080516020615cd4833981519152336107ab565b610cd45760405162461bcd60e51b8152600401610a26906158ac565b60025460ff16610cf65760405162461bcd60e51b8152600401610a26906157a0565b60008111610d605760405162461bcd60e51b815260206004820152603160248201527f537461727446694d61726b6574706c6163654361703a20636170206d757374206044820152706265206d6f7265207468616e207a65726f60781b6064820152608401610a26565b600d55565b60025460ff1615610d885760405162461bcd60e51b8152600401610a2690615841565b8060008111610dd95760405162461bcd60e51b815260206004820152601960248201527f5a65726f2056616c7565206973206e6f7420616c6c6f776564000000000000006044820152606401610a26565b60168054906000610de983615c3c565b919050555060008484610df93390565b6016546040516bffffffffffffffffffffffff19606095861b8116602083015260348201949094529190931b9091166054820152426068820152608881019190915260a80160408051808303601f19018152908290528051602090910120601280546001810182556000919091527fbb8a6a4669ba250d26cd7a459eca9d215f8307e33aebe50379bc5a3617ec34440181905563020604bf60e21b825260048201869052915030906001600160a01b0387169063081812fc9060240160206040518083038186803b158015610ecd57600080fd5b505afa158015610ee1573d6000803e3d6000fd5b505050506040513d601f19601f82011682018060405250810190610f0591906151dd565b6001600160a01b03161480610fa257506001600160a01b03851663e985e9c5336040516001600160e01b031960e084901b1681526001600160a01b03909116600482015230602482015260440160206040518083038186803b158015610f6a57600080fd5b505afa158015610f7e573d6000803e3d6000fd5b505050506040513d601f19601f82011682018060405250810190610fa291906154f3565b610fbe5760405162461bcd60e51b8152600401610a2690615981565b604051806101600160405280866001600160a01b03168152602001610fe03390565b6001600160a01b03168152600060208201819052604082018790526060820186905242608083015260a0820181905260c0820181905260e0820152610100016001815260200160019052600082815260136020908152604091829020835181546001600160a01b03199081166001600160a01b03928316178355928501516001808401805486169284169290921790915593850151600280840180549095169190921617909255606084015160038201556080840151600482015560a0840151600582015560c0840151600682015560e08401516007820155610100840151600882015561012084015160098201805492949193909260ff1916919084908111156110fb57634e487b7160e01b600052602160045260246000fd5b021790555061014082015160098201805461ff00191661010083600281111561113457634e487b7160e01b600052602160045260246000fd5b0217905550506040805183815233602082015280820186905242606082015290518692506001600160a01b038816917f49106c20b85d090f5e277321755f4aa52208129bcbc2940327186f7f7f1c031a919081900360800190a36001600160a01b0385166342842e0e336040516001600160e01b031960e084901b1681526001600160a01b03909116600482015230602482015260448101879052606401600060405180830381600087803b1580156111ec57600080fd5b505af1158015611200573d6000803e3d6000fd5b505050505050505050565b61121582826143f1565b600082815260016020526040902061122d908261439b565b505050565b61123c8282614417565b600082815260016020526040902061122d9082614491565b61126c600080516020615cd4833981519152336107ab565b6112885760405162461bcd60e51b8152600401610a26906158ac565b60025460ff166112aa5760405162461bcd60e51b8152600401610a26906157a0565b426004556112b66144a6565b565b60006112c98c338d88888888614512565b6113095760405162461bcd60e51b8152602060048201526011602482015270696e76616c6964207369676e617475726560781b6044820152606401610a26565b6113188c8c8c8c8c8c8c6117be565b9c9b505050505050505050505050565b60005b825181101561122d5761136583828151811061135757634e487b7160e01b600052603260045260246000fd5b602002602001015183612c10565b8061136f81615c3c565b91505061132b565b61138f600080516020615cd4833981519152336107ab565b6113ab5760405162461bcd60e51b8152600401610a26906158ac565b60025460ff16156113ce5760405162461bcd60e51b8152600401610a2690615841565b6001600160a01b038316600090815260116020526040902054156114255760405162461bcd60e51b815260206004820152600e60248201526d105b1c9958591e48195e1a5cda5d60921b6044820152606401610a26565b60408051808201825283815260208082018481526001600160a01b0387166000818152601184528590209351845590516001909301929092558251338152908101919091528082018490526060810183905290517ff5c7e6c2b8dc927897290afe37ff3c0df5d40c978875b7588c11d639f990b5499181900360800190a1505050565b60025460ff16156114cb5760405162461bcd60e51b8152600401610a2690615841565b600081815260136020526040902060098101546002820154600180840154845460039095015460ff8086169661010090960416946001600160a01b03948516949283169392169185600281111561153257634e487b7160e01b600052602160045260246000fd5b146115915760405162461bcd60e51b815260206004820152602960248201527f4974656d206973206e6f74206f6e2041756374696f6e206f72204c697374656460448201526820666f722073616c6560b81b6064820152608401610a26565b6001600160a01b03831633146115e35760405162461bcd60e51b815260206004820152601760248201527621b0b63632b91034b9903737ba103a34329037bbb732b960491b6044820152606401610a26565b6001600160a01b038416156116315760405162461bcd60e51b815260206004820152601460248201527320b63932b0b23c903137bab3b43a103a37b5b2b760611b6044820152606401610a26565b600186600281111561165357634e487b7160e01b600052602160045260246000fd5b146116cf5760008781526013602052604081206005015460035490919061167a9083615a6d565b9050428111156116cc5760405162461bcd60e51b815260206004820152601e60248201527f4e6f74207468652074696d6520746f2044656c6973742061756374696f6e00006044820152606401610a26565b50505b600087815260136020526040902060090180546002919061ff001916610100830217905550604080518881526001600160a01b038085166020830152851691810191909152606081018290524260808201527f6dc4b575e1450ba0ba61ffb69a8da69f79d671bee33a01783b6a14c469cb7e709060a00160405180910390a1604051632142170760e11b8152306004820152336024820152604481018290526001600160a01b038316906342842e0e906064015b600060405180830381600087803b15801561179d57600080fd5b505af11580156117b1573d6000803e3d6000fd5b5050505050505050505050565b60006117cc60025460ff1690565b156117e95760405162461bcd60e51b8152600401610a2690615841565b856000811161183a5760405162461bcd60e51b815260206004820152601960248201527f5a65726f2056616c7565206973206e6f7420616c6c6f776564000000000000006044820152606401610a26565b6000851561189a57878510156118925760405162461bcd60e51b815260206004820152601960248201527f5a65726f207072696365206973206e6f7420616c6c6f776564000000000000006044820152606401610a26565b5060026118a1565b5060009350835b61a8c084116119085760405162461bcd60e51b815260206004820152602d60248201527f41756374696f6e2073686f756c64206265206c69766520666f72206d6f72652060448201526c7468616e20313220686f75727360981b6064820152608401610a26565b600f5487101561195a5760405162461bcd60e51b815260206004820152601e60248201527f496e76616c69642041756374696f6e207175616c69667920416d6f756e7400006044820152606401610a26565b60006119668542615a6d565b60168054919250600061197883615c3c565b91905055508a8a6119863390565b6016546040516bffffffffffffffffffffffff19606095861b8116602083015260348201949094529190931b909116605482015260688101839052608881019190915260a80160408051808303601f19018152908290528051602090910120601280546001810182556000919091527fbb8a6a4669ba250d26cd7a459eca9d215f8307e33aebe50379bc5a3617ec34440181905563020604bf60e21b8252600482018c9052945030906001600160a01b038d169063081812fc9060240160206040518083038186803b158015611a5b57600080fd5b505afa158015611a6f573d6000803e3d6000fd5b505050506040513d601f19601f82011682018060405250810190611a9391906151dd565b6001600160a01b03161480611b3057506001600160a01b038b1663e985e9c5336040516001600160e01b031960e084901b1681526001600160a01b03909116600482015230602482015260440160206040518083038186803b158015611af857600080fd5b505afa158015611b0c573d6000803e3d6000fd5b505050506040513d601f19601f82011682018060405250810190611b3091906154f3565b611b4c5760405162461bcd60e51b8152600401610a2690615981565b6040518061016001604052808c6001600160a01b03168152602001611b6e3390565b6001600160a01b0316815260200160006001600160a01b031681526020018b815260200187815260200182815260200160035483611bac9190615a6d565b81526020018981526020018a8152602001836002811115611bdd57634e487b7160e01b600052602160045260246000fd5b815260200160019052600085815260136020908152604091829020835181546001600160a01b03199081166001600160a01b03928316178355928501516001808401805486169284169290921790915593850151600280840180549095169190921617909255606084015160038201556080840151600482015560a0840151600582015560c0840151600682015560e08401516007820155610100840151600882015561012084015160098201805492949193909260ff191691908490811115611cb757634e487b7160e01b600052602160045260246000fd5b021790555061014082015160098201805461ff001916610100836002811115611cf057634e487b7160e01b600052602160045260246000fd5b02179055505060408051868152336020820152808201899052606081018c90526080810184905260a081018b90524260c082015290518c92506001600160a01b038e16917f65899c700e34c95deda58c22101038a1b7736227061b7659da815d75a88a8d5b919081900360e00190a36001600160a01b038b166342842e0e336040516001600160e01b031960e084901b1681526001600160a01b039091166004820152306024820152604481018d9052606401600060405180830381600087803b158015611dbd57600080fd5b505af1158015611dd1573d6000803e3d6000fd5b50505050505050979650505050505050565b806001600160a01b038116611e3a5760405162461bcd60e51b815260206004820152601b60248201527f5a65726f2061646472657373206973206e6f7420616c6c6f77656400000000006044820152606401610a26565b611e456000336107ab565b611e805760405162461bcd60e51b815260206004820152600c60248201526b155b905d5d1a1bdc9a5e995960a21b6044820152606401610a26565b6002805474ffffffffffffffffffffffffffffffffffffffff0019166101006001600160a01b03851602179055611eb86000836145c2565b6040516001600160a01b03831681527f07725cf1e627ba6b8a0d3bde9462e150e033b44fa6f17a31024d141122c1396f906020015b60405180910390a15050565b60025460ff16611f1b5760405162461bcd60e51b8152600401610a26906157a0565b60008181526013602052604090206009810154600282015460018301548354600585015460039095015461010090940460ff16946001600160a01b03938416949284169390911691338414611fac5760405162461bcd60e51b815260206004820152601760248201527621b0b63632b91034b9903737ba103a34329037bbb732b960491b6044820152606401610a26565b6001600160a01b03851615611ffa5760405162461bcd60e51b815260206004820152601460248201527320b63932b0b23c903137bab3b43a103a37b5b2b760611b6044820152606401610a26565b600186600281111561201c57634e487b7160e01b600052602160045260246000fd5b146120695760405162461bcd60e51b815260206004820181905260248201527f416c726561647920626f75676874206f722063616e63656c656420746f6b656e6044820152606401610a26565b60008781526013602090815260409182902060098101805461ff0019166102001790556007015482518a81526001600160a01b03878116938201939093529187168284015260608201849052608082015260a081018490524260c082015290517f60974777054aa4309a55a645d5dab87017a79bbad06dac2fda24be4d8e3b49969181900360e00190a1604051632142170760e11b81523060048201526001600160a01b038581166024830152604482018390528416906342842e0e90606401611783565b60006109ea826145cc565b6000818152601360205260408120805460018201546002808401546003850154600486015460058701546006880154600789015460088a01546009909a01546001600160a01b03998a169b988a169a9690991698949793969295919490939192829160ff61010090910416908111156121c257634e487b7160e01b600052602160045260246000fd5b60008d81526013602052604090206009015490915060ff1660028111156121f957634e487b7160e01b600052602160045260246000fd5b915091939597999b90929496989a50565b612222600080516020615cd4833981519152336107ab565b61223e5760405162461bcd60e51b8152600401610a26906158ac565b60025460ff16156122615760405162461bcd60e51b8152600401610a2690615841565b6112b661466c565b60606005805461227890615c01565b80601f01602080910402602001604051908101604052809291908181526020018280546122a490615c01565b80156122f15780601f106122c6576101008083540402835291602001916122f1565b820191906000526020600020905b8154815290600101906020018083116122d457829003601f168201915b5050505050905090565b600082815260016020526040812061231390836146c4565b9392505050565b612332600080516020615cd4833981519152336107ab565b61234e5760405162461bcd60e51b8152600401610a26906158ac565b60025460ff166123705760405162461bcd60e51b8152600401610a26906157a0565b80516123839060059060208401906150b4565b507fe28169ccda724be8baad801e6de41dad86e49186953944c40f68eb91e100ea86816040516123b3919061576d565b60405180910390a150565b6123e87f7d867aa9d791a9a4be418f90a2f248aa2c5f1348317792a6f6412f94df9819f7336107ab565b6124345760405162461bcd60e51b815260206004820181905260248201527f537461727446694d61726b6574506c6163653a20556e417574686f72697a65646044820152606401610a26565b600f819055600d546124469082615b84565b600e5550565b60025460ff161561246f5760405162461bcd60e51b8152600401610a2690615841565b600081815260136020526040902060050154421180156124c35750600160008281526013602052604090206009015460ff1660028111156124c057634e487b7160e01b600052602160045260246000fd5b14155b6125245760405162461bcd60e51b815260206004820152602c60248201527f41756374696f6e206973206e6f7420656e646564206f72206e6f206c6f6e676560448201526b391037b71030bab1ba34b7b760a11b6064820152608401610a26565b60008181526015602090815260408083206001908101546013808552838620808401548154600383015460148952878a206001600160a01b03968716808c52908a52978a2090960154988a905292909652600701549395948216949116923386146125d15760405162461bcd60e51b815260206004820152601860248201527f43616c6c6572206973206e6f74207468652077696e6e657200000000000000006044820152606401610a26565b600e548211156126095760008781526010602052604090205460ff166126095760405162461bcd60e51b8152600401610a26906159d2565b600654604051636eb1769f60e11b81526001600160a01b0388811660048301523060248301528492169063dd62ed3e9060440160206040518083038186803b15801561265457600080fd5b505afa158015612668573d6000803e3d6000fd5b505050506040513d601f19601f8201168201806040525081019061268c919061569f565b10156126aa5760405162461bcd60e51b8152600401610a26906157d7565b6126e56040518060a0016040528060006001600160a01b03168152602001600081526020016000815260200160008152602001600081525090565b602081018490526001600160a01b038516815260408101839052612708866146d0565b60808301526060820152600061271d82614722565b60008a81526014602090815260408083206001600160a01b038d168085529083528184206002908101805461ffff191660011790558e85526013845282852060098101805461ff00191690550180546001600160a01b031916821790558352600c909152812080549293508592909190612798908490615ba3565b92505081905550887f770608f9b23b449846d60bf6a9fd216b33db427cd5726cf1071d134311431442601560008c815260200190815260200160002060000154888b89898760000151886020015189604001518a606001514260405161285a9a99989796959493929190998a526001600160a01b0398891660208b015296881660408a015260608901959095526080880193909352941660a086015260c085019390935260e08401929092526101008301919091526101208201526101400190565b60405180910390a26006546001600160a01b03166323b872dd33600254604085810151905160e085901b6001600160e01b03191681526001600160a01b03938416600482015261010090920490921660248201526044810191909152606401602060405180830381600087803b1580156128d357600080fd5b505af11580156128e7573d6000803e3d6000fd5b505050506040513d601f19601f8201168201806040525081019061290b91906154f3565b6129575760405162461bcd60e51b815260206004820152601f60248201527f436f756c646e2774207472616e7366657220746f6b656e2061732066656573006044820152606401610a26565b866001600160a01b031681600001516001600160a01b031614156129935780602001518160600181815161298b9190615a6d565b905250612a70565b80516001600160a01b0316158015906129af5750602081015115155b15612a70576006546001600160a01b03166323b872dd338351602085015160405160e085901b6001600160e01b03191681526001600160a01b0393841660048201529290911660248301526044820152606401602060405180830381600087803b158015612a1c57600080fd5b505af1158015612a30573d6000803e3d6000fd5b505050506040513d601f19601f82011682018060405250810190612a5491906154f3565b612a705760405162461bcd60e51b8152600401610a269061586b565b6006546001600160a01b03166323b872dd3360608401516040516001600160e01b031960e085901b1681526001600160a01b039283166004820152918b1660248301526044820152606401602060405180830381600087803b158015612ad557600080fd5b505af1158015612ae9573d6000803e3d6000fd5b505050506040513d601f19601f82011682018060405250810190612b0d91906154f3565b612b295760405162461bcd60e51b8152600401610a26906158e3565b6001600160a01b0386166342842e0e30335b6040516001600160e01b031960e085901b1681526001600160a01b0392831660048201529116602482015260448101889052606401600060405180830381600087803b158015612b8a57600080fd5b505af1158015612b9e573d6000803e3d6000fd5b50505050505050505050505050565b612bbc87338887878787614512565b612bfc5760405162461bcd60e51b8152602060048201526011602482015270696e76616c6964207369676e617475726560781b6044820152606401610a26565b612c07878787610d65565b50505050505050565b60008281526014602090815260408083206001600160a01b0385168452909152902060010154612c965760405162461bcd60e51b815260206004820152602b60248201527f426964646572206973206e6f742070617274696369706174696e6720696e207460448201526a3434b99030bab1ba34b7b760a91b6064820152608401610a26565b60008281526014602090815260408083206001600160a01b0385168452909152902060020154610100900460ff16612d035760405162461bcd60e51b815260206004820152601060248201526f105b1c9958591e481c995b19585cd95960821b6044820152606401610a26565b6000828152601360205260409020600501544211612d765760405162461bcd60e51b815260206004820152602a60248201527f43616e206e6f742072656c65617365207374616b657320666f722072756e6e6960448201526937339030bab1ba34b7b760b11b6064820152608401610a26565b6000828152601560205260409020600101546001600160a01b0382811691161415612e135760405162461bcd60e51b815260206004820152604160248201527f57696e6e6572206269646465722063616e20206f6e6c79202072656c6561736560448201527f207374616b65732062792066756c66696c6c696e67207468652061756374696f6064820152603760f91b608482015260a401610a26565b612e1d82826147fd565b5050565b612e39600080516020615cd4833981519152336107ab565b612e555760405162461bcd60e51b8152600401610a26906158ac565b60025460ff16612e775760405162461bcd60e51b8152600401610a26906157a0565b620151808111612e8657600080fd5b60038190556040518181527ff49a73cf36f0d199722739f91a682c327b1e2d3fde466a159e78e0ea0dbbacf8906020016123b3565b60008181526001602052604081206109ea906148c7565b60025460ff1615612ef55760405162461bcd60e51b8152600401610a2690615841565b60008281526013602052604090206005015442108015612f4d57506001600083815260136020526040902060090154610100900460ff166002811115612f4b57634e487b7160e01b600052602160045260246000fd5b145b8015612f8d5750600160008381526013602052604090206009015460ff166002811115612f8a57634e487b7160e01b600052602160045260246000fd5b14155b612fcc5760405162461bcd60e51b815260206004820152601060248201526f105d58dd1a5bdb881a5cc8195b99195960821b6044820152606401610a26565b6000828152601560205260409020600101546001600160a01b031680613078576000838152601360205260409020600801548210156130735760405162461bcd60e51b815260206004820152603660248201527f626964207072696365206d757374206265206d6f7265207468616e206f72206560448201527f7175616c20746865206d696e696d756d207072696365000000000000000000006064820152608401610a26565b6130fd565b60008381526014602090815260408083206001600160a01b038516845290915290206001015482116130fd5760405162461bcd60e51b815260206004820152602860248201527f626964207072696365206d757374206265206d6f7265207468616e20746865206044820152671b185cdd08189a5960c21b6064820152608401610a26565b6000838152601460209081526040808320338452909152812060020154610100900460ff1661323e575060008381526013602081815260408084208054600382015483518086018b90526bffffffffffffffffffffffff19606093841b811682870152339384901b1660548201526068808201929092528451808203909201825260880190935282519284019290922094889052929091526007909101549081906131a7906145cc565b10156131eb5760405162461bcd60e51b81526020600482015260136024820152724e6f7420656e6f75676820726573657276657360681b6044820152606401610a26565b336000908152600c60205260408120805483929061320a908490615a6d565b90915550505060008481526014602090815260408083203384529091529020600201805461ff001916610100179055613263565b5060008381526014602090815260408083206001600160a01b03851684529091529020545b604051806040016040528082815260200161327b3390565b6001600160a01b0390811690915260008681526015602090815260408083208551815594820151600195860180546001600160a01b03191691909516179093558251608081018452858152808201888152818501848152606083018781528b86526014855286862033808852955295909420915182555194810194909455905160029093018054925115156101000261ff00199415159490941661ffff199093169290921792909217905584907fa43ab005b7a0aa4220e1af7738a3d9d19267c3b522daa2f7c7ba4659d48d89ca908390604080519283526001600160a01b039091166020830152810186905242606082015260800160405180910390a250505050565b613397600080516020615cd4833981519152336107ab565b6133b35760405162461bcd60e51b8152600401610a26906158ac565b60025460ff16156133d65760405162461bcd60e51b8152600401610a2690615841565b6001600083815260136020526040902060090154610100900460ff16600281111561341157634e487b7160e01b600052602160045260246000fd5b1461345e5760405162461bcd60e51b815260206004820181905260248201527f537461727446694d61726b6574706c6163653a20496e76616c6964206974656d6044820152606401610a26565b80156134f657600160008381526013602052604090206009015460ff16600281111561349a57634e487b7160e01b600052602160045260246000fd5b146134d8576000828152601360205260409020600501544211156134d8576003546134c59042615a6d565b6000838152601360205260409020600601555b6000828152601060205260409020805460ff191660011790556135f5565b60008281526013602081815260408084206001808201546010855292909520805460ff19169055929091526009909101805461020061ff00198216179091556001600160a01b03909116919060ff16600281111561356457634e487b7160e01b600052602160045260246000fd5b146135735761357383826147fd565b6000838152601360205260409081902080546003909101549151632142170760e11b81523060048201526001600160a01b03848116602483015260448201939093529116906342842e0e90606401600060405180830381600087803b1580156135db57600080fd5b505af11580156135ef573d6000803e3d6000fd5b50505050505b6040805133815282151560208201524281830152905183917f48b5e4e1991033d8c319ccd4a32a2be182193c79acb3dbb1780c51d1a7fbc635919081900360600190a25050565b61123c82826148d1565b60025460ff16156136695760405162461bcd60e51b8152600401610a2690615841565b6000818152601360205260409020600981015460048201546003830154600180850154945460ff61010086048116969516946001600160a01b03908116929116908660028111156136ca57634e487b7160e01b600052602160045260246000fd5b1480156136f7575060008560028111156136f457634e487b7160e01b600052602160045260246000fd5b14155b61373a5760405162461bcd60e51b81526020600482015260146024820152734974656d206973206e6f7420666f722073616c6560601b6044820152606401610a26565b600285600281111561375c57634e487b7160e01b600052602160045260246000fd5b14156137b95760008781526013602052604090206005015442106137b95760405162461bcd60e51b81526020600482015260146024820152734974656d206973206e6f7420666f722073616c6560601b6044820152606401610a26565b600e548411156137f15760008781526010602052604090205460ff166137f15760405162461bcd60e51b8152600401610a26906159d2565b60065484906001600160a01b031663dd62ed3e336040516001600160e01b031960e084901b1681526001600160a01b03909116600482015230602482015260440160206040518083038186803b15801561384a57600080fd5b505afa15801561385e573d6000803e3d6000fd5b505050506040513d601f19601f82011682018060405250810190613882919061569f565b10156138a05760405162461bcd60e51b8152600401610a26906157d7565b6138db6040518060a0016040528060006001600160a01b03168152602001600081526020016000815260200160008152602001600081525090565b602081018490526001600160a01b0382168152604081018590526138fe836146d0565b60808301526060820152600061391382614722565b60008a81526013602090815260409182902060098101805461ff001916905560020180546001600160a01b031916339081179091558351848301518585015160608088015187516001600160a01b038d81168252978101969096528c8716868901529085018d9052608085018e90529490921660a084015260c083015260e08201526101008101919091524261012082015290519192508a917fc97bbff05b26896fa1898eff8bcf3414f69bfa3c156d78a49344d5cfbf5e2c8c918190036101400190a26006546001600160a01b03166323b872dd33600254604085810151905160e085901b6001600160e01b03191681526001600160a01b03938416600482015261010090920490921660248201526044810191909152606401602060405180830381600087803b158015613a4857600080fd5b505af1158015613a5c573d6000803e3d6000fd5b505050506040513d601f19601f82011682018060405250810190613a8091906154f3565b613acc5760405162461bcd60e51b815260206004820152601f60248201527f436f756c646e2774207472616e7366657220746f6b656e2061732066656573006044820152606401610a26565b836001600160a01b031681600001516001600160a01b03161415613b0857806020015181606001818151613b009190615a6d565b905250613be5565b80516001600160a01b031615801590613b245750602081015115155b15613be5576006546001600160a01b03166323b872dd338351602085015160405160e085901b6001600160e01b03191681526001600160a01b0393841660048201529290911660248301526044820152606401602060405180830381600087803b158015613b9157600080fd5b505af1158015613ba5573d6000803e3d6000fd5b505050506040513d601f19601f82011682018060405250810190613bc991906154f3565b613be55760405162461bcd60e51b8152600401610a269061586b565b6006546001600160a01b03166323b872dd3360608401516040516001600160e01b031960e085901b1681526001600160a01b03928316600482015291881660248301526044820152606401602060405180830381600087803b158015613c4a57600080fd5b505af1158015613c5e573d6000803e3d6000fd5b505050506040513d601f19601f82011682018060405250810190613c8291906154f3565b613c9e5760405162461bcd60e51b8152600401610a26906158e3565b6001600160a01b0383166342842e0e3033612b3b565b60128181548110613cc457600080fd5b600091825260209091200154905081565b600080613ce460025460ff1690565b15613d015760405162461bcd60e51b8152600401610a2690615841565b50506000818152601560209081526040808320600190810154601390935292209182015482546009840154600385015460078601546006909601546001600160a01b039384169691958416949093169260ff90921691613d5e3390565b6001600160a01b0316846001600160a01b031614613dbe5760405162461bcd60e51b815260206004820152601760248201527f4f6e6c792053656c6c65722063616e20646973707574650000000000000000006044820152606401610a26565b6001600089815260136020526040902060090154610100900460ff166002811115613df957634e487b7160e01b600052602160045260246000fd5b148015613e2657506001836002811115613e2357634e487b7160e01b600052602160045260246000fd5b14155b613e7e5760405162461bcd60e51b815260206004820152602360248201527f4d61726b6574706c6163653a204974656d206973206e6f74206f6e204175637460448201526234b7b760e91b6064820152608401610a26565b6001600160a01b038516613ed45760405162461bcd60e51b815260206004820181905260248201527f4d61726b6574706c6163653a2041756374696f6e20686173206e6f20626964736044820152606401610a26565b42811115613f355760405162461bcd60e51b815260206004820152602860248201527f4d61726b6574706c6163653a2043616e206e6f742064697370757465206265666044820152676f72652074696d6560c01b6064820152608401610a26565b42600354600454613f469190615a6d565b10613fc75760405162461bcd60e51b8152602060048201526044602482018190527f436f6e747261637420686173206a757374656420756e7061757365642c20706c908201527f65617365206769766520746865206269646465722074696d6520746f2066756c606482015263199a5b1b60e21b608482015260a401610a26565b600e5460008981526014602090815260408083206001600160a01b038a16845290915290206001015411156140245760008881526010602052604090205460ff166140245760405162461bcd60e51b8152600401610a26906159d2565b600080614030846148f7565b9150915061405487600260019054906101000a90046001600160a01b03168461491f565b6140705760405162461bcd60e51b8152600401610a2690615924565b61407b87878361491f565b6140975760405162461bcd60e51b8152600401610a2690615924565b60008a81526014602090815260408083206001600160a01b038b1684528252808320600201805461ff0019169055600c909152812080548692906140dc908490615ba3565b909155505060008a8152601360209081526040808320600901805461ff00191661020017905560158252918290205482519081526001600160a01b038c81169282019290925289821681840152606081018b9052908816608082015260a0810186905260c0810183905260e081018490524261010082015290518b917fb46a91724b95c8764d64242653194717e2ab549e1b76e207124d3bddc39aed6d91908190036101200190a260408051632142170760e11b8152306004820152336024820152604481018a905290516001600160a01b038b16916342842e0e91606480830192600092919082900301818387803b1580156141d857600080fd5b505af11580156141ec573d6000803e3d6000fd5b5050505050505050505050915091565b60065460008681526014602090815260408083203380855292529182902060010154915163d505accf60e01b81526001600160a01b039093169263d505accf9261425492913091908a908a908a908a9060040161572c565b600060405180830381600087803b15801561426e57600080fd5b505af1158015614282573d6000803e3d6000fd5b5050505061428f8561244c565b5050505050565b806001600160a01b0381166142ed5760405162461bcd60e51b815260206004820152601b60248201527f5a65726f2061646472657373206973206e6f7420616c6c6f77656400000000006044820152606401610a26565b614305600080516020615cd4833981519152336107ab565b6143215760405162461bcd60e51b8152600401610a26906158ac565b60025460ff166143435760405162461bcd60e51b8152600401610a26906157a0565b600680546001600160a01b0319166001600160a01b0384169081179091556040519081527f34ebd4cf402719b97a4e51402bd4a109c70b0b732ce4ead80c769d9d2a427ac090602001611eed565b612e1d82826149b6565b6000612313836001600160a01b038416614a3a565b60006001600160e01b03198216637965db0b60e01b14806109ea57506301ffc9a760e01b6001600160e01b03198316146109ea565b60006123138383614a89565b60008281526020819052604090206001015461440d8133614aa1565b61122d83836149b6565b6001600160a01b03811633146144875760405162461bcd60e51b815260206004820152602f60248201527f416363657373436f6e74726f6c3a2063616e206f6e6c792072656e6f756e636560448201526e103937b632b9903337b91039b2b63360891b6064820152608401610a26565b612e1d8282614b05565b6000612313836001600160a01b038416614b6a565b60025460ff166144c85760405162461bcd60e51b8152600401610a26906157a0565b6002805460ff191690557f5db9ee0a495bf2e6ff9c91a7834c1ba4fdd244a5e8aa4e537bd38aeae4b073aa335b6040516001600160a01b03909116815260200160405180910390a1565b600061451d88614c87565b156145b35760405163d505accf60e01b81526001600160a01b0389169063d505accf9061455a908a9030908b908b908b908b908b9060040161572c565b602060405180830381600087803b15801561457457600080fd5b505af1158015614588573d6000803e3d6000fd5b505050506040513d601f19601f820116820180604052508101906145ac91906154f3565b90506145b7565b5060005b979650505050505050565b6112158282614391565b6001600160a01b038181166000818152600c6020526040808220546009549151630fa6707960e21b815260048101949094529193919283929190911690633e99c1e49060240160206040518083038186803b15801561462a57600080fd5b505afa15801561463e573d6000803e3d6000fd5b505050506040513d601f19601f82011682018060405250810190614662919061569f565b6123139190615ba3565b60025460ff161561468f5760405162461bcd60e51b8152600401610a2690615841565b6002805460ff191660011790557f62e78cea01bee320cd4e420270b5ea74000d11b0c9f74754ebdbfc544b05a2586144f53390565b60006123138383614d0d565b6001600160a01b0381166000908152601160205260408120548190156147155750506001600160a01b0316600090815260116020526040902080546001909101549091565b5050600754600854915091565b614756604051806080016040528060006001600160a01b031681526020016000815260200160008152602001600081525090565b61476d826040015183606001518460800151614d45565b60408083018290528301516147829190615ba3565b6060820152815161479290614d66565b156147f8576147ae826000015183602001518460400151614d9c565b602083018190526001600160a01b039091168252158015906147d9575080516001600160a01b031615155b156147f857806020015181606001516147f29190615ba3565b60608201525b919050565b6001600160a01b0381166000818152600c602081815260408084208054888652601384529185206007015495855292909152929182919061483e8386615ba3565b909155505060008481526014602090815260408083206001600160a01b038716808552908352818420600201805461ff0019169055600c8352928190205481519384529183018590528201819052426060830152907f818521a1b12d29402a8e33bac65a0263cfcadaca4429aa2c3831eb4cc2c3d2979060800160405180910390a15050505050565b60006109ea825490565b6000828152602081905260409020600101546148ed8133614aa1565b61122d8383614b05565b60008061490c83671bc16d674ec80000614a89565b91506149188284615ba3565b9050915091565b60095460405163929c517960e01b81526001600160a01b038581166004830152848116602483015260448201849052600092169063929c517990606401602060405180830381600087803b15801561497657600080fd5b505af115801561498a573d6000803e3d6000fd5b505050506040513d601f19601f820116820180604052508101906149ae91906154f3565b949350505050565b6149c082826107ab565b612e1d576000828152602081815260408083206001600160a01b03851684529091529020805460ff191660011790556149f63390565b6001600160a01b0316816001600160a01b0316837f2f8788117e7eff1d82e926ec794901d17c78024a50270940304540a733656f0d60405160405180910390a45050565b6000818152600183016020526040812054614a81575081546001818101845560008481526020808220909301849055845484825282860190935260409020919091556109ea565b5060006109ea565b60006123138383614a9c6012600a615adc565b614e2b565b614aab82826107ab565b612e1d57614ac3816001600160a01b03166014614e84565b614ace836020614e84565b604051602001614adf9291906156b7565b60408051601f198184030181529082905262461bcd60e51b8252610a269160040161576d565b614b0f82826107ab565b15612e1d576000828152602081815260408083206001600160a01b0385168085529252808320805460ff1916905551339285917ff6391f5c32d9c69d2a47ea670b442974b53935d1edc7fd64eb21e047a839171b9190a45050565b60008181526001830160205260408120548015614c7d576000614b8e600183615ba3565b8554909150600090614ba290600190615ba3565b9050818114614c23576000866000018281548110614bd057634e487b7160e01b600052603260045260246000fd5b9060005260206000200154905080876000018481548110614c0157634e487b7160e01b600052603260045260246000fd5b6000918252602080832090910192909255918252600188019052604090208390555b8554869080614c4257634e487b7160e01b600052603160045260246000fd5b6001900381819060005260206000200160009055905585600101600086815260200190815260200160002060009055600193505050506109ea565b60009150506109ea565b6040516301ffc9a760e01b815263152a902d60e11b60048201526000906001600160a01b038316906301ffc9a7906024015b60206040518083038186803b158015614cd157600080fd5b505afa925050508015614d01575060408051601f3d908101601f19168201909252614cfe918101906154f3565b60015b6109ea57506000919050565b6000826000018281548110614d3257634e487b7160e01b600052603260045260246000fd5b9060005260206000200154905092915050565b60006149ae614d5f614d58846064615b84565b8590615066565b8590615089565b6040516301ffc9a760e01b815263152a902d60e11b60048201526000906001600160a01b038316906301ffc9a790602401614cb9565b60405163152a902d60e11b8152600481018390526024810182905260009081906001600160a01b03861690632a55205a90604401604080518083038186803b158015614de757600080fd5b505afa158015614dfb573d6000803e3d6000fd5b505050506040513d601f19601f82011682018060405250810190614e1f9190615276565b90969095509350505050565b60008083614e3a84600a615b84565b614e449087615b84565b614e4e9190615a85565b90506005614e5d600a83615c57565b10614e7057614e6d600a82615a6d565b90505b614e7b600a82615a85565b95945050505050565b60606000614e93836002615b84565b614e9e906002615a6d565b67ffffffffffffffff811115614ec457634e487b7160e01b600052604160045260246000fd5b6040519080825280601f01601f191660200182016040528015614eee576020820181803683370190505b509050600360fc1b81600081518110614f1757634e487b7160e01b600052603260045260246000fd5b60200101906001600160f81b031916908160001a905350600f60fb1b81600181518110614f5457634e487b7160e01b600052603260045260246000fd5b60200101906001600160f81b031916908160001a9053506000614f78846002615b84565b614f83906001615a6d565b90505b6001811115615017576f181899199a1a9b1b9c1cb0b131b232b360811b85600f1660108110614fc557634e487b7160e01b600052603260045260246000fd5b1a60f81b828281518110614fe957634e487b7160e01b600052603260045260246000fd5b60200101906001600160f81b031916908160001a90535060049490941c9361501081615bea565b9050614f86565b5083156123135760405162461bcd60e51b815260206004820181905260248201527f537472696e67733a20686578206c656e67746820696e73756666696369656e746044820152606401610a26565b6000816150756012600a615adc565b61507f9085615b84565b6123139190615a85565b6000612313838361509c6012600a615adc565b6000806150aa600a84615a85565b614e448587615b84565b8280546150c090615c01565b90600052602060002090601f0160209004810192826150e25760008555615128565b82601f106150fb57805160ff1916838001178555615128565b82800160010185558215615128579182015b8281111561512857825182559160200191906001019061510d565b50615134929150615138565b5090565b5b808211156151345760008155600101615139565b600067ffffffffffffffff83111561516757615167615c97565b61517a601f8401601f1916602001615a3c565b905082815283838301111561518e57600080fd5b828260208301376000602084830101529392505050565b80356147f881615cad565b803560ff811681146147f857600080fd5b6000602082840312156151d2578081fd5b813561231381615cad565b6000602082840312156151ee578081fd5b815161231381615cad565b6000806000806080858703121561520e578283fd5b843561521981615cad565b9350602085013561522981615cad565b925060408501359150606085013567ffffffffffffffff81111561524b578182fd5b8501601f8101871361525b578182fd5b61526a8782356020840161514d565b91505092959194509250565b60008060408385031215615288578182fd5b825161529381615cad565b6020939093015192949293505050565b6000806000606084860312156152b7578283fd5b83356152c281615cad565b95602085013595506040909401359392505050565b600080600080600080600060e0888a0312156152f1578283fd5b87356152fc81615cad565b9650602088013595506040880135945060608801359350608088013561532181615cc5565b9699959850939692959460a0840135945060c09093013592915050565b60008060008060008060008060008060006101608c8e03121561535f578384fd5b8b3561536a81615cad565b9a5060208c0135995060408c0135985060608c0135975060808c013561538f81615cc5565b965060a08c0135955060c08c0135945060e08c013593506153b36101008d016151b0565b92506101208c013591506101408c013590509295989b509295989b9093969950565b600080600080600080600060e0888a0312156153ef578081fd5b87356153fa81615cad565b965060208801359550604088013594506060880135935061541d608089016151b0565b925060a0880135915060c0880135905092959891949750929550565b6000806040838503121561544b578182fd5b823567ffffffffffffffff80821115615462578384fd5b818501915085601f830112615475578384fd5b813560208282111561548957615489615c97565b8160051b925061549a818401615a3c565b8281528181019085830185870184018b10156154b4578889fd5b8896505b848710156154d65780358352600196909601959183019183016154b8565b5096506154e690508782016151a5565b9450505050509250929050565b600060208284031215615504578081fd5b815161231381615cc5565b600060208284031215615520578081fd5b5035919050565b60008060408385031215615539578182fd5b82359150602083013561554b81615cad565b809150509250929050565b60008060408385031215615568578182fd5b82359150602083013561554b81615cc5565b6000806040838503121561558c578182fd5b50508035926020909101359150565b60008060008060008060c087890312156155b3578384fd5b8635955060208701359450604087013593506155d1606088016151b0565b92506080870135915060a087013590509295509295509295565b600080600080600060a08688031215615602578283fd5b8535945060208601359350615619604087016151b0565b94979396509394606081013594506080013592915050565b600060208284031215615642578081fd5b81356001600160e01b031981168114612313578182fd5b60006020828403121561566a578081fd5b813567ffffffffffffffff811115615680578182fd5b8201601f81018413615690578182fd5b6149ae8482356020840161514d565b6000602082840312156156b0578081fd5b5051919050565b7f416363657373436f6e74726f6c3a206163636f756e74200000000000000000008152600083516156ef816017850160208801615bba565b7001034b99036b4b9b9b4b733903937b6329607d1b6017918401918201528351615720816028840160208801615bba565b01602801949350505050565b6001600160a01b0397881681529590961660208601526040850193909352606084019190915260ff16608083015260a082015260c081019190915260e00190565b602081526000825180602084015261578c816040850160208701615bba565b601f01601f19169190910160400192915050565b60208082526014908201527f5061757361626c653a206e6f7420706175736564000000000000000000000000604082015260600190565b60208082526044908201527f4d61726b6574706c616365206973206e6f7420616c6c6f77656420746f20776960408201527f7468647261772074686520726571756972656420616d6f756e74206f6620746f6060820152636b656e7360e01b608082015260a00190565b60208082526010908201526f14185d5cd8589b194e881c185d5cd95960821b604082015260600190565b60208082526021908201527f436f756c646e2774207472616e7366657220746f6b656e20746f2069737375656040820152603960f91b606082015260800190565b60208082526017908201527f63616c6c6572206973206e6f7420746865206f776e6572000000000000000000604082015260600190565b60208082526021908201527f436f756c646e2774207472616e7366657220746f6b656e20746f2073656c6c656040820152603960f91b606082015260800190565b6020808252603a908201527f4d61726b6574706c6163653a20636f756c646e2774206465647563742074686560408201527f2066696e6520666f72207468652061646d696e2077616c6c6574000000000000606082015260800190565b60208082526031908201527f4d61726b6574706c616365206973206e6f7420616c6c6f77656420746f20747260408201527030b739b332b9103cb7bab9103a37b5b2b760791b606082015260800190565b60208082526044908201527f537461727466694d61726b6574706c6163653a2050726963652065786365656460408201527f656420746865206361702e20596f75206e65656420746f2067657420617070726060820152631bdd995960e21b608082015260a00190565b604051601f8201601f1916810167ffffffffffffffff81118282101715615a6557615a65615c97565b604052919050565b60008219821115615a8057615a80615c6b565b500190565b600082615a9457615a94615c81565b500490565b600181815b80851115615ad4578160001904821115615aba57615aba615c6b565b80851615615ac757918102915b93841c9390800290615a9e565b509250929050565b60006123138383600082615af2575060016109ea565b81615aff575060006109ea565b8160018114615b155760028114615b1f57615b3b565b60019150506109ea565b60ff841115615b3057615b30615c6b565b50506001821b6109ea565b5060208310610133831016604e8410600b8410161715615b5e575081810a6109ea565b615b688383615a99565b8060001904821115615b7c57615b7c615c6b565b029392505050565b6000816000190483118215151615615b9e57615b9e615c6b565b500290565b600082821015615bb557615bb5615c6b565b500390565b60005b83811015615bd5578181015183820152602001615bbd565b83811115615be4576000848401525b50505050565b600081615bf957615bf9615c6b565b506000190190565b600181811c90821680615c1557607f821691505b60208210811415615c3657634e487b7160e01b600052602260045260246000fd5b50919050565b6000600019821415615c5057615c50615c6b565b5060010190565b600082615c6657615c66615c81565b500690565b634e487b7160e01b600052601160045260246000fd5b634e487b7160e01b600052601260045260246000fd5b634e487b7160e01b600052604160045260246000fd5b6001600160a01b0381168114615cc257600080fd5b50565b8015158114615cc257600080fdfeb19546dff01e856fb3f010c267a7b1c60363cf8a4664e21cc89c26224620214ea2646970667358221220e16c9fdf58e3d57531c8ac25a0483909dab2d2685d4ee8c63970cb8f3c250c8864736f6c63430008040033",
  "devdoc": {
    "kind": "dev",
    "methods": {
      "addOffer(address,uint256,uint256)": {
        "details": "only called by `owner` to change the name and `whenPaused`",
        "params": {
          "_fee": "marketplace reputation contract",
          "feeBase": "marketplace reputation contract",
          "wallet": "marketplace reputation contract"
        }
      },
      "approveDeal(bytes32,bool)": {
        "details": "only called by `owner` to approve listing that exceeded cap after doing the KYC",
        "params": {
          "listingId": "listing Id",
          "status": "kyc status emit HandelKyc"
        }
      },
      "bid(bytes32,uint256)": {
        "details": "called by dapps to bid on an auction",
        "params": {
          "bidPrice": "price emit : BidOnAuction",
          "listingId": "listing id"
        }
      },
      "buyNow(bytes32)": {
        "details": "called by buyer through dapps when s/he wants to buy a gevin NFT  token from the marketplace",
        "params": {
          "listingId": "listing id emit : BuyNow"
        }
      },
      "changeFees(uint256,uint256)": {
        "details": "the formula is (fees * 1000)/base",
        "params": {
          "donomirator": "the new basefees value to be stored",
          "numerator": "the new fees value to be stored"
        },
        "returns": {
          "percentage": "the value of the state variable `_feeFraction`"
        }
      },
      "changeListInsuranceAmount(uint256,uint256)": {
        "details": "the formula is (fees * 1000)/base",
        "params": {
          "donomirator": "the new basefees value to be stored",
          "numerator": "the new fees value to be stored"
        },
        "returns": {
          "percentage": "the value of the state variable `_feeFraction`"
        }
      },
      "changeMarketPlaceName(string)": {
        "details": "only called by `owner` to change the name and `whenPaused`",
        "params": {
          "_name": "marketplace new name"
        }
      },
      "changeUtilityToken(address)": {
        "details": "only called by `owner` to change the name and `whenPaused`",
        "params": {
          "_token": "token address"
        }
      },
      "createAuction(address,uint256,uint256,uint256,bool,uint256,uint256)": {
        "details": "called by dapps to create  new auction",
        "params": {
          "duration": "when auction ends",
          "insuranceAmount": "amount of token locked as qualify for any bidder wants bid",
          "isSellForEnabled": "true if auction enable direct selling",
          "listingPrice": "price  to sell with if isSellForEnabled=true",
          "minimumBid": "minimum Bid price",
          "token": "nft contract address",
          "tokenId": "token id"
        },
        "returns": {
          "listId": "listing id**  Users who want to list their NFT as auction for bidding with/without allowing direct sale. - user MUST approve contract to transfer the NFT      - Time to live auction duration must be more than 12 hours. - if `sellForEnabled` is true, `sellFor` value must be more than zero - auction creator MUST specify the insurance amounts for any bidder to bid with considering that it MUST NOT be less that 1 USDT value in STFI. **  emit : CreateAuction"
        }
      },
      "createAuctionWithPermit(address,uint256,uint256,uint256,bool,uint256,uint256,uint256,uint8,bytes32,bytes32)": {
        "details": "called by dapps to create  new auction",
        "params": {
          "deadline": ":  must be timestamp in future .",
          "duration": "when auction ends",
          "insuranceAmount": "amount of token locked as qualify for any bidder wants bid",
          "isSellForEnabled": "true if auction enable direct selling",
          "listingPrice": "min price",
          "minimumBid": "price  to sell with if isSellForEnabled=true",
          "r": ": normal output of an ECDSA signature",
          "s": ": normal output of an ECDSA signature `v`, `r` and `s` must be valid `secp256k1` signature from `owner`  or 'approved for all' account over EIP712-formatted function arguments.",
          "token": "nft contract address",
          "tokenId": "token id",
          "v": "needed to recover the public key"
        },
        "returns": {
          "listId": "listing id**  Users who want to list their NFT as auction for bidding with/without allowing direct sale call this function without sending prior transaction to `approve` the marketplace to transfer NFT. This function call`permit` [`eip-2612`] then call [`createAuction`] internally.**"
        }
      },
      "deList(bytes32)": {
        "details": "called by seller through dapps when s/he wants to remove this token from the marketplace",
        "params": {
          "listingId": "listing id emit DeListOffMarketplace"
        }
      },
      "disputeAuction(bytes32)": {
        "details": "called by seller through dapps when his/her auction is  not fulfilled after 3 days",
        "params": {
          "listingId": "listing id"
        },
        "returns": {
          "_token": "nft contract address",
          "tokenId": "token id emit : DisputeAuction"
        }
      },
      "fulfillBid(bytes32)": {
        "details": "called by bidder through dapps when bidder win an auction and wants to pay to get the NFT",
        "params": {
          "listingId": "listing id"
        }
      },
      "fulfillBidWithPermit(bytes32,uint256,uint8,bytes32,bytes32)": {
        "details": "called by bidder through dapps when bidder win an auction and wants to pay to get the NFT",
        "params": {
          "deadline": ":  must be timestamp in future .",
          "listingId": "listing id",
          "r": ": normal output of an ECDSA signature",
          "s": ": normal output of an ECDSA signature `v`, `r` and `s` must be valid `secp256k1` signature from `owner`  or 'approved for all' account over EIP712-formatted function arguments.",
          "v": "needed to recover the public key"
        }
      },
      "getAuctionBidDetails(bytes32,address)": {
        "details": "called by dapp or any contract to get info about a given bidder in a listing",
        "params": {
          "bidder": "bidder address",
          "listingId": "listing id"
        },
        "returns": {
          "bidId": "bid id",
          "bidPrice": "bid price",
          "isPurchased": "true if purchased",
          "isStakeReserved": "true if the reserve is free"
        }
      },
      "getListingDetails(bytes32)": {
        "details": "called by dapp or any contract to get info about a gevin listing",
        "params": {
          "listingId": "listing id"
        },
        "returns": {
          "buyer": " nft buyer address",
          "disputeTime": " when auction creator can dispute and take the insurance from the bad actor 'bidWinner'",
          "insuranceAmount": " amount of token locked as qualify for any bidder wants bid",
          "listingPrice": "initial price or minimum price that the seller can accept",
          "listingType": "in number { Auction,FixedPrice,AuctionForSale}",
          "minimumBid": "if sell for enabled for auction, this should be more than zero",
          "releaseTime": " when auction ends",
          "seller": " nft seller address",
          "status": "in number {Sold,OnMarket, onAuction,Canceled}",
          "tokenAddress": " nft contract address",
          "tokenId": "NFT token Id"
        }
      },
      "getRoleAdmin(bytes32)": {
        "details": "Returns the admin role that controls `role`. See {grantRole} and {revokeRole}. To change a role's admin, use {_setRoleAdmin}."
      },
      "getRoleMember(bytes32,uint256)": {
        "details": "Returns one of the accounts that have `role`. `index` must be a value between 0 and {getRoleMemberCount}, non-inclusive. Role bearers are not sorted in any particular way, and their ordering may change at any point. WARNING: When using {getRoleMember} and {getRoleMemberCount}, make sure you perform all queries on the same block. See the following https://forum.openzeppelin.com/t/iterating-over-elements-on-enumerableset-in-openzeppelin-contracts/2296[forum post] for more information."
      },
      "getRoleMemberCount(bytes32)": {
        "details": "Returns the number of accounts that have `role`. Can be used together with {getRoleMember} to enumerate all bearers of a role."
      },
      "getServiceFee()": {
        "returns": {
          "_0": "the value of the state variable `_feeFraction`"
        }
      },
      "getStakeAllowance(address)": {
        "details": "this function calls StartFiStakes contract to get the total staked tokens for 'user' an substract the current reserves to get the total number of free tokens",
        "params": {
          "staker": ": participant address"
        },
        "returns": {
          "_0": "allowed number of tokens that this contract can transfer from the owner account"
        }
      },
      "getUserReserved(address)": {
        "details": "called by the dapp to get the user stakes on hold",
        "params": {
          "user": ": participant address"
        },
        "returns": {
          "_0": "the value of user reserves"
        }
      },
      "grantRole(bytes32,address)": {
        "details": "Overload {grantRole} to track enumerable memberships"
      },
      "hasRole(bytes32,address)": {
        "details": "Returns `true` if `account` has been granted `role`."
      },
      "listOnMarketplace(address,uint256,uint256)": {
        "details": "called by dapps to list new item",
        "params": {
          "listingPrice": "min price** Users who want to list their NFT for sale with fixed price call this function  - user MUST approve contract to transfer the NFT      - user MUST have enough stakes used as insurance to not delist the item before the duration stated in the smart contract , if they decided to delist before that time, they lose this insurance. the required insurance amount is a percentage  based on the listing price.**  emit : ListOnMarketplace",
          "token": "nft contract address",
          "tokenId": "token id"
        }
      },
      "listOnMarketplaceWithPermit(address,uint256,uint256,uint256,uint8,bytes32,bytes32)": {
        "details": "called by dapps to list new item",
        "params": {
          "deadline": ":  must be timestamp in future .",
          "listingPrice": "min price",
          "r": ": normal output of an ECDSA signature",
          "s": ": normal output of an ECDSA signature `v`, `r` and `s` must be valid `secp256k1` signature from `owner`  or 'approved for all' account over EIP712-formatted function arguments.** Users who want to list their NFT for sale with fixed price call this function without sending prior transaction to `approve` the marketplace to transfer NFT. This function call`permit` [`eip-2612`] then call [`listOnMarketplace`] internally**",
          "token": "nft contract address",
          "tokenId": "token id",
          "v": "needed to recover the public key"
        }
      },
      "marketPlaceName()": {
        "returns": {
          "_0": "market place name"
        }
      },
      "migrateEmergency(bytes32)": {
        "details": "called by seller through dapps when s/he wants to remove this token from the marketplace",
        "params": {
          "listingId": "listing id emit : MigrateEmergency"
        }
      },
      "onERC721Received(address,address,uint256,bytes)": {
        "details": "See {IERC721Receiver-onERC721Received}. Always returns `IERC721Receiver.onERC721Received.selector`."
      },
      "pause()": {
        "details": "Pauses contract. Requirements: - the caller must be the owner."
      },
      "paused()": {
        "details": "Returns true if the contract is paused, and false otherwise."
      },
      "releaseListingReserves(bytes32,address)": {
        "details": "called by user through dapps when his/her wants to release his reserved tokens which are no longer in active auction .",
        "params": {
          "bidder": "bidder address emit : UserReservesRelease",
          "listingId": "listing idbehalf"
        }
      },
      "renounceRole(bytes32,address)": {
        "details": "Overload {renounceRole} to track enumerable memberships"
      },
      "revokeRole(bytes32,address)": {
        "details": "Overload {revokeRole} to track enumerable memberships"
      },
      "setPrice(uint256)": {
        "details": "only called by  `priceFeeds` to update the STFI/usdt price",
        "params": {
          "_stfiPrice": "the new stfi price per usdt"
        }
      },
      "setUsdCap(uint256)": {
        "details": "only called by `owner` to update the cap",
        "params": {
          "usdCap_": "the new fees value to be stored"
        }
      },
      "supportsInterface(bytes4)": {
        "details": "See {IERC165-supportsInterface}."
      },
      "unpause()": {
        "details": "Unpauses contract. Requirements: - the caller must be the owner."
      },
      "updateAdminWallet(address)": {
        "details": "update the admin wallet address. Requirements: - the caller must be the admin. - the `newWallet` must not be empty."
      },
      "winnerBid(bytes32)": {
        "details": "called by dapp or any contract to get info about a winner bid",
        "params": {
          "listingId": "listing id"
        },
        "returns": {
          "bidId": "bid id",
          "bidPrice": "bid price",
          "bidder": "bidder address",
          "isPurchased": "true if purchased",
          "isStakeReserved": "true if the reserve is free"
        }
      }
    },
    "title": "StartFi MarketPlace desc  marketplace with all functions for item selling by either ceating auction or selling with fixed prices, the contract auto transfer orginal NFT issuer's shares",
    "version": 1
  },
  "userdoc": {
    "kind": "user",
    "methods": {
      "approveDeal(bytes32,bool)": {
        "notice": "STartfi is regulated entity in Estonia and regulation compliance is forced in our smart contract, KYC is need first and any purchase transaction with price exceed the cap can't be proceed unless this deal is approved by Startfi by calling this function - called only by account in owner role"
      },
      "bid(bytes32,uint256)": {
        "notice": "** Users who interested in a certain auction, can bid on it by calling this   function.Bidder don't pay / transfer SFTI on bidding. Only when win the auction [`the auction is ended and this bidder is the last one to bid`], bidder pays by calling [`fulfillBid`] OR [`buyNowWithPermit`] - user MUST have enough stakes used as insurance; grantee and punishment mechanism for malicious bidder. If the bidder don't pay in the   - Bidders can bid as much as they wants , insurance is taken once in the first participation  - the bid price MUST be more than the last bid , if this is the first bid, the bid price MUST be more than or equal the minimum bid the auction creator state - Users CAN NOT bid on auction after auction time is over**"
      },
      "buyNow(bytes32)": {
        "notice": "**  Users who want to buy an NFT from the marketplace whether it's fixed price or auction with `sellForEnabled = true` can call this function. - User MUST approve contract to transfer the STFI token , MUST NOT be less than the price. - If the bid price exceed the cap, STartfi is regulated entity in Estonia and regulation compliance is forced in our smart contract, KYC is need first and the transaction can't be proceed unless this deal is approved by Startfi by calling [`approveDeal`]**if auction, the seller must enabe forSale. prices should be more than or equal the listing price"
      },
      "changeFees(uint256,uint256)": {
        "notice": "only called by `owner` to change the name and `whenPaused`"
      },
      "changeListInsuranceAmount(uint256,uint256)": {
        "notice": "only called by `owner` to change the name and `whenPaused`"
      },
      "deList(bytes32)": {
        "notice": "** Users who no longer want to keep their NFT in our marketplace can easly call this function to get their NFT back. Unsuccessful auction creators need to call it as well to get their nft back with no cost as well as the item added via [`listOnMarketplace`] or [`listOnMarketplaceWithPermit`]   - Only buyers can delist their own items  - Auction items can't delisted until the auction ended**auction can't be canceled , if seller delist time on sale on maretplace before time to delist, he will pay a fine"
      },
      "disputeAuction(bytes32)": {
        "notice": "**  If the winning bidder didn't pay within the time range stated in te contract `fulfillDuration`, Auction creator calls this function to get the nft back and punish the malicious bidder by taking the insurance (50% goes to the auction staking balance, 50% goes to the platform) - Current time  MUST be more than or equal the `disputeTime` for this auction      - Only auction Creator can dispute. - If the bid price exceed the cap, STartfi is regulated entity in Estonia and regulation compliance is forced in our smart contract, and the auction is approved , auction creator can dispute, if it's not approved yet, auction creator can not. - [`buyNow`]: Users who want to buy an NFT from the marketplace whether it's fixed price or auction with `sellForEnabled = true` can call this function. - User MUST approve contract to transfer the STFI token , MUST NOT be less than the price. - If the bid price exceed the cap, STartfi is regulated entity in Estonia and regulation compliance is forced in our smart contract, KYC is need first and the transaction can't be proceed unless this deal is approved by Startfi by calling [`approveDeal`]**after auction with winner bid . bidder didn't call fullfile within 3 days of auction closing  auction owner can call dispute to delist and punish the spam winner bidder fine is share between the plateform and the auction owner"
      },
      "fulfillBid(bytes32)": {
        "notice": "**  After the end of the Auction, the winner bidder , the last bidder call this function within a certain duration to pay and get the NFT - user MUST approve contract to transfer the STFI tokens , MUST NOT be less than the bid price      - Winner bidder can call it within the `fulfillDuration` right after the end of the auction. - Winner bider can call it even after the its end as long as the auction reactor has not called dispute. the winner bidder can have chat with the seller  and if the auction creator thinks the winner bidder is not a malicious bidder,  they might agree to wait so we don't want to prevent the scenario where the can see eye to eye. At the end the auction creator wants to buy the NFT and get the price - If the bid price exceed the cap, STartfi is regulated entity in Estonia and regulation compliance is forced in our smart contract, KYC is need first and the transaction can't be proceed unless this deal is approved by Startfi by calling [`approveDeal`] ** emit : FulfillBid"
      },
      "fulfillBidWithPermit(bytes32,uint256,uint8,bytes32,bytes32)": {
        "notice": "**After the end of the Auction, the winner bidder , the last bidder call this function within a certain duration to pay and get the NFT, they call this function without sending prior transaction to `approve` the marketplace to transfer STFI. This function call`permit` [`eip-2612`] then call [`fulfillBid`] internally.** "
      },
      "migrateEmergency(bytes32)": {
        "notice": "** Only when contract is paused, users can safely delist their token with no cost. Startfi team might have to pause the contract to make any update on the protocol terms or in emergency if high risk vulnerability is discovered to protect the users.     - Only buyers can delist their own items **called only when puased , let user to migrate for release if they don't agree on our new terms"
      },
      "releaseListingReserves(bytes32,address)": {
        "notice": "** users need to stake STFI to bid in the marketplace , these tokens needs to set release if the auction is no longer active and user can use these stakes to bid  thus, function to release tokens reserved to listing of market   in order to let user batch release many lisiting , they can call `releaseBatchReserves` called by user/ third actors only when s/he wants rather than force the check & updates with every transaction which might be very costly . -  ** called by user or on behalf of the user only when s/he wants rather than force the check & updates with every transaction which might be very costly ."
      }
    },
    "version": 1
  },
  "storageLayout": {
    "storage": [
      {
        "astId": 24,
        "contract": "contracts/StartFiMarketPlace.sol:StartFiMarketPlace",
        "label": "_roles",
        "offset": 0,
        "slot": "0",
        "type": "t_mapping(t_bytes32,t_struct(RoleData)19_storage)"
      },
      {
        "astId": 325,
        "contract": "contracts/StartFiMarketPlace.sol:StartFiMarketPlace",
        "label": "_roleMembers",
        "offset": 0,
        "slot": "1",
        "type": "t_mapping(t_bytes32,t_struct(AddressSet)4004_storage)"
      },
      {
        "astId": 705,
        "contract": "contracts/StartFiMarketPlace.sol:StartFiMarketPlace",
        "label": "_paused",
        "offset": 0,
        "slot": "2",
        "type": "t_bool"
      },
      {
        "astId": 7387,
        "contract": "contracts/StartFiMarketPlace.sol:StartFiMarketPlace",
        "label": "_adminWallet",
        "offset": 1,
        "slot": "2",
        "type": "t_address"
      },
      {
        "astId": 7389,
        "contract": "contracts/StartFiMarketPlace.sol:StartFiMarketPlace",
        "label": "fulfillDuration",
        "offset": 0,
        "slot": "3",
        "type": "t_uint256"
      },
      {
        "astId": 7391,
        "contract": "contracts/StartFiMarketPlace.sol:StartFiMarketPlace",
        "label": "unpauseTimestamp",
        "offset": 0,
        "slot": "4",
        "type": "t_uint256"
      },
      {
        "astId": 4716,
        "contract": "contracts/StartFiMarketPlace.sol:StartFiMarketPlace",
        "label": "_marketPlaceName",
        "offset": 0,
        "slot": "5",
        "type": "t_string_storage"
      },
      {
        "astId": 7686,
        "contract": "contracts/StartFiMarketPlace.sol:StartFiMarketPlace",
        "label": "_paymentToken",
        "offset": 0,
        "slot": "6",
        "type": "t_address"
      },
      {
        "astId": 7688,
        "contract": "contracts/StartFiMarketPlace.sol:StartFiMarketPlace",
        "label": "_feeFraction",
        "offset": 0,
        "slot": "7",
        "type": "t_uint256"
      },
      {
        "astId": 7690,
        "contract": "contracts/StartFiMarketPlace.sol:StartFiMarketPlace",
        "label": "_feeBase",
        "offset": 0,
        "slot": "8",
        "type": "t_uint256"
      },
      {
        "astId": 7692,
        "contract": "contracts/StartFiMarketPlace.sol:StartFiMarketPlace",
        "label": "stakeContract",
        "offset": 0,
        "slot": "9",
        "type": "t_address"
      },
      {
        "astId": 7694,
        "contract": "contracts/StartFiMarketPlace.sol:StartFiMarketPlace",
        "label": "listqualifyPercentage",
        "offset": 0,
        "slot": "10",
        "type": "t_uint256"
      },
      {
        "astId": 7696,
        "contract": "contracts/StartFiMarketPlace.sol:StartFiMarketPlace",
        "label": "listqualifyPercentageBase",
        "offset": 0,
        "slot": "11",
        "type": "t_uint256"
      },
      {
        "astId": 7700,
        "contract": "contracts/StartFiMarketPlace.sol:StartFiMarketPlace",
        "label": "userReserves",
        "offset": 0,
        "slot": "12",
        "type": "t_mapping(t_address,t_uint256)"
      },
      {
        "astId": 7571,
        "contract": "contracts/StartFiMarketPlace.sol:StartFiMarketPlace",
        "label": "_usdCap",
        "offset": 0,
        "slot": "13",
        "type": "t_uint256"
      },
      {
        "astId": 7573,
        "contract": "contracts/StartFiMarketPlace.sol:StartFiMarketPlace",
        "label": "_stfiCap",
        "offset": 0,
        "slot": "14",
        "type": "t_uint256"
      },
      {
        "astId": 7575,
        "contract": "contracts/StartFiMarketPlace.sol:StartFiMarketPlace",
        "label": "_stfiUsdt",
        "offset": 0,
        "slot": "15",
        "type": "t_uint256"
      },
      {
        "astId": 7579,
        "contract": "contracts/StartFiMarketPlace.sol:StartFiMarketPlace",
        "label": "kycedDeals",
        "offset": 0,
        "slot": "16",
        "type": "t_mapping(t_bytes32,t_bool)"
      },
      {
        "astId": 7928,
        "contract": "contracts/StartFiMarketPlace.sol:StartFiMarketPlace",
        "label": "offerTerms",
        "offset": 0,
        "slot": "17",
        "type": "t_mapping(t_address,t_struct(conditions)7933_storage)"
      },
      {
        "astId": 4902,
        "contract": "contracts/StartFiMarketPlace.sol:StartFiMarketPlace",
        "label": "listings",
        "offset": 0,
        "slot": "18",
        "type": "t_array(t_bytes32)dyn_storage"
      },
      {
        "astId": 4944,
        "contract": "contracts/StartFiMarketPlace.sol:StartFiMarketPlace",
        "label": "_tokenListings",
        "offset": 0,
        "slot": "19",
        "type": "t_mapping(t_bytes32,t_struct(Listing)4931_storage)"
      },
      {
        "astId": 4779,
        "contract": "contracts/StartFiMarketPlace.sol:StartFiMarketPlace",
        "label": "listingBids",
        "offset": 0,
        "slot": "20",
        "type": "t_mapping(t_bytes32,t_mapping(t_address,t_struct(Bid)4767_storage))"
      },
      {
        "astId": 4784,
        "contract": "contracts/StartFiMarketPlace.sol:StartFiMarketPlace",
        "label": "bidToListing",
        "offset": 0,
        "slot": "21",
        "type": "t_mapping(t_bytes32,t_struct(WinningBid)4772_storage)"
      },
      {
        "astId": 5074,
        "contract": "contracts/StartFiMarketPlace.sol:StartFiMarketPlace",
        "label": "listingCounter",
        "offset": 0,
        "slot": "22",
        "type": "t_uint256"
      }
    ],
    "types": {
      "t_address": {
        "encoding": "inplace",
        "label": "address",
        "numberOfBytes": "20"
      },
      "t_array(t_bytes32)dyn_storage": {
        "base": "t_bytes32",
        "encoding": "dynamic_array",
        "label": "bytes32[]",
        "numberOfBytes": "32"
      },
      "t_bool": {
        "encoding": "inplace",
        "label": "bool",
        "numberOfBytes": "1"
      },
      "t_bytes32": {
        "encoding": "inplace",
        "label": "bytes32",
        "numberOfBytes": "32"
      },
      "t_enum(ListingStatus)4939": {
        "encoding": "inplace",
        "label": "enum MarketPlaceListing.ListingStatus",
        "numberOfBytes": "1"
      },
      "t_enum(ListingType)4935": {
        "encoding": "inplace",
        "label": "enum MarketPlaceListing.ListingType",
        "numberOfBytes": "1"
      },
      "t_mapping(t_address,t_bool)": {
        "encoding": "mapping",
        "key": "t_address",
        "label": "mapping(address => bool)",
        "numberOfBytes": "32",
        "value": "t_bool"
      },
      "t_mapping(t_address,t_struct(Bid)4767_storage)": {
        "encoding": "mapping",
        "key": "t_address",
        "label": "mapping(address => struct MarketPlaceBid.Bid)",
        "numberOfBytes": "32",
        "value": "t_struct(Bid)4767_storage"
      },
      "t_mapping(t_address,t_struct(conditions)7933_storage)": {
        "encoding": "mapping",
        "key": "t_address",
        "label": "mapping(address => struct StartFiMarketPlaceSpecialOffer.conditions)",
        "numberOfBytes": "32",
        "value": "t_struct(conditions)7933_storage"
      },
      "t_mapping(t_address,t_uint256)": {
        "encoding": "mapping",
        "key": "t_address",
        "label": "mapping(address => uint256)",
        "numberOfBytes": "32",
        "value": "t_uint256"
      },
      "t_mapping(t_bytes32,t_bool)": {
        "encoding": "mapping",
        "key": "t_bytes32",
        "label": "mapping(bytes32 => bool)",
        "numberOfBytes": "32",
        "value": "t_bool"
      },
      "t_mapping(t_bytes32,t_mapping(t_address,t_struct(Bid)4767_storage))": {
        "encoding": "mapping",
        "key": "t_bytes32",
        "label": "mapping(bytes32 => mapping(address => struct MarketPlaceBid.Bid))",
        "numberOfBytes": "32",
        "value": "t_mapping(t_address,t_struct(Bid)4767_storage)"
      },
      "t_mapping(t_bytes32,t_struct(AddressSet)4004_storage)": {
        "encoding": "mapping",
        "key": "t_bytes32",
        "label": "mapping(bytes32 => struct EnumerableSet.AddressSet)",
        "numberOfBytes": "32",
        "value": "t_struct(AddressSet)4004_storage"
      },
      "t_mapping(t_bytes32,t_struct(Listing)4931_storage)": {
        "encoding": "mapping",
        "key": "t_bytes32",
        "label": "mapping(bytes32 => struct MarketPlaceListing.Listing)",
        "numberOfBytes": "32",
        "value": "t_struct(Listing)4931_storage"
      },
      "t_mapping(t_bytes32,t_struct(RoleData)19_storage)": {
        "encoding": "mapping",
        "key": "t_bytes32",
        "label": "mapping(bytes32 => struct AccessControl.RoleData)",
        "numberOfBytes": "32",
        "value": "t_struct(RoleData)19_storage"
      },
      "t_mapping(t_bytes32,t_struct(WinningBid)4772_storage)": {
        "encoding": "mapping",
        "key": "t_bytes32",
        "label": "mapping(bytes32 => struct MarketPlaceBid.WinningBid)",
        "numberOfBytes": "32",
        "value": "t_struct(WinningBid)4772_storage"
      },
      "t_mapping(t_bytes32,t_uint256)": {
        "encoding": "mapping",
        "key": "t_bytes32",
        "label": "mapping(bytes32 => uint256)",
        "numberOfBytes": "32",
        "value": "t_uint256"
      },
      "t_string_storage": {
        "encoding": "bytes",
        "label": "string",
        "numberOfBytes": "32"
      },
      "t_struct(AddressSet)4004_storage": {
        "encoding": "inplace",
        "label": "struct EnumerableSet.AddressSet",
        "members": [
          {
            "astId": 4003,
            "contract": "contracts/StartFiMarketPlace.sol:StartFiMarketPlace",
            "label": "_inner",
            "offset": 0,
            "slot": "0",
            "type": "t_struct(Set)3703_storage"
          }
        ],
        "numberOfBytes": "64"
      },
      "t_struct(Bid)4767_storage": {
        "encoding": "inplace",
        "label": "struct MarketPlaceBid.Bid",
        "members": [
          {
            "astId": 4760,
            "contract": "contracts/StartFiMarketPlace.sol:StartFiMarketPlace",
            "label": "bidId",
            "offset": 0,
            "slot": "0",
            "type": "t_bytes32"
          },
          {
            "astId": 4762,
            "contract": "contracts/StartFiMarketPlace.sol:StartFiMarketPlace",
            "label": "bidPrice",
            "offset": 0,
            "slot": "1",
            "type": "t_uint256"
          },
          {
            "astId": 4764,
            "contract": "contracts/StartFiMarketPlace.sol:StartFiMarketPlace",
            "label": "isPurchased",
            "offset": 0,
            "slot": "2",
            "type": "t_bool"
          },
          {
            "astId": 4766,
            "contract": "contracts/StartFiMarketPlace.sol:StartFiMarketPlace",
            "label": "isStakeReserved",
            "offset": 1,
            "slot": "2",
            "type": "t_bool"
          }
        ],
        "numberOfBytes": "96"
      },
      "t_struct(Listing)4931_storage": {
        "encoding": "inplace",
        "label": "struct MarketPlaceListing.Listing",
        "members": [
          {
            "astId": 4908,
            "contract": "contracts/StartFiMarketPlace.sol:StartFiMarketPlace",
            "label": "token",
            "offset": 0,
            "slot": "0",
            "type": "t_address"
          },
          {
            "astId": 4910,
            "contract": "contracts/StartFiMarketPlace.sol:StartFiMarketPlace",
            "label": "seller",
            "offset": 0,
            "slot": "1",
            "type": "t_address"
          },
          {
            "astId": 4912,
            "contract": "contracts/StartFiMarketPlace.sol:StartFiMarketPlace",
            "label": "buyer",
            "offset": 0,
            "slot": "2",
            "type": "t_address"
          },
          {
            "astId": 4914,
            "contract": "contracts/StartFiMarketPlace.sol:StartFiMarketPlace",
            "label": "tokenId",
            "offset": 0,
            "slot": "3",
            "type": "t_uint256"
          },
          {
            "astId": 4916,
            "contract": "contracts/StartFiMarketPlace.sol:StartFiMarketPlace",
            "label": "listingPrice",
            "offset": 0,
            "slot": "4",
            "type": "t_uint256"
          },
          {
            "astId": 4918,
            "contract": "contracts/StartFiMarketPlace.sol:StartFiMarketPlace",
            "label": "releaseTime",
            "offset": 0,
            "slot": "5",
            "type": "t_uint256"
          },
          {
            "astId": 4920,
            "contract": "contracts/StartFiMarketPlace.sol:StartFiMarketPlace",
            "label": "disputeTime",
            "offset": 0,
            "slot": "6",
            "type": "t_uint256"
          },
          {
            "astId": 4922,
            "contract": "contracts/StartFiMarketPlace.sol:StartFiMarketPlace",
            "label": "insuranceAmount",
            "offset": 0,
            "slot": "7",
            "type": "t_uint256"
          },
          {
            "astId": 4924,
            "contract": "contracts/StartFiMarketPlace.sol:StartFiMarketPlace",
            "label": "minimumBid",
            "offset": 0,
            "slot": "8",
            "type": "t_uint256"
          },
          {
            "astId": 4927,
            "contract": "contracts/StartFiMarketPlace.sol:StartFiMarketPlace",
            "label": "listingType",
            "offset": 0,
            "slot": "9",
            "type": "t_enum(ListingType)4935"
          },
          {
            "astId": 4930,
            "contract": "contracts/StartFiMarketPlace.sol:StartFiMarketPlace",
            "label": "status",
            "offset": 1,
            "slot": "9",
            "type": "t_enum(ListingStatus)4939"
          }
        ],
        "numberOfBytes": "320"
      },
      "t_struct(RoleData)19_storage": {
        "encoding": "inplace",
        "label": "struct AccessControl.RoleData",
        "members": [
          {
            "astId": 16,
            "contract": "contracts/StartFiMarketPlace.sol:StartFiMarketPlace",
            "label": "members",
            "offset": 0,
            "slot": "0",
            "type": "t_mapping(t_address,t_bool)"
          },
          {
            "astId": 18,
            "contract": "contracts/StartFiMarketPlace.sol:StartFiMarketPlace",
            "label": "adminRole",
            "offset": 0,
            "slot": "1",
            "type": "t_bytes32"
          }
        ],
        "numberOfBytes": "64"
      },
      "t_struct(Set)3703_storage": {
        "encoding": "inplace",
        "label": "struct EnumerableSet.Set",
        "members": [
          {
            "astId": 3698,
            "contract": "contracts/StartFiMarketPlace.sol:StartFiMarketPlace",
            "label": "_values",
            "offset": 0,
            "slot": "0",
            "type": "t_array(t_bytes32)dyn_storage"
          },
          {
            "astId": 3702,
            "contract": "contracts/StartFiMarketPlace.sol:StartFiMarketPlace",
            "label": "_indexes",
            "offset": 0,
            "slot": "1",
            "type": "t_mapping(t_bytes32,t_uint256)"
          }
        ],
        "numberOfBytes": "64"
      },
      "t_struct(WinningBid)4772_storage": {
        "encoding": "inplace",
        "label": "struct MarketPlaceBid.WinningBid",
        "members": [
          {
            "astId": 4769,
            "contract": "contracts/StartFiMarketPlace.sol:StartFiMarketPlace",
            "label": "bidId",
            "offset": 0,
            "slot": "0",
            "type": "t_bytes32"
          },
          {
            "astId": 4771,
            "contract": "contracts/StartFiMarketPlace.sol:StartFiMarketPlace",
            "label": "bidder",
            "offset": 0,
            "slot": "1",
            "type": "t_address"
          }
        ],
        "numberOfBytes": "64"
      },
      "t_struct(conditions)7933_storage": {
        "encoding": "inplace",
        "label": "struct StartFiMarketPlaceSpecialOffer.conditions",
        "members": [
          {
            "astId": 7930,
            "contract": "contracts/StartFiMarketPlace.sol:StartFiMarketPlace",
            "label": "fee",
            "offset": 0,
            "slot": "0",
            "type": "t_uint256"
          },
          {
            "astId": 7932,
            "contract": "contracts/StartFiMarketPlace.sol:StartFiMarketPlace",
            "label": "feeBase",
            "offset": 0,
            "slot": "1",
            "type": "t_uint256"
          }
        ],
        "numberOfBytes": "64"
      },
      "t_uint256": {
        "encoding": "inplace",
        "label": "uint256",
        "numberOfBytes": "32"
      }
    }
  }
}